{
	"data": {
		"bytecode": {
			"linkReferences": {
				"IterableMapping.sol": {
					"IterableMapping": [
						{
							"length": 20,
							"start": 2630
						},
						{
							"length": 20,
							"start": 2832
						},
						{
							"length": 20,
							"start": 3037
						},
						{
							"length": 20,
							"start": 4042
						},
						{
							"length": 20,
							"start": 4172
						},
						{
							"length": 20,
							"start": 5074
						}
					]
				}
			},
			"object": "6080604052600680546001600160a01b031990811673cb1e72786a6eb3b44c2a2429e317c8a2462cfeb1179091556011805490911673b64d4270b8fe21e2704701df9c8401ff110ecffd1790553480156200005957600080fd5b50604080518082018252601481527f534849425f4469766964656e5f547261636b657200000000000000000000000060208083019182528351808501909452601584527f534849425f4469766964656e645f547261636b6572000000000000000000000090840152815191929183918391620000d8916003916200016e565b508051620000ee9060049060208401906200016e565b5050506000620001036200016a60201b60201c565b600580546001600160a01b0319166001600160a01b038316908117909155604051919250906000907f8be0079c531659141344cd1fd0a4f28419497f9722a3daafe3b4186f6b6457e0908290a35050603c6014555067016345785d8a000060155562000251565b3390565b8280546200017c9062000214565b90600052602060002090601f016020900481019282620001a05760008555620001eb565b82601f10620001bb57805160ff1916838001178555620001eb565b82800160010185558215620001eb579182015b82811115620001eb578251825591602001919060010190620001ce565b50620001f9929150620001fd565b5090565b5b80821115620001f95760008155600101620001fe565b600181811c908216806200022957607f821691505b602082108114156200024b57634e487b7160e01b600052602260045260246000fd5b50919050565b611fe980620002616000396000f3fe608060405234801561001057600080fd5b506004361061023d5760003560e01c8063715018a61161013b578063be10b614116100b8578063e98030c71161007c578063e98030c714610549578063ec4be22d1461055c578063f2fde38b1461056f578063fbcbc0f114610582578063ffb2c479146105955761023d565b8063be10b614146104d9578063dd62ed3e146104e2578063e24b85e71461051b578063e30443bc1461052e578063e7841ec0146105415761023d565b8063a457c2d7116100ff578063a457c2d714610464578063a8b9d24014610477578063a9059cbb1461048a578063aafd847a1461049d578063bc4c4b37146104c65761023d565b8063715018a61461042757806385a6b3ae1461042f5780638da5cb5b1461043857806391b89fba1461044957806395d89b411461045c5761023d565b806331e79db0116101c95780635e83fc1e1161018d5780635e83fc1e146103c95780636a474002146103da5780636d91196f146103e25780636f2789ec146103f557806370a08231146103fe5761023d565b806331e79db0146102fb57806339509351146103105780634b8feb4f146103235780634e7b827f1461034e5780635183d6fd146103715761023d565b8063226cfa3d11610210578063226cfa3d1461029d57806323b872dd146102bd57806327ce0147146102d05780633009a609146102e3578063313ce567146102ec5761023d565b806306fdde0314610242578063095ea7b31461026057806309bbedde1461028357806318160ddd14610295575b600080fd5b61024a6105c3565b6040516102579190611d3c565b60405180910390f35b61027361026e366004611cc5565b610655565b6040519015158152602001610257565b600b545b604051908152602001610257565b600254610287565b6102876102ab366004611be8565b60136020526000908152604090205481565b6102736102cb366004611c58565b61066c565b6102876102de366004611be8565b6106d5565b610287600f5481565b60405160098152602001610257565b61030e610309366004611be8565b610739565b005b61027361031e366004611cc5565b610869565b601154610336906001600160a01b031681565b6040516001600160a01b039091168152602001610257565b61027361035c366004611be8565b60126020526000908152604090205460ff1681565b61038461037f366004611d24565b61089f565b604080516001600160a01b0390991689526020890197909752958701949094526060860192909252608085015260a084015260c083015260e082015261010001610257565b6010546001600160a01b0316610336565b61030e610a11565b61030e6103f0366004611be8565b610aa5565b61028760145481565b61028761040c366004611be8565b6001600160a01b031660009081526020819052604090205490565b61030e610af1565b610287600a5481565b6005546001600160a01b0316610336565b610287610457366004611be8565b610b65565b61024a610b70565b610273610472366004611cc5565b610b7f565b610287610485366004611be8565b610bce565b610273610498366004611cc5565b610bfa565b6102876104ab366004611be8565b6001600160a01b031660009081526009602052604090205490565b6102736104d4366004611c98565b610c07565b61028760155481565b6102876104f0366004611c20565b6001600160a01b03918216600090815260016020908152604080832093909416825291909152205490565b600654610336906001600160a01b031681565b61030e61053c366004611cc5565b610cb5565b600f54610287565b61030e610557366004611d24565b610e3d565b61030e61056a366004611d24565b610f99565b61030e61057d366004611be8565b611050565b610384610590366004611be8565b61113b565b6105a86105a3366004611d24565b6112b3565b60408051938452602084019290925290820152606001610257565b6060600380546105d290611eb2565b80601f01602080910402602001604051908101604052809291908181526020018280546105fe90611eb2565b801561064b5780601f106106205761010080835404028352916020019161064b565b820191906000526020600020905b81548152906001019060200180831161062e57829003601f168201915b5050505050905090565b60006106623384846113dc565b5060015b92915050565b6000610679848484611500565b6106cb84336106c685604051806060016040528060288152602001611f67602891396001600160a01b038a166000908152600160209081526040808320338452909152902054919061155c565b6113dc565b5060019392505050565b6001600160a01b03811660009081526008602090815260408083205491839052822054600754600160801b92610727926107229261071c916107179190611596565b61161c565b9061162c565b61166a565b6107319190611e1d565b90505b919050565b6005546001600160a01b0316331461076c5760405162461bcd60e51b815260040161076390611d8f565b60405180910390fd5b6001600160a01b03811660009081526012602052604090205460ff161561079257600080fd5b6001600160a01b0381166000908152601260205260408120805460ff191660011790556107c090829061167d565b60405163131836e760e21b8152600b60048201526001600160a01b038216602482015273__$b5c84be7e522c98c303ad318c067b85931$__90634c60db9c9060440160006040518083038186803b15801561081a57600080fd5b505af415801561082e573d6000803e3d6000fd5b50506040516001600160a01b03841692507fa878b31040b2e6d0a9a3d3361209db3908ba62014b0dca52adbaee451d128b259150600090a250565b3360008181526001602090815260408083206001600160a01b038716845290915281205490916106629185906106c690866116e2565b600080600080600080600080600b73__$b5c84be7e522c98c303ad318c067b85931$__63deb3d89690916040518263ffffffff1660e01b81526004016108e791815260200190565b60206040518083038186803b1580156108ff57600080fd5b505af4158015610913573d6000803e3d6000fd5b505050506040513d601f19601f820116820180604052508101906109379190611d0c565b891061095c575060009650600019955085945086935083925082915081905080610a06565b6040516368d54f3f60e11b8152600b6004820152602481018a905260009073__$b5c84be7e522c98c303ad318c067b85931$__9063d1aa9e7e9060440160206040518083038186803b1580156109b157600080fd5b505af41580156109c5573d6000803e3d6000fd5b505050506040513d601f19601f820116820180604052508101906109e99190611c04565b90506109f48161113b565b98509850985098509850985098509850505b919395975091939597565b60405162461bcd60e51b815260206004820152605b60248201527f4469766964656e645f547261636b65723a20776974686472617744697669646560448201527f6e642064697361626c65642e20557365207468652027636c61696d272066756e60648201527f6374696f6e206f6e20746865206d61696e20636f6e74726163742e0000000000608482015260a401610763565b6005546001600160a01b03163314610acf5760405162461bcd60e51b815260040161076390611d8f565b601080546001600160a01b0319166001600160a01b0392909216919091179055565b6005546001600160a01b03163314610b1b5760405162461bcd60e51b815260040161076390611d8f565b6005546040516000916001600160a01b0316907f8be0079c531659141344cd1fd0a4f28419497f9722a3daafe3b4186f6b6457e0908390a3600580546001600160a01b0319169055565b600061073182610bce565b6060600480546105d290611eb2565b600061066233846106c685604051806060016040528060258152602001611f8f602591393360009081526001602090815260408083206001600160a01b038d168452909152902054919061155c565b6001600160a01b03811660009081526009602052604081205461073190610bf4846106d5565b90611741565b6000610662338484611500565b6005546000906001600160a01b03163314610c345760405162461bcd60e51b815260040161076390611d8f565b6000610c3f84611783565b90508015610cab576001600160a01b038416600081815260136020526040908190204290555184151591907fa2c38e2d2fb7e3e1912d937fd1ca11ed6d51864dee4cfa7a7bf02becd7acf09290610c999085815260200190565b60405180910390a36001915050610666565b5060009392505050565b6005546001600160a01b03163314610cdf5760405162461bcd60e51b815260040161076390611d8f565b6001600160a01b03821660009081526012602052604090205460ff1615610d0557610e39565b6010546001600160a01b0383811691161415610d2a576011546001600160a01b031691505b6015548110610dbb57610d3d828261167d565b604051632f0ad01760e21b8152600b60048201526001600160a01b03831660248201526044810182905273__$b5c84be7e522c98c303ad318c067b85931$__9063bc2b405c9060640160006040518083038186803b158015610d9e57600080fd5b505af4158015610db2573d6000803e3d6000fd5b50505050610e39565b610dc682600061167d565b60405163131836e760e21b8152600b60048201526001600160a01b038316602482015273__$b5c84be7e522c98c303ad318c067b85931$__90634c60db9c9060440160006040518083038186803b158015610e2057600080fd5b505af4158015610e34573d6000803e3d6000fd5b505050505b5050565b6005546001600160a01b03163314610e675760405162461bcd60e51b815260040161076390611d8f565b62015180811115610eee5760405162461bcd60e51b815260206004820152604560248201527f4469766964656e645f547261636b65723a20636c61696d57616974206d75737460448201527f206265207570646174656420746f206265747765656e203020616e6420323420606482015264686f75727360d81b608482015260a401610763565b601454811415610f665760405162461bcd60e51b815260206004820152603760248201527f4469766964656e645f547261636b65723a2043616e6e6f74207570646174652060448201527f636c61696d5761697420746f2073616d652076616c75650000000000000000006064820152608401610763565b60145460405182907f474ea64804364a1e29a4487ddb63c3342a2dd826ccd8acf48825e680a0e6f20f90600090a3601455565b6005546001600160a01b03163314610fc35760405162461bcd60e51b815260040161076390611d8f565b6000610fce60025490565b905080610fd9575060015b8115610e395761100481610ff184600160801b611596565b610ffb9190611e1d565b600754906116e2565b60075560405182815233907fa493a9229478c3fcd73f66d2cdeb7f94fd0f341da924d1054236d784541165119060200160405180910390a2600a5461104990836116e2565b600a555050565b6005546001600160a01b0316331461107a5760405162461bcd60e51b815260040161076390611d8f565b6001600160a01b0381166110df5760405162461bcd60e51b815260206004820152602660248201527f4f776e61626c653a206e6577206f776e657220697320746865207a65726f206160448201526564647265737360d01b6064820152608401610763565b6005546040516001600160a01b038084169216907f8be0079c531659141344cd1fd0a4f28419497f9722a3daafe3b4186f6b6457e090600090a3600580546001600160a01b0319166001600160a01b0392909216919091179055565b6040516317e142d160e01b8152600b60048201526001600160a01b0382166024820152819060009081908190819081908190819073__$b5c84be7e522c98c303ad318c067b85931$__906317e142d19060440160206040518083038186803b1580156111a657600080fd5b505af41580156111ba573d6000803e3d6000fd5b505050506040513d601f19601f820116820180604052508101906111de9190611d0c565b965060001995506000871261124057600f5487111561120c57600f546112059088906118f9565b9550611240565b600f54600b5460009110611221576000611230565b600f54600b5461123091611741565b905061123c888261162c565b9650505b61124988610bce565b9450611254886106d5565b6001600160a01b03891660009081526013602052604090205490945092508261127e57600061128c565b60145461128c9084906116e2565b915042821161129c5760006112a6565b6112a68242611741565b9050919395975091939597565b600b5460009081908190806112d3575050600f54600092508291506113d5565b600f546000805a90506000805b89841080156112ee57508582105b156113c457846112fd81611eed565b600b549096508610905061131057600094505b6000600b600001868154811061133657634e487b7160e01b600052603260045260246000fd5b60009182526020808320909101546001600160a01b0316808352601390915260409091205490915061136790611936565b1561138a57611377816001610c07565b1561138a578161138681611eed565b9250505b8261139481611eed565b93505060005a9050808511156113bb576113b86113b18683611741565b87906116e2565b95505b93506112e09050565b600f85905590975095509193505050505b9193909250565b6001600160a01b03831661143e5760405162461bcd60e51b8152602060048201526024808201527f45524332303a20617070726f76652066726f6d20746865207a65726f206164646044820152637265737360e01b6064820152608401610763565b6001600160a01b03821661149f5760405162461bcd60e51b815260206004820152602260248201527f45524332303a20617070726f766520746f20746865207a65726f206164647265604482015261737360f01b6064820152608401610763565b6001600160a01b0383811660008181526001602090815260408083209487168084529482529182902085905590518481527f8c5be1e5ebec7d5bd14f71427d1e84f3dd0314c0f7b2291e5b200ac8c7c3b925910160405180910390a3505050565b60405162461bcd60e51b815260206004820152602660248201527f4469766964656e645f547261636b65723a204e6f207472616e736665727320616044820152651b1b1bddd95960d21b6064820152608401610763565b505050565b600081848411156115805760405162461bcd60e51b81526004016107639190611d3c565b50600061158d8486611e9b565b95945050505050565b6000826115a557506000610666565b60006115b18385611e3d565b9050826115be8583611e1d565b146116155760405162461bcd60e51b815260206004820152602160248201527f536166654d6174683a206d756c7469706c69636174696f6e206f766572666c6f6044820152607760f81b6064820152608401610763565b9392505050565b6000818181121561073157600080fd5b6000806116398385611dc4565b90506000831215801561164c5750838112155b80611661575060008312801561166157508381125b61161557600080fd5b60008082121561167957600080fd5b5090565b6001600160a01b038216600090815260208190526040902054808211156116bc5760006116aa8383611741565b90506116b6848261195d565b50611557565b808210156115575760006116d08284611741565b90506116dc84826119c1565b50505050565b6000806116ef8385611e05565b9050838110156116155760405162461bcd60e51b815260206004820152601b60248201527f536166654d6174683a206164646974696f6e206f766572666c6f7700000000006044820152606401610763565b600061161583836040518060400160405280601e81526020017f536166654d6174683a207375627472616374696f6e206f766572666c6f77000081525061155c565b60008061178f83610bce565b905080156118f0576001600160a01b0383166000908152600960205260409020546117ba90826116e2565b6001600160a01b038416600081815260096020526040908190209290925590517fee503bee2bb6a87e57bc57db795f98137327401a0e7b7ce42e37926cc1a9ca4d906118099084815260200190565b60405180910390a260065460405163a9059cbb60e01b81526001600160a01b03858116600483015260248201849052600092169063a9059cbb90604401602060405180830381600087803b15801561186057600080fd5b505af1158015611874573d6000803e3d6000fd5b505050506040513d601f19601f820116820180604052508101906118989190611cf0565b9050806118e8576001600160a01b0384166000908152600960205260409020546118c29083611741565b6001600160a01b0385166000908152600960205260408120919091559250610734915050565b509050610734565b50600092915050565b6000806119068385611e5c565b9050600083121580156119195750838113155b806116615750600083128015611661575083811361161557600080fd5b60004282111561194857506000610734565b6014546119554284611741565b101592915050565b6119678282611a05565b6119a16119826107178360075461159690919063ffffffff16565b6001600160a01b038416600090815260086020526040902054906118f9565b6001600160a01b0390921660009081526008602052604090209190915550565b6119cb8282611ae4565b6119a16119e66107178360075461159690919063ffffffff16565b6001600160a01b0384166000908152600860205260409020549061162c565b6001600160a01b038216611a5b5760405162461bcd60e51b815260206004820152601f60248201527f45524332303a206d696e7420746f20746865207a65726f2061646472657373006044820152606401610763565b600254611a6890826116e2565b6002556001600160a01b038216600090815260208190526040902054611a8e90826116e2565b6001600160a01b038316600081815260208181526040808320949094559251848152919290917fddf252ad1be2c89b69c2b068fc378daa952ba7f163c4a11628f55a4df523b3ef91015b60405180910390a35050565b6001600160a01b038216611b445760405162461bcd60e51b815260206004820152602160248201527f45524332303a206275726e2066726f6d20746865207a65726f206164647265736044820152607360f81b6064820152608401610763565b611b8181604051806060016040528060228152602001611f45602291396001600160a01b038516600090815260208190526040902054919061155c565b6001600160a01b038316600090815260208190526040902055600254611ba79082611741565b6002556040518181526000906001600160a01b038416907fddf252ad1be2c89b69c2b068fc378daa952ba7f163c4a11628f55a4df523b3ef90602001611ad8565b600060208284031215611bf9578081fd5b813561161581611f1e565b600060208284031215611c15578081fd5b815161161581611f1e565b60008060408385031215611c32578081fd5b8235611c3d81611f1e565b91506020830135611c4d81611f1e565b809150509250929050565b600080600060608486031215611c6c578081fd5b8335611c7781611f1e565b92506020840135611c8781611f1e565b929592945050506040919091013590565b60008060408385031215611caa578182fd5b8235611cb581611f1e565b91506020830135611c4d81611f36565b60008060408385031215611cd7578182fd5b8235611ce281611f1e565b946020939093013593505050565b600060208284031215611d01578081fd5b815161161581611f36565b600060208284031215611d1d578081fd5b5051919050565b600060208284031215611d35578081fd5b5035919050565b6000602080835283518082850152825b81811015611d6857858101830151858201604001528201611d4c565b81811115611d795783604083870101525b50601f01601f1916929092016040019392505050565b6020808252818101527f4f776e61626c653a2063616c6c6572206973206e6f7420746865206f776e6572604082015260600190565b600080821280156001600160ff1b0384900385131615611de657611de6611f08565b600160ff1b8390038412811615611dff57611dff611f08565b50500190565b60008219821115611e1857611e18611f08565b500190565b600082611e3857634e487b7160e01b81526012600452602481fd5b500490565b6000816000190483118215151615611e5757611e57611f08565b500290565b60008083128015600160ff1b850184121615611e7a57611e7a611f08565b6001600160ff1b0384018313811615611e9557611e95611f08565b50500390565b600082821015611ead57611ead611f08565b500390565b600181811c90821680611ec657607f821691505b60208210811415611ee757634e487b7160e01b600052602260045260246000fd5b50919050565b6000600019821415611f0157611f01611f08565b5060010190565b634e487b7160e01b600052601160045260246000fd5b6001600160a01b0381168114611f3357600080fd5b50565b8015158114611f3357600080fdfe45524332303a206275726e20616d6f756e7420657863656564732062616c616e636545524332303a207472616e7366657220616d6f756e74206578636565647320616c6c6f77616e636545524332303a2064656372656173656420616c6c6f77616e63652062656c6f77207a65726fa2646970667358221220b955f653a5f49e5f80b23c094fb601b1d06c8988a4b47d815188d5bbab70759564736f6c63430008030033",
			"opcodes": "PUSH1 0x80 PUSH1 0x40 MSTORE PUSH1 0x6 DUP1 SLOAD PUSH1 0x1 PUSH1 0x1 PUSH1 0xA0 SHL SUB NOT SWAP1 DUP2 AND PUSH20 0xCB1E72786A6EB3B44C2A2429E317C8A2462CFEB1 OR SWAP1 SWAP2 SSTORE PUSH1 0x11 DUP1 SLOAD SWAP1 SWAP2 AND PUSH20 0xB64D4270B8FE21E2704701DF9C8401FF110ECFFD OR SWAP1 SSTORE CALLVALUE DUP1 ISZERO PUSH3 0x59 JUMPI PUSH1 0x0 DUP1 REVERT JUMPDEST POP PUSH1 0x40 DUP1 MLOAD DUP1 DUP3 ADD DUP3 MSTORE PUSH1 0x14 DUP2 MSTORE PUSH32 0x534849425F4469766964656E5F547261636B6572000000000000000000000000 PUSH1 0x20 DUP1 DUP4 ADD SWAP2 DUP3 MSTORE DUP4 MLOAD DUP1 DUP6 ADD SWAP1 SWAP5 MSTORE PUSH1 0x15 DUP5 MSTORE PUSH32 0x534849425F4469766964656E645F547261636B65720000000000000000000000 SWAP1 DUP5 ADD MSTORE DUP2 MLOAD SWAP2 SWAP3 SWAP2 DUP4 SWAP2 DUP4 SWAP2 PUSH3 0xD8 SWAP2 PUSH1 0x3 SWAP2 PUSH3 0x16E JUMP JUMPDEST POP DUP1 MLOAD PUSH3 0xEE SWAP1 PUSH1 0x4 SWAP1 PUSH1 0x20 DUP5 ADD SWAP1 PUSH3 0x16E JUMP JUMPDEST POP POP POP PUSH1 0x0 PUSH3 0x103 PUSH3 0x16A PUSH1 0x20 SHL PUSH1 0x20 SHR JUMP JUMPDEST PUSH1 0x5 DUP1 SLOAD PUSH1 0x1 PUSH1 0x1 PUSH1 0xA0 SHL SUB NOT AND PUSH1 0x1 PUSH1 0x1 PUSH1 0xA0 SHL SUB DUP4 AND SWAP1 DUP2 OR SWAP1 SWAP2 SSTORE PUSH1 0x40 MLOAD SWAP2 SWAP3 POP SWAP1 PUSH1 0x0 SWAP1 PUSH32 0x8BE0079C531659141344CD1FD0A4F28419497F9722A3DAAFE3B4186F6B6457E0 SWAP1 DUP3 SWAP1 LOG3 POP POP PUSH1 0x3C PUSH1 0x14 SSTORE POP PUSH8 0x16345785D8A0000 PUSH1 0x15 SSTORE PUSH3 0x251 JUMP JUMPDEST CALLER SWAP1 JUMP JUMPDEST DUP3 DUP1 SLOAD PUSH3 0x17C SWAP1 PUSH3 0x214 JUMP JUMPDEST SWAP1 PUSH1 0x0 MSTORE PUSH1 0x20 PUSH1 0x0 KECCAK256 SWAP1 PUSH1 0x1F ADD PUSH1 0x20 SWAP1 DIV DUP2 ADD SWAP3 DUP3 PUSH3 0x1A0 JUMPI PUSH1 0x0 DUP6 SSTORE PUSH3 0x1EB JUMP JUMPDEST DUP3 PUSH1 0x1F LT PUSH3 0x1BB JUMPI DUP1 MLOAD PUSH1 0xFF NOT AND DUP4 DUP1 ADD OR DUP6 SSTORE PUSH3 0x1EB JUMP JUMPDEST DUP3 DUP1 ADD PUSH1 0x1 ADD DUP6 SSTORE DUP3 ISZERO PUSH3 0x1EB JUMPI SWAP2 DUP3 ADD JUMPDEST DUP3 DUP2 GT ISZERO PUSH3 0x1EB JUMPI DUP3 MLOAD DUP3 SSTORE SWAP2 PUSH1 0x20 ADD SWAP2 SWAP1 PUSH1 0x1 ADD SWAP1 PUSH3 0x1CE JUMP JUMPDEST POP PUSH3 0x1F9 SWAP3 SWAP2 POP PUSH3 0x1FD JUMP JUMPDEST POP SWAP1 JUMP JUMPDEST JUMPDEST DUP1 DUP3 GT ISZERO PUSH3 0x1F9 JUMPI PUSH1 0x0 DUP2 SSTORE PUSH1 0x1 ADD PUSH3 0x1FE JUMP JUMPDEST PUSH1 0x1 DUP2 DUP2 SHR SWAP1 DUP3 AND DUP1 PUSH3 0x229 JUMPI PUSH1 0x7F DUP3 AND SWAP2 POP JUMPDEST PUSH1 0x20 DUP3 LT DUP2 EQ ISZERO PUSH3 0x24B JUMPI PUSH4 0x4E487B71 PUSH1 0xE0 SHL PUSH1 0x0 MSTORE PUSH1 0x22 PUSH1 0x4 MSTORE PUSH1 0x24 PUSH1 0x0 REVERT JUMPDEST POP SWAP2 SWAP1 POP JUMP JUMPDEST PUSH2 0x1FE9 DUP1 PUSH3 0x261 PUSH1 0x0 CODECOPY PUSH1 0x0 RETURN INVALID PUSH1 0x80 PUSH1 0x40 MSTORE CALLVALUE DUP1 ISZERO PUSH2 0x10 JUMPI PUSH1 0x0 DUP1 REVERT JUMPDEST POP PUSH1 0x4 CALLDATASIZE LT PUSH2 0x23D JUMPI PUSH1 0x0 CALLDATALOAD PUSH1 0xE0 SHR DUP1 PUSH4 0x715018A6 GT PUSH2 0x13B JUMPI DUP1 PUSH4 0xBE10B614 GT PUSH2 0xB8 JUMPI DUP1 PUSH4 0xE98030C7 GT PUSH2 0x7C JUMPI DUP1 PUSH4 0xE98030C7 EQ PUSH2 0x549 JUMPI DUP1 PUSH4 0xEC4BE22D EQ PUSH2 0x55C JUMPI DUP1 PUSH4 0xF2FDE38B EQ PUSH2 0x56F JUMPI DUP1 PUSH4 0xFBCBC0F1 EQ PUSH2 0x582 JUMPI DUP1 PUSH4 0xFFB2C479 EQ PUSH2 0x595 JUMPI PUSH2 0x23D JUMP JUMPDEST DUP1 PUSH4 0xBE10B614 EQ PUSH2 0x4D9 JUMPI DUP1 PUSH4 0xDD62ED3E EQ PUSH2 0x4E2 JUMPI DUP1 PUSH4 0xE24B85E7 EQ PUSH2 0x51B JUMPI DUP1 PUSH4 0xE30443BC EQ PUSH2 0x52E JUMPI DUP1 PUSH4 0xE7841EC0 EQ PUSH2 0x541 JUMPI PUSH2 0x23D JUMP JUMPDEST DUP1 PUSH4 0xA457C2D7 GT PUSH2 0xFF JUMPI DUP1 PUSH4 0xA457C2D7 EQ PUSH2 0x464 JUMPI DUP1 PUSH4 0xA8B9D240 EQ PUSH2 0x477 JUMPI DUP1 PUSH4 0xA9059CBB EQ PUSH2 0x48A JUMPI DUP1 PUSH4 0xAAFD847A EQ PUSH2 0x49D JUMPI DUP1 PUSH4 0xBC4C4B37 EQ PUSH2 0x4C6 JUMPI PUSH2 0x23D JUMP JUMPDEST DUP1 PUSH4 0x715018A6 EQ PUSH2 0x427 JUMPI DUP1 PUSH4 0x85A6B3AE EQ PUSH2 0x42F JUMPI DUP1 PUSH4 0x8DA5CB5B EQ PUSH2 0x438 JUMPI DUP1 PUSH4 0x91B89FBA EQ PUSH2 0x449 JUMPI DUP1 PUSH4 0x95D89B41 EQ PUSH2 0x45C JUMPI PUSH2 0x23D JUMP JUMPDEST DUP1 PUSH4 0x31E79DB0 GT PUSH2 0x1C9 JUMPI DUP1 PUSH4 0x5E83FC1E GT PUSH2 0x18D JUMPI DUP1 PUSH4 0x5E83FC1E EQ PUSH2 0x3C9 JUMPI DUP1 PUSH4 0x6A474002 EQ PUSH2 0x3DA JUMPI DUP1 PUSH4 0x6D91196F EQ PUSH2 0x3E2 JUMPI DUP1 PUSH4 0x6F2789EC EQ PUSH2 0x3F5 JUMPI DUP1 PUSH4 0x70A08231 EQ PUSH2 0x3FE JUMPI PUSH2 0x23D JUMP JUMPDEST DUP1 PUSH4 0x31E79DB0 EQ PUSH2 0x2FB JUMPI DUP1 PUSH4 0x39509351 EQ PUSH2 0x310 JUMPI DUP1 PUSH4 0x4B8FEB4F EQ PUSH2 0x323 JUMPI DUP1 PUSH4 0x4E7B827F EQ PUSH2 0x34E JUMPI DUP1 PUSH4 0x5183D6FD EQ PUSH2 0x371 JUMPI PUSH2 0x23D JUMP JUMPDEST DUP1 PUSH4 0x226CFA3D GT PUSH2 0x210 JUMPI DUP1 PUSH4 0x226CFA3D EQ PUSH2 0x29D JUMPI DUP1 PUSH4 0x23B872DD EQ PUSH2 0x2BD JUMPI DUP1 PUSH4 0x27CE0147 EQ PUSH2 0x2D0 JUMPI DUP1 PUSH4 0x3009A609 EQ PUSH2 0x2E3 JUMPI DUP1 PUSH4 0x313CE567 EQ PUSH2 0x2EC JUMPI PUSH2 0x23D JUMP JUMPDEST DUP1 PUSH4 0x6FDDE03 EQ PUSH2 0x242 JUMPI DUP1 PUSH4 0x95EA7B3 EQ PUSH2 0x260 JUMPI DUP1 PUSH4 0x9BBEDDE EQ PUSH2 0x283 JUMPI DUP1 PUSH4 0x18160DDD EQ PUSH2 0x295 JUMPI JUMPDEST PUSH1 0x0 DUP1 REVERT JUMPDEST PUSH2 0x24A PUSH2 0x5C3 JUMP JUMPDEST PUSH1 0x40 MLOAD PUSH2 0x257 SWAP2 SWAP1 PUSH2 0x1D3C JUMP JUMPDEST PUSH1 0x40 MLOAD DUP1 SWAP2 SUB SWAP1 RETURN JUMPDEST PUSH2 0x273 PUSH2 0x26E CALLDATASIZE PUSH1 0x4 PUSH2 0x1CC5 JUMP JUMPDEST PUSH2 0x655 JUMP JUMPDEST PUSH1 0x40 MLOAD SWAP1 ISZERO ISZERO DUP2 MSTORE PUSH1 0x20 ADD PUSH2 0x257 JUMP JUMPDEST PUSH1 0xB SLOAD JUMPDEST PUSH1 0x40 MLOAD SWAP1 DUP2 MSTORE PUSH1 0x20 ADD PUSH2 0x257 JUMP JUMPDEST PUSH1 0x2 SLOAD PUSH2 0x287 JUMP JUMPDEST PUSH2 0x287 PUSH2 0x2AB CALLDATASIZE PUSH1 0x4 PUSH2 0x1BE8 JUMP JUMPDEST PUSH1 0x13 PUSH1 0x20 MSTORE PUSH1 0x0 SWAP1 DUP2 MSTORE PUSH1 0x40 SWAP1 KECCAK256 SLOAD DUP2 JUMP JUMPDEST PUSH2 0x273 PUSH2 0x2CB CALLDATASIZE PUSH1 0x4 PUSH2 0x1C58 JUMP JUMPDEST PUSH2 0x66C JUMP JUMPDEST PUSH2 0x287 PUSH2 0x2DE CALLDATASIZE PUSH1 0x4 PUSH2 0x1BE8 JUMP JUMPDEST PUSH2 0x6D5 JUMP JUMPDEST PUSH2 0x287 PUSH1 0xF SLOAD DUP2 JUMP JUMPDEST PUSH1 0x40 MLOAD PUSH1 0x9 DUP2 MSTORE PUSH1 0x20 ADD PUSH2 0x257 JUMP JUMPDEST PUSH2 0x30E PUSH2 0x309 CALLDATASIZE PUSH1 0x4 PUSH2 0x1BE8 JUMP JUMPDEST PUSH2 0x739 JUMP JUMPDEST STOP JUMPDEST PUSH2 0x273 PUSH2 0x31E CALLDATASIZE PUSH1 0x4 PUSH2 0x1CC5 JUMP JUMPDEST PUSH2 0x869 JUMP JUMPDEST PUSH1 0x11 SLOAD PUSH2 0x336 SWAP1 PUSH1 0x1 PUSH1 0x1 PUSH1 0xA0 SHL SUB AND DUP2 JUMP JUMPDEST PUSH1 0x40 MLOAD PUSH1 0x1 PUSH1 0x1 PUSH1 0xA0 SHL SUB SWAP1 SWAP2 AND DUP2 MSTORE PUSH1 0x20 ADD PUSH2 0x257 JUMP JUMPDEST PUSH2 0x273 PUSH2 0x35C CALLDATASIZE PUSH1 0x4 PUSH2 0x1BE8 JUMP JUMPDEST PUSH1 0x12 PUSH1 0x20 MSTORE PUSH1 0x0 SWAP1 DUP2 MSTORE PUSH1 0x40 SWAP1 KECCAK256 SLOAD PUSH1 0xFF AND DUP2 JUMP JUMPDEST PUSH2 0x384 PUSH2 0x37F CALLDATASIZE PUSH1 0x4 PUSH2 0x1D24 JUMP JUMPDEST PUSH2 0x89F JUMP JUMPDEST PUSH1 0x40 DUP1 MLOAD PUSH1 0x1 PUSH1 0x1 PUSH1 0xA0 SHL SUB SWAP1 SWAP10 AND DUP10 MSTORE PUSH1 0x20 DUP10 ADD SWAP8 SWAP1 SWAP8 MSTORE SWAP6 DUP8 ADD SWAP5 SWAP1 SWAP5 MSTORE PUSH1 0x60 DUP7 ADD SWAP3 SWAP1 SWAP3 MSTORE PUSH1 0x80 DUP6 ADD MSTORE PUSH1 0xA0 DUP5 ADD MSTORE PUSH1 0xC0 DUP4 ADD MSTORE PUSH1 0xE0 DUP3 ADD MSTORE PUSH2 0x100 ADD PUSH2 0x257 JUMP JUMPDEST PUSH1 0x10 SLOAD PUSH1 0x1 PUSH1 0x1 PUSH1 0xA0 SHL SUB AND PUSH2 0x336 JUMP JUMPDEST PUSH2 0x30E PUSH2 0xA11 JUMP JUMPDEST PUSH2 0x30E PUSH2 0x3F0 CALLDATASIZE PUSH1 0x4 PUSH2 0x1BE8 JUMP JUMPDEST PUSH2 0xAA5 JUMP JUMPDEST PUSH2 0x287 PUSH1 0x14 SLOAD DUP2 JUMP JUMPDEST PUSH2 0x287 PUSH2 0x40C CALLDATASIZE PUSH1 0x4 PUSH2 0x1BE8 JUMP JUMPDEST PUSH1 0x1 PUSH1 0x1 PUSH1 0xA0 SHL SUB AND PUSH1 0x0 SWAP1 DUP2 MSTORE PUSH1 0x20 DUP2 SWAP1 MSTORE PUSH1 0x40 SWAP1 KECCAK256 SLOAD SWAP1 JUMP JUMPDEST PUSH2 0x30E PUSH2 0xAF1 JUMP JUMPDEST PUSH2 0x287 PUSH1 0xA SLOAD DUP2 JUMP JUMPDEST PUSH1 0x5 SLOAD PUSH1 0x1 PUSH1 0x1 PUSH1 0xA0 SHL SUB AND PUSH2 0x336 JUMP JUMPDEST PUSH2 0x287 PUSH2 0x457 CALLDATASIZE PUSH1 0x4 PUSH2 0x1BE8 JUMP JUMPDEST PUSH2 0xB65 JUMP JUMPDEST PUSH2 0x24A PUSH2 0xB70 JUMP JUMPDEST PUSH2 0x273 PUSH2 0x472 CALLDATASIZE PUSH1 0x4 PUSH2 0x1CC5 JUMP JUMPDEST PUSH2 0xB7F JUMP JUMPDEST PUSH2 0x287 PUSH2 0x485 CALLDATASIZE PUSH1 0x4 PUSH2 0x1BE8 JUMP JUMPDEST PUSH2 0xBCE JUMP JUMPDEST PUSH2 0x273 PUSH2 0x498 CALLDATASIZE PUSH1 0x4 PUSH2 0x1CC5 JUMP JUMPDEST PUSH2 0xBFA JUMP JUMPDEST PUSH2 0x287 PUSH2 0x4AB CALLDATASIZE PUSH1 0x4 PUSH2 0x1BE8 JUMP JUMPDEST PUSH1 0x1 PUSH1 0x1 PUSH1 0xA0 SHL SUB AND PUSH1 0x0 SWAP1 DUP2 MSTORE PUSH1 0x9 PUSH1 0x20 MSTORE PUSH1 0x40 SWAP1 KECCAK256 SLOAD SWAP1 JUMP JUMPDEST PUSH2 0x273 PUSH2 0x4D4 CALLDATASIZE PUSH1 0x4 PUSH2 0x1C98 JUMP JUMPDEST PUSH2 0xC07 JUMP JUMPDEST PUSH2 0x287 PUSH1 0x15 SLOAD DUP2 JUMP JUMPDEST PUSH2 0x287 PUSH2 0x4F0 CALLDATASIZE PUSH1 0x4 PUSH2 0x1C20 JUMP JUMPDEST PUSH1 0x1 PUSH1 0x1 PUSH1 0xA0 SHL SUB SWAP2 DUP3 AND PUSH1 0x0 SWAP1 DUP2 MSTORE PUSH1 0x1 PUSH1 0x20 SWAP1 DUP2 MSTORE PUSH1 0x40 DUP1 DUP4 KECCAK256 SWAP4 SWAP1 SWAP5 AND DUP3 MSTORE SWAP2 SWAP1 SWAP2 MSTORE KECCAK256 SLOAD SWAP1 JUMP JUMPDEST PUSH1 0x6 SLOAD PUSH2 0x336 SWAP1 PUSH1 0x1 PUSH1 0x1 PUSH1 0xA0 SHL SUB AND DUP2 JUMP JUMPDEST PUSH2 0x30E PUSH2 0x53C CALLDATASIZE PUSH1 0x4 PUSH2 0x1CC5 JUMP JUMPDEST PUSH2 0xCB5 JUMP JUMPDEST PUSH1 0xF SLOAD PUSH2 0x287 JUMP JUMPDEST PUSH2 0x30E PUSH2 0x557 CALLDATASIZE PUSH1 0x4 PUSH2 0x1D24 JUMP JUMPDEST PUSH2 0xE3D JUMP JUMPDEST PUSH2 0x30E PUSH2 0x56A CALLDATASIZE PUSH1 0x4 PUSH2 0x1D24 JUMP JUMPDEST PUSH2 0xF99 JUMP JUMPDEST PUSH2 0x30E PUSH2 0x57D CALLDATASIZE PUSH1 0x4 PUSH2 0x1BE8 JUMP JUMPDEST PUSH2 0x1050 JUMP JUMPDEST PUSH2 0x384 PUSH2 0x590 CALLDATASIZE PUSH1 0x4 PUSH2 0x1BE8 JUMP JUMPDEST PUSH2 0x113B JUMP JUMPDEST PUSH2 0x5A8 PUSH2 0x5A3 CALLDATASIZE PUSH1 0x4 PUSH2 0x1D24 JUMP JUMPDEST PUSH2 0x12B3 JUMP JUMPDEST PUSH1 0x40 DUP1 MLOAD SWAP4 DUP5 MSTORE PUSH1 0x20 DUP5 ADD SWAP3 SWAP1 SWAP3 MSTORE SWAP1 DUP3 ADD MSTORE PUSH1 0x60 ADD PUSH2 0x257 JUMP JUMPDEST PUSH1 0x60 PUSH1 0x3 DUP1 SLOAD PUSH2 0x5D2 SWAP1 PUSH2 0x1EB2 JUMP JUMPDEST DUP1 PUSH1 0x1F ADD PUSH1 0x20 DUP1 SWAP2 DIV MUL PUSH1 0x20 ADD PUSH1 0x40 MLOAD SWAP1 DUP2 ADD PUSH1 0x40 MSTORE DUP1 SWAP3 SWAP2 SWAP1 DUP2 DUP2 MSTORE PUSH1 0x20 ADD DUP3 DUP1 SLOAD PUSH2 0x5FE SWAP1 PUSH2 0x1EB2 JUMP JUMPDEST DUP1 ISZERO PUSH2 0x64B JUMPI DUP1 PUSH1 0x1F LT PUSH2 0x620 JUMPI PUSH2 0x100 DUP1 DUP4 SLOAD DIV MUL DUP4 MSTORE SWAP2 PUSH1 0x20 ADD SWAP2 PUSH2 0x64B JUMP JUMPDEST DUP3 ADD SWAP2 SWAP1 PUSH1 0x0 MSTORE PUSH1 0x20 PUSH1 0x0 KECCAK256 SWAP1 JUMPDEST DUP2 SLOAD DUP2 MSTORE SWAP1 PUSH1 0x1 ADD SWAP1 PUSH1 0x20 ADD DUP1 DUP4 GT PUSH2 0x62E JUMPI DUP3 SWAP1 SUB PUSH1 0x1F AND DUP3 ADD SWAP2 JUMPDEST POP POP POP POP POP SWAP1 POP SWAP1 JUMP JUMPDEST PUSH1 0x0 PUSH2 0x662 CALLER DUP5 DUP5 PUSH2 0x13DC JUMP JUMPDEST POP PUSH1 0x1 JUMPDEST SWAP3 SWAP2 POP POP JUMP JUMPDEST PUSH1 0x0 PUSH2 0x679 DUP5 DUP5 DUP5 PUSH2 0x1500 JUMP JUMPDEST PUSH2 0x6CB DUP5 CALLER PUSH2 0x6C6 DUP6 PUSH1 0x40 MLOAD DUP1 PUSH1 0x60 ADD PUSH1 0x40 MSTORE DUP1 PUSH1 0x28 DUP2 MSTORE PUSH1 0x20 ADD PUSH2 0x1F67 PUSH1 0x28 SWAP2 CODECOPY PUSH1 0x1 PUSH1 0x1 PUSH1 0xA0 SHL SUB DUP11 AND PUSH1 0x0 SWAP1 DUP2 MSTORE PUSH1 0x1 PUSH1 0x20 SWAP1 DUP2 MSTORE PUSH1 0x40 DUP1 DUP4 KECCAK256 CALLER DUP5 MSTORE SWAP1 SWAP2 MSTORE SWAP1 KECCAK256 SLOAD SWAP2 SWAP1 PUSH2 0x155C JUMP JUMPDEST PUSH2 0x13DC JUMP JUMPDEST POP PUSH1 0x1 SWAP4 SWAP3 POP POP POP JUMP JUMPDEST PUSH1 0x1 PUSH1 0x1 PUSH1 0xA0 SHL SUB DUP2 AND PUSH1 0x0 SWAP1 DUP2 MSTORE PUSH1 0x8 PUSH1 0x20 SWAP1 DUP2 MSTORE PUSH1 0x40 DUP1 DUP4 KECCAK256 SLOAD SWAP2 DUP4 SWAP1 MSTORE DUP3 KECCAK256 SLOAD PUSH1 0x7 SLOAD PUSH1 0x1 PUSH1 0x80 SHL SWAP3 PUSH2 0x727 SWAP3 PUSH2 0x722 SWAP3 PUSH2 0x71C SWAP2 PUSH2 0x717 SWAP2 SWAP1 PUSH2 0x1596 JUMP JUMPDEST PUSH2 0x161C JUMP JUMPDEST SWAP1 PUSH2 0x162C JUMP JUMPDEST PUSH2 0x166A JUMP JUMPDEST PUSH2 0x731 SWAP2 SWAP1 PUSH2 0x1E1D JUMP JUMPDEST SWAP1 POP JUMPDEST SWAP2 SWAP1 POP JUMP JUMPDEST PUSH1 0x5 SLOAD PUSH1 0x1 PUSH1 0x1 PUSH1 0xA0 SHL SUB AND CALLER EQ PUSH2 0x76C JUMPI PUSH1 0x40 MLOAD PUSH3 0x461BCD PUSH1 0xE5 SHL DUP2 MSTORE PUSH1 0x4 ADD PUSH2 0x763 SWAP1 PUSH2 0x1D8F JUMP JUMPDEST PUSH1 0x40 MLOAD DUP1 SWAP2 SUB SWAP1 REVERT JUMPDEST PUSH1 0x1 PUSH1 0x1 PUSH1 0xA0 SHL SUB DUP2 AND PUSH1 0x0 SWAP1 DUP2 MSTORE PUSH1 0x12 PUSH1 0x20 MSTORE PUSH1 0x40 SWAP1 KECCAK256 SLOAD PUSH1 0xFF AND ISZERO PUSH2 0x792 JUMPI PUSH1 0x0 DUP1 REVERT JUMPDEST PUSH1 0x1 PUSH1 0x1 PUSH1 0xA0 SHL SUB DUP2 AND PUSH1 0x0 SWAP1 DUP2 MSTORE PUSH1 0x12 PUSH1 0x20 MSTORE PUSH1 0x40 DUP2 KECCAK256 DUP1 SLOAD PUSH1 0xFF NOT AND PUSH1 0x1 OR SWAP1 SSTORE PUSH2 0x7C0 SWAP1 DUP3 SWAP1 PUSH2 0x167D JUMP JUMPDEST PUSH1 0x40 MLOAD PUSH4 0x131836E7 PUSH1 0xE2 SHL DUP2 MSTORE PUSH1 0xB PUSH1 0x4 DUP3 ADD MSTORE PUSH1 0x1 PUSH1 0x1 PUSH1 0xA0 SHL SUB DUP3 AND PUSH1 0x24 DUP3 ADD MSTORE PUSH20 0x0 SWAP1 PUSH4 0x4C60DB9C SWAP1 PUSH1 0x44 ADD PUSH1 0x0 PUSH1 0x40 MLOAD DUP1 DUP4 SUB DUP2 DUP7 DUP1 EXTCODESIZE ISZERO DUP1 ISZERO PUSH2 0x81A JUMPI PUSH1 0x0 DUP1 REVERT JUMPDEST POP GAS DELEGATECALL ISZERO DUP1 ISZERO PUSH2 0x82E JUMPI RETURNDATASIZE PUSH1 0x0 DUP1 RETURNDATACOPY RETURNDATASIZE PUSH1 0x0 REVERT JUMPDEST POP POP PUSH1 0x40 MLOAD PUSH1 0x1 PUSH1 0x1 PUSH1 0xA0 SHL SUB DUP5 AND SWAP3 POP PUSH32 0xA878B31040B2E6D0A9A3D3361209DB3908BA62014B0DCA52ADBAEE451D128B25 SWAP2 POP PUSH1 0x0 SWAP1 LOG2 POP JUMP JUMPDEST CALLER PUSH1 0x0 DUP2 DUP2 MSTORE PUSH1 0x1 PUSH1 0x20 SWAP1 DUP2 MSTORE PUSH1 0x40 DUP1 DUP4 KECCAK256 PUSH1 0x1 PUSH1 0x1 PUSH1 0xA0 SHL SUB DUP8 AND DUP5 MSTORE SWAP1 SWAP2 MSTORE DUP2 KECCAK256 SLOAD SWAP1 SWAP2 PUSH2 0x662 SWAP2 DUP6 SWAP1 PUSH2 0x6C6 SWAP1 DUP7 PUSH2 0x16E2 JUMP JUMPDEST PUSH1 0x0 DUP1 PUSH1 0x0 DUP1 PUSH1 0x0 DUP1 PUSH1 0x0 DUP1 PUSH1 0xB PUSH20 0x0 PUSH4 0xDEB3D896 SWAP1 SWAP2 PUSH1 0x40 MLOAD DUP3 PUSH4 0xFFFFFFFF AND PUSH1 0xE0 SHL DUP2 MSTORE PUSH1 0x4 ADD PUSH2 0x8E7 SWAP2 DUP2 MSTORE PUSH1 0x20 ADD SWAP1 JUMP JUMPDEST PUSH1 0x20 PUSH1 0x40 MLOAD DUP1 DUP4 SUB DUP2 DUP7 DUP1 EXTCODESIZE ISZERO DUP1 ISZERO PUSH2 0x8FF JUMPI PUSH1 0x0 DUP1 REVERT JUMPDEST POP GAS DELEGATECALL ISZERO DUP1 ISZERO PUSH2 0x913 JUMPI RETURNDATASIZE PUSH1 0x0 DUP1 RETURNDATACOPY RETURNDATASIZE PUSH1 0x0 REVERT JUMPDEST POP POP POP POP PUSH1 0x40 MLOAD RETURNDATASIZE PUSH1 0x1F NOT PUSH1 0x1F DUP3 ADD AND DUP3 ADD DUP1 PUSH1 0x40 MSTORE POP DUP2 ADD SWAP1 PUSH2 0x937 SWAP2 SWAP1 PUSH2 0x1D0C JUMP JUMPDEST DUP10 LT PUSH2 0x95C JUMPI POP PUSH1 0x0 SWAP7 POP PUSH1 0x0 NOT SWAP6 POP DUP6 SWAP5 POP DUP7 SWAP4 POP DUP4 SWAP3 POP DUP3 SWAP2 POP DUP2 SWAP1 POP DUP1 PUSH2 0xA06 JUMP JUMPDEST PUSH1 0x40 MLOAD PUSH4 0x68D54F3F PUSH1 0xE1 SHL DUP2 MSTORE PUSH1 0xB PUSH1 0x4 DUP3 ADD MSTORE PUSH1 0x24 DUP2 ADD DUP11 SWAP1 MSTORE PUSH1 0x0 SWAP1 PUSH20 0x0 SWAP1 PUSH4 0xD1AA9E7E SWAP1 PUSH1 0x44 ADD PUSH1 0x20 PUSH1 0x40 MLOAD DUP1 DUP4 SUB DUP2 DUP7 DUP1 EXTCODESIZE ISZERO DUP1 ISZERO PUSH2 0x9B1 JUMPI PUSH1 0x0 DUP1 REVERT JUMPDEST POP GAS DELEGATECALL ISZERO DUP1 ISZERO PUSH2 0x9C5 JUMPI RETURNDATASIZE PUSH1 0x0 DUP1 RETURNDATACOPY RETURNDATASIZE PUSH1 0x0 REVERT JUMPDEST POP POP POP POP PUSH1 0x40 MLOAD RETURNDATASIZE PUSH1 0x1F NOT PUSH1 0x1F DUP3 ADD AND DUP3 ADD DUP1 PUSH1 0x40 MSTORE POP DUP2 ADD SWAP1 PUSH2 0x9E9 SWAP2 SWAP1 PUSH2 0x1C04 JUMP JUMPDEST SWAP1 POP PUSH2 0x9F4 DUP2 PUSH2 0x113B JUMP JUMPDEST SWAP9 POP SWAP9 POP SWAP9 POP SWAP9 POP SWAP9 POP SWAP9 POP SWAP9 POP SWAP9 POP POP JUMPDEST SWAP2 SWAP4 SWAP6 SWAP8 POP SWAP2 SWAP4 SWAP6 SWAP8 JUMP JUMPDEST PUSH1 0x40 MLOAD PUSH3 0x461BCD PUSH1 0xE5 SHL DUP2 MSTORE PUSH1 0x20 PUSH1 0x4 DUP3 ADD MSTORE PUSH1 0x5B PUSH1 0x24 DUP3 ADD MSTORE PUSH32 0x4469766964656E645F547261636B65723A207769746864726177446976696465 PUSH1 0x44 DUP3 ADD MSTORE PUSH32 0x6E642064697361626C65642E20557365207468652027636C61696D272066756E PUSH1 0x64 DUP3 ADD MSTORE PUSH32 0x6374696F6E206F6E20746865206D61696E20636F6E74726163742E0000000000 PUSH1 0x84 DUP3 ADD MSTORE PUSH1 0xA4 ADD PUSH2 0x763 JUMP JUMPDEST PUSH1 0x5 SLOAD PUSH1 0x1 PUSH1 0x1 PUSH1 0xA0 SHL SUB AND CALLER EQ PUSH2 0xACF JUMPI PUSH1 0x40 MLOAD PUSH3 0x461BCD PUSH1 0xE5 SHL DUP2 MSTORE PUSH1 0x4 ADD PUSH2 0x763 SWAP1 PUSH2 0x1D8F JUMP JUMPDEST PUSH1 0x10 DUP1 SLOAD PUSH1 0x1 PUSH1 0x1 PUSH1 0xA0 SHL SUB NOT AND PUSH1 0x1 PUSH1 0x1 PUSH1 0xA0 SHL SUB SWAP3 SWAP1 SWAP3 AND SWAP2 SWAP1 SWAP2 OR SWAP1 SSTORE JUMP JUMPDEST PUSH1 0x5 SLOAD PUSH1 0x1 PUSH1 0x1 PUSH1 0xA0 SHL SUB AND CALLER EQ PUSH2 0xB1B JUMPI PUSH1 0x40 MLOAD PUSH3 0x461BCD PUSH1 0xE5 SHL DUP2 MSTORE PUSH1 0x4 ADD PUSH2 0x763 SWAP1 PUSH2 0x1D8F JUMP JUMPDEST PUSH1 0x5 SLOAD PUSH1 0x40 MLOAD PUSH1 0x0 SWAP2 PUSH1 0x1 PUSH1 0x1 PUSH1 0xA0 SHL SUB AND SWAP1 PUSH32 0x8BE0079C531659141344CD1FD0A4F28419497F9722A3DAAFE3B4186F6B6457E0 SWAP1 DUP4 SWAP1 LOG3 PUSH1 0x5 DUP1 SLOAD PUSH1 0x1 PUSH1 0x1 PUSH1 0xA0 SHL SUB NOT AND SWAP1 SSTORE JUMP JUMPDEST PUSH1 0x0 PUSH2 0x731 DUP3 PUSH2 0xBCE JUMP JUMPDEST PUSH1 0x60 PUSH1 0x4 DUP1 SLOAD PUSH2 0x5D2 SWAP1 PUSH2 0x1EB2 JUMP JUMPDEST PUSH1 0x0 PUSH2 0x662 CALLER DUP5 PUSH2 0x6C6 DUP6 PUSH1 0x40 MLOAD DUP1 PUSH1 0x60 ADD PUSH1 0x40 MSTORE DUP1 PUSH1 0x25 DUP2 MSTORE PUSH1 0x20 ADD PUSH2 0x1F8F PUSH1 0x25 SWAP2 CODECOPY CALLER PUSH1 0x0 SWAP1 DUP2 MSTORE PUSH1 0x1 PUSH1 0x20 SWAP1 DUP2 MSTORE PUSH1 0x40 DUP1 DUP4 KECCAK256 PUSH1 0x1 PUSH1 0x1 PUSH1 0xA0 SHL SUB DUP14 AND DUP5 MSTORE SWAP1 SWAP2 MSTORE SWAP1 KECCAK256 SLOAD SWAP2 SWAP1 PUSH2 0x155C JUMP JUMPDEST PUSH1 0x1 PUSH1 0x1 PUSH1 0xA0 SHL SUB DUP2 AND PUSH1 0x0 SWAP1 DUP2 MSTORE PUSH1 0x9 PUSH1 0x20 MSTORE PUSH1 0x40 DUP2 KECCAK256 SLOAD PUSH2 0x731 SWAP1 PUSH2 0xBF4 DUP5 PUSH2 0x6D5 JUMP JUMPDEST SWAP1 PUSH2 0x1741 JUMP JUMPDEST PUSH1 0x0 PUSH2 0x662 CALLER DUP5 DUP5 PUSH2 0x1500 JUMP JUMPDEST PUSH1 0x5 SLOAD PUSH1 0x0 SWAP1 PUSH1 0x1 PUSH1 0x1 PUSH1 0xA0 SHL SUB AND CALLER EQ PUSH2 0xC34 JUMPI PUSH1 0x40 MLOAD PUSH3 0x461BCD PUSH1 0xE5 SHL DUP2 MSTORE PUSH1 0x4 ADD PUSH2 0x763 SWAP1 PUSH2 0x1D8F JUMP JUMPDEST PUSH1 0x0 PUSH2 0xC3F DUP5 PUSH2 0x1783 JUMP JUMPDEST SWAP1 POP DUP1 ISZERO PUSH2 0xCAB JUMPI PUSH1 0x1 PUSH1 0x1 PUSH1 0xA0 SHL SUB DUP5 AND PUSH1 0x0 DUP2 DUP2 MSTORE PUSH1 0x13 PUSH1 0x20 MSTORE PUSH1 0x40 SWAP1 DUP2 SWAP1 KECCAK256 TIMESTAMP SWAP1 SSTORE MLOAD DUP5 ISZERO ISZERO SWAP2 SWAP1 PUSH32 0xA2C38E2D2FB7E3E1912D937FD1CA11ED6D51864DEE4CFA7A7BF02BECD7ACF092 SWAP1 PUSH2 0xC99 SWAP1 DUP6 DUP2 MSTORE PUSH1 0x20 ADD SWAP1 JUMP JUMPDEST PUSH1 0x40 MLOAD DUP1 SWAP2 SUB SWAP1 LOG3 PUSH1 0x1 SWAP2 POP POP PUSH2 0x666 JUMP JUMPDEST POP PUSH1 0x0 SWAP4 SWAP3 POP POP POP JUMP JUMPDEST PUSH1 0x5 SLOAD PUSH1 0x1 PUSH1 0x1 PUSH1 0xA0 SHL SUB AND CALLER EQ PUSH2 0xCDF JUMPI PUSH1 0x40 MLOAD PUSH3 0x461BCD PUSH1 0xE5 SHL DUP2 MSTORE PUSH1 0x4 ADD PUSH2 0x763 SWAP1 PUSH2 0x1D8F JUMP JUMPDEST PUSH1 0x1 PUSH1 0x1 PUSH1 0xA0 SHL SUB DUP3 AND PUSH1 0x0 SWAP1 DUP2 MSTORE PUSH1 0x12 PUSH1 0x20 MSTORE PUSH1 0x40 SWAP1 KECCAK256 SLOAD PUSH1 0xFF AND ISZERO PUSH2 0xD05 JUMPI PUSH2 0xE39 JUMP JUMPDEST PUSH1 0x10 SLOAD PUSH1 0x1 PUSH1 0x1 PUSH1 0xA0 SHL SUB DUP4 DUP2 AND SWAP2 AND EQ ISZERO PUSH2 0xD2A JUMPI PUSH1 0x11 SLOAD PUSH1 0x1 PUSH1 0x1 PUSH1 0xA0 SHL SUB AND SWAP2 POP JUMPDEST PUSH1 0x15 SLOAD DUP2 LT PUSH2 0xDBB JUMPI PUSH2 0xD3D DUP3 DUP3 PUSH2 0x167D JUMP JUMPDEST PUSH1 0x40 MLOAD PUSH4 0x2F0AD017 PUSH1 0xE2 SHL DUP2 MSTORE PUSH1 0xB PUSH1 0x4 DUP3 ADD MSTORE PUSH1 0x1 PUSH1 0x1 PUSH1 0xA0 SHL SUB DUP4 AND PUSH1 0x24 DUP3 ADD MSTORE PUSH1 0x44 DUP2 ADD DUP3 SWAP1 MSTORE PUSH20 0x0 SWAP1 PUSH4 0xBC2B405C SWAP1 PUSH1 0x64 ADD PUSH1 0x0 PUSH1 0x40 MLOAD DUP1 DUP4 SUB DUP2 DUP7 DUP1 EXTCODESIZE ISZERO DUP1 ISZERO PUSH2 0xD9E JUMPI PUSH1 0x0 DUP1 REVERT JUMPDEST POP GAS DELEGATECALL ISZERO DUP1 ISZERO PUSH2 0xDB2 JUMPI RETURNDATASIZE PUSH1 0x0 DUP1 RETURNDATACOPY RETURNDATASIZE PUSH1 0x0 REVERT JUMPDEST POP POP POP POP PUSH2 0xE39 JUMP JUMPDEST PUSH2 0xDC6 DUP3 PUSH1 0x0 PUSH2 0x167D JUMP JUMPDEST PUSH1 0x40 MLOAD PUSH4 0x131836E7 PUSH1 0xE2 SHL DUP2 MSTORE PUSH1 0xB PUSH1 0x4 DUP3 ADD MSTORE PUSH1 0x1 PUSH1 0x1 PUSH1 0xA0 SHL SUB DUP4 AND PUSH1 0x24 DUP3 ADD MSTORE PUSH20 0x0 SWAP1 PUSH4 0x4C60DB9C SWAP1 PUSH1 0x44 ADD PUSH1 0x0 PUSH1 0x40 MLOAD DUP1 DUP4 SUB DUP2 DUP7 DUP1 EXTCODESIZE ISZERO DUP1 ISZERO PUSH2 0xE20 JUMPI PUSH1 0x0 DUP1 REVERT JUMPDEST POP GAS DELEGATECALL ISZERO DUP1 ISZERO PUSH2 0xE34 JUMPI RETURNDATASIZE PUSH1 0x0 DUP1 RETURNDATACOPY RETURNDATASIZE PUSH1 0x0 REVERT JUMPDEST POP POP POP POP JUMPDEST POP POP JUMP JUMPDEST PUSH1 0x5 SLOAD PUSH1 0x1 PUSH1 0x1 PUSH1 0xA0 SHL SUB AND CALLER EQ PUSH2 0xE67 JUMPI PUSH1 0x40 MLOAD PUSH3 0x461BCD PUSH1 0xE5 SHL DUP2 MSTORE PUSH1 0x4 ADD PUSH2 0x763 SWAP1 PUSH2 0x1D8F JUMP JUMPDEST PUSH3 0x15180 DUP2 GT ISZERO PUSH2 0xEEE JUMPI PUSH1 0x40 MLOAD PUSH3 0x461BCD PUSH1 0xE5 SHL DUP2 MSTORE PUSH1 0x20 PUSH1 0x4 DUP3 ADD MSTORE PUSH1 0x45 PUSH1 0x24 DUP3 ADD MSTORE PUSH32 0x4469766964656E645F547261636B65723A20636C61696D57616974206D757374 PUSH1 0x44 DUP3 ADD MSTORE PUSH32 0x206265207570646174656420746F206265747765656E203020616E6420323420 PUSH1 0x64 DUP3 ADD MSTORE PUSH5 0x686F757273 PUSH1 0xD8 SHL PUSH1 0x84 DUP3 ADD MSTORE PUSH1 0xA4 ADD PUSH2 0x763 JUMP JUMPDEST PUSH1 0x14 SLOAD DUP2 EQ ISZERO PUSH2 0xF66 JUMPI PUSH1 0x40 MLOAD PUSH3 0x461BCD PUSH1 0xE5 SHL DUP2 MSTORE PUSH1 0x20 PUSH1 0x4 DUP3 ADD MSTORE PUSH1 0x37 PUSH1 0x24 DUP3 ADD MSTORE PUSH32 0x4469766964656E645F547261636B65723A2043616E6E6F742075706461746520 PUSH1 0x44 DUP3 ADD MSTORE PUSH32 0x636C61696D5761697420746F2073616D652076616C7565000000000000000000 PUSH1 0x64 DUP3 ADD MSTORE PUSH1 0x84 ADD PUSH2 0x763 JUMP JUMPDEST PUSH1 0x14 SLOAD PUSH1 0x40 MLOAD DUP3 SWAP1 PUSH32 0x474EA64804364A1E29A4487DDB63C3342A2DD826CCD8ACF48825E680A0E6F20F SWAP1 PUSH1 0x0 SWAP1 LOG3 PUSH1 0x14 SSTORE JUMP JUMPDEST PUSH1 0x5 SLOAD PUSH1 0x1 PUSH1 0x1 PUSH1 0xA0 SHL SUB AND CALLER EQ PUSH2 0xFC3 JUMPI PUSH1 0x40 MLOAD PUSH3 0x461BCD PUSH1 0xE5 SHL DUP2 MSTORE PUSH1 0x4 ADD PUSH2 0x763 SWAP1 PUSH2 0x1D8F JUMP JUMPDEST PUSH1 0x0 PUSH2 0xFCE PUSH1 0x2 SLOAD SWAP1 JUMP JUMPDEST SWAP1 POP DUP1 PUSH2 0xFD9 JUMPI POP PUSH1 0x1 JUMPDEST DUP2 ISZERO PUSH2 0xE39 JUMPI PUSH2 0x1004 DUP2 PUSH2 0xFF1 DUP5 PUSH1 0x1 PUSH1 0x80 SHL PUSH2 0x1596 JUMP JUMPDEST PUSH2 0xFFB SWAP2 SWAP1 PUSH2 0x1E1D JUMP JUMPDEST PUSH1 0x7 SLOAD SWAP1 PUSH2 0x16E2 JUMP JUMPDEST PUSH1 0x7 SSTORE PUSH1 0x40 MLOAD DUP3 DUP2 MSTORE CALLER SWAP1 PUSH32 0xA493A9229478C3FCD73F66D2CDEB7F94FD0F341DA924D1054236D78454116511 SWAP1 PUSH1 0x20 ADD PUSH1 0x40 MLOAD DUP1 SWAP2 SUB SWAP1 LOG2 PUSH1 0xA SLOAD PUSH2 0x1049 SWAP1 DUP4 PUSH2 0x16E2 JUMP JUMPDEST PUSH1 0xA SSTORE POP POP JUMP JUMPDEST PUSH1 0x5 SLOAD PUSH1 0x1 PUSH1 0x1 PUSH1 0xA0 SHL SUB AND CALLER EQ PUSH2 0x107A JUMPI PUSH1 0x40 MLOAD PUSH3 0x461BCD PUSH1 0xE5 SHL DUP2 MSTORE PUSH1 0x4 ADD PUSH2 0x763 SWAP1 PUSH2 0x1D8F JUMP JUMPDEST PUSH1 0x1 PUSH1 0x1 PUSH1 0xA0 SHL SUB DUP2 AND PUSH2 0x10DF JUMPI PUSH1 0x40 MLOAD PUSH3 0x461BCD PUSH1 0xE5 SHL DUP2 MSTORE PUSH1 0x20 PUSH1 0x4 DUP3 ADD MSTORE PUSH1 0x26 PUSH1 0x24 DUP3 ADD MSTORE PUSH32 0x4F776E61626C653A206E6577206F776E657220697320746865207A65726F2061 PUSH1 0x44 DUP3 ADD MSTORE PUSH6 0x646472657373 PUSH1 0xD0 SHL PUSH1 0x64 DUP3 ADD MSTORE PUSH1 0x84 ADD PUSH2 0x763 JUMP JUMPDEST PUSH1 0x5 SLOAD PUSH1 0x40 MLOAD PUSH1 0x1 PUSH1 0x1 PUSH1 0xA0 SHL SUB DUP1 DUP5 AND SWAP3 AND SWAP1 PUSH32 0x8BE0079C531659141344CD1FD0A4F28419497F9722A3DAAFE3B4186F6B6457E0 SWAP1 PUSH1 0x0 SWAP1 LOG3 PUSH1 0x5 DUP1 SLOAD PUSH1 0x1 PUSH1 0x1 PUSH1 0xA0 SHL SUB NOT AND PUSH1 0x1 PUSH1 0x1 PUSH1 0xA0 SHL SUB SWAP3 SWAP1 SWAP3 AND SWAP2 SWAP1 SWAP2 OR SWAP1 SSTORE JUMP JUMPDEST PUSH1 0x40 MLOAD PUSH4 0x17E142D1 PUSH1 0xE0 SHL DUP2 MSTORE PUSH1 0xB PUSH1 0x4 DUP3 ADD MSTORE PUSH1 0x1 PUSH1 0x1 PUSH1 0xA0 SHL SUB DUP3 AND PUSH1 0x24 DUP3 ADD MSTORE DUP2 SWAP1 PUSH1 0x0 SWAP1 DUP2 SWAP1 DUP2 SWAP1 DUP2 SWAP1 DUP2 SWAP1 DUP2 SWAP1 DUP2 SWAP1 PUSH20 0x0 SWAP1 PUSH4 0x17E142D1 SWAP1 PUSH1 0x44 ADD PUSH1 0x20 PUSH1 0x40 MLOAD DUP1 DUP4 SUB DUP2 DUP7 DUP1 EXTCODESIZE ISZERO DUP1 ISZERO PUSH2 0x11A6 JUMPI PUSH1 0x0 DUP1 REVERT JUMPDEST POP GAS DELEGATECALL ISZERO DUP1 ISZERO PUSH2 0x11BA JUMPI RETURNDATASIZE PUSH1 0x0 DUP1 RETURNDATACOPY RETURNDATASIZE PUSH1 0x0 REVERT JUMPDEST POP POP POP POP PUSH1 0x40 MLOAD RETURNDATASIZE PUSH1 0x1F NOT PUSH1 0x1F DUP3 ADD AND DUP3 ADD DUP1 PUSH1 0x40 MSTORE POP DUP2 ADD SWAP1 PUSH2 0x11DE SWAP2 SWAP1 PUSH2 0x1D0C JUMP JUMPDEST SWAP7 POP PUSH1 0x0 NOT SWAP6 POP PUSH1 0x0 DUP8 SLT PUSH2 0x1240 JUMPI PUSH1 0xF SLOAD DUP8 GT ISZERO PUSH2 0x120C JUMPI PUSH1 0xF SLOAD PUSH2 0x1205 SWAP1 DUP9 SWAP1 PUSH2 0x18F9 JUMP JUMPDEST SWAP6 POP PUSH2 0x1240 JUMP JUMPDEST PUSH1 0xF SLOAD PUSH1 0xB SLOAD PUSH1 0x0 SWAP2 LT PUSH2 0x1221 JUMPI PUSH1 0x0 PUSH2 0x1230 JUMP JUMPDEST PUSH1 0xF SLOAD PUSH1 0xB SLOAD PUSH2 0x1230 SWAP2 PUSH2 0x1741 JUMP JUMPDEST SWAP1 POP PUSH2 0x123C DUP9 DUP3 PUSH2 0x162C JUMP JUMPDEST SWAP7 POP POP JUMPDEST PUSH2 0x1249 DUP9 PUSH2 0xBCE JUMP JUMPDEST SWAP5 POP PUSH2 0x1254 DUP9 PUSH2 0x6D5 JUMP JUMPDEST PUSH1 0x1 PUSH1 0x1 PUSH1 0xA0 SHL SUB DUP10 AND PUSH1 0x0 SWAP1 DUP2 MSTORE PUSH1 0x13 PUSH1 0x20 MSTORE PUSH1 0x40 SWAP1 KECCAK256 SLOAD SWAP1 SWAP5 POP SWAP3 POP DUP3 PUSH2 0x127E JUMPI PUSH1 0x0 PUSH2 0x128C JUMP JUMPDEST PUSH1 0x14 SLOAD PUSH2 0x128C SWAP1 DUP5 SWAP1 PUSH2 0x16E2 JUMP JUMPDEST SWAP2 POP TIMESTAMP DUP3 GT PUSH2 0x129C JUMPI PUSH1 0x0 PUSH2 0x12A6 JUMP JUMPDEST PUSH2 0x12A6 DUP3 TIMESTAMP PUSH2 0x1741 JUMP JUMPDEST SWAP1 POP SWAP2 SWAP4 SWAP6 SWAP8 POP SWAP2 SWAP4 SWAP6 SWAP8 JUMP JUMPDEST PUSH1 0xB SLOAD PUSH1 0x0 SWAP1 DUP2 SWAP1 DUP2 SWAP1 DUP1 PUSH2 0x12D3 JUMPI POP POP PUSH1 0xF SLOAD PUSH1 0x0 SWAP3 POP DUP3 SWAP2 POP PUSH2 0x13D5 JUMP JUMPDEST PUSH1 0xF SLOAD PUSH1 0x0 DUP1 GAS SWAP1 POP PUSH1 0x0 DUP1 JUMPDEST DUP10 DUP5 LT DUP1 ISZERO PUSH2 0x12EE JUMPI POP DUP6 DUP3 LT JUMPDEST ISZERO PUSH2 0x13C4 JUMPI DUP5 PUSH2 0x12FD DUP2 PUSH2 0x1EED JUMP JUMPDEST PUSH1 0xB SLOAD SWAP1 SWAP7 POP DUP7 LT SWAP1 POP PUSH2 0x1310 JUMPI PUSH1 0x0 SWAP5 POP JUMPDEST PUSH1 0x0 PUSH1 0xB PUSH1 0x0 ADD DUP7 DUP2 SLOAD DUP2 LT PUSH2 0x1336 JUMPI PUSH4 0x4E487B71 PUSH1 0xE0 SHL PUSH1 0x0 MSTORE PUSH1 0x32 PUSH1 0x4 MSTORE PUSH1 0x24 PUSH1 0x0 REVERT JUMPDEST PUSH1 0x0 SWAP2 DUP3 MSTORE PUSH1 0x20 DUP1 DUP4 KECCAK256 SWAP1 SWAP2 ADD SLOAD PUSH1 0x1 PUSH1 0x1 PUSH1 0xA0 SHL SUB AND DUP1 DUP4 MSTORE PUSH1 0x13 SWAP1 SWAP2 MSTORE PUSH1 0x40 SWAP1 SWAP2 KECCAK256 SLOAD SWAP1 SWAP2 POP PUSH2 0x1367 SWAP1 PUSH2 0x1936 JUMP JUMPDEST ISZERO PUSH2 0x138A JUMPI PUSH2 0x1377 DUP2 PUSH1 0x1 PUSH2 0xC07 JUMP JUMPDEST ISZERO PUSH2 0x138A JUMPI DUP2 PUSH2 0x1386 DUP2 PUSH2 0x1EED JUMP JUMPDEST SWAP3 POP POP JUMPDEST DUP3 PUSH2 0x1394 DUP2 PUSH2 0x1EED JUMP JUMPDEST SWAP4 POP POP PUSH1 0x0 GAS SWAP1 POP DUP1 DUP6 GT ISZERO PUSH2 0x13BB JUMPI PUSH2 0x13B8 PUSH2 0x13B1 DUP7 DUP4 PUSH2 0x1741 JUMP JUMPDEST DUP8 SWAP1 PUSH2 0x16E2 JUMP JUMPDEST SWAP6 POP JUMPDEST SWAP4 POP PUSH2 0x12E0 SWAP1 POP JUMP JUMPDEST PUSH1 0xF DUP6 SWAP1 SSTORE SWAP1 SWAP8 POP SWAP6 POP SWAP2 SWAP4 POP POP POP POP JUMPDEST SWAP2 SWAP4 SWAP1 SWAP3 POP JUMP JUMPDEST PUSH1 0x1 PUSH1 0x1 PUSH1 0xA0 SHL SUB DUP4 AND PUSH2 0x143E JUMPI PUSH1 0x40 MLOAD PUSH3 0x461BCD PUSH1 0xE5 SHL DUP2 MSTORE PUSH1 0x20 PUSH1 0x4 DUP3 ADD MSTORE PUSH1 0x24 DUP1 DUP3 ADD MSTORE PUSH32 0x45524332303A20617070726F76652066726F6D20746865207A65726F20616464 PUSH1 0x44 DUP3 ADD MSTORE PUSH4 0x72657373 PUSH1 0xE0 SHL PUSH1 0x64 DUP3 ADD MSTORE PUSH1 0x84 ADD PUSH2 0x763 JUMP JUMPDEST PUSH1 0x1 PUSH1 0x1 PUSH1 0xA0 SHL SUB DUP3 AND PUSH2 0x149F JUMPI PUSH1 0x40 MLOAD PUSH3 0x461BCD PUSH1 0xE5 SHL DUP2 MSTORE PUSH1 0x20 PUSH1 0x4 DUP3 ADD MSTORE PUSH1 0x22 PUSH1 0x24 DUP3 ADD MSTORE PUSH32 0x45524332303A20617070726F766520746F20746865207A65726F206164647265 PUSH1 0x44 DUP3 ADD MSTORE PUSH2 0x7373 PUSH1 0xF0 SHL PUSH1 0x64 DUP3 ADD MSTORE PUSH1 0x84 ADD PUSH2 0x763 JUMP JUMPDEST PUSH1 0x1 PUSH1 0x1 PUSH1 0xA0 SHL SUB DUP4 DUP2 AND PUSH1 0x0 DUP2 DUP2 MSTORE PUSH1 0x1 PUSH1 0x20 SWAP1 DUP2 MSTORE PUSH1 0x40 DUP1 DUP4 KECCAK256 SWAP5 DUP8 AND DUP1 DUP5 MSTORE SWAP5 DUP3 MSTORE SWAP2 DUP3 SWAP1 KECCAK256 DUP6 SWAP1 SSTORE SWAP1 MLOAD DUP5 DUP2 MSTORE PUSH32 0x8C5BE1E5EBEC7D5BD14F71427D1E84F3DD0314C0F7B2291E5B200AC8C7C3B925 SWAP2 ADD PUSH1 0x40 MLOAD DUP1 SWAP2 SUB SWAP1 LOG3 POP POP POP JUMP JUMPDEST PUSH1 0x40 MLOAD PUSH3 0x461BCD PUSH1 0xE5 SHL DUP2 MSTORE PUSH1 0x20 PUSH1 0x4 DUP3 ADD MSTORE PUSH1 0x26 PUSH1 0x24 DUP3 ADD MSTORE PUSH32 0x4469766964656E645F547261636B65723A204E6F207472616E73666572732061 PUSH1 0x44 DUP3 ADD MSTORE PUSH6 0x1B1B1BDDD959 PUSH1 0xD2 SHL PUSH1 0x64 DUP3 ADD MSTORE PUSH1 0x84 ADD PUSH2 0x763 JUMP JUMPDEST POP POP POP JUMP JUMPDEST PUSH1 0x0 DUP2 DUP5 DUP5 GT ISZERO PUSH2 0x1580 JUMPI PUSH1 0x40 MLOAD PUSH3 0x461BCD PUSH1 0xE5 SHL DUP2 MSTORE PUSH1 0x4 ADD PUSH2 0x763 SWAP2 SWAP1 PUSH2 0x1D3C JUMP JUMPDEST POP PUSH1 0x0 PUSH2 0x158D DUP5 DUP7 PUSH2 0x1E9B JUMP JUMPDEST SWAP6 SWAP5 POP POP POP POP POP JUMP JUMPDEST PUSH1 0x0 DUP3 PUSH2 0x15A5 JUMPI POP PUSH1 0x0 PUSH2 0x666 JUMP JUMPDEST PUSH1 0x0 PUSH2 0x15B1 DUP4 DUP6 PUSH2 0x1E3D JUMP JUMPDEST SWAP1 POP DUP3 PUSH2 0x15BE DUP6 DUP4 PUSH2 0x1E1D JUMP JUMPDEST EQ PUSH2 0x1615 JUMPI PUSH1 0x40 MLOAD PUSH3 0x461BCD PUSH1 0xE5 SHL DUP2 MSTORE PUSH1 0x20 PUSH1 0x4 DUP3 ADD MSTORE PUSH1 0x21 PUSH1 0x24 DUP3 ADD MSTORE PUSH32 0x536166654D6174683A206D756C7469706C69636174696F6E206F766572666C6F PUSH1 0x44 DUP3 ADD MSTORE PUSH1 0x77 PUSH1 0xF8 SHL PUSH1 0x64 DUP3 ADD MSTORE PUSH1 0x84 ADD PUSH2 0x763 JUMP JUMPDEST SWAP4 SWAP3 POP POP POP JUMP JUMPDEST PUSH1 0x0 DUP2 DUP2 DUP2 SLT ISZERO PUSH2 0x731 JUMPI PUSH1 0x0 DUP1 REVERT JUMPDEST PUSH1 0x0 DUP1 PUSH2 0x1639 DUP4 DUP6 PUSH2 0x1DC4 JUMP JUMPDEST SWAP1 POP PUSH1 0x0 DUP4 SLT ISZERO DUP1 ISZERO PUSH2 0x164C JUMPI POP DUP4 DUP2 SLT ISZERO JUMPDEST DUP1 PUSH2 0x1661 JUMPI POP PUSH1 0x0 DUP4 SLT DUP1 ISZERO PUSH2 0x1661 JUMPI POP DUP4 DUP2 SLT JUMPDEST PUSH2 0x1615 JUMPI PUSH1 0x0 DUP1 REVERT JUMPDEST PUSH1 0x0 DUP1 DUP3 SLT ISZERO PUSH2 0x1679 JUMPI PUSH1 0x0 DUP1 REVERT JUMPDEST POP SWAP1 JUMP JUMPDEST PUSH1 0x1 PUSH1 0x1 PUSH1 0xA0 SHL SUB DUP3 AND PUSH1 0x0 SWAP1 DUP2 MSTORE PUSH1 0x20 DUP2 SWAP1 MSTORE PUSH1 0x40 SWAP1 KECCAK256 SLOAD DUP1 DUP3 GT ISZERO PUSH2 0x16BC JUMPI PUSH1 0x0 PUSH2 0x16AA DUP4 DUP4 PUSH2 0x1741 JUMP JUMPDEST SWAP1 POP PUSH2 0x16B6 DUP5 DUP3 PUSH2 0x195D JUMP JUMPDEST POP PUSH2 0x1557 JUMP JUMPDEST DUP1 DUP3 LT ISZERO PUSH2 0x1557 JUMPI PUSH1 0x0 PUSH2 0x16D0 DUP3 DUP5 PUSH2 0x1741 JUMP JUMPDEST SWAP1 POP PUSH2 0x16DC DUP5 DUP3 PUSH2 0x19C1 JUMP JUMPDEST POP POP POP POP JUMP JUMPDEST PUSH1 0x0 DUP1 PUSH2 0x16EF DUP4 DUP6 PUSH2 0x1E05 JUMP JUMPDEST SWAP1 POP DUP4 DUP2 LT ISZERO PUSH2 0x1615 JUMPI PUSH1 0x40 MLOAD PUSH3 0x461BCD PUSH1 0xE5 SHL DUP2 MSTORE PUSH1 0x20 PUSH1 0x4 DUP3 ADD MSTORE PUSH1 0x1B PUSH1 0x24 DUP3 ADD MSTORE PUSH32 0x536166654D6174683A206164646974696F6E206F766572666C6F770000000000 PUSH1 0x44 DUP3 ADD MSTORE PUSH1 0x64 ADD PUSH2 0x763 JUMP JUMPDEST PUSH1 0x0 PUSH2 0x1615 DUP4 DUP4 PUSH1 0x40 MLOAD DUP1 PUSH1 0x40 ADD PUSH1 0x40 MSTORE DUP1 PUSH1 0x1E DUP2 MSTORE PUSH1 0x20 ADD PUSH32 0x536166654D6174683A207375627472616374696F6E206F766572666C6F770000 DUP2 MSTORE POP PUSH2 0x155C JUMP JUMPDEST PUSH1 0x0 DUP1 PUSH2 0x178F DUP4 PUSH2 0xBCE JUMP JUMPDEST SWAP1 POP DUP1 ISZERO PUSH2 0x18F0 JUMPI PUSH1 0x1 PUSH1 0x1 PUSH1 0xA0 SHL SUB DUP4 AND PUSH1 0x0 SWAP1 DUP2 MSTORE PUSH1 0x9 PUSH1 0x20 MSTORE PUSH1 0x40 SWAP1 KECCAK256 SLOAD PUSH2 0x17BA SWAP1 DUP3 PUSH2 0x16E2 JUMP JUMPDEST PUSH1 0x1 PUSH1 0x1 PUSH1 0xA0 SHL SUB DUP5 AND PUSH1 0x0 DUP2 DUP2 MSTORE PUSH1 0x9 PUSH1 0x20 MSTORE PUSH1 0x40 SWAP1 DUP2 SWAP1 KECCAK256 SWAP3 SWAP1 SWAP3 SSTORE SWAP1 MLOAD PUSH32 0xEE503BEE2BB6A87E57BC57DB795F98137327401A0E7B7CE42E37926CC1A9CA4D SWAP1 PUSH2 0x1809 SWAP1 DUP5 DUP2 MSTORE PUSH1 0x20 ADD SWAP1 JUMP JUMPDEST PUSH1 0x40 MLOAD DUP1 SWAP2 SUB SWAP1 LOG2 PUSH1 0x6 SLOAD PUSH1 0x40 MLOAD PUSH4 0xA9059CBB PUSH1 0xE0 SHL DUP2 MSTORE PUSH1 0x1 PUSH1 0x1 PUSH1 0xA0 SHL SUB DUP6 DUP2 AND PUSH1 0x4 DUP4 ADD MSTORE PUSH1 0x24 DUP3 ADD DUP5 SWAP1 MSTORE PUSH1 0x0 SWAP3 AND SWAP1 PUSH4 0xA9059CBB SWAP1 PUSH1 0x44 ADD PUSH1 0x20 PUSH1 0x40 MLOAD DUP1 DUP4 SUB DUP2 PUSH1 0x0 DUP8 DUP1 EXTCODESIZE ISZERO DUP1 ISZERO PUSH2 0x1860 JUMPI PUSH1 0x0 DUP1 REVERT JUMPDEST POP GAS CALL ISZERO DUP1 ISZERO PUSH2 0x1874 JUMPI RETURNDATASIZE PUSH1 0x0 DUP1 RETURNDATACOPY RETURNDATASIZE PUSH1 0x0 REVERT JUMPDEST POP POP POP POP PUSH1 0x40 MLOAD RETURNDATASIZE PUSH1 0x1F NOT PUSH1 0x1F DUP3 ADD AND DUP3 ADD DUP1 PUSH1 0x40 MSTORE POP DUP2 ADD SWAP1 PUSH2 0x1898 SWAP2 SWAP1 PUSH2 0x1CF0 JUMP JUMPDEST SWAP1 POP DUP1 PUSH2 0x18E8 JUMPI PUSH1 0x1 PUSH1 0x1 PUSH1 0xA0 SHL SUB DUP5 AND PUSH1 0x0 SWAP1 DUP2 MSTORE PUSH1 0x9 PUSH1 0x20 MSTORE PUSH1 0x40 SWAP1 KECCAK256 SLOAD PUSH2 0x18C2 SWAP1 DUP4 PUSH2 0x1741 JUMP JUMPDEST PUSH1 0x1 PUSH1 0x1 PUSH1 0xA0 SHL SUB DUP6 AND PUSH1 0x0 SWAP1 DUP2 MSTORE PUSH1 0x9 PUSH1 0x20 MSTORE PUSH1 0x40 DUP2 KECCAK256 SWAP2 SWAP1 SWAP2 SSTORE SWAP3 POP PUSH2 0x734 SWAP2 POP POP JUMP JUMPDEST POP SWAP1 POP PUSH2 0x734 JUMP JUMPDEST POP PUSH1 0x0 SWAP3 SWAP2 POP POP JUMP JUMPDEST PUSH1 0x0 DUP1 PUSH2 0x1906 DUP4 DUP6 PUSH2 0x1E5C JUMP JUMPDEST SWAP1 POP PUSH1 0x0 DUP4 SLT ISZERO DUP1 ISZERO PUSH2 0x1919 JUMPI POP DUP4 DUP2 SGT ISZERO JUMPDEST DUP1 PUSH2 0x1661 JUMPI POP PUSH1 0x0 DUP4 SLT DUP1 ISZERO PUSH2 0x1661 JUMPI POP DUP4 DUP2 SGT PUSH2 0x1615 JUMPI PUSH1 0x0 DUP1 REVERT JUMPDEST PUSH1 0x0 TIMESTAMP DUP3 GT ISZERO PUSH2 0x1948 JUMPI POP PUSH1 0x0 PUSH2 0x734 JUMP JUMPDEST PUSH1 0x14 SLOAD PUSH2 0x1955 TIMESTAMP DUP5 PUSH2 0x1741 JUMP JUMPDEST LT ISZERO SWAP3 SWAP2 POP POP JUMP JUMPDEST PUSH2 0x1967 DUP3 DUP3 PUSH2 0x1A05 JUMP JUMPDEST PUSH2 0x19A1 PUSH2 0x1982 PUSH2 0x717 DUP4 PUSH1 0x7 SLOAD PUSH2 0x1596 SWAP1 SWAP2 SWAP1 PUSH4 0xFFFFFFFF AND JUMP JUMPDEST PUSH1 0x1 PUSH1 0x1 PUSH1 0xA0 SHL SUB DUP5 AND PUSH1 0x0 SWAP1 DUP2 MSTORE PUSH1 0x8 PUSH1 0x20 MSTORE PUSH1 0x40 SWAP1 KECCAK256 SLOAD SWAP1 PUSH2 0x18F9 JUMP JUMPDEST PUSH1 0x1 PUSH1 0x1 PUSH1 0xA0 SHL SUB SWAP1 SWAP3 AND PUSH1 0x0 SWAP1 DUP2 MSTORE PUSH1 0x8 PUSH1 0x20 MSTORE PUSH1 0x40 SWAP1 KECCAK256 SWAP2 SWAP1 SWAP2 SSTORE POP JUMP JUMPDEST PUSH2 0x19CB DUP3 DUP3 PUSH2 0x1AE4 JUMP JUMPDEST PUSH2 0x19A1 PUSH2 0x19E6 PUSH2 0x717 DUP4 PUSH1 0x7 SLOAD PUSH2 0x1596 SWAP1 SWAP2 SWAP1 PUSH4 0xFFFFFFFF AND JUMP JUMPDEST PUSH1 0x1 PUSH1 0x1 PUSH1 0xA0 SHL SUB DUP5 AND PUSH1 0x0 SWAP1 DUP2 MSTORE PUSH1 0x8 PUSH1 0x20 MSTORE PUSH1 0x40 SWAP1 KECCAK256 SLOAD SWAP1 PUSH2 0x162C JUMP JUMPDEST PUSH1 0x1 PUSH1 0x1 PUSH1 0xA0 SHL SUB DUP3 AND PUSH2 0x1A5B JUMPI PUSH1 0x40 MLOAD PUSH3 0x461BCD PUSH1 0xE5 SHL DUP2 MSTORE PUSH1 0x20 PUSH1 0x4 DUP3 ADD MSTORE PUSH1 0x1F PUSH1 0x24 DUP3 ADD MSTORE PUSH32 0x45524332303A206D696E7420746F20746865207A65726F206164647265737300 PUSH1 0x44 DUP3 ADD MSTORE PUSH1 0x64 ADD PUSH2 0x763 JUMP JUMPDEST PUSH1 0x2 SLOAD PUSH2 0x1A68 SWAP1 DUP3 PUSH2 0x16E2 JUMP JUMPDEST PUSH1 0x2 SSTORE PUSH1 0x1 PUSH1 0x1 PUSH1 0xA0 SHL SUB DUP3 AND PUSH1 0x0 SWAP1 DUP2 MSTORE PUSH1 0x20 DUP2 SWAP1 MSTORE PUSH1 0x40 SWAP1 KECCAK256 SLOAD PUSH2 0x1A8E SWAP1 DUP3 PUSH2 0x16E2 JUMP JUMPDEST PUSH1 0x1 PUSH1 0x1 PUSH1 0xA0 SHL SUB DUP4 AND PUSH1 0x0 DUP2 DUP2 MSTORE PUSH1 0x20 DUP2 DUP2 MSTORE PUSH1 0x40 DUP1 DUP4 KECCAK256 SWAP5 SWAP1 SWAP5 SSTORE SWAP3 MLOAD DUP5 DUP2 MSTORE SWAP2 SWAP3 SWAP1 SWAP2 PUSH32 0xDDF252AD1BE2C89B69C2B068FC378DAA952BA7F163C4A11628F55A4DF523B3EF SWAP2 ADD JUMPDEST PUSH1 0x40 MLOAD DUP1 SWAP2 SUB SWAP1 LOG3 POP POP JUMP JUMPDEST PUSH1 0x1 PUSH1 0x1 PUSH1 0xA0 SHL SUB DUP3 AND PUSH2 0x1B44 JUMPI PUSH1 0x40 MLOAD PUSH3 0x461BCD PUSH1 0xE5 SHL DUP2 MSTORE PUSH1 0x20 PUSH1 0x4 DUP3 ADD MSTORE PUSH1 0x21 PUSH1 0x24 DUP3 ADD MSTORE PUSH32 0x45524332303A206275726E2066726F6D20746865207A65726F20616464726573 PUSH1 0x44 DUP3 ADD MSTORE PUSH1 0x73 PUSH1 0xF8 SHL PUSH1 0x64 DUP3 ADD MSTORE PUSH1 0x84 ADD PUSH2 0x763 JUMP JUMPDEST PUSH2 0x1B81 DUP2 PUSH1 0x40 MLOAD DUP1 PUSH1 0x60 ADD PUSH1 0x40 MSTORE DUP1 PUSH1 0x22 DUP2 MSTORE PUSH1 0x20 ADD PUSH2 0x1F45 PUSH1 0x22 SWAP2 CODECOPY PUSH1 0x1 PUSH1 0x1 PUSH1 0xA0 SHL SUB DUP6 AND PUSH1 0x0 SWAP1 DUP2 MSTORE PUSH1 0x20 DUP2 SWAP1 MSTORE PUSH1 0x40 SWAP1 KECCAK256 SLOAD SWAP2 SWAP1 PUSH2 0x155C JUMP JUMPDEST PUSH1 0x1 PUSH1 0x1 PUSH1 0xA0 SHL SUB DUP4 AND PUSH1 0x0 SWAP1 DUP2 MSTORE PUSH1 0x20 DUP2 SWAP1 MSTORE PUSH1 0x40 SWAP1 KECCAK256 SSTORE PUSH1 0x2 SLOAD PUSH2 0x1BA7 SWAP1 DUP3 PUSH2 0x1741 JUMP JUMPDEST PUSH1 0x2 SSTORE PUSH1 0x40 MLOAD DUP2 DUP2 MSTORE PUSH1 0x0 SWAP1 PUSH1 0x1 PUSH1 0x1 PUSH1 0xA0 SHL SUB DUP5 AND SWAP1 PUSH32 0xDDF252AD1BE2C89B69C2B068FC378DAA952BA7F163C4A11628F55A4DF523B3EF SWAP1 PUSH1 0x20 ADD PUSH2 0x1AD8 JUMP JUMPDEST PUSH1 0x0 PUSH1 0x20 DUP3 DUP5 SUB SLT ISZERO PUSH2 0x1BF9 JUMPI DUP1 DUP2 REVERT JUMPDEST DUP2 CALLDATALOAD PUSH2 0x1615 DUP2 PUSH2 0x1F1E JUMP JUMPDEST PUSH1 0x0 PUSH1 0x20 DUP3 DUP5 SUB SLT ISZERO PUSH2 0x1C15 JUMPI DUP1 DUP2 REVERT JUMPDEST DUP2 MLOAD PUSH2 0x1615 DUP2 PUSH2 0x1F1E JUMP JUMPDEST PUSH1 0x0 DUP1 PUSH1 0x40 DUP4 DUP6 SUB SLT ISZERO PUSH2 0x1C32 JUMPI DUP1 DUP2 REVERT JUMPDEST DUP3 CALLDATALOAD PUSH2 0x1C3D DUP2 PUSH2 0x1F1E JUMP JUMPDEST SWAP2 POP PUSH1 0x20 DUP4 ADD CALLDATALOAD PUSH2 0x1C4D DUP2 PUSH2 0x1F1E JUMP JUMPDEST DUP1 SWAP2 POP POP SWAP3 POP SWAP3 SWAP1 POP JUMP JUMPDEST PUSH1 0x0 DUP1 PUSH1 0x0 PUSH1 0x60 DUP5 DUP7 SUB SLT ISZERO PUSH2 0x1C6C JUMPI DUP1 DUP2 REVERT JUMPDEST DUP4 CALLDATALOAD PUSH2 0x1C77 DUP2 PUSH2 0x1F1E JUMP JUMPDEST SWAP3 POP PUSH1 0x20 DUP5 ADD CALLDATALOAD PUSH2 0x1C87 DUP2 PUSH2 0x1F1E JUMP JUMPDEST SWAP3 SWAP6 SWAP3 SWAP5 POP POP POP PUSH1 0x40 SWAP2 SWAP1 SWAP2 ADD CALLDATALOAD SWAP1 JUMP JUMPDEST PUSH1 0x0 DUP1 PUSH1 0x40 DUP4 DUP6 SUB SLT ISZERO PUSH2 0x1CAA JUMPI DUP2 DUP3 REVERT JUMPDEST DUP3 CALLDATALOAD PUSH2 0x1CB5 DUP2 PUSH2 0x1F1E JUMP JUMPDEST SWAP2 POP PUSH1 0x20 DUP4 ADD CALLDATALOAD PUSH2 0x1C4D DUP2 PUSH2 0x1F36 JUMP JUMPDEST PUSH1 0x0 DUP1 PUSH1 0x40 DUP4 DUP6 SUB SLT ISZERO PUSH2 0x1CD7 JUMPI DUP2 DUP3 REVERT JUMPDEST DUP3 CALLDATALOAD PUSH2 0x1CE2 DUP2 PUSH2 0x1F1E JUMP JUMPDEST SWAP5 PUSH1 0x20 SWAP4 SWAP1 SWAP4 ADD CALLDATALOAD SWAP4 POP POP POP JUMP JUMPDEST PUSH1 0x0 PUSH1 0x20 DUP3 DUP5 SUB SLT ISZERO PUSH2 0x1D01 JUMPI DUP1 DUP2 REVERT JUMPDEST DUP2 MLOAD PUSH2 0x1615 DUP2 PUSH2 0x1F36 JUMP JUMPDEST PUSH1 0x0 PUSH1 0x20 DUP3 DUP5 SUB SLT ISZERO PUSH2 0x1D1D JUMPI DUP1 DUP2 REVERT JUMPDEST POP MLOAD SWAP2 SWAP1 POP JUMP JUMPDEST PUSH1 0x0 PUSH1 0x20 DUP3 DUP5 SUB SLT ISZERO PUSH2 0x1D35 JUMPI DUP1 DUP2 REVERT JUMPDEST POP CALLDATALOAD SWAP2 SWAP1 POP JUMP JUMPDEST PUSH1 0x0 PUSH1 0x20 DUP1 DUP4 MSTORE DUP4 MLOAD DUP1 DUP3 DUP6 ADD MSTORE DUP3 JUMPDEST DUP2 DUP2 LT ISZERO PUSH2 0x1D68 JUMPI DUP6 DUP2 ADD DUP4 ADD MLOAD DUP6 DUP3 ADD PUSH1 0x40 ADD MSTORE DUP3 ADD PUSH2 0x1D4C JUMP JUMPDEST DUP2 DUP2 GT ISZERO PUSH2 0x1D79 JUMPI DUP4 PUSH1 0x40 DUP4 DUP8 ADD ADD MSTORE JUMPDEST POP PUSH1 0x1F ADD PUSH1 0x1F NOT AND SWAP3 SWAP1 SWAP3 ADD PUSH1 0x40 ADD SWAP4 SWAP3 POP POP POP JUMP JUMPDEST PUSH1 0x20 DUP1 DUP3 MSTORE DUP2 DUP2 ADD MSTORE PUSH32 0x4F776E61626C653A2063616C6C6572206973206E6F7420746865206F776E6572 PUSH1 0x40 DUP3 ADD MSTORE PUSH1 0x60 ADD SWAP1 JUMP JUMPDEST PUSH1 0x0 DUP1 DUP3 SLT DUP1 ISZERO PUSH1 0x1 PUSH1 0x1 PUSH1 0xFF SHL SUB DUP5 SWAP1 SUB DUP6 SGT AND ISZERO PUSH2 0x1DE6 JUMPI PUSH2 0x1DE6 PUSH2 0x1F08 JUMP JUMPDEST PUSH1 0x1 PUSH1 0xFF SHL DUP4 SWAP1 SUB DUP5 SLT DUP2 AND ISZERO PUSH2 0x1DFF JUMPI PUSH2 0x1DFF PUSH2 0x1F08 JUMP JUMPDEST POP POP ADD SWAP1 JUMP JUMPDEST PUSH1 0x0 DUP3 NOT DUP3 GT ISZERO PUSH2 0x1E18 JUMPI PUSH2 0x1E18 PUSH2 0x1F08 JUMP JUMPDEST POP ADD SWAP1 JUMP JUMPDEST PUSH1 0x0 DUP3 PUSH2 0x1E38 JUMPI PUSH4 0x4E487B71 PUSH1 0xE0 SHL DUP2 MSTORE PUSH1 0x12 PUSH1 0x4 MSTORE PUSH1 0x24 DUP2 REVERT JUMPDEST POP DIV SWAP1 JUMP JUMPDEST PUSH1 0x0 DUP2 PUSH1 0x0 NOT DIV DUP4 GT DUP3 ISZERO ISZERO AND ISZERO PUSH2 0x1E57 JUMPI PUSH2 0x1E57 PUSH2 0x1F08 JUMP JUMPDEST POP MUL SWAP1 JUMP JUMPDEST PUSH1 0x0 DUP1 DUP4 SLT DUP1 ISZERO PUSH1 0x1 PUSH1 0xFF SHL DUP6 ADD DUP5 SLT AND ISZERO PUSH2 0x1E7A JUMPI PUSH2 0x1E7A PUSH2 0x1F08 JUMP JUMPDEST PUSH1 0x1 PUSH1 0x1 PUSH1 0xFF SHL SUB DUP5 ADD DUP4 SGT DUP2 AND ISZERO PUSH2 0x1E95 JUMPI PUSH2 0x1E95 PUSH2 0x1F08 JUMP JUMPDEST POP POP SUB SWAP1 JUMP JUMPDEST PUSH1 0x0 DUP3 DUP3 LT ISZERO PUSH2 0x1EAD JUMPI PUSH2 0x1EAD PUSH2 0x1F08 JUMP JUMPDEST POP SUB SWAP1 JUMP JUMPDEST PUSH1 0x1 DUP2 DUP2 SHR SWAP1 DUP3 AND DUP1 PUSH2 0x1EC6 JUMPI PUSH1 0x7F DUP3 AND SWAP2 POP JUMPDEST PUSH1 0x20 DUP3 LT DUP2 EQ ISZERO PUSH2 0x1EE7 JUMPI PUSH4 0x4E487B71 PUSH1 0xE0 SHL PUSH1 0x0 MSTORE PUSH1 0x22 PUSH1 0x4 MSTORE PUSH1 0x24 PUSH1 0x0 REVERT JUMPDEST POP SWAP2 SWAP1 POP JUMP JUMPDEST PUSH1 0x0 PUSH1 0x0 NOT DUP3 EQ ISZERO PUSH2 0x1F01 JUMPI PUSH2 0x1F01 PUSH2 0x1F08 JUMP JUMPDEST POP PUSH1 0x1 ADD SWAP1 JUMP JUMPDEST PUSH4 0x4E487B71 PUSH1 0xE0 SHL PUSH1 0x0 MSTORE PUSH1 0x11 PUSH1 0x4 MSTORE PUSH1 0x24 PUSH1 0x0 REVERT JUMPDEST PUSH1 0x1 PUSH1 0x1 PUSH1 0xA0 SHL SUB DUP2 AND DUP2 EQ PUSH2 0x1F33 JUMPI PUSH1 0x0 DUP1 REVERT JUMPDEST POP JUMP JUMPDEST DUP1 ISZERO ISZERO DUP2 EQ PUSH2 0x1F33 JUMPI PUSH1 0x0 DUP1 REVERT INVALID GASLIMIT MSTORE NUMBER ORIGIN ADDRESS GASPRICE KECCAK256 PUSH3 0x75726E KECCAK256 PUSH2 0x6D6F PUSH22 0x6E7420657863656564732062616C616E636545524332 ADDRESS GASPRICE KECCAK256 PUSH21 0x72616E7366657220616D6F756E7420657863656564 PUSH20 0x20616C6C6F77616E636545524332303A20646563 PUSH19 0x656173656420616C6C6F77616E63652062656C PUSH16 0x77207A65726FA2646970667358221220 0xB9 SSTORE 0xF6 MSTORE8 0xA5 DELEGATECALL SWAP15 0x5F DUP1 0xB2 EXTCODECOPY MULMOD 0x4F 0xB6 ADD 0xB1 0xD0 PUSH13 0x8988A4B47D815188D5BBAB7075 SWAP6 PUSH5 0x736F6C6343 STOP ADDMOD SUB STOP CALLER "
		},
		"gasEstimates": {
			"creation": {
				"codeDepositCost": "1633800",
				"executionCost": "infinite",
				"totalCost": "infinite"
			},
			"external": {
				"SHIB()": "1129",
				"accumulativeDividendOf(address)": "infinite",
				"allowance(address,address)": "infinite",
				"approve(address,uint256)": "22566",
				"balanceOf(address)": "1367",
				"claimWait()": "1106",
				"decimals()": "311",
				"decreaseAllowance(address,uint256)": "infinite",
				"distributeSHIBDividends(uint256)": "infinite",
				"dividendOf(address)": "infinite",
				"excludeFromDividends(address)": "infinite",
				"excludedFromDividends(address)": "1337",
				"getAccount(address)": "infinite",
				"getAccountAtIndex(uint256)": "infinite",
				"getLastProcessedIndex()": "1125",
				"getNumberOfTokenHolders()": "1072",
				"getSPWallet()": "1079",
				"increaseAllowance(address,uint256)": "23679",
				"lastClaimTimes(address)": "1259",
				"lastProcessedIndex()": "1107",
				"minimumTokenBalanceForDividends()": "1040",
				"multiSigWallet()": "1130",
				"name()": "infinite",
				"owner()": "1124",
				"process(uint256)": "infinite",
				"processAccount(address,bool)": "infinite",
				"renounceOwnership()": "24208",
				"setBalance(address,uint256)": "infinite",
				"setSPWallet(address)": "22094",
				"symbol()": "infinite",
				"totalDividendsDistributed()": "1063",
				"totalSupply()": "1105",
				"transfer(address,uint256)": "564",
				"transferFrom(address,address,uint256)": "infinite",
				"transferOwnership(address)": "24482",
				"updateClaimWait(uint256)": "24287",
				"withdrawDividend()": "355",
				"withdrawableDividendOf(address)": "infinite",
				"withdrawnDividendOf(address)": "1342"
			},
			"internal": {
				"_transfer(address,address,uint256)": "infinite",
				"canAutoClaim(uint256)": "infinite"
			}
		},
		"methodIdentifiers": {
			"SHIB()": "e24b85e7",
			"accumulativeDividendOf(address)": "27ce0147",
			"allowance(address,address)": "dd62ed3e",
			"approve(address,uint256)": "095ea7b3",
			"balanceOf(address)": "70a08231",
			"claimWait()": "6f2789ec",
			"decimals()": "313ce567",
			"decreaseAllowance(address,uint256)": "a457c2d7",
			"distributeSHIBDividends(uint256)": "ec4be22d",
			"dividendOf(address)": "91b89fba",
			"excludeFromDividends(address)": "31e79db0",
			"excludedFromDividends(address)": "4e7b827f",
			"getAccount(address)": "fbcbc0f1",
			"getAccountAtIndex(uint256)": "5183d6fd",
			"getLastProcessedIndex()": "e7841ec0",
			"getNumberOfTokenHolders()": "09bbedde",
			"getSPWallet()": "5e83fc1e",
			"increaseAllowance(address,uint256)": "39509351",
			"lastClaimTimes(address)": "226cfa3d",
			"lastProcessedIndex()": "3009a609",
			"minimumTokenBalanceForDividends()": "be10b614",
			"multiSigWallet()": "4b8feb4f",
			"name()": "06fdde03",
			"owner()": "8da5cb5b",
			"process(uint256)": "ffb2c479",
			"processAccount(address,bool)": "bc4c4b37",
			"renounceOwnership()": "715018a6",
			"setBalance(address,uint256)": "e30443bc",
			"setSPWallet(address)": "6d91196f",
			"symbol()": "95d89b41",
			"totalDividendsDistributed()": "85a6b3ae",
			"totalSupply()": "18160ddd",
			"transfer(address,uint256)": "a9059cbb",
			"transferFrom(address,address,uint256)": "23b872dd",
			"transferOwnership(address)": "f2fde38b",
			"updateClaimWait(uint256)": "e98030c7",
			"withdrawDividend()": "6a474002",
			"withdrawableDividendOf(address)": "a8b9d240",
			"withdrawnDividendOf(address)": "aafd847a"
		}
	},
	"abi": [
		{
			"inputs": [],
			"stateMutability": "nonpayable",
			"type": "constructor"
		},
		{
			"anonymous": false,
			"inputs": [
				{
					"indexed": true,
					"internalType": "address",
					"name": "owner",
					"type": "address"
				},
				{
					"indexed": true,
					"internalType": "address",
					"name": "spender",
					"type": "address"
				},
				{
					"indexed": false,
					"internalType": "uint256",
					"name": "value",
					"type": "uint256"
				}
			],
			"name": "Approval",
			"type": "event"
		},
		{
			"anonymous": false,
			"inputs": [
				{
					"indexed": true,
					"internalType": "address",
					"name": "account",
					"type": "address"
				},
				{
					"indexed": false,
					"internalType": "uint256",
					"name": "amount",
					"type": "uint256"
				},
				{
					"indexed": true,
					"internalType": "bool",
					"name": "automatic",
					"type": "bool"
				}
			],
			"name": "Claim",
			"type": "event"
		},
		{
			"anonymous": false,
			"inputs": [
				{
					"indexed": true,
					"internalType": "uint256",
					"name": "newValue",
					"type": "uint256"
				},
				{
					"indexed": true,
					"internalType": "uint256",
					"name": "oldValue",
					"type": "uint256"
				}
			],
			"name": "ClaimWaitUpdated",
			"type": "event"
		},
		{
			"anonymous": false,
			"inputs": [
				{
					"indexed": true,
					"internalType": "address",
					"name": "to",
					"type": "address"
				},
				{
					"indexed": false,
					"internalType": "uint256",
					"name": "weiAmount",
					"type": "uint256"
				}
			],
			"name": "DividendWithdrawn",
			"type": "event"
		},
		{
			"anonymous": false,
			"inputs": [
				{
					"indexed": true,
					"internalType": "address",
					"name": "from",
					"type": "address"
				},
				{
					"indexed": false,
					"internalType": "uint256",
					"name": "weiAmount",
					"type": "uint256"
				}
			],
			"name": "DividendsDistributed",
			"type": "event"
		},
		{
			"anonymous": false,
			"inputs": [
				{
					"indexed": true,
					"internalType": "address",
					"name": "account",
					"type": "address"
				}
			],
			"name": "ExcludeFromDividends",
			"type": "event"
		},
		{
			"anonymous": false,
			"inputs": [
				{
					"indexed": true,
					"internalType": "address",
					"name": "previousOwner",
					"type": "address"
				},
				{
					"indexed": true,
					"internalType": "address",
					"name": "newOwner",
					"type": "address"
				}
			],
			"name": "OwnershipTransferred",
			"type": "event"
		},
		{
			"anonymous": false,
			"inputs": [
				{
					"indexed": true,
					"internalType": "address",
					"name": "from",
					"type": "address"
				},
				{
					"indexed": true,
					"internalType": "address",
					"name": "to",
					"type": "address"
				},
				{
					"indexed": false,
					"internalType": "uint256",
					"name": "value",
					"type": "uint256"
				}
			],
			"name": "Transfer",
			"type": "event"
		},
		{
			"inputs": [],
			"name": "SHIB",
			"outputs": [
				{
					"internalType": "address",
					"name": "",
					"type": "address"
				}
			],
			"stateMutability": "view",
			"type": "function"
		},
		{
			"inputs": [
				{
					"internalType": "address",
					"name": "_owner",
					"type": "address"
				}
			],
			"name": "accumulativeDividendOf",
			"outputs": [
				{
					"internalType": "uint256",
					"name": "",
					"type": "uint256"
				}
			],
			"stateMutability": "view",
			"type": "function"
		},
		{
			"inputs": [
				{
					"internalType": "address",
					"name": "owner",
					"type": "address"
				},
				{
					"internalType": "address",
					"name": "spender",
					"type": "address"
				}
			],
			"name": "allowance",
			"outputs": [
				{
					"internalType": "uint256",
					"name": "",
					"type": "uint256"
				}
			],
			"stateMutability": "view",
			"type": "function"
		},
		{
			"inputs": [
				{
					"internalType": "address",
					"name": "spender",
					"type": "address"
				},
				{
					"internalType": "uint256",
					"name": "amount",
					"type": "uint256"
				}
			],
			"name": "approve",
			"outputs": [
				{
					"internalType": "bool",
					"name": "",
					"type": "bool"
				}
			],
			"stateMutability": "nonpayable",
			"type": "function"
		},
		{
			"inputs": [
				{
					"internalType": "address",
					"name": "account",
					"type": "address"
				}
			],
			"name": "balanceOf",
			"outputs": [
				{
					"internalType": "uint256",
					"name": "",
					"type": "uint256"
				}
			],
			"stateMutability": "view",
			"type": "function"
		},
		{
			"inputs": [],
			"name": "claimWait",
			"outputs": [
				{
					"internalType": "uint256",
					"name": "",
					"type": "uint256"
				}
			],
			"stateMutability": "view",
			"type": "function"
		},
		{
			"inputs": [],
			"name": "decimals",
			"outputs": [
				{
					"internalType": "uint8",
					"name": "",
					"type": "uint8"
				}
			],
			"stateMutability": "view",
			"type": "function"
		},
		{
			"inputs": [
				{
					"internalType": "address",
					"name": "spender",
					"type": "address"
				},
				{
					"internalType": "uint256",
					"name": "subtractedValue",
					"type": "uint256"
				}
			],
			"name": "decreaseAllowance",
			"outputs": [
				{
					"internalType": "bool",
					"name": "",
					"type": "bool"
				}
			],
			"stateMutability": "nonpayable",
			"type": "function"
		},
		{
			"inputs": [
				{
					"internalType": "uint256",
					"name": "amount",
					"type": "uint256"
				}
			],
			"name": "distributeSHIBDividends",
			"outputs": [],
			"stateMutability": "nonpayable",
			"type": "function"
		},
		{
			"inputs": [
				{
					"internalType": "address",
					"name": "_owner",
					"type": "address"
				}
			],
			"name": "dividendOf",
			"outputs": [
				{
					"internalType": "uint256",
					"name": "",
					"type": "uint256"
				}
			],
			"stateMutability": "view",
			"type": "function"
		},
		{
			"inputs": [
				{
					"internalType": "address",
					"name": "account",
					"type": "address"
				}
			],
			"name": "excludeFromDividends",
			"outputs": [],
			"stateMutability": "nonpayable",
			"type": "function"
		},
		{
			"inputs": [
				{
					"internalType": "address",
					"name": "",
					"type": "address"
				}
			],
			"name": "excludedFromDividends",
			"outputs": [
				{
					"internalType": "bool",
					"name": "",
					"type": "bool"
				}
			],
			"stateMutability": "view",
			"type": "function"
		},
		{
			"inputs": [
				{
					"internalType": "address",
					"name": "_account",
					"type": "address"
				}
			],
			"name": "getAccount",
			"outputs": [
				{
					"internalType": "address",
					"name": "account",
					"type": "address"
				},
				{
					"internalType": "int256",
					"name": "index",
					"type": "int256"
				},
				{
					"internalType": "int256",
					"name": "iterationsUntilProcessed",
					"type": "int256"
				},
				{
					"internalType": "uint256",
					"name": "withdrawableDividends",
					"type": "uint256"
				},
				{
					"internalType": "uint256",
					"name": "totalDividends",
					"type": "uint256"
				},
				{
					"internalType": "uint256",
					"name": "lastClaimTime",
					"type": "uint256"
				},
				{
					"internalType": "uint256",
					"name": "nextClaimTime",
					"type": "uint256"
				},
				{
					"internalType": "uint256",
					"name": "secondsUntilAutoClaimAvailable",
					"type": "uint256"
				}
			],
			"stateMutability": "view",
			"type": "function"
		},
		{
			"inputs": [
				{
					"internalType": "uint256",
					"name": "index",
					"type": "uint256"
				}
			],
			"name": "getAccountAtIndex",
			"outputs": [
				{
					"internalType": "address",
					"name": "",
					"type": "address"
				},
				{
					"internalType": "int256",
					"name": "",
					"type": "int256"
				},
				{
					"internalType": "int256",
					"name": "",
					"type": "int256"
				},
				{
					"internalType": "uint256",
					"name": "",
					"type": "uint256"
				},
				{
					"internalType": "uint256",
					"name": "",
					"type": "uint256"
				},
				{
					"internalType": "uint256",
					"name": "",
					"type": "uint256"
				},
				{
					"internalType": "uint256",
					"name": "",
					"type": "uint256"
				},
				{
					"internalType": "uint256",
					"name": "",
					"type": "uint256"
				}
			],
			"stateMutability": "view",
			"type": "function"
		},
		{
			"inputs": [],
			"name": "getLastProcessedIndex",
			"outputs": [
				{
					"internalType": "uint256",
					"name": "",
					"type": "uint256"
				}
			],
			"stateMutability": "view",
			"type": "function"
		},
		{
			"inputs": [],
			"name": "getNumberOfTokenHolders",
			"outputs": [
				{
					"internalType": "uint256",
					"name": "",
					"type": "uint256"
				}
			],
			"stateMutability": "view",
			"type": "function"
		},
		{
			"inputs": [],
			"name": "getSPWallet",
			"outputs": [
				{
					"internalType": "address",
					"name": "",
					"type": "address"
				}
			],
			"stateMutability": "view",
			"type": "function"
		},
		{
			"inputs": [
				{
					"internalType": "address",
					"name": "spender",
					"type": "address"
				},
				{
					"internalType": "uint256",
					"name": "addedValue",
					"type": "uint256"
				}
			],
			"name": "increaseAllowance",
			"outputs": [
				{
					"internalType": "bool",
					"name": "",
					"type": "bool"
				}
			],
			"stateMutability": "nonpayable",
			"type": "function"
		},
		{
			"inputs": [
				{
					"internalType": "address",
					"name": "",
					"type": "address"
				}
			],
			"name": "lastClaimTimes",
			"outputs": [
				{
					"internalType": "uint256",
					"name": "",
					"type": "uint256"
				}
			],
			"stateMutability": "view",
			"type": "function"
		},
		{
			"inputs": [],
			"name": "lastProcessedIndex",
			"outputs": [
				{
					"internalType": "uint256",
					"name": "",
					"type": "uint256"
				}
			],
			"stateMutability": "view",
			"type": "function"
		},
		{
			"inputs": [],
			"name": "minimumTokenBalanceForDividends",
			"outputs": [
				{
					"internalType": "uint256",
					"name": "",
					"type": "uint256"
				}
			],
			"stateMutability": "view",
			"type": "function"
		},
		{
			"inputs": [],
			"name": "multiSigWallet",
			"outputs": [
				{
					"internalType": "address",
					"name": "",
					"type": "address"
				}
			],
			"stateMutability": "view",
			"type": "function"
		},
		{
			"inputs": [],
			"name": "name",
			"outputs": [
				{
					"internalType": "string",
					"name": "",
					"type": "string"
				}
			],
			"stateMutability": "view",
			"type": "function"
		},
		{
			"inputs": [],
			"name": "owner",
			"outputs": [
				{
					"internalType": "address",
					"name": "",
					"type": "address"
				}
			],
			"stateMutability": "view",
			"type": "function"
		},
		{
			"inputs": [
				{
					"internalType": "uint256",
					"name": "gas",
					"type": "uint256"
				}
			],
			"name": "process",
			"outputs": [
				{
					"internalType": "uint256",
					"name": "",
					"type": "uint256"
				},
				{
					"internalType": "uint256",
					"name": "",
					"type": "uint256"
				},
				{
					"internalType": "uint256",
					"name": "",
					"type": "uint256"
				}
			],
			"stateMutability": "nonpayable",
			"type": "function"
		},
		{
			"inputs": [
				{
					"internalType": "address",
					"name": "account",
					"type": "address"
				},
				{
					"internalType": "bool",
					"name": "automatic",
					"type": "bool"
				}
			],
			"name": "processAccount",
			"outputs": [
				{
					"internalType": "bool",
					"name": "",
					"type": "bool"
				}
			],
			"stateMutability": "nonpayable",
			"type": "function"
		},
		{
			"inputs": [],
			"name": "renounceOwnership",
			"outputs": [],
			"stateMutability": "nonpayable",
			"type": "function"
		},
		{
			"inputs": [
				{
					"internalType": "address",
					"name": "account",
					"type": "address"
				},
				{
					"internalType": "uint256",
					"name": "newBalance",
					"type": "uint256"
				}
			],
			"name": "setBalance",
			"outputs": [],
			"stateMutability": "nonpayable",
			"type": "function"
		},
		{
			"inputs": [
				{
					"internalType": "address",
					"name": "addr",
					"type": "address"
				}
			],
			"name": "setSPWallet",
			"outputs": [],
			"stateMutability": "nonpayable",
			"type": "function"
		},
		{
			"inputs": [],
			"name": "symbol",
			"outputs": [
				{
					"internalType": "string",
					"name": "",
					"type": "string"
				}
			],
			"stateMutability": "view",
			"type": "function"
		},
		{
			"inputs": [],
			"name": "totalDividendsDistributed",
			"outputs": [
				{
					"internalType": "uint256",
					"name": "",
					"type": "uint256"
				}
			],
			"stateMutability": "view",
			"type": "function"
		},
		{
			"inputs": [],
			"name": "totalSupply",
			"outputs": [
				{
					"internalType": "uint256",
					"name": "",
					"type": "uint256"
				}
			],
			"stateMutability": "view",
			"type": "function"
		},
		{
			"inputs": [
				{
					"internalType": "address",
					"name": "recipient",
					"type": "address"
				},
				{
					"internalType": "uint256",
					"name": "amount",
					"type": "uint256"
				}
			],
			"name": "transfer",
			"outputs": [
				{
					"internalType": "bool",
					"name": "",
					"type": "bool"
				}
			],
			"stateMutability": "nonpayable",
			"type": "function"
		},
		{
			"inputs": [
				{
					"internalType": "address",
					"name": "sender",
					"type": "address"
				},
				{
					"internalType": "address",
					"name": "recipient",
					"type": "address"
				},
				{
					"internalType": "uint256",
					"name": "amount",
					"type": "uint256"
				}
			],
			"name": "transferFrom",
			"outputs": [
				{
					"internalType": "bool",
					"name": "",
					"type": "bool"
				}
			],
			"stateMutability": "nonpayable",
			"type": "function"
		},
		{
			"inputs": [
				{
					"internalType": "address",
					"name": "newOwner",
					"type": "address"
				}
			],
			"name": "transferOwnership",
			"outputs": [],
			"stateMutability": "nonpayable",
			"type": "function"
		},
		{
			"inputs": [
				{
					"internalType": "uint256",
					"name": "newClaimWait",
					"type": "uint256"
				}
			],
			"name": "updateClaimWait",
			"outputs": [],
			"stateMutability": "nonpayable",
			"type": "function"
		},
		{
			"inputs": [],
			"name": "withdrawDividend",
			"outputs": [],
			"stateMutability": "pure",
			"type": "function"
		},
		{
			"inputs": [
				{
					"internalType": "address",
					"name": "_owner",
					"type": "address"
				}
			],
			"name": "withdrawableDividendOf",
			"outputs": [
				{
					"internalType": "uint256",
					"name": "",
					"type": "uint256"
				}
			],
			"stateMutability": "view",
			"type": "function"
		},
		{
			"inputs": [
				{
					"internalType": "address",
					"name": "_owner",
					"type": "address"
				}
			],
			"name": "withdrawnDividendOf",
			"outputs": [
				{
					"internalType": "uint256",
					"name": "",
					"type": "uint256"
				}
			],
			"stateMutability": "view",
			"type": "function"
		}
	]
}