{
	"data": {
		"bytecode": {
			"linkReferences": {
				"IterableMapping.sol": {
					"IterableMapping": [
						{
							"length": 20,
							"start": 20998
						},
						{
							"length": 20,
							"start": 21200
						},
						{
							"length": 20,
							"start": 21405
						},
						{
							"length": 20,
							"start": 22410
						},
						{
							"length": 20,
							"start": 22540
						},
						{
							"length": 20,
							"start": 23442
						}
					]
				}
			},
			"object": "6080604052600980546001600160a01b031990811661dead17909155600a805490911673cb1e72786a6eb3b44c2a2429e317c8a2462cfeb1179055633b9aca00600b81905562000054906305f5e10062000b33565b600c556001600e8190556009600f55601081905560026011819055600d60125560046013556014819055601555601655601780546001600160a01b0319908116738954afa98594b838bda56fe4c12a09d7739d179b17909155601880548216733813e82e6f7098b9583fc0f33a962d02018b6803179055601980548216732d78e5905045b2b3be56ca21dacddf4a7a72a88a179055601a805490911673b64d4270b8fe21e2704701df9c8401ff110ecffd179055620493e0601b553480156200011c57600080fd5b506040518060400160405280600c81526020016b536869624b696e672050726f60a01b815250604051806040016040528060038152602001620534b560ec1b81525081600390805190602001906200017692919062000a3b565b5080516200018c90600490602084019062000a3b565b5050506000620001a16200061c60201b60201c565b600580546001600160a01b0319166001600160a01b038316908117909155604051919250906000907f8be0079c531659141344cd1fd0a4f28419497f9722a3daafe3b4186f6b6457e0908290a350604051620001fd9062000aca565b604051809103906000f0801580156200021a573d6000803e3d6000fd5b50600880546001600160a01b0319166001600160a01b039283161790556017546040805163c45a015560e01b815290519190921691600091839163c45a0155916004808301926020929190829003018186803b1580156200027a57600080fd5b505afa1580156200028f573d6000803e3d6000fd5b505050506040513d601f19601f82011682018060405250810190620002b5919062000aef565b6001600160a01b031663c9c6539630846001600160a01b031663ad5c46486040518163ffffffff1660e01b815260040160206040518083038186803b158015620002fe57600080fd5b505afa15801562000313573d6000803e3d6000fd5b505050506040513d601f19601f8201168201806040525081019062000339919062000aef565b6040516001600160e01b031960e085901b1681526001600160a01b03928316600482015291166024820152604401602060405180830381600087803b1580156200038257600080fd5b505af115801562000397573d6000803e3d6000fd5b505050506040513d601f19601f82011682018060405250810190620003bd919062000aef565b600680546001600160a01b038086166001600160a01b03199283161790925560078054928416929091169190911790559050620003fc81600162000620565b60085460405163031e79db60e41b81526001600160a01b0390911660048201819052906331e79db090602401600060405180830381600087803b1580156200044357600080fd5b505af115801562000458573d6000803e3d6000fd5b505060085460405163031e79db60e41b81523060048201526001600160a01b0390911692506331e79db09150602401600060405180830381600087803b158015620004a257600080fd5b505af1158015620004b7573d6000803e3d6000fd5b505060085460095460405163031e79db60e41b81526001600160a01b039182166004820152911692506331e79db09150602401600060405180830381600087803b1580156200050557600080fd5b505af11580156200051a573d6000803e3d6000fd5b50506008546001600160a01b03169150636d91196f9050620005446005546001600160a01b031690565b6040516001600160e01b031960e084901b1681526001600160a01b039091166004820152602401600060405180830381600087803b1580156200058657600080fd5b505af11580156200059b573d6000803e3d6000fd5b50505050620005bb620005b36200078760201b60201c565b600162000796565b620005c830600162000796565b600954620005e1906001600160a01b0316600162000796565b62000614620005f86005546001600160a01b031690565b600b546200060e9066038d7ea4c6800062000b33565b620008d5565b505062000ba8565b3390565b6001600160a01b0382166000908152601d602052604090205460ff1615158115151415620006bb5760405162461bcd60e51b815260206004820152603860248201527f4175746f6d61746564206d61726b6574206d616b65722070616972206973206160448201527f6c72656164792073657420746f20746861742076616c7565000000000000000060648201526084015b60405180910390fd5b6001600160a01b0382166000908152601d60205260409020805460ff191682158015919091179091556200074b5760085460405163031e79db60e41b81526001600160a01b038481166004830152909116906331e79db090602401600060405180830381600087803b1580156200073157600080fd5b505af115801562000746573d6000803e3d6000fd5b505050505b604051811515906001600160a01b038416907fffa9187bf1f18bf477bd0ea1bcbb64e93b6a98132473929edfce215cd9b16fab90600090a35050565b6005546001600160a01b031690565b6005546001600160a01b03163314620007f25760405162461bcd60e51b815260206004820181905260248201527f4f776e61626c653a2063616c6c6572206973206e6f7420746865206f776e65726044820152606401620006b2565b6001600160a01b0382166000908152601c602052604090205460ff1615158115151415620008765760405162461bcd60e51b815260206004820152602a60248201527f4163636f756e7420697320616c7265616479207468652076616c7565206f6620604482015269276578636c756465642760b01b6064820152608401620006b2565b6001600160a01b0382166000818152601c6020908152604091829020805460ff191685151590811790915591519182527f9d8f7706ea1113d1a167b526eca956215946dd36cc7df39eb16180222d8b5df7910160405180910390a25050565b6001600160a01b0382166200092d5760405162461bcd60e51b815260206004820152601f60248201527f45524332303a206d696e7420746f20746865207a65726f2061646472657373006044820152606401620006b2565b6200094981600254620009d160201b620017201790919060201c565b6002556001600160a01b038216600090815260208181526040909120546200097c91839062001720620009d1821b17901c565b6001600160a01b038316600081815260208181526040808320949094559251848152919290917fddf252ad1be2c89b69c2b068fc378daa952ba7f163c4a11628f55a4df523b3ef910160405180910390a35050565b600080620009e0838562000b18565b90508381101562000a345760405162461bcd60e51b815260206004820152601b60248201527f536166654d6174683a206164646974696f6e206f766572666c6f7700000000006044820152606401620006b2565b9392505050565b82805462000a499062000b55565b90600052602060002090601f01602090048101928262000a6d576000855562000ab8565b82601f1062000a8857805160ff191683800117855562000ab8565b8280016001018555821562000ab8579182015b8281111562000ab857825182559160200191906001019062000a9b565b5062000ac692915062000ad8565b5090565b61224a80620047c083390190565b5b8082111562000ac6576000815560010162000ad9565b60006020828403121562000b01578081fd5b81516001600160a01b038116811462000a34578182fd5b6000821982111562000b2e5762000b2e62000b92565b500190565b600081600019048311821515161562000b505762000b5062000b92565b500290565b600181811c9082168062000b6a57607f821691505b6020821081141562000b8c57634e487b7160e01b600052602260045260246000fd5b50919050565b634e487b7160e01b600052601160045260246000fd5b613c088062000bb86000396000f3fe6080604052600436106102e85760003560e01c806395d89b4111610190578063c492f046116100dc578063e2f4560511610095578063f27fd2541161006f578063f27fd2541461090f578063f2fde38b1461092f578063f887ea401461094f578063fce589d81461096f576102ef565b8063e2f45605146108c4578063e7841ec0146108da578063e98030c7146108ef576102ef565b8063c492f046146107b2578063c54e44eb146107d2578063d88be3c0146107f2578063dd62ed3e14610828578063e24b85e71461086e578063e2e467cb1461088e576102ef565b8063a8b9d24011610149578063ae13c26a11610123578063ae13c26a1461072c578063afa4f3b214610742578063b62496f514610762578063c024666814610792576102ef565b8063a8b9d24014610687578063a9059cbb146106a7578063ad56c13c146106c7576102ef565b806395d89b41146105f157806398118cb4146106065780639a7a23d61461061c5780639c1b8af51461063c578063a26579ad14610652578063a457c2d714610667576102ef565b8063395093511161024f5780636b67c4df11610208578063715018a6116101e2578063715018a61461057e57806385141a7714610593578063871c128d146105b35780638da5cb5b146105d3576102ef565b80636b67c4df14610528578063700bb1911461053e57806370a082311461055e576102ef565b8063395093511461047e57806349bd5a5e1461049e5780634e71d92d146104be5780634fbee193146104d357806364b0f653146104f35780636843cd8414610508576102ef565b806323b872dd116102a157806323b872dd146103d75780632bb14e1d146103f75780632c1f52161461040d57806330bb4cff1461042d578063313ce5671461044257806331e79db01461045e576102ef565b806306fdde03146102f4578063095ea7b31461031f57806313114a9d1461034f5780631694505e1461037357806318160ddd146103ab5780631dd19cb4146103c0576102ef565b366102ef57005b600080fd5b34801561030057600080fd5b50610309610985565b60405161031691906138d0565b60405180910390f35b34801561032b57600080fd5b5061033f61033a3660046136b7565b610a17565b6040519015158152602001610316565b34801561035b57600080fd5b5061036560125481565b604051908152602001610316565b34801561037f57600080fd5b50600654610393906001600160a01b031681565b6040516001600160a01b039091168152602001610316565b3480156103b757600080fd5b50600254610365565b3480156103cc57600080fd5b506103d5610a2e565b005b3480156103e357600080fd5b5061033f6103f23660046135e1565b610baf565b34801561040357600080fd5b50610365600f5481565b34801561041957600080fd5b50600854610393906001600160a01b031681565b34801561043957600080fd5b50610365610c18565b34801561044e57600080fd5b5060405160098152602001610316565b34801561046a57600080fd5b506103d5610479366004613571565b610c9a565b34801561048a57600080fd5b5061033f6104993660046136b7565b610d27565b3480156104aa57600080fd5b50600754610393906001600160a01b031681565b3480156104ca57600080fd5b506103d5610d5d565b3480156104df57600080fd5b5061033f6104ee366004613571565b610de4565b3480156104ff57600080fd5b50610365610e06565b34801561051457600080fd5b50610365610523366004613571565b610e4b565b34801561053457600080fd5b5061036560115481565b34801561054a57600080fd5b506103d56105593660046137d7565b610eca565b34801561056a57600080fd5b50610365610579366004613571565b610fab565b34801561058a57600080fd5b506103d5610fc6565b34801561059f57600080fd5b50600954610393906001600160a01b031681565b3480156105bf57600080fd5b506103d56105ce3660046137d7565b61103a565b3480156105df57600080fd5b506005546001600160a01b0316610393565b3480156105fd57600080fd5b5061030961117d565b34801561061257600080fd5b50610365600e5481565b34801561062857600080fd5b506103d5610637366004613621565b61118c565b34801561064857600080fd5b50610365601b5481565b34801561065e57600080fd5b50610365611244565b34801561067357600080fd5b5061033f6106823660046136b7565b611289565b34801561069357600080fd5b506103656106a2366004613571565b6112d8565b3480156106b357600080fd5b5061033f6106c23660046136b7565b61130b565b3480156106d357600080fd5b506106e76106e2366004613571565b611318565b604080516001600160a01b0390991689526020890197909752958701949094526060860192909252608085015260a084015260c083015260e082015261010001610316565b34801561073857600080fd5b50610365600d5481565b34801561074e57600080fd5b506103d561075d3660046137d7565b6113c2565b34801561076e57600080fd5b5061033f61077d366004613571565b601d6020526000908152604090205460ff1681565b34801561079e57600080fd5b506103d56107ad366004613621565b6113f1565b3480156107be57600080fd5b506103d56107cd3660046136e2565b6114fc565b3480156107de57600080fd5b50601854610393906001600160a01b031681565b3480156107fe57600080fd5b5061039361080d366004613571565b601e602052600090815260409020546001600160a01b031681565b34801561083457600080fd5b506103656108433660046135a9565b6001600160a01b03918216600090815260016020908152604080832093909416825291909152205490565b34801561087a57600080fd5b50600a54610393906001600160a01b031681565b34801561089a57600080fd5b506103936108a9366004613571565b601f602052600090815260409020546001600160a01b031681565b3480156108d057600080fd5b50610365600c5481565b3480156108e657600080fd5b506103656115d9565b3480156108fb57600080fd5b506103d561090a3660046137d7565b61161e565b34801561091b57600080fd5b506106e761092a3660046137d7565b611679565b34801561093b57600080fd5b506103d561094a366004613571565b6116bb565b34801561095b57600080fd5b50601754610393906001600160a01b031681565b34801561097b57600080fd5b5061036560105481565b60606003805461099490613aba565b80601f01602080910402602001604051908101604052809291908181526020018280546109c090613aba565b8015610a0d5780601f106109e257610100808354040283529160200191610a0d565b820191906000526020600020905b8154815290600101906020018083116109f057829003601f168201915b5050505050905090565b6000610a24338484611786565b5060015b92915050565b6005546001600160a01b03163314610a615760405162461bcd60e51b8152600401610a5890613946565b60405180910390fd5b6018546040516370a0823160e01b81523060048201526000916001600160a01b0316906370a082319060240160206040518083038186803b158015610aa557600080fd5b505afa158015610ab9573d6000803e3d6000fd5b505050506040513d601f19601f82011682018060405250810190610add91906137ef565b6018549091506000906001600160a01b0316610b016005546001600160a01b031690565b83604051602401610b13929190613893565b60408051601f198184030181529181526020820180516001600160e01b031663a9059cbb60e01b17905251610b489190613877565b6000604051808303816000865af19150503d8060008114610b85576040519150601f19603f3d011682016040523d82523d6000602084013e610b8a565b606091505b5050905080610bab5760405162461bcd60e51b8152600401610a58906139c0565b5050565b6000610bbc8484846118ab565b610c0e8433610c0985604051806060016040528060288152602001613b86602891396001600160a01b038a1660009081526001602090815260408083203384529091529020549190612073565b611786565b5060019392505050565b600854604080516342d359d760e11b815290516000926001600160a01b0316916385a6b3ae916004808301926020929190829003018186803b158015610c5d57600080fd5b505afa158015610c71573d6000803e3d6000fd5b505050506040513d601f19601f82011682018060405250810190610c9591906137ef565b905090565b6005546001600160a01b03163314610cc45760405162461bcd60e51b8152600401610a5890613946565b60085460405163031e79db60e41b81526001600160a01b038381166004830152909116906331e79db0906024015b600060405180830381600087803b158015610d0c57600080fd5b505af1158015610d20573d6000803e3d6000fd5b5050505050565b3360008181526001602090815260408083206001600160a01b03871684529091528120549091610a24918590610c099086611720565b60085460405163bc4c4b3760e01b8152336004820152600060248201526001600160a01b039091169063bc4c4b3790604401602060405180830381600087803b158015610da957600080fd5b505af1158015610dbd573d6000803e3d6000fd5b505050506040513d601f19601f82011682018060405250810190610de191906137bb565b50565b6001600160a01b0381166000908152601c602052604090205460ff165b919050565b600854604080516304ddf6ef60e11b815290516000926001600160a01b0316916309bbedde916004808301926020929190829003018186803b158015610c5d57600080fd5b6008546040516370a0823160e01b81526001600160a01b03838116600483015260009216906370a08231906024015b60206040518083038186803b158015610e9257600080fd5b505afa158015610ea6573d6000803e3d6000fd5b505050506040513d601f19601f82011682018060405250810190610a2891906137ef565b6008546040516001624d3b8760e01b0319815260048101839052600091829182916001600160a01b03169063ffb2c47990602401606060405180830381600087803b158015610f1857600080fd5b505af1158015610f2c573d6000803e3d6000fd5b505050506040513d601f19601f82011682018060405250810190610f509190613807565b604080518481526020810184905290810182905260608101889052929550909350915032906000907fc864333d6121033635ab41b29ae52f10a22cf4438c3e4f1c4c68518feb2f8a989060800160405180910390a350505050565b6001600160a01b031660009081526020819052604090205490565b6005546001600160a01b03163314610ff05760405162461bcd60e51b8152600401610a5890613946565b6005546040516000916001600160a01b0316907f8be0079c531659141344cd1fd0a4f28419497f9722a3daafe3b4186f6b6457e0908390a3600580546001600160a01b0319169055565b6005546001600160a01b031633146110645760405162461bcd60e51b8152600401610a5890613946565b62030d40811015801561107a57506207a1208111155b6110e35760405162461bcd60e51b815260206004820152603460248201527f676173466f7250726f63657373696e67206d757374206265206265747765656e6044820152730203230302c30303020616e64203530302c3030360641b6064820152608401610a58565b601b5481141561114a5760405162461bcd60e51b815260206004820152602c60248201527f43616e6e6f742075706461746520676173466f7250726f63657373696e67207460448201526b6f2073616d652076616c756560a01b6064820152608401610a58565b601b5460405182907f40d7e40e79af4e8e5a9b3c57030d8ea93f13d669c06d448c4d631d4ae7d23db790600090a3601b55565b60606004805461099490613aba565b6005546001600160a01b031633146111b65760405162461bcd60e51b8152600401610a5890613946565b6007546001600160a01b038381169116141561123a5760405162461bcd60e51b815260206004820152603e60248201527f546865207377617020706169722063616e6e6f742062652072656d6f7665642060448201527f66726f6d206175746f6d617465644d61726b65744d616b6572506169727300006064820152608401610a58565b610bab82826120ad565b60085460408051631bc9e27b60e21b815290516000926001600160a01b031691636f2789ec916004808301926020929190829003018186803b158015610c5d57600080fd5b6000610a243384610c0985604051806060016040528060258152602001613bae602591393360009081526001602090815260408083206001600160a01b038d1684529091529020549190612073565b6008546040516302a2e74960e61b81526001600160a01b038381166004830152600092169063a8b9d24090602401610e7a565b6000610a243384846118ab565b60085460405163fbcbc0f160e01b81526001600160a01b038381166004830152600092839283928392839283928392839291169063fbcbc0f1906024015b6101006040518083038186803b15801561136f57600080fd5b505afa158015611383573d6000803e3d6000fd5b505050506040513d601f19601f820116820180604052508101906113a7919061364e565b97509750975097509750975097509750919395975091939597565b6005546001600160a01b031633146113ec5760405162461bcd60e51b8152600401610a5890613946565b600c55565b6005546001600160a01b0316331461141b5760405162461bcd60e51b8152600401610a5890613946565b6001600160a01b0382166000908152601c602052604090205460ff161515811515141561149d5760405162461bcd60e51b815260206004820152602a60248201527f4163636f756e7420697320616c7265616479207468652076616c7565206f6620604482015269276578636c756465642760b01b6064820152608401610a58565b6001600160a01b0382166000818152601c6020908152604091829020805460ff191685151590811790915591519182527f9d8f7706ea1113d1a167b526eca956215946dd36cc7df39eb16180222d8b5df7910160405180910390a25050565b6005546001600160a01b031633146115265760405162461bcd60e51b8152600401610a5890613946565b60005b825181101561159b5781601c600085848151811061155757634e487b7160e01b600052603260045260246000fd5b6020908102919091018101516001600160a01b03168252810191909152604001600020805460ff19169115159190911790558061159381613af5565b915050611529565b507f7fdaf542373fa84f4ee8d662c642f44e4c2276a217d7d29e548b6eb29a233b3582826040516115cd9291906138ac565b60405180910390a15050565b6008546040805163039e107b60e61b815290516000926001600160a01b03169163e7841ec0916004808301926020929190829003018186803b158015610c5d57600080fd5b6005546001600160a01b031633146116485760405162461bcd60e51b8152600401610a5890613946565b60085460405163e98030c760e01b8152600481018390526001600160a01b039091169063e98030c790602401610cf2565b600854604051635183d6fd60e01b81526004810183905260009182918291829182918291829182916001600160a01b0390911690635183d6fd90602401611356565b6005546001600160a01b031633146116e55760405162461bcd60e51b8152600401610a5890613946565b6116ee8161220b565b600854604051636d91196f60e01b81526001600160a01b03838116600483015290911690636d91196f90602401610cf2565b60008061172d8385613a20565b90508381101561177f5760405162461bcd60e51b815260206004820152601b60248201527f536166654d6174683a206164646974696f6e206f766572666c6f7700000000006044820152606401610a58565b9392505050565b6001600160a01b0383166117e85760405162461bcd60e51b8152602060048201526024808201527f45524332303a20617070726f76652066726f6d20746865207a65726f206164646044820152637265737360e01b6064820152608401610a58565b6001600160a01b0382166118495760405162461bcd60e51b815260206004820152602260248201527f45524332303a20617070726f766520746f20746865207a65726f206164647265604482015261737360f01b6064820152608401610a58565b6001600160a01b0383811660008181526001602090815260408083209487168084529482529182902085905590518481527f8c5be1e5ebec7d5bd14f71427d1e84f3dd0314c0f7b2291e5b200ac8c7c3b92591015b60405180910390a3505050565b6001600160a01b0383166118d15760405162461bcd60e51b8152600401610a589061397b565b6001600160a01b0382166118f75760405162461bcd60e51b8152600401610a5890613903565b8061190d57611908838360006122f6565b61206e565b6001600160a01b03831630148061192c57506001600160a01b03821630145b1561193c576119088383836122f6565b6017546001600160a01b03848116911614801561196657506005546001600160a01b038381169116145b1561197057600080fd5b6007546001600160a01b0384811691161480159061199c57506007546001600160a01b03838116911614155b15611b2c576119ac8383836122f6565b6008546001600160a01b031663e30443bc846119c781610fab565b6040518363ffffffff1660e01b81526004016119e4929190613893565b600060405180830381600087803b1580156119fe57600080fd5b505af1925050508015611a0f575060015b506008546001600160a01b031663e30443bc83611a2b81610fab565b6040518363ffffffff1660e01b8152600401611a48929190613893565b600060405180830381600087803b158015611a6257600080fd5b505af1925050508015611a73575060015b506001600160a01b038281166000908152601e602052604090205416158015611aab5750600b54611aa790620f4240613a58565b8110155b15611908576001600160a01b038281166000908152601e602052604080822080546001600160a01b03191687851690811790915582529020541615611908576001600160a01b038084166000908152601e60209081526040808320548685168452601f90925290912080546001600160a01b0319169190921617905561206e565b6001600160a01b038281166000908152601e602052604090205416611b9757600580546001600160a01b038481166000908152601e6020908152604080832080549585166001600160a01b03199687161790559454601f909152939020805490921692169190911790555b6000611ba230610fab565b90506000611bbd600d54600c5461172090919063ffffffff16565b8210159050808015611bd95750600754600160a01b900460ff16155b8015611bfe57506001600160a01b0385166000908152601d602052604090205460ff16155b8015611c1857506005546001600160a01b03868116911614155b8015611c3257506005546001600160a01b03858116911614155b15611d21576007805460ff60a01b1916600160a01b179055600d54611c589083906123ff565b91506000611c7d601254611c776011548661244190919063ffffffff16565b906124c0565b9050611c8881612502565b6000611ca5601254611c776010548761244190919063ffffffff16565b600954909150611cc09030906001600160a01b0316836122f6565b6000611ce9600d54611ce3601254611c77600e548a61244190919063ffffffff16565b90611720565b9050611cf4816126e5565b6000600d819055611d0430610fab565b9050611d0f8161276c565b50506007805460ff60a01b1916905550505b6007546001600160a01b0386166000908152601c602052604090205460ff600160a01b909204821615911680611d6f57506001600160a01b0385166000908152601c602052604090205460ff165b15611d78575060005b808015611d8757506000601254115b15611eae57600080611da96064611c776012548961244190919063ffffffff16565b9050611db68830836122f6565b6007546001600160a01b0388811691161415611de257601654601554611ddb91611720565b9150611df4565b601454601354611df191611720565b91505b601254600090611e0890611c778486612441565b600754909150600160a01b900460ff16158015611e3e57506001600160a01b0389166000908152601d602052604090205460ff16155b15611e72576007805460ff60a01b1916600160a01b179055611e608982612924565b6007805460ff60a01b19169055611e9e565b6001600160a01b0389166000908152601d602052604090205460ff1615611e9e57611e9e888285612e08565b611ea887836123ff565b96505050505b611eb98686866122f6565b6008546001600160a01b031663e30443bc87611ed481610fab565b6040518363ffffffff1660e01b8152600401611ef1929190613893565b600060405180830381600087803b158015611f0b57600080fd5b505af1925050508015611f1c575060015b506008546001600160a01b031663e30443bc86611f3881610fab565b6040518363ffffffff1660e01b8152600401611f55929190613893565b600060405180830381600087803b158015611f6f57600080fd5b505af1925050508015611f80575060015b50600754600160a01b900460ff1661206a57601b546008546040516001624d3b8760e01b03198152600481018390526001600160a01b039091169063ffb2c47990602401606060405180830381600087803b158015611fde57600080fd5b505af192505050801561200e575060408051601f3d908101601f1916820190925261200b91810190613807565b60015b61201757612068565b60408051848152602081018490529081018290526060810185905232906001907fc864333d6121033635ab41b29ae52f10a22cf4438c3e4f1c4c68518feb2f8a989060800160405180910390a35050505b505b5050505b505050565b600081848411156120975760405162461bcd60e51b8152600401610a5891906138d0565b5060006120a48486613a77565b95945050505050565b6001600160a01b0382166000908152601d602052604090205460ff16151581151514156121425760405162461bcd60e51b815260206004820152603860248201527f4175746f6d61746564206d61726b6574206d616b65722070616972206973206160448201527f6c72656164792073657420746f20746861742076616c756500000000000000006064820152608401610a58565b6001600160a01b0382166000908152601d60205260409020805460ff191682158015919091179091556121cf5760085460405163031e79db60e41b81526001600160a01b038481166004830152909116906331e79db090602401600060405180830381600087803b1580156121b657600080fd5b505af11580156121ca573d6000803e3d6000fd5b505050505b604051811515906001600160a01b038416907fffa9187bf1f18bf477bd0ea1bcbb64e93b6a98132473929edfce215cd9b16fab90600090a35050565b6005546001600160a01b031633146122355760405162461bcd60e51b8152600401610a5890613946565b6001600160a01b03811661229a5760405162461bcd60e51b815260206004820152602660248201527f4f776e61626c653a206e6577206f776e657220697320746865207a65726f206160448201526564647265737360d01b6064820152608401610a58565b6005546040516001600160a01b038084169216907f8be0079c531659141344cd1fd0a4f28419497f9722a3daafe3b4186f6b6457e090600090a3600580546001600160a01b0319166001600160a01b0392909216919091179055565b6001600160a01b03831661231c5760405162461bcd60e51b8152600401610a589061397b565b6001600160a01b0382166123425760405162461bcd60e51b8152600401610a5890613903565b61237f81604051806060016040528060268152602001613b60602691396001600160a01b0386166000908152602081905260409020549190612073565b6001600160a01b0380851660009081526020819052604080822093909355908416815220546123ae9082611720565b6001600160a01b038381166000818152602081815260409182902094909455518481529092918616917fddf252ad1be2c89b69c2b068fc378daa952ba7f163c4a11628f55a4df523b3ef910161189e565b600061177f83836040518060400160405280601e81526020017f536166654d6174683a207375627472616374696f6e206f766572666c6f770000815250612073565b60008261245057506000610a28565b600061245c8385613a58565b9050826124698583613a38565b1461177f5760405162461bcd60e51b815260206004820152602160248201527f536166654d6174683a206d756c7469706c69636174696f6e206f766572666c6f6044820152607760f81b6064820152608401610a58565b600061177f83836040518060400160405280601a81526020017f536166654d6174683a206469766973696f6e206279207a65726f000000000000815250612ffd565b8061250c57610de1565b6018546040516370a0823160e01b81523060048201526000916001600160a01b0316906370a082319060240160206040518083038186803b15801561255057600080fd5b505afa158015612564573d6000803e3d6000fd5b505050506040513d601f19601f8201168201806040525081019061258891906137ef565b90506125938261302b565b6018546040516370a0823160e01b815230600482015260009161261c9184916001600160a01b0316906370a08231906024015b60206040518083038186803b1580156125de57600080fd5b505afa1580156125f2573d6000803e3d6000fd5b505050506040513d601f19601f8201168201806040525081019061261691906137ef565b906123ff565b6018546019546040519293506000926001600160a01b03928316926126479216908590602401613893565b60408051601f198184030181529181526020820180516001600160e01b031663a9059cbb60e01b1790525161267c9190613877565b6000604051808303816000865af19150503d80600081146126b9576040519150601f19603f3d011682016040523d82523d6000602084013e6126be565b606091505b50509050806126df5760405162461bcd60e51b8152600401610a58906139c0565b50505050565b60006126f28260026124c0565b9050600061270083836123ff565b90504761270c836131f3565b600061271847836123ff565b9050612724838261334c565b60408051858152602081018390529081018490527f17bbfb9a6069321b6ded73bd96327c9e6b7212a5cd51ff219cd61370acafb5619060600160405180910390a15050505050565b61277581613405565b600a546040516370a0823160e01b81523060048201526000916001600160a01b0316906370a082319060240160206040518083038186803b1580156127b957600080fd5b505afa1580156127cd573d6000803e3d6000fd5b505050506040513d601f19601f820116820180604052508101906127f191906137ef565b600a5460085460405163a9059cbb60e01b81529293506000926001600160a01b039283169263a9059cbb9261282d929116908690600401613893565b602060405180830381600087803b15801561284757600080fd5b505af115801561285b573d6000803e3d6000fd5b505050506040513d601f19601f8201168201806040525081019061287f91906137bb565b9050801561206e5760085460405163ec4be22d60e01b8152600481018490526001600160a01b039091169063ec4be22d90602401600060405180830381600087803b1580156128cd57600080fd5b505af11580156128e1573d6000803e3d6000fd5b505060408051868152602081018690527f80195cc573b02cc48460cbca6e6e4cc85ddb91959d946e1c3025ea3d87942dc3935001905060405180910390a1505050565b8061292e30610fab565b10806129475750600b5461294490612710613a58565b81105b1561295157610bab565b6001600160a01b038083166000908152601e6020908152604080832054601f90925290912054908216911681612988575050610bab565b600b546129989062989680613a58565b6129a183610fab565b10156129ae575050610bab565b60016001600160a01b0382166129c2575060005b600b546129d29062989680613a58565b6129db83610fab565b10156129e5575060005b6005546001600160a01b0384811691161415612a0a57601a546001600160a01b031692505b6005546001600160a01b0383811691161415612a2f57601a546001600160a01b031691505b6018546040516370a0823160e01b81523060048201526000916001600160a01b0316906370a082319060240160206040518083038186803b158015612a7357600080fd5b505afa158015612a87573d6000803e3d6000fd5b505050506040513d601f19601f82011682018060405250810190612aab91906137ef565b905081612c0b576005546001600160a01b038781166000908152601e6020526040902054811691161415612ae25750505050610bab565b612af26003611c77876002612441565b9450612afd8561302b565b6018546040516370a0823160e01b8152306004820152600091612b349184916001600160a01b0316906370a08231906024016125c6565b90506064811015612b49575050505050610bab565b6018546040516000916001600160a01b031690612b6c9088908590602401613893565b60408051601f198184030181529181526020820180516001600160e01b031663a9059cbb60e01b17905251612ba19190613877565b6000604051808303816000865af19150503d8060008114612bde576040519150601f19603f3d011682016040523d82523d6000602084013e612be3565b606091505b5050905080612c045760405162461bcd60e51b8152600401610a58906139c0565b505061206a565b612c148561302b565b6018546040516370a0823160e01b8152306004820152600091612c4b9184916001600160a01b0316906370a08231906024016125c6565b90506064811015612c60575050505050610bab565b6000612c726003611c77846002612441565b90506000612c8083836123ff565b6018546040519192506000916001600160a01b0390911690612ca8908a908690602401613893565b60408051601f198184030181529181526020820180516001600160e01b031663a9059cbb60e01b17905251612cdd9190613877565b6000604051808303816000865af19150503d8060008114612d1a576040519150601f19603f3d011682016040523d82523d6000602084013e612d1f565b606091505b5050905080612d405760405162461bcd60e51b8152600401610a58906139c0565b6018546040516000916001600160a01b031690612d63908a908690602401613893565b60408051601f198184030181529181526020820180516001600160e01b031663a9059cbb60e01b17905251612d989190613877565b6000604051808303816000865af19150503d8060008114612dd5576040519150601f19603f3d011682016040523d82523d6000602084013e612dda565b606091505b5050905080612dfb5760405162461bcd60e51b8152600401610a58906139c0565b5050505050505050505050565b600b54612e1790612710613a58565b821015612e235761206e565b6001600160a01b038381166000908152601e602052604090205416612e475761206e565b600b54612e579062989680613a58565b6001600160a01b038085166000908152601e6020526040902054612e7b9116610fab565b1015612e865761206e565b6000612ea182611c776013548661244190919063ffffffff16565b90506000612eaf84836123ff565b9050612ec36005546001600160a01b031690565b6001600160a01b038681166000908152601e6020526040902054811691161415612f045781600d6000828254612ef99190613a20565b90915550612f2b9050565b6001600160a01b038086166000908152601e6020526040902054612f2b91309116846122f6565b6001600160a01b038581166000908152601f602052604090205416612f5157505061206e565b600b54612f619062989680613a58565b6001600160a01b038087166000908152601f6020526040902054612f859116610fab565b1015612f9257505061206e565b6005546001600160a01b038681166000908152601f6020526040902054811691161415612fd65780600d6000828254612fcb9190613a20565b90915550610d209050565b6001600160a01b038086166000908152601f6020526040902054610d2091309116836122f6565b6000818361301e5760405162461bcd60e51b8152600401610a5891906138d0565b5060006120a48486613a38565b8061303557610de1565b6040805160038082526080820190925260009160208201606080368337019050509050308160008151811061307a57634e487b7160e01b600052603260045260246000fd5b6001600160a01b03928316602091820292909201810191909152600654604080516315ab88c960e31b81529051919093169263ad5c4648926004808301939192829003018186803b1580156130ce57600080fd5b505afa1580156130e2573d6000803e3d6000fd5b505050506040513d601f19601f82011682018060405250810190613106919061358d565b8160018151811061312757634e487b7160e01b600052603260045260246000fd5b6001600160a01b03928316602091820292909201015260185482519116908290600290811061316657634e487b7160e01b600052603260045260246000fd5b6001600160a01b03928316602091820292909201015260065461318c9130911684611786565b600654604051635c11d79560e01b81526001600160a01b0390911690635c11d795906131c59085906000908690309042906004016139e4565b600060405180830381600087803b1580156131df57600080fd5b505af115801561206a573d6000803e3d6000fd5b806131fd57610de1565b604080516002808252606082018352600092602083019080368337019050509050308160008151811061324057634e487b7160e01b600052603260045260246000fd5b6001600160a01b03928316602091820292909201810191909152600654604080516315ab88c960e31b81529051919093169263ad5c4648926004808301939192829003018186803b15801561329457600080fd5b505afa1580156132a8573d6000803e3d6000fd5b505050506040513d601f19601f820116820180604052508101906132cc919061358d565b816001815181106132ed57634e487b7160e01b600052603260045260246000fd5b6001600160a01b0392831660209182029290920101526006546133139130911684611786565b60065460405163791ac94760e01b81526001600160a01b039091169063791ac947906131c59085906000908690309042906004016139e4565b6006546133649030906001600160a01b031684611786565b60065460405163f305d71960e01b8152306004820152602481018490526000604482018190526064820181905260848201524260a48201526001600160a01b039091169063f305d71990839060c4016060604051808303818588803b1580156133cc57600080fd5b505af11580156133e0573d6000803e3d6000fd5b50505050506040513d601f19601f82011682018060405250810190610d209190613807565b8015806134205750600b5461341d90620186a0613a58565b81105b1561342a57610de1565b6040805160038082526080820190925260009160208201606080368337019050509050308160008151811061346f57634e487b7160e01b600052603260045260246000fd5b6001600160a01b03928316602091820292909201810191909152600654604080516315ab88c960e31b81529051919093169263ad5c4648926004808301939192829003018186803b1580156134c357600080fd5b505afa1580156134d7573d6000803e3d6000fd5b505050506040513d601f19601f820116820180604052508101906134fb919061358d565b8160018151811061351c57634e487b7160e01b600052603260045260246000fd5b6001600160a01b039283166020918202929092010152600a5482519116908290600290811061316657634e487b7160e01b600052603260045260246000fd5b8035610e0181613b3c565b8035610e0181613b51565b600060208284031215613582578081fd5b813561177f81613b3c565b60006020828403121561359e578081fd5b815161177f81613b3c565b600080604083850312156135bb578081fd5b82356135c681613b3c565b915060208301356135d681613b3c565b809150509250929050565b6000806000606084860312156135f5578081fd5b833561360081613b3c565b9250602084013561361081613b3c565b929592945050506040919091013590565b60008060408385031215613633578182fd5b823561363e81613b3c565b915060208301356135d681613b51565b600080600080600080600080610100898b03121561366a578384fd5b885161367581613b3c565b809850506020890151965060408901519550606089015194506080890151935060a0890151925060c0890151915060e089015190509295985092959890939650565b600080604083850312156136c9578182fd5b82356136d481613b3c565b946020939093013593505050565b600080604083850312156136f4578182fd5b823567ffffffffffffffff8082111561370b578384fd5b818501915085601f83011261371e578384fd5b813560208282111561373257613732613b26565b8160051b604051601f19603f8301168101818110868211171561375757613757613b26565b604052838152828101945085830182870184018b1015613775578889fd5b8896505b8487101561379e5761378a8161355b565b865260019690960195948301948301613779565b5096506137ae9050878201613566565b9450505050509250929050565b6000602082840312156137cc578081fd5b815161177f81613b51565b6000602082840312156137e8578081fd5b5035919050565b600060208284031215613800578081fd5b5051919050565b60008060006060848603121561381b578283fd5b8351925060208401519150604084015190509250925092565b6000815180845260208085019450808401835b8381101561386c5781516001600160a01b031687529582019590820190600101613847565b509495945050505050565b60008251613889818460208701613a8e565b9190910192915050565b6001600160a01b03929092168252602082015260400190565b6000604082526138bf6040830185613834565b905082151560208301529392505050565b60006020825282518060208401526138ef816040850160208701613a8e565b601f01601f19169190910160400192915050565b60208082526023908201527f45524332303a207472616e7366657220746f20746865207a65726f206164647260408201526265737360e81b606082015260800190565b6020808252818101527f4f776e61626c653a2063616c6c6572206973206e6f7420746865206f776e6572604082015260600190565b60208082526025908201527f45524332303a207472616e736665722066726f6d20746865207a65726f206164604082015264647265737360d81b606082015260800190565b6020808252600a908201526931b0b6361032b93937b960b11b604082015260600190565b600086825285602083015260a06040830152613a0360a0830186613834565b6001600160a01b0394909416606083015250608001529392505050565b60008219821115613a3357613a33613b10565b500190565b600082613a5357634e487b7160e01b81526012600452602481fd5b500490565b6000816000190483118215151615613a7257613a72613b10565b500290565b600082821015613a8957613a89613b10565b500390565b60005b83811015613aa9578181015183820152602001613a91565b838111156126df5750506000910152565b600181811c90821680613ace57607f821691505b60208210811415613aef57634e487b7160e01b600052602260045260246000fd5b50919050565b6000600019821415613b0957613b09613b10565b5060010190565b634e487b7160e01b600052601160045260246000fd5b634e487b7160e01b600052604160045260246000fd5b6001600160a01b0381168114610de157600080fd5b8015158114610de157600080fdfe45524332303a207472616e7366657220616d6f756e7420657863656564732062616c616e636545524332303a207472616e7366657220616d6f756e74206578636565647320616c6c6f77616e636545524332303a2064656372656173656420616c6c6f77616e63652062656c6f77207a65726fa2646970667358221220193b567335ea0746ddc7e774f8df90377b7b88a2b0204325243c80348ee6b0a364736f6c634300080300336080604052600680546001600160a01b031990811673cb1e72786a6eb3b44c2a2429e317c8a2462cfeb1179091556011805490911673b64d4270b8fe21e2704701df9c8401ff110ecffd1790553480156200005957600080fd5b50604080518082018252601481527f534849425f4469766964656e5f547261636b657200000000000000000000000060208083019182528351808501909452601584527f534849425f4469766964656e645f547261636b6572000000000000000000000090840152815191929183918391620000d8916003916200016e565b508051620000ee9060049060208401906200016e565b5050506000620001036200016a60201b60201c565b600580546001600160a01b0319166001600160a01b038316908117909155604051919250906000907f8be0079c531659141344cd1fd0a4f28419497f9722a3daafe3b4186f6b6457e0908290a35050603c6014555067016345785d8a000060155562000251565b3390565b8280546200017c9062000214565b90600052602060002090601f016020900481019282620001a05760008555620001eb565b82601f10620001bb57805160ff1916838001178555620001eb565b82800160010185558215620001eb579182015b82811115620001eb578251825591602001919060010190620001ce565b50620001f9929150620001fd565b5090565b5b80821115620001f95760008155600101620001fe565b600181811c908216806200022957607f821691505b602082108114156200024b57634e487b7160e01b600052602260045260246000fd5b50919050565b611fe980620002616000396000f3fe608060405234801561001057600080fd5b506004361061023d5760003560e01c8063715018a61161013b578063be10b614116100b8578063e98030c71161007c578063e98030c714610549578063ec4be22d1461055c578063f2fde38b1461056f578063fbcbc0f114610582578063ffb2c479146105955761023d565b8063be10b614146104d9578063dd62ed3e146104e2578063e24b85e71461051b578063e30443bc1461052e578063e7841ec0146105415761023d565b8063a457c2d7116100ff578063a457c2d714610464578063a8b9d24014610477578063a9059cbb1461048a578063aafd847a1461049d578063bc4c4b37146104c65761023d565b8063715018a61461042757806385a6b3ae1461042f5780638da5cb5b1461043857806391b89fba1461044957806395d89b411461045c5761023d565b806331e79db0116101c95780635e83fc1e1161018d5780635e83fc1e146103c95780636a474002146103da5780636d91196f146103e25780636f2789ec146103f557806370a08231146103fe5761023d565b806331e79db0146102fb57806339509351146103105780634b8feb4f146103235780634e7b827f1461034e5780635183d6fd146103715761023d565b8063226cfa3d11610210578063226cfa3d1461029d57806323b872dd146102bd57806327ce0147146102d05780633009a609146102e3578063313ce567146102ec5761023d565b806306fdde0314610242578063095ea7b31461026057806309bbedde1461028357806318160ddd14610295575b600080fd5b61024a6105c3565b6040516102579190611d3c565b60405180910390f35b61027361026e366004611cc5565b610655565b6040519015158152602001610257565b600b545b604051908152602001610257565b600254610287565b6102876102ab366004611be8565b60136020526000908152604090205481565b6102736102cb366004611c58565b61066c565b6102876102de366004611be8565b6106d5565b610287600f5481565b60405160098152602001610257565b61030e610309366004611be8565b610739565b005b61027361031e366004611cc5565b610869565b601154610336906001600160a01b031681565b6040516001600160a01b039091168152602001610257565b61027361035c366004611be8565b60126020526000908152604090205460ff1681565b61038461037f366004611d24565b61089f565b604080516001600160a01b0390991689526020890197909752958701949094526060860192909252608085015260a084015260c083015260e082015261010001610257565b6010546001600160a01b0316610336565b61030e610a11565b61030e6103f0366004611be8565b610aa5565b61028760145481565b61028761040c366004611be8565b6001600160a01b031660009081526020819052604090205490565b61030e610af1565b610287600a5481565b6005546001600160a01b0316610336565b610287610457366004611be8565b610b65565b61024a610b70565b610273610472366004611cc5565b610b7f565b610287610485366004611be8565b610bce565b610273610498366004611cc5565b610bfa565b6102876104ab366004611be8565b6001600160a01b031660009081526009602052604090205490565b6102736104d4366004611c98565b610c07565b61028760155481565b6102876104f0366004611c20565b6001600160a01b03918216600090815260016020908152604080832093909416825291909152205490565b600654610336906001600160a01b031681565b61030e61053c366004611cc5565b610cb5565b600f54610287565b61030e610557366004611d24565b610e3d565b61030e61056a366004611d24565b610f99565b61030e61057d366004611be8565b611050565b610384610590366004611be8565b61113b565b6105a86105a3366004611d24565b6112b3565b60408051938452602084019290925290820152606001610257565b6060600380546105d290611eb2565b80601f01602080910402602001604051908101604052809291908181526020018280546105fe90611eb2565b801561064b5780601f106106205761010080835404028352916020019161064b565b820191906000526020600020905b81548152906001019060200180831161062e57829003601f168201915b5050505050905090565b60006106623384846113dc565b5060015b92915050565b6000610679848484611500565b6106cb84336106c685604051806060016040528060288152602001611f67602891396001600160a01b038a166000908152600160209081526040808320338452909152902054919061155c565b6113dc565b5060019392505050565b6001600160a01b03811660009081526008602090815260408083205491839052822054600754600160801b92610727926107229261071c916107179190611596565b61161c565b9061162c565b61166a565b6107319190611e1d565b90505b919050565b6005546001600160a01b0316331461076c5760405162461bcd60e51b815260040161076390611d8f565b60405180910390fd5b6001600160a01b03811660009081526012602052604090205460ff161561079257600080fd5b6001600160a01b0381166000908152601260205260408120805460ff191660011790556107c090829061167d565b60405163131836e760e21b8152600b60048201526001600160a01b038216602482015273__$b5c84be7e522c98c303ad318c067b85931$__90634c60db9c9060440160006040518083038186803b15801561081a57600080fd5b505af415801561082e573d6000803e3d6000fd5b50506040516001600160a01b03841692507fa878b31040b2e6d0a9a3d3361209db3908ba62014b0dca52adbaee451d128b259150600090a250565b3360008181526001602090815260408083206001600160a01b038716845290915281205490916106629185906106c690866116e2565b600080600080600080600080600b73__$b5c84be7e522c98c303ad318c067b85931$__63deb3d89690916040518263ffffffff1660e01b81526004016108e791815260200190565b60206040518083038186803b1580156108ff57600080fd5b505af4158015610913573d6000803e3d6000fd5b505050506040513d601f19601f820116820180604052508101906109379190611d0c565b891061095c575060009650600019955085945086935083925082915081905080610a06565b6040516368d54f3f60e11b8152600b6004820152602481018a905260009073__$b5c84be7e522c98c303ad318c067b85931$__9063d1aa9e7e9060440160206040518083038186803b1580156109b157600080fd5b505af41580156109c5573d6000803e3d6000fd5b505050506040513d601f19601f820116820180604052508101906109e99190611c04565b90506109f48161113b565b98509850985098509850985098509850505b919395975091939597565b60405162461bcd60e51b815260206004820152605b60248201527f4469766964656e645f547261636b65723a20776974686472617744697669646560448201527f6e642064697361626c65642e20557365207468652027636c61696d272066756e60648201527f6374696f6e206f6e20746865206d61696e20636f6e74726163742e0000000000608482015260a401610763565b6005546001600160a01b03163314610acf5760405162461bcd60e51b815260040161076390611d8f565b601080546001600160a01b0319166001600160a01b0392909216919091179055565b6005546001600160a01b03163314610b1b5760405162461bcd60e51b815260040161076390611d8f565b6005546040516000916001600160a01b0316907f8be0079c531659141344cd1fd0a4f28419497f9722a3daafe3b4186f6b6457e0908390a3600580546001600160a01b0319169055565b600061073182610bce565b6060600480546105d290611eb2565b600061066233846106c685604051806060016040528060258152602001611f8f602591393360009081526001602090815260408083206001600160a01b038d168452909152902054919061155c565b6001600160a01b03811660009081526009602052604081205461073190610bf4846106d5565b90611741565b6000610662338484611500565b6005546000906001600160a01b03163314610c345760405162461bcd60e51b815260040161076390611d8f565b6000610c3f84611783565b90508015610cab576001600160a01b038416600081815260136020526040908190204290555184151591907fa2c38e2d2fb7e3e1912d937fd1ca11ed6d51864dee4cfa7a7bf02becd7acf09290610c999085815260200190565b60405180910390a36001915050610666565b5060009392505050565b6005546001600160a01b03163314610cdf5760405162461bcd60e51b815260040161076390611d8f565b6001600160a01b03821660009081526012602052604090205460ff1615610d0557610e39565b6010546001600160a01b0383811691161415610d2a576011546001600160a01b031691505b6015548110610dbb57610d3d828261167d565b604051632f0ad01760e21b8152600b60048201526001600160a01b03831660248201526044810182905273__$b5c84be7e522c98c303ad318c067b85931$__9063bc2b405c9060640160006040518083038186803b158015610d9e57600080fd5b505af4158015610db2573d6000803e3d6000fd5b50505050610e39565b610dc682600061167d565b60405163131836e760e21b8152600b60048201526001600160a01b038316602482015273__$b5c84be7e522c98c303ad318c067b85931$__90634c60db9c9060440160006040518083038186803b158015610e2057600080fd5b505af4158015610e34573d6000803e3d6000fd5b505050505b5050565b6005546001600160a01b03163314610e675760405162461bcd60e51b815260040161076390611d8f565b62015180811115610eee5760405162461bcd60e51b815260206004820152604560248201527f4469766964656e645f547261636b65723a20636c61696d57616974206d75737460448201527f206265207570646174656420746f206265747765656e203020616e6420323420606482015264686f75727360d81b608482015260a401610763565b601454811415610f665760405162461bcd60e51b815260206004820152603760248201527f4469766964656e645f547261636b65723a2043616e6e6f74207570646174652060448201527f636c61696d5761697420746f2073616d652076616c75650000000000000000006064820152608401610763565b60145460405182907f474ea64804364a1e29a4487ddb63c3342a2dd826ccd8acf48825e680a0e6f20f90600090a3601455565b6005546001600160a01b03163314610fc35760405162461bcd60e51b815260040161076390611d8f565b6000610fce60025490565b905080610fd9575060015b8115610e395761100481610ff184600160801b611596565b610ffb9190611e1d565b600754906116e2565b60075560405182815233907fa493a9229478c3fcd73f66d2cdeb7f94fd0f341da924d1054236d784541165119060200160405180910390a2600a5461104990836116e2565b600a555050565b6005546001600160a01b0316331461107a5760405162461bcd60e51b815260040161076390611d8f565b6001600160a01b0381166110df5760405162461bcd60e51b815260206004820152602660248201527f4f776e61626c653a206e6577206f776e657220697320746865207a65726f206160448201526564647265737360d01b6064820152608401610763565b6005546040516001600160a01b038084169216907f8be0079c531659141344cd1fd0a4f28419497f9722a3daafe3b4186f6b6457e090600090a3600580546001600160a01b0319166001600160a01b0392909216919091179055565b6040516317e142d160e01b8152600b60048201526001600160a01b0382166024820152819060009081908190819081908190819073__$b5c84be7e522c98c303ad318c067b85931$__906317e142d19060440160206040518083038186803b1580156111a657600080fd5b505af41580156111ba573d6000803e3d6000fd5b505050506040513d601f19601f820116820180604052508101906111de9190611d0c565b965060001995506000871261124057600f5487111561120c57600f546112059088906118f9565b9550611240565b600f54600b5460009110611221576000611230565b600f54600b5461123091611741565b905061123c888261162c565b9650505b61124988610bce565b9450611254886106d5565b6001600160a01b03891660009081526013602052604090205490945092508261127e57600061128c565b60145461128c9084906116e2565b915042821161129c5760006112a6565b6112a68242611741565b9050919395975091939597565b600b5460009081908190806112d3575050600f54600092508291506113d5565b600f546000805a90506000805b89841080156112ee57508582105b156113c457846112fd81611eed565b600b549096508610905061131057600094505b6000600b600001868154811061133657634e487b7160e01b600052603260045260246000fd5b60009182526020808320909101546001600160a01b0316808352601390915260409091205490915061136790611936565b1561138a57611377816001610c07565b1561138a578161138681611eed565b9250505b8261139481611eed565b93505060005a9050808511156113bb576113b86113b18683611741565b87906116e2565b95505b93506112e09050565b600f85905590975095509193505050505b9193909250565b6001600160a01b03831661143e5760405162461bcd60e51b8152602060048201526024808201527f45524332303a20617070726f76652066726f6d20746865207a65726f206164646044820152637265737360e01b6064820152608401610763565b6001600160a01b03821661149f5760405162461bcd60e51b815260206004820152602260248201527f45524332303a20617070726f766520746f20746865207a65726f206164647265604482015261737360f01b6064820152608401610763565b6001600160a01b0383811660008181526001602090815260408083209487168084529482529182902085905590518481527f8c5be1e5ebec7d5bd14f71427d1e84f3dd0314c0f7b2291e5b200ac8c7c3b925910160405180910390a3505050565b60405162461bcd60e51b815260206004820152602660248201527f4469766964656e645f547261636b65723a204e6f207472616e736665727320616044820152651b1b1bddd95960d21b6064820152608401610763565b505050565b600081848411156115805760405162461bcd60e51b81526004016107639190611d3c565b50600061158d8486611e9b565b95945050505050565b6000826115a557506000610666565b60006115b18385611e3d565b9050826115be8583611e1d565b146116155760405162461bcd60e51b815260206004820152602160248201527f536166654d6174683a206d756c7469706c69636174696f6e206f766572666c6f6044820152607760f81b6064820152608401610763565b9392505050565b6000818181121561073157600080fd5b6000806116398385611dc4565b90506000831215801561164c5750838112155b80611661575060008312801561166157508381125b61161557600080fd5b60008082121561167957600080fd5b5090565b6001600160a01b038216600090815260208190526040902054808211156116bc5760006116aa8383611741565b90506116b6848261195d565b50611557565b808210156115575760006116d08284611741565b90506116dc84826119c1565b50505050565b6000806116ef8385611e05565b9050838110156116155760405162461bcd60e51b815260206004820152601b60248201527f536166654d6174683a206164646974696f6e206f766572666c6f7700000000006044820152606401610763565b600061161583836040518060400160405280601e81526020017f536166654d6174683a207375627472616374696f6e206f766572666c6f77000081525061155c565b60008061178f83610bce565b905080156118f0576001600160a01b0383166000908152600960205260409020546117ba90826116e2565b6001600160a01b038416600081815260096020526040908190209290925590517fee503bee2bb6a87e57bc57db795f98137327401a0e7b7ce42e37926cc1a9ca4d906118099084815260200190565b60405180910390a260065460405163a9059cbb60e01b81526001600160a01b03858116600483015260248201849052600092169063a9059cbb90604401602060405180830381600087803b15801561186057600080fd5b505af1158015611874573d6000803e3d6000fd5b505050506040513d601f19601f820116820180604052508101906118989190611cf0565b9050806118e8576001600160a01b0384166000908152600960205260409020546118c29083611741565b6001600160a01b0385166000908152600960205260408120919091559250610734915050565b509050610734565b50600092915050565b6000806119068385611e5c565b9050600083121580156119195750838113155b806116615750600083128015611661575083811361161557600080fd5b60004282111561194857506000610734565b6014546119554284611741565b101592915050565b6119678282611a05565b6119a16119826107178360075461159690919063ffffffff16565b6001600160a01b038416600090815260086020526040902054906118f9565b6001600160a01b0390921660009081526008602052604090209190915550565b6119cb8282611ae4565b6119a16119e66107178360075461159690919063ffffffff16565b6001600160a01b0384166000908152600860205260409020549061162c565b6001600160a01b038216611a5b5760405162461bcd60e51b815260206004820152601f60248201527f45524332303a206d696e7420746f20746865207a65726f2061646472657373006044820152606401610763565b600254611a6890826116e2565b6002556001600160a01b038216600090815260208190526040902054611a8e90826116e2565b6001600160a01b038316600081815260208181526040808320949094559251848152919290917fddf252ad1be2c89b69c2b068fc378daa952ba7f163c4a11628f55a4df523b3ef91015b60405180910390a35050565b6001600160a01b038216611b445760405162461bcd60e51b815260206004820152602160248201527f45524332303a206275726e2066726f6d20746865207a65726f206164647265736044820152607360f81b6064820152608401610763565b611b8181604051806060016040528060228152602001611f45602291396001600160a01b038516600090815260208190526040902054919061155c565b6001600160a01b038316600090815260208190526040902055600254611ba79082611741565b6002556040518181526000906001600160a01b038416907fddf252ad1be2c89b69c2b068fc378daa952ba7f163c4a11628f55a4df523b3ef90602001611ad8565b600060208284031215611bf9578081fd5b813561161581611f1e565b600060208284031215611c15578081fd5b815161161581611f1e565b60008060408385031215611c32578081fd5b8235611c3d81611f1e565b91506020830135611c4d81611f1e565b809150509250929050565b600080600060608486031215611c6c578081fd5b8335611c7781611f1e565b92506020840135611c8781611f1e565b929592945050506040919091013590565b60008060408385031215611caa578182fd5b8235611cb581611f1e565b91506020830135611c4d81611f36565b60008060408385031215611cd7578182fd5b8235611ce281611f1e565b946020939093013593505050565b600060208284031215611d01578081fd5b815161161581611f36565b600060208284031215611d1d578081fd5b5051919050565b600060208284031215611d35578081fd5b5035919050565b6000602080835283518082850152825b81811015611d6857858101830151858201604001528201611d4c565b81811115611d795783604083870101525b50601f01601f1916929092016040019392505050565b6020808252818101527f4f776e61626c653a2063616c6c6572206973206e6f7420746865206f776e6572604082015260600190565b600080821280156001600160ff1b0384900385131615611de657611de6611f08565b600160ff1b8390038412811615611dff57611dff611f08565b50500190565b60008219821115611e1857611e18611f08565b500190565b600082611e3857634e487b7160e01b81526012600452602481fd5b500490565b6000816000190483118215151615611e5757611e57611f08565b500290565b60008083128015600160ff1b850184121615611e7a57611e7a611f08565b6001600160ff1b0384018313811615611e9557611e95611f08565b50500390565b600082821015611ead57611ead611f08565b500390565b600181811c90821680611ec657607f821691505b60208210811415611ee757634e487b7160e01b600052602260045260246000fd5b50919050565b6000600019821415611f0157611f01611f08565b5060010190565b634e487b7160e01b600052601160045260246000fd5b6001600160a01b0381168114611f3357600080fd5b50565b8015158114611f3357600080fdfe45524332303a206275726e20616d6f756e7420657863656564732062616c616e636545524332303a207472616e7366657220616d6f756e74206578636565647320616c6c6f77616e636545524332303a2064656372656173656420616c6c6f77616e63652062656c6f77207a65726fa2646970667358221220b955f653a5f49e5f80b23c094fb601b1d06c8988a4b47d815188d5bbab70759564736f6c63430008030033",
			"opcodes": "PUSH1 0x80 PUSH1 0x40 MSTORE PUSH1 0x9 DUP1 SLOAD PUSH1 0x1 PUSH1 0x1 PUSH1 0xA0 SHL SUB NOT SWAP1 DUP2 AND PUSH2 0xDEAD OR SWAP1 SWAP2 SSTORE PUSH1 0xA DUP1 SLOAD SWAP1 SWAP2 AND PUSH20 0xCB1E72786A6EB3B44C2A2429E317C8A2462CFEB1 OR SWAP1 SSTORE PUSH4 0x3B9ACA00 PUSH1 0xB DUP2 SWAP1 SSTORE PUSH3 0x54 SWAP1 PUSH4 0x5F5E100 PUSH3 0xB33 JUMP JUMPDEST PUSH1 0xC SSTORE PUSH1 0x1 PUSH1 0xE DUP2 SWAP1 SSTORE PUSH1 0x9 PUSH1 0xF SSTORE PUSH1 0x10 DUP2 SWAP1 SSTORE PUSH1 0x2 PUSH1 0x11 DUP2 SWAP1 SSTORE PUSH1 0xD PUSH1 0x12 SSTORE PUSH1 0x4 PUSH1 0x13 SSTORE PUSH1 0x14 DUP2 SWAP1 SSTORE PUSH1 0x15 SSTORE PUSH1 0x16 SSTORE PUSH1 0x17 DUP1 SLOAD PUSH1 0x1 PUSH1 0x1 PUSH1 0xA0 SHL SUB NOT SWAP1 DUP2 AND PUSH20 0x8954AFA98594B838BDA56FE4C12A09D7739D179B OR SWAP1 SWAP2 SSTORE PUSH1 0x18 DUP1 SLOAD DUP3 AND PUSH20 0x3813E82E6F7098B9583FC0F33A962D02018B6803 OR SWAP1 SSTORE PUSH1 0x19 DUP1 SLOAD DUP3 AND PUSH20 0x2D78E5905045B2B3BE56CA21DACDDF4A7A72A88A OR SWAP1 SSTORE PUSH1 0x1A DUP1 SLOAD SWAP1 SWAP2 AND PUSH20 0xB64D4270B8FE21E2704701DF9C8401FF110ECFFD OR SWAP1 SSTORE PUSH3 0x493E0 PUSH1 0x1B SSTORE CALLVALUE DUP1 ISZERO PUSH3 0x11C JUMPI PUSH1 0x0 DUP1 REVERT JUMPDEST POP PUSH1 0x40 MLOAD DUP1 PUSH1 0x40 ADD PUSH1 0x40 MSTORE DUP1 PUSH1 0xC DUP2 MSTORE PUSH1 0x20 ADD PUSH12 0x536869624B696E672050726F PUSH1 0xA0 SHL DUP2 MSTORE POP PUSH1 0x40 MLOAD DUP1 PUSH1 0x40 ADD PUSH1 0x40 MSTORE DUP1 PUSH1 0x3 DUP2 MSTORE PUSH1 0x20 ADD PUSH3 0x534B5 PUSH1 0xEC SHL DUP2 MSTORE POP DUP2 PUSH1 0x3 SWAP1 DUP1 MLOAD SWAP1 PUSH1 0x20 ADD SWAP1 PUSH3 0x176 SWAP3 SWAP2 SWAP1 PUSH3 0xA3B JUMP JUMPDEST POP DUP1 MLOAD PUSH3 0x18C SWAP1 PUSH1 0x4 SWAP1 PUSH1 0x20 DUP5 ADD SWAP1 PUSH3 0xA3B JUMP JUMPDEST POP POP POP PUSH1 0x0 PUSH3 0x1A1 PUSH3 0x61C PUSH1 0x20 SHL PUSH1 0x20 SHR JUMP JUMPDEST PUSH1 0x5 DUP1 SLOAD PUSH1 0x1 PUSH1 0x1 PUSH1 0xA0 SHL SUB NOT AND PUSH1 0x1 PUSH1 0x1 PUSH1 0xA0 SHL SUB DUP4 AND SWAP1 DUP2 OR SWAP1 SWAP2 SSTORE PUSH1 0x40 MLOAD SWAP2 SWAP3 POP SWAP1 PUSH1 0x0 SWAP1 PUSH32 0x8BE0079C531659141344CD1FD0A4F28419497F9722A3DAAFE3B4186F6B6457E0 SWAP1 DUP3 SWAP1 LOG3 POP PUSH1 0x40 MLOAD PUSH3 0x1FD SWAP1 PUSH3 0xACA JUMP JUMPDEST PUSH1 0x40 MLOAD DUP1 SWAP2 SUB SWAP1 PUSH1 0x0 CREATE DUP1 ISZERO DUP1 ISZERO PUSH3 0x21A JUMPI RETURNDATASIZE PUSH1 0x0 DUP1 RETURNDATACOPY RETURNDATASIZE PUSH1 0x0 REVERT JUMPDEST POP PUSH1 0x8 DUP1 SLOAD PUSH1 0x1 PUSH1 0x1 PUSH1 0xA0 SHL SUB NOT AND PUSH1 0x1 PUSH1 0x1 PUSH1 0xA0 SHL SUB SWAP3 DUP4 AND OR SWAP1 SSTORE PUSH1 0x17 SLOAD PUSH1 0x40 DUP1 MLOAD PUSH4 0xC45A0155 PUSH1 0xE0 SHL DUP2 MSTORE SWAP1 MLOAD SWAP2 SWAP1 SWAP3 AND SWAP2 PUSH1 0x0 SWAP2 DUP4 SWAP2 PUSH4 0xC45A0155 SWAP2 PUSH1 0x4 DUP1 DUP4 ADD SWAP3 PUSH1 0x20 SWAP3 SWAP2 SWAP1 DUP3 SWAP1 SUB ADD DUP2 DUP7 DUP1 EXTCODESIZE ISZERO DUP1 ISZERO PUSH3 0x27A JUMPI PUSH1 0x0 DUP1 REVERT JUMPDEST POP GAS STATICCALL ISZERO DUP1 ISZERO PUSH3 0x28F JUMPI RETURNDATASIZE PUSH1 0x0 DUP1 RETURNDATACOPY RETURNDATASIZE PUSH1 0x0 REVERT JUMPDEST POP POP POP POP PUSH1 0x40 MLOAD RETURNDATASIZE PUSH1 0x1F NOT PUSH1 0x1F DUP3 ADD AND DUP3 ADD DUP1 PUSH1 0x40 MSTORE POP DUP2 ADD SWAP1 PUSH3 0x2B5 SWAP2 SWAP1 PUSH3 0xAEF JUMP JUMPDEST PUSH1 0x1 PUSH1 0x1 PUSH1 0xA0 SHL SUB AND PUSH4 0xC9C65396 ADDRESS DUP5 PUSH1 0x1 PUSH1 0x1 PUSH1 0xA0 SHL SUB AND PUSH4 0xAD5C4648 PUSH1 0x40 MLOAD DUP2 PUSH4 0xFFFFFFFF AND PUSH1 0xE0 SHL DUP2 MSTORE PUSH1 0x4 ADD PUSH1 0x20 PUSH1 0x40 MLOAD DUP1 DUP4 SUB DUP2 DUP7 DUP1 EXTCODESIZE ISZERO DUP1 ISZERO PUSH3 0x2FE JUMPI PUSH1 0x0 DUP1 REVERT JUMPDEST POP GAS STATICCALL ISZERO DUP1 ISZERO PUSH3 0x313 JUMPI RETURNDATASIZE PUSH1 0x0 DUP1 RETURNDATACOPY RETURNDATASIZE PUSH1 0x0 REVERT JUMPDEST POP POP POP POP PUSH1 0x40 MLOAD RETURNDATASIZE PUSH1 0x1F NOT PUSH1 0x1F DUP3 ADD AND DUP3 ADD DUP1 PUSH1 0x40 MSTORE POP DUP2 ADD SWAP1 PUSH3 0x339 SWAP2 SWAP1 PUSH3 0xAEF JUMP JUMPDEST PUSH1 0x40 MLOAD PUSH1 0x1 PUSH1 0x1 PUSH1 0xE0 SHL SUB NOT PUSH1 0xE0 DUP6 SWAP1 SHL AND DUP2 MSTORE PUSH1 0x1 PUSH1 0x1 PUSH1 0xA0 SHL SUB SWAP3 DUP4 AND PUSH1 0x4 DUP3 ADD MSTORE SWAP2 AND PUSH1 0x24 DUP3 ADD MSTORE PUSH1 0x44 ADD PUSH1 0x20 PUSH1 0x40 MLOAD DUP1 DUP4 SUB DUP2 PUSH1 0x0 DUP8 DUP1 EXTCODESIZE ISZERO DUP1 ISZERO PUSH3 0x382 JUMPI PUSH1 0x0 DUP1 REVERT JUMPDEST POP GAS CALL ISZERO DUP1 ISZERO PUSH3 0x397 JUMPI RETURNDATASIZE PUSH1 0x0 DUP1 RETURNDATACOPY RETURNDATASIZE PUSH1 0x0 REVERT JUMPDEST POP POP POP POP PUSH1 0x40 MLOAD RETURNDATASIZE PUSH1 0x1F NOT PUSH1 0x1F DUP3 ADD AND DUP3 ADD DUP1 PUSH1 0x40 MSTORE POP DUP2 ADD SWAP1 PUSH3 0x3BD SWAP2 SWAP1 PUSH3 0xAEF JUMP JUMPDEST PUSH1 0x6 DUP1 SLOAD PUSH1 0x1 PUSH1 0x1 PUSH1 0xA0 SHL SUB DUP1 DUP7 AND PUSH1 0x1 PUSH1 0x1 PUSH1 0xA0 SHL SUB NOT SWAP3 DUP4 AND OR SWAP1 SWAP3 SSTORE PUSH1 0x7 DUP1 SLOAD SWAP3 DUP5 AND SWAP3 SWAP1 SWAP2 AND SWAP2 SWAP1 SWAP2 OR SWAP1 SSTORE SWAP1 POP PUSH3 0x3FC DUP2 PUSH1 0x1 PUSH3 0x620 JUMP JUMPDEST PUSH1 0x8 SLOAD PUSH1 0x40 MLOAD PUSH4 0x31E79DB PUSH1 0xE4 SHL DUP2 MSTORE PUSH1 0x1 PUSH1 0x1 PUSH1 0xA0 SHL SUB SWAP1 SWAP2 AND PUSH1 0x4 DUP3 ADD DUP2 SWAP1 MSTORE SWAP1 PUSH4 0x31E79DB0 SWAP1 PUSH1 0x24 ADD PUSH1 0x0 PUSH1 0x40 MLOAD DUP1 DUP4 SUB DUP2 PUSH1 0x0 DUP8 DUP1 EXTCODESIZE ISZERO DUP1 ISZERO PUSH3 0x443 JUMPI PUSH1 0x0 DUP1 REVERT JUMPDEST POP GAS CALL ISZERO DUP1 ISZERO PUSH3 0x458 JUMPI RETURNDATASIZE PUSH1 0x0 DUP1 RETURNDATACOPY RETURNDATASIZE PUSH1 0x0 REVERT JUMPDEST POP POP PUSH1 0x8 SLOAD PUSH1 0x40 MLOAD PUSH4 0x31E79DB PUSH1 0xE4 SHL DUP2 MSTORE ADDRESS PUSH1 0x4 DUP3 ADD MSTORE PUSH1 0x1 PUSH1 0x1 PUSH1 0xA0 SHL SUB SWAP1 SWAP2 AND SWAP3 POP PUSH4 0x31E79DB0 SWAP2 POP PUSH1 0x24 ADD PUSH1 0x0 PUSH1 0x40 MLOAD DUP1 DUP4 SUB DUP2 PUSH1 0x0 DUP8 DUP1 EXTCODESIZE ISZERO DUP1 ISZERO PUSH3 0x4A2 JUMPI PUSH1 0x0 DUP1 REVERT JUMPDEST POP GAS CALL ISZERO DUP1 ISZERO PUSH3 0x4B7 JUMPI RETURNDATASIZE PUSH1 0x0 DUP1 RETURNDATACOPY RETURNDATASIZE PUSH1 0x0 REVERT JUMPDEST POP POP PUSH1 0x8 SLOAD PUSH1 0x9 SLOAD PUSH1 0x40 MLOAD PUSH4 0x31E79DB PUSH1 0xE4 SHL DUP2 MSTORE PUSH1 0x1 PUSH1 0x1 PUSH1 0xA0 SHL SUB SWAP2 DUP3 AND PUSH1 0x4 DUP3 ADD MSTORE SWAP2 AND SWAP3 POP PUSH4 0x31E79DB0 SWAP2 POP PUSH1 0x24 ADD PUSH1 0x0 PUSH1 0x40 MLOAD DUP1 DUP4 SUB DUP2 PUSH1 0x0 DUP8 DUP1 EXTCODESIZE ISZERO DUP1 ISZERO PUSH3 0x505 JUMPI PUSH1 0x0 DUP1 REVERT JUMPDEST POP GAS CALL ISZERO DUP1 ISZERO PUSH3 0x51A JUMPI RETURNDATASIZE PUSH1 0x0 DUP1 RETURNDATACOPY RETURNDATASIZE PUSH1 0x0 REVERT JUMPDEST POP POP PUSH1 0x8 SLOAD PUSH1 0x1 PUSH1 0x1 PUSH1 0xA0 SHL SUB AND SWAP2 POP PUSH4 0x6D91196F SWAP1 POP PUSH3 0x544 PUSH1 0x5 SLOAD PUSH1 0x1 PUSH1 0x1 PUSH1 0xA0 SHL SUB AND SWAP1 JUMP JUMPDEST PUSH1 0x40 MLOAD PUSH1 0x1 PUSH1 0x1 PUSH1 0xE0 SHL SUB NOT PUSH1 0xE0 DUP5 SWAP1 SHL AND DUP2 MSTORE PUSH1 0x1 PUSH1 0x1 PUSH1 0xA0 SHL SUB SWAP1 SWAP2 AND PUSH1 0x4 DUP3 ADD MSTORE PUSH1 0x24 ADD PUSH1 0x0 PUSH1 0x40 MLOAD DUP1 DUP4 SUB DUP2 PUSH1 0x0 DUP8 DUP1 EXTCODESIZE ISZERO DUP1 ISZERO PUSH3 0x586 JUMPI PUSH1 0x0 DUP1 REVERT JUMPDEST POP GAS CALL ISZERO DUP1 ISZERO PUSH3 0x59B JUMPI RETURNDATASIZE PUSH1 0x0 DUP1 RETURNDATACOPY RETURNDATASIZE PUSH1 0x0 REVERT JUMPDEST POP POP POP POP PUSH3 0x5BB PUSH3 0x5B3 PUSH3 0x787 PUSH1 0x20 SHL PUSH1 0x20 SHR JUMP JUMPDEST PUSH1 0x1 PUSH3 0x796 JUMP JUMPDEST PUSH3 0x5C8 ADDRESS PUSH1 0x1 PUSH3 0x796 JUMP JUMPDEST PUSH1 0x9 SLOAD PUSH3 0x5E1 SWAP1 PUSH1 0x1 PUSH1 0x1 PUSH1 0xA0 SHL SUB AND PUSH1 0x1 PUSH3 0x796 JUMP JUMPDEST PUSH3 0x614 PUSH3 0x5F8 PUSH1 0x5 SLOAD PUSH1 0x1 PUSH1 0x1 PUSH1 0xA0 SHL SUB AND SWAP1 JUMP JUMPDEST PUSH1 0xB SLOAD PUSH3 0x60E SWAP1 PUSH7 0x38D7EA4C68000 PUSH3 0xB33 JUMP JUMPDEST PUSH3 0x8D5 JUMP JUMPDEST POP POP PUSH3 0xBA8 JUMP JUMPDEST CALLER SWAP1 JUMP JUMPDEST PUSH1 0x1 PUSH1 0x1 PUSH1 0xA0 SHL SUB DUP3 AND PUSH1 0x0 SWAP1 DUP2 MSTORE PUSH1 0x1D PUSH1 0x20 MSTORE PUSH1 0x40 SWAP1 KECCAK256 SLOAD PUSH1 0xFF AND ISZERO ISZERO DUP2 ISZERO ISZERO EQ ISZERO PUSH3 0x6BB JUMPI PUSH1 0x40 MLOAD PUSH3 0x461BCD PUSH1 0xE5 SHL DUP2 MSTORE PUSH1 0x20 PUSH1 0x4 DUP3 ADD MSTORE PUSH1 0x38 PUSH1 0x24 DUP3 ADD MSTORE PUSH32 0x4175746F6D61746564206D61726B6574206D616B657220706169722069732061 PUSH1 0x44 DUP3 ADD MSTORE PUSH32 0x6C72656164792073657420746F20746861742076616C75650000000000000000 PUSH1 0x64 DUP3 ADD MSTORE PUSH1 0x84 ADD JUMPDEST PUSH1 0x40 MLOAD DUP1 SWAP2 SUB SWAP1 REVERT JUMPDEST PUSH1 0x1 PUSH1 0x1 PUSH1 0xA0 SHL SUB DUP3 AND PUSH1 0x0 SWAP1 DUP2 MSTORE PUSH1 0x1D PUSH1 0x20 MSTORE PUSH1 0x40 SWAP1 KECCAK256 DUP1 SLOAD PUSH1 0xFF NOT AND DUP3 ISZERO DUP1 ISZERO SWAP2 SWAP1 SWAP2 OR SWAP1 SWAP2 SSTORE PUSH3 0x74B JUMPI PUSH1 0x8 SLOAD PUSH1 0x40 MLOAD PUSH4 0x31E79DB PUSH1 0xE4 SHL DUP2 MSTORE PUSH1 0x1 PUSH1 0x1 PUSH1 0xA0 SHL SUB DUP5 DUP2 AND PUSH1 0x4 DUP4 ADD MSTORE SWAP1 SWAP2 AND SWAP1 PUSH4 0x31E79DB0 SWAP1 PUSH1 0x24 ADD PUSH1 0x0 PUSH1 0x40 MLOAD DUP1 DUP4 SUB DUP2 PUSH1 0x0 DUP8 DUP1 EXTCODESIZE ISZERO DUP1 ISZERO PUSH3 0x731 JUMPI PUSH1 0x0 DUP1 REVERT JUMPDEST POP GAS CALL ISZERO DUP1 ISZERO PUSH3 0x746 JUMPI RETURNDATASIZE PUSH1 0x0 DUP1 RETURNDATACOPY RETURNDATASIZE PUSH1 0x0 REVERT JUMPDEST POP POP POP POP JUMPDEST PUSH1 0x40 MLOAD DUP2 ISZERO ISZERO SWAP1 PUSH1 0x1 PUSH1 0x1 PUSH1 0xA0 SHL SUB DUP5 AND SWAP1 PUSH32 0xFFA9187BF1F18BF477BD0EA1BCBB64E93B6A98132473929EDFCE215CD9B16FAB SWAP1 PUSH1 0x0 SWAP1 LOG3 POP POP JUMP JUMPDEST PUSH1 0x5 SLOAD PUSH1 0x1 PUSH1 0x1 PUSH1 0xA0 SHL SUB AND SWAP1 JUMP JUMPDEST PUSH1 0x5 SLOAD PUSH1 0x1 PUSH1 0x1 PUSH1 0xA0 SHL SUB AND CALLER EQ PUSH3 0x7F2 JUMPI PUSH1 0x40 MLOAD PUSH3 0x461BCD PUSH1 0xE5 SHL DUP2 MSTORE PUSH1 0x20 PUSH1 0x4 DUP3 ADD DUP2 SWAP1 MSTORE PUSH1 0x24 DUP3 ADD MSTORE PUSH32 0x4F776E61626C653A2063616C6C6572206973206E6F7420746865206F776E6572 PUSH1 0x44 DUP3 ADD MSTORE PUSH1 0x64 ADD PUSH3 0x6B2 JUMP JUMPDEST PUSH1 0x1 PUSH1 0x1 PUSH1 0xA0 SHL SUB DUP3 AND PUSH1 0x0 SWAP1 DUP2 MSTORE PUSH1 0x1C PUSH1 0x20 MSTORE PUSH1 0x40 SWAP1 KECCAK256 SLOAD PUSH1 0xFF AND ISZERO ISZERO DUP2 ISZERO ISZERO EQ ISZERO PUSH3 0x876 JUMPI PUSH1 0x40 MLOAD PUSH3 0x461BCD PUSH1 0xE5 SHL DUP2 MSTORE PUSH1 0x20 PUSH1 0x4 DUP3 ADD MSTORE PUSH1 0x2A PUSH1 0x24 DUP3 ADD MSTORE PUSH32 0x4163636F756E7420697320616C7265616479207468652076616C7565206F6620 PUSH1 0x44 DUP3 ADD MSTORE PUSH10 0x276578636C7564656427 PUSH1 0xB0 SHL PUSH1 0x64 DUP3 ADD MSTORE PUSH1 0x84 ADD PUSH3 0x6B2 JUMP JUMPDEST PUSH1 0x1 PUSH1 0x1 PUSH1 0xA0 SHL SUB DUP3 AND PUSH1 0x0 DUP2 DUP2 MSTORE PUSH1 0x1C PUSH1 0x20 SWAP1 DUP2 MSTORE PUSH1 0x40 SWAP2 DUP3 SWAP1 KECCAK256 DUP1 SLOAD PUSH1 0xFF NOT AND DUP6 ISZERO ISZERO SWAP1 DUP2 OR SWAP1 SWAP2 SSTORE SWAP2 MLOAD SWAP2 DUP3 MSTORE PUSH32 0x9D8F7706EA1113D1A167B526ECA956215946DD36CC7DF39EB16180222D8B5DF7 SWAP2 ADD PUSH1 0x40 MLOAD DUP1 SWAP2 SUB SWAP1 LOG2 POP POP JUMP JUMPDEST PUSH1 0x1 PUSH1 0x1 PUSH1 0xA0 SHL SUB DUP3 AND PUSH3 0x92D JUMPI PUSH1 0x40 MLOAD PUSH3 0x461BCD PUSH1 0xE5 SHL DUP2 MSTORE PUSH1 0x20 PUSH1 0x4 DUP3 ADD MSTORE PUSH1 0x1F PUSH1 0x24 DUP3 ADD MSTORE PUSH32 0x45524332303A206D696E7420746F20746865207A65726F206164647265737300 PUSH1 0x44 DUP3 ADD MSTORE PUSH1 0x64 ADD PUSH3 0x6B2 JUMP JUMPDEST PUSH3 0x949 DUP2 PUSH1 0x2 SLOAD PUSH3 0x9D1 PUSH1 0x20 SHL PUSH3 0x1720 OR SWAP1 SWAP2 SWAP1 PUSH1 0x20 SHR JUMP JUMPDEST PUSH1 0x2 SSTORE PUSH1 0x1 PUSH1 0x1 PUSH1 0xA0 SHL SUB DUP3 AND PUSH1 0x0 SWAP1 DUP2 MSTORE PUSH1 0x20 DUP2 DUP2 MSTORE PUSH1 0x40 SWAP1 SWAP2 KECCAK256 SLOAD PUSH3 0x97C SWAP2 DUP4 SWAP1 PUSH3 0x1720 PUSH3 0x9D1 DUP3 SHL OR SWAP1 SHR JUMP JUMPDEST PUSH1 0x1 PUSH1 0x1 PUSH1 0xA0 SHL SUB DUP4 AND PUSH1 0x0 DUP2 DUP2 MSTORE PUSH1 0x20 DUP2 DUP2 MSTORE PUSH1 0x40 DUP1 DUP4 KECCAK256 SWAP5 SWAP1 SWAP5 SSTORE SWAP3 MLOAD DUP5 DUP2 MSTORE SWAP2 SWAP3 SWAP1 SWAP2 PUSH32 0xDDF252AD1BE2C89B69C2B068FC378DAA952BA7F163C4A11628F55A4DF523B3EF SWAP2 ADD PUSH1 0x40 MLOAD DUP1 SWAP2 SUB SWAP1 LOG3 POP POP JUMP JUMPDEST PUSH1 0x0 DUP1 PUSH3 0x9E0 DUP4 DUP6 PUSH3 0xB18 JUMP JUMPDEST SWAP1 POP DUP4 DUP2 LT ISZERO PUSH3 0xA34 JUMPI PUSH1 0x40 MLOAD PUSH3 0x461BCD PUSH1 0xE5 SHL DUP2 MSTORE PUSH1 0x20 PUSH1 0x4 DUP3 ADD MSTORE PUSH1 0x1B PUSH1 0x24 DUP3 ADD MSTORE PUSH32 0x536166654D6174683A206164646974696F6E206F766572666C6F770000000000 PUSH1 0x44 DUP3 ADD MSTORE PUSH1 0x64 ADD PUSH3 0x6B2 JUMP JUMPDEST SWAP4 SWAP3 POP POP POP JUMP JUMPDEST DUP3 DUP1 SLOAD PUSH3 0xA49 SWAP1 PUSH3 0xB55 JUMP JUMPDEST SWAP1 PUSH1 0x0 MSTORE PUSH1 0x20 PUSH1 0x0 KECCAK256 SWAP1 PUSH1 0x1F ADD PUSH1 0x20 SWAP1 DIV DUP2 ADD SWAP3 DUP3 PUSH3 0xA6D JUMPI PUSH1 0x0 DUP6 SSTORE PUSH3 0xAB8 JUMP JUMPDEST DUP3 PUSH1 0x1F LT PUSH3 0xA88 JUMPI DUP1 MLOAD PUSH1 0xFF NOT AND DUP4 DUP1 ADD OR DUP6 SSTORE PUSH3 0xAB8 JUMP JUMPDEST DUP3 DUP1 ADD PUSH1 0x1 ADD DUP6 SSTORE DUP3 ISZERO PUSH3 0xAB8 JUMPI SWAP2 DUP3 ADD JUMPDEST DUP3 DUP2 GT ISZERO PUSH3 0xAB8 JUMPI DUP3 MLOAD DUP3 SSTORE SWAP2 PUSH1 0x20 ADD SWAP2 SWAP1 PUSH1 0x1 ADD SWAP1 PUSH3 0xA9B JUMP JUMPDEST POP PUSH3 0xAC6 SWAP3 SWAP2 POP PUSH3 0xAD8 JUMP JUMPDEST POP SWAP1 JUMP JUMPDEST PUSH2 0x224A DUP1 PUSH3 0x47C0 DUP4 CODECOPY ADD SWAP1 JUMP JUMPDEST JUMPDEST DUP1 DUP3 GT ISZERO PUSH3 0xAC6 JUMPI PUSH1 0x0 DUP2 SSTORE PUSH1 0x1 ADD PUSH3 0xAD9 JUMP JUMPDEST PUSH1 0x0 PUSH1 0x20 DUP3 DUP5 SUB SLT ISZERO PUSH3 0xB01 JUMPI DUP1 DUP2 REVERT JUMPDEST DUP2 MLOAD PUSH1 0x1 PUSH1 0x1 PUSH1 0xA0 SHL SUB DUP2 AND DUP2 EQ PUSH3 0xA34 JUMPI DUP2 DUP3 REVERT JUMPDEST PUSH1 0x0 DUP3 NOT DUP3 GT ISZERO PUSH3 0xB2E JUMPI PUSH3 0xB2E PUSH3 0xB92 JUMP JUMPDEST POP ADD SWAP1 JUMP JUMPDEST PUSH1 0x0 DUP2 PUSH1 0x0 NOT DIV DUP4 GT DUP3 ISZERO ISZERO AND ISZERO PUSH3 0xB50 JUMPI PUSH3 0xB50 PUSH3 0xB92 JUMP JUMPDEST POP MUL SWAP1 JUMP JUMPDEST PUSH1 0x1 DUP2 DUP2 SHR SWAP1 DUP3 AND DUP1 PUSH3 0xB6A JUMPI PUSH1 0x7F DUP3 AND SWAP2 POP JUMPDEST PUSH1 0x20 DUP3 LT DUP2 EQ ISZERO PUSH3 0xB8C JUMPI PUSH4 0x4E487B71 PUSH1 0xE0 SHL PUSH1 0x0 MSTORE PUSH1 0x22 PUSH1 0x4 MSTORE PUSH1 0x24 PUSH1 0x0 REVERT JUMPDEST POP SWAP2 SWAP1 POP JUMP JUMPDEST PUSH4 0x4E487B71 PUSH1 0xE0 SHL PUSH1 0x0 MSTORE PUSH1 0x11 PUSH1 0x4 MSTORE PUSH1 0x24 PUSH1 0x0 REVERT JUMPDEST PUSH2 0x3C08 DUP1 PUSH3 0xBB8 PUSH1 0x0 CODECOPY PUSH1 0x0 RETURN INVALID PUSH1 0x80 PUSH1 0x40 MSTORE PUSH1 0x4 CALLDATASIZE LT PUSH2 0x2E8 JUMPI PUSH1 0x0 CALLDATALOAD PUSH1 0xE0 SHR DUP1 PUSH4 0x95D89B41 GT PUSH2 0x190 JUMPI DUP1 PUSH4 0xC492F046 GT PUSH2 0xDC JUMPI DUP1 PUSH4 0xE2F45605 GT PUSH2 0x95 JUMPI DUP1 PUSH4 0xF27FD254 GT PUSH2 0x6F JUMPI DUP1 PUSH4 0xF27FD254 EQ PUSH2 0x90F JUMPI DUP1 PUSH4 0xF2FDE38B EQ PUSH2 0x92F JUMPI DUP1 PUSH4 0xF887EA40 EQ PUSH2 0x94F JUMPI DUP1 PUSH4 0xFCE589D8 EQ PUSH2 0x96F JUMPI PUSH2 0x2EF JUMP JUMPDEST DUP1 PUSH4 0xE2F45605 EQ PUSH2 0x8C4 JUMPI DUP1 PUSH4 0xE7841EC0 EQ PUSH2 0x8DA JUMPI DUP1 PUSH4 0xE98030C7 EQ PUSH2 0x8EF JUMPI PUSH2 0x2EF JUMP JUMPDEST DUP1 PUSH4 0xC492F046 EQ PUSH2 0x7B2 JUMPI DUP1 PUSH4 0xC54E44EB EQ PUSH2 0x7D2 JUMPI DUP1 PUSH4 0xD88BE3C0 EQ PUSH2 0x7F2 JUMPI DUP1 PUSH4 0xDD62ED3E EQ PUSH2 0x828 JUMPI DUP1 PUSH4 0xE24B85E7 EQ PUSH2 0x86E JUMPI DUP1 PUSH4 0xE2E467CB EQ PUSH2 0x88E JUMPI PUSH2 0x2EF JUMP JUMPDEST DUP1 PUSH4 0xA8B9D240 GT PUSH2 0x149 JUMPI DUP1 PUSH4 0xAE13C26A GT PUSH2 0x123 JUMPI DUP1 PUSH4 0xAE13C26A EQ PUSH2 0x72C JUMPI DUP1 PUSH4 0xAFA4F3B2 EQ PUSH2 0x742 JUMPI DUP1 PUSH4 0xB62496F5 EQ PUSH2 0x762 JUMPI DUP1 PUSH4 0xC0246668 EQ PUSH2 0x792 JUMPI PUSH2 0x2EF JUMP JUMPDEST DUP1 PUSH4 0xA8B9D240 EQ PUSH2 0x687 JUMPI DUP1 PUSH4 0xA9059CBB EQ PUSH2 0x6A7 JUMPI DUP1 PUSH4 0xAD56C13C EQ PUSH2 0x6C7 JUMPI PUSH2 0x2EF JUMP JUMPDEST DUP1 PUSH4 0x95D89B41 EQ PUSH2 0x5F1 JUMPI DUP1 PUSH4 0x98118CB4 EQ PUSH2 0x606 JUMPI DUP1 PUSH4 0x9A7A23D6 EQ PUSH2 0x61C JUMPI DUP1 PUSH4 0x9C1B8AF5 EQ PUSH2 0x63C JUMPI DUP1 PUSH4 0xA26579AD EQ PUSH2 0x652 JUMPI DUP1 PUSH4 0xA457C2D7 EQ PUSH2 0x667 JUMPI PUSH2 0x2EF JUMP JUMPDEST DUP1 PUSH4 0x39509351 GT PUSH2 0x24F JUMPI DUP1 PUSH4 0x6B67C4DF GT PUSH2 0x208 JUMPI DUP1 PUSH4 0x715018A6 GT PUSH2 0x1E2 JUMPI DUP1 PUSH4 0x715018A6 EQ PUSH2 0x57E JUMPI DUP1 PUSH4 0x85141A77 EQ PUSH2 0x593 JUMPI DUP1 PUSH4 0x871C128D EQ PUSH2 0x5B3 JUMPI DUP1 PUSH4 0x8DA5CB5B EQ PUSH2 0x5D3 JUMPI PUSH2 0x2EF JUMP JUMPDEST DUP1 PUSH4 0x6B67C4DF EQ PUSH2 0x528 JUMPI DUP1 PUSH4 0x700BB191 EQ PUSH2 0x53E JUMPI DUP1 PUSH4 0x70A08231 EQ PUSH2 0x55E JUMPI PUSH2 0x2EF JUMP JUMPDEST DUP1 PUSH4 0x39509351 EQ PUSH2 0x47E JUMPI DUP1 PUSH4 0x49BD5A5E EQ PUSH2 0x49E JUMPI DUP1 PUSH4 0x4E71D92D EQ PUSH2 0x4BE JUMPI DUP1 PUSH4 0x4FBEE193 EQ PUSH2 0x4D3 JUMPI DUP1 PUSH4 0x64B0F653 EQ PUSH2 0x4F3 JUMPI DUP1 PUSH4 0x6843CD84 EQ PUSH2 0x508 JUMPI PUSH2 0x2EF JUMP JUMPDEST DUP1 PUSH4 0x23B872DD GT PUSH2 0x2A1 JUMPI DUP1 PUSH4 0x23B872DD EQ PUSH2 0x3D7 JUMPI DUP1 PUSH4 0x2BB14E1D EQ PUSH2 0x3F7 JUMPI DUP1 PUSH4 0x2C1F5216 EQ PUSH2 0x40D JUMPI DUP1 PUSH4 0x30BB4CFF EQ PUSH2 0x42D JUMPI DUP1 PUSH4 0x313CE567 EQ PUSH2 0x442 JUMPI DUP1 PUSH4 0x31E79DB0 EQ PUSH2 0x45E JUMPI PUSH2 0x2EF JUMP JUMPDEST DUP1 PUSH4 0x6FDDE03 EQ PUSH2 0x2F4 JUMPI DUP1 PUSH4 0x95EA7B3 EQ PUSH2 0x31F JUMPI DUP1 PUSH4 0x13114A9D EQ PUSH2 0x34F JUMPI DUP1 PUSH4 0x1694505E EQ PUSH2 0x373 JUMPI DUP1 PUSH4 0x18160DDD EQ PUSH2 0x3AB JUMPI DUP1 PUSH4 0x1DD19CB4 EQ PUSH2 0x3C0 JUMPI PUSH2 0x2EF JUMP JUMPDEST CALLDATASIZE PUSH2 0x2EF JUMPI STOP JUMPDEST PUSH1 0x0 DUP1 REVERT JUMPDEST CALLVALUE DUP1 ISZERO PUSH2 0x300 JUMPI PUSH1 0x0 DUP1 REVERT JUMPDEST POP PUSH2 0x309 PUSH2 0x985 JUMP JUMPDEST PUSH1 0x40 MLOAD PUSH2 0x316 SWAP2 SWAP1 PUSH2 0x38D0 JUMP JUMPDEST PUSH1 0x40 MLOAD DUP1 SWAP2 SUB SWAP1 RETURN JUMPDEST CALLVALUE DUP1 ISZERO PUSH2 0x32B JUMPI PUSH1 0x0 DUP1 REVERT JUMPDEST POP PUSH2 0x33F PUSH2 0x33A CALLDATASIZE PUSH1 0x4 PUSH2 0x36B7 JUMP JUMPDEST PUSH2 0xA17 JUMP JUMPDEST PUSH1 0x40 MLOAD SWAP1 ISZERO ISZERO DUP2 MSTORE PUSH1 0x20 ADD PUSH2 0x316 JUMP JUMPDEST CALLVALUE DUP1 ISZERO PUSH2 0x35B JUMPI PUSH1 0x0 DUP1 REVERT JUMPDEST POP PUSH2 0x365 PUSH1 0x12 SLOAD DUP2 JUMP JUMPDEST PUSH1 0x40 MLOAD SWAP1 DUP2 MSTORE PUSH1 0x20 ADD PUSH2 0x316 JUMP JUMPDEST CALLVALUE DUP1 ISZERO PUSH2 0x37F JUMPI PUSH1 0x0 DUP1 REVERT JUMPDEST POP PUSH1 0x6 SLOAD PUSH2 0x393 SWAP1 PUSH1 0x1 PUSH1 0x1 PUSH1 0xA0 SHL SUB AND DUP2 JUMP JUMPDEST PUSH1 0x40 MLOAD PUSH1 0x1 PUSH1 0x1 PUSH1 0xA0 SHL SUB SWAP1 SWAP2 AND DUP2 MSTORE PUSH1 0x20 ADD PUSH2 0x316 JUMP JUMPDEST CALLVALUE DUP1 ISZERO PUSH2 0x3B7 JUMPI PUSH1 0x0 DUP1 REVERT JUMPDEST POP PUSH1 0x2 SLOAD PUSH2 0x365 JUMP JUMPDEST CALLVALUE DUP1 ISZERO PUSH2 0x3CC JUMPI PUSH1 0x0 DUP1 REVERT JUMPDEST POP PUSH2 0x3D5 PUSH2 0xA2E JUMP JUMPDEST STOP JUMPDEST CALLVALUE DUP1 ISZERO PUSH2 0x3E3 JUMPI PUSH1 0x0 DUP1 REVERT JUMPDEST POP PUSH2 0x33F PUSH2 0x3F2 CALLDATASIZE PUSH1 0x4 PUSH2 0x35E1 JUMP JUMPDEST PUSH2 0xBAF JUMP JUMPDEST CALLVALUE DUP1 ISZERO PUSH2 0x403 JUMPI PUSH1 0x0 DUP1 REVERT JUMPDEST POP PUSH2 0x365 PUSH1 0xF SLOAD DUP2 JUMP JUMPDEST CALLVALUE DUP1 ISZERO PUSH2 0x419 JUMPI PUSH1 0x0 DUP1 REVERT JUMPDEST POP PUSH1 0x8 SLOAD PUSH2 0x393 SWAP1 PUSH1 0x1 PUSH1 0x1 PUSH1 0xA0 SHL SUB AND DUP2 JUMP JUMPDEST CALLVALUE DUP1 ISZERO PUSH2 0x439 JUMPI PUSH1 0x0 DUP1 REVERT JUMPDEST POP PUSH2 0x365 PUSH2 0xC18 JUMP JUMPDEST CALLVALUE DUP1 ISZERO PUSH2 0x44E JUMPI PUSH1 0x0 DUP1 REVERT JUMPDEST POP PUSH1 0x40 MLOAD PUSH1 0x9 DUP2 MSTORE PUSH1 0x20 ADD PUSH2 0x316 JUMP JUMPDEST CALLVALUE DUP1 ISZERO PUSH2 0x46A JUMPI PUSH1 0x0 DUP1 REVERT JUMPDEST POP PUSH2 0x3D5 PUSH2 0x479 CALLDATASIZE PUSH1 0x4 PUSH2 0x3571 JUMP JUMPDEST PUSH2 0xC9A JUMP JUMPDEST CALLVALUE DUP1 ISZERO PUSH2 0x48A JUMPI PUSH1 0x0 DUP1 REVERT JUMPDEST POP PUSH2 0x33F PUSH2 0x499 CALLDATASIZE PUSH1 0x4 PUSH2 0x36B7 JUMP JUMPDEST PUSH2 0xD27 JUMP JUMPDEST CALLVALUE DUP1 ISZERO PUSH2 0x4AA JUMPI PUSH1 0x0 DUP1 REVERT JUMPDEST POP PUSH1 0x7 SLOAD PUSH2 0x393 SWAP1 PUSH1 0x1 PUSH1 0x1 PUSH1 0xA0 SHL SUB AND DUP2 JUMP JUMPDEST CALLVALUE DUP1 ISZERO PUSH2 0x4CA JUMPI PUSH1 0x0 DUP1 REVERT JUMPDEST POP PUSH2 0x3D5 PUSH2 0xD5D JUMP JUMPDEST CALLVALUE DUP1 ISZERO PUSH2 0x4DF JUMPI PUSH1 0x0 DUP1 REVERT JUMPDEST POP PUSH2 0x33F PUSH2 0x4EE CALLDATASIZE PUSH1 0x4 PUSH2 0x3571 JUMP JUMPDEST PUSH2 0xDE4 JUMP JUMPDEST CALLVALUE DUP1 ISZERO PUSH2 0x4FF JUMPI PUSH1 0x0 DUP1 REVERT JUMPDEST POP PUSH2 0x365 PUSH2 0xE06 JUMP JUMPDEST CALLVALUE DUP1 ISZERO PUSH2 0x514 JUMPI PUSH1 0x0 DUP1 REVERT JUMPDEST POP PUSH2 0x365 PUSH2 0x523 CALLDATASIZE PUSH1 0x4 PUSH2 0x3571 JUMP JUMPDEST PUSH2 0xE4B JUMP JUMPDEST CALLVALUE DUP1 ISZERO PUSH2 0x534 JUMPI PUSH1 0x0 DUP1 REVERT JUMPDEST POP PUSH2 0x365 PUSH1 0x11 SLOAD DUP2 JUMP JUMPDEST CALLVALUE DUP1 ISZERO PUSH2 0x54A JUMPI PUSH1 0x0 DUP1 REVERT JUMPDEST POP PUSH2 0x3D5 PUSH2 0x559 CALLDATASIZE PUSH1 0x4 PUSH2 0x37D7 JUMP JUMPDEST PUSH2 0xECA JUMP JUMPDEST CALLVALUE DUP1 ISZERO PUSH2 0x56A JUMPI PUSH1 0x0 DUP1 REVERT JUMPDEST POP PUSH2 0x365 PUSH2 0x579 CALLDATASIZE PUSH1 0x4 PUSH2 0x3571 JUMP JUMPDEST PUSH2 0xFAB JUMP JUMPDEST CALLVALUE DUP1 ISZERO PUSH2 0x58A JUMPI PUSH1 0x0 DUP1 REVERT JUMPDEST POP PUSH2 0x3D5 PUSH2 0xFC6 JUMP JUMPDEST CALLVALUE DUP1 ISZERO PUSH2 0x59F JUMPI PUSH1 0x0 DUP1 REVERT JUMPDEST POP PUSH1 0x9 SLOAD PUSH2 0x393 SWAP1 PUSH1 0x1 PUSH1 0x1 PUSH1 0xA0 SHL SUB AND DUP2 JUMP JUMPDEST CALLVALUE DUP1 ISZERO PUSH2 0x5BF JUMPI PUSH1 0x0 DUP1 REVERT JUMPDEST POP PUSH2 0x3D5 PUSH2 0x5CE CALLDATASIZE PUSH1 0x4 PUSH2 0x37D7 JUMP JUMPDEST PUSH2 0x103A JUMP JUMPDEST CALLVALUE DUP1 ISZERO PUSH2 0x5DF JUMPI PUSH1 0x0 DUP1 REVERT JUMPDEST POP PUSH1 0x5 SLOAD PUSH1 0x1 PUSH1 0x1 PUSH1 0xA0 SHL SUB AND PUSH2 0x393 JUMP JUMPDEST CALLVALUE DUP1 ISZERO PUSH2 0x5FD JUMPI PUSH1 0x0 DUP1 REVERT JUMPDEST POP PUSH2 0x309 PUSH2 0x117D JUMP JUMPDEST CALLVALUE DUP1 ISZERO PUSH2 0x612 JUMPI PUSH1 0x0 DUP1 REVERT JUMPDEST POP PUSH2 0x365 PUSH1 0xE SLOAD DUP2 JUMP JUMPDEST CALLVALUE DUP1 ISZERO PUSH2 0x628 JUMPI PUSH1 0x0 DUP1 REVERT JUMPDEST POP PUSH2 0x3D5 PUSH2 0x637 CALLDATASIZE PUSH1 0x4 PUSH2 0x3621 JUMP JUMPDEST PUSH2 0x118C JUMP JUMPDEST CALLVALUE DUP1 ISZERO PUSH2 0x648 JUMPI PUSH1 0x0 DUP1 REVERT JUMPDEST POP PUSH2 0x365 PUSH1 0x1B SLOAD DUP2 JUMP JUMPDEST CALLVALUE DUP1 ISZERO PUSH2 0x65E JUMPI PUSH1 0x0 DUP1 REVERT JUMPDEST POP PUSH2 0x365 PUSH2 0x1244 JUMP JUMPDEST CALLVALUE DUP1 ISZERO PUSH2 0x673 JUMPI PUSH1 0x0 DUP1 REVERT JUMPDEST POP PUSH2 0x33F PUSH2 0x682 CALLDATASIZE PUSH1 0x4 PUSH2 0x36B7 JUMP JUMPDEST PUSH2 0x1289 JUMP JUMPDEST CALLVALUE DUP1 ISZERO PUSH2 0x693 JUMPI PUSH1 0x0 DUP1 REVERT JUMPDEST POP PUSH2 0x365 PUSH2 0x6A2 CALLDATASIZE PUSH1 0x4 PUSH2 0x3571 JUMP JUMPDEST PUSH2 0x12D8 JUMP JUMPDEST CALLVALUE DUP1 ISZERO PUSH2 0x6B3 JUMPI PUSH1 0x0 DUP1 REVERT JUMPDEST POP PUSH2 0x33F PUSH2 0x6C2 CALLDATASIZE PUSH1 0x4 PUSH2 0x36B7 JUMP JUMPDEST PUSH2 0x130B JUMP JUMPDEST CALLVALUE DUP1 ISZERO PUSH2 0x6D3 JUMPI PUSH1 0x0 DUP1 REVERT JUMPDEST POP PUSH2 0x6E7 PUSH2 0x6E2 CALLDATASIZE PUSH1 0x4 PUSH2 0x3571 JUMP JUMPDEST PUSH2 0x1318 JUMP JUMPDEST PUSH1 0x40 DUP1 MLOAD PUSH1 0x1 PUSH1 0x1 PUSH1 0xA0 SHL SUB SWAP1 SWAP10 AND DUP10 MSTORE PUSH1 0x20 DUP10 ADD SWAP8 SWAP1 SWAP8 MSTORE SWAP6 DUP8 ADD SWAP5 SWAP1 SWAP5 MSTORE PUSH1 0x60 DUP7 ADD SWAP3 SWAP1 SWAP3 MSTORE PUSH1 0x80 DUP6 ADD MSTORE PUSH1 0xA0 DUP5 ADD MSTORE PUSH1 0xC0 DUP4 ADD MSTORE PUSH1 0xE0 DUP3 ADD MSTORE PUSH2 0x100 ADD PUSH2 0x316 JUMP JUMPDEST CALLVALUE DUP1 ISZERO PUSH2 0x738 JUMPI PUSH1 0x0 DUP1 REVERT JUMPDEST POP PUSH2 0x365 PUSH1 0xD SLOAD DUP2 JUMP JUMPDEST CALLVALUE DUP1 ISZERO PUSH2 0x74E JUMPI PUSH1 0x0 DUP1 REVERT JUMPDEST POP PUSH2 0x3D5 PUSH2 0x75D CALLDATASIZE PUSH1 0x4 PUSH2 0x37D7 JUMP JUMPDEST PUSH2 0x13C2 JUMP JUMPDEST CALLVALUE DUP1 ISZERO PUSH2 0x76E JUMPI PUSH1 0x0 DUP1 REVERT JUMPDEST POP PUSH2 0x33F PUSH2 0x77D CALLDATASIZE PUSH1 0x4 PUSH2 0x3571 JUMP JUMPDEST PUSH1 0x1D PUSH1 0x20 MSTORE PUSH1 0x0 SWAP1 DUP2 MSTORE PUSH1 0x40 SWAP1 KECCAK256 SLOAD PUSH1 0xFF AND DUP2 JUMP JUMPDEST CALLVALUE DUP1 ISZERO PUSH2 0x79E JUMPI PUSH1 0x0 DUP1 REVERT JUMPDEST POP PUSH2 0x3D5 PUSH2 0x7AD CALLDATASIZE PUSH1 0x4 PUSH2 0x3621 JUMP JUMPDEST PUSH2 0x13F1 JUMP JUMPDEST CALLVALUE DUP1 ISZERO PUSH2 0x7BE JUMPI PUSH1 0x0 DUP1 REVERT JUMPDEST POP PUSH2 0x3D5 PUSH2 0x7CD CALLDATASIZE PUSH1 0x4 PUSH2 0x36E2 JUMP JUMPDEST PUSH2 0x14FC JUMP JUMPDEST CALLVALUE DUP1 ISZERO PUSH2 0x7DE JUMPI PUSH1 0x0 DUP1 REVERT JUMPDEST POP PUSH1 0x18 SLOAD PUSH2 0x393 SWAP1 PUSH1 0x1 PUSH1 0x1 PUSH1 0xA0 SHL SUB AND DUP2 JUMP JUMPDEST CALLVALUE DUP1 ISZERO PUSH2 0x7FE JUMPI PUSH1 0x0 DUP1 REVERT JUMPDEST POP PUSH2 0x393 PUSH2 0x80D CALLDATASIZE PUSH1 0x4 PUSH2 0x3571 JUMP JUMPDEST PUSH1 0x1E PUSH1 0x20 MSTORE PUSH1 0x0 SWAP1 DUP2 MSTORE PUSH1 0x40 SWAP1 KECCAK256 SLOAD PUSH1 0x1 PUSH1 0x1 PUSH1 0xA0 SHL SUB AND DUP2 JUMP JUMPDEST CALLVALUE DUP1 ISZERO PUSH2 0x834 JUMPI PUSH1 0x0 DUP1 REVERT JUMPDEST POP PUSH2 0x365 PUSH2 0x843 CALLDATASIZE PUSH1 0x4 PUSH2 0x35A9 JUMP JUMPDEST PUSH1 0x1 PUSH1 0x1 PUSH1 0xA0 SHL SUB SWAP2 DUP3 AND PUSH1 0x0 SWAP1 DUP2 MSTORE PUSH1 0x1 PUSH1 0x20 SWAP1 DUP2 MSTORE PUSH1 0x40 DUP1 DUP4 KECCAK256 SWAP4 SWAP1 SWAP5 AND DUP3 MSTORE SWAP2 SWAP1 SWAP2 MSTORE KECCAK256 SLOAD SWAP1 JUMP JUMPDEST CALLVALUE DUP1 ISZERO PUSH2 0x87A JUMPI PUSH1 0x0 DUP1 REVERT JUMPDEST POP PUSH1 0xA SLOAD PUSH2 0x393 SWAP1 PUSH1 0x1 PUSH1 0x1 PUSH1 0xA0 SHL SUB AND DUP2 JUMP JUMPDEST CALLVALUE DUP1 ISZERO PUSH2 0x89A JUMPI PUSH1 0x0 DUP1 REVERT JUMPDEST POP PUSH2 0x393 PUSH2 0x8A9 CALLDATASIZE PUSH1 0x4 PUSH2 0x3571 JUMP JUMPDEST PUSH1 0x1F PUSH1 0x20 MSTORE PUSH1 0x0 SWAP1 DUP2 MSTORE PUSH1 0x40 SWAP1 KECCAK256 SLOAD PUSH1 0x1 PUSH1 0x1 PUSH1 0xA0 SHL SUB AND DUP2 JUMP JUMPDEST CALLVALUE DUP1 ISZERO PUSH2 0x8D0 JUMPI PUSH1 0x0 DUP1 REVERT JUMPDEST POP PUSH2 0x365 PUSH1 0xC SLOAD DUP2 JUMP JUMPDEST CALLVALUE DUP1 ISZERO PUSH2 0x8E6 JUMPI PUSH1 0x0 DUP1 REVERT JUMPDEST POP PUSH2 0x365 PUSH2 0x15D9 JUMP JUMPDEST CALLVALUE DUP1 ISZERO PUSH2 0x8FB JUMPI PUSH1 0x0 DUP1 REVERT JUMPDEST POP PUSH2 0x3D5 PUSH2 0x90A CALLDATASIZE PUSH1 0x4 PUSH2 0x37D7 JUMP JUMPDEST PUSH2 0x161E JUMP JUMPDEST CALLVALUE DUP1 ISZERO PUSH2 0x91B JUMPI PUSH1 0x0 DUP1 REVERT JUMPDEST POP PUSH2 0x6E7 PUSH2 0x92A CALLDATASIZE PUSH1 0x4 PUSH2 0x37D7 JUMP JUMPDEST PUSH2 0x1679 JUMP JUMPDEST CALLVALUE DUP1 ISZERO PUSH2 0x93B JUMPI PUSH1 0x0 DUP1 REVERT JUMPDEST POP PUSH2 0x3D5 PUSH2 0x94A CALLDATASIZE PUSH1 0x4 PUSH2 0x3571 JUMP JUMPDEST PUSH2 0x16BB JUMP JUMPDEST CALLVALUE DUP1 ISZERO PUSH2 0x95B JUMPI PUSH1 0x0 DUP1 REVERT JUMPDEST POP PUSH1 0x17 SLOAD PUSH2 0x393 SWAP1 PUSH1 0x1 PUSH1 0x1 PUSH1 0xA0 SHL SUB AND DUP2 JUMP JUMPDEST CALLVALUE DUP1 ISZERO PUSH2 0x97B JUMPI PUSH1 0x0 DUP1 REVERT JUMPDEST POP PUSH2 0x365 PUSH1 0x10 SLOAD DUP2 JUMP JUMPDEST PUSH1 0x60 PUSH1 0x3 DUP1 SLOAD PUSH2 0x994 SWAP1 PUSH2 0x3ABA JUMP JUMPDEST DUP1 PUSH1 0x1F ADD PUSH1 0x20 DUP1 SWAP2 DIV MUL PUSH1 0x20 ADD PUSH1 0x40 MLOAD SWAP1 DUP2 ADD PUSH1 0x40 MSTORE DUP1 SWAP3 SWAP2 SWAP1 DUP2 DUP2 MSTORE PUSH1 0x20 ADD DUP3 DUP1 SLOAD PUSH2 0x9C0 SWAP1 PUSH2 0x3ABA JUMP JUMPDEST DUP1 ISZERO PUSH2 0xA0D JUMPI DUP1 PUSH1 0x1F LT PUSH2 0x9E2 JUMPI PUSH2 0x100 DUP1 DUP4 SLOAD DIV MUL DUP4 MSTORE SWAP2 PUSH1 0x20 ADD SWAP2 PUSH2 0xA0D JUMP JUMPDEST DUP3 ADD SWAP2 SWAP1 PUSH1 0x0 MSTORE PUSH1 0x20 PUSH1 0x0 KECCAK256 SWAP1 JUMPDEST DUP2 SLOAD DUP2 MSTORE SWAP1 PUSH1 0x1 ADD SWAP1 PUSH1 0x20 ADD DUP1 DUP4 GT PUSH2 0x9F0 JUMPI DUP3 SWAP1 SUB PUSH1 0x1F AND DUP3 ADD SWAP2 JUMPDEST POP POP POP POP POP SWAP1 POP SWAP1 JUMP JUMPDEST PUSH1 0x0 PUSH2 0xA24 CALLER DUP5 DUP5 PUSH2 0x1786 JUMP JUMPDEST POP PUSH1 0x1 JUMPDEST SWAP3 SWAP2 POP POP JUMP JUMPDEST PUSH1 0x5 SLOAD PUSH1 0x1 PUSH1 0x1 PUSH1 0xA0 SHL SUB AND CALLER EQ PUSH2 0xA61 JUMPI PUSH1 0x40 MLOAD PUSH3 0x461BCD PUSH1 0xE5 SHL DUP2 MSTORE PUSH1 0x4 ADD PUSH2 0xA58 SWAP1 PUSH2 0x3946 JUMP JUMPDEST PUSH1 0x40 MLOAD DUP1 SWAP2 SUB SWAP1 REVERT JUMPDEST PUSH1 0x18 SLOAD PUSH1 0x40 MLOAD PUSH4 0x70A08231 PUSH1 0xE0 SHL DUP2 MSTORE ADDRESS PUSH1 0x4 DUP3 ADD MSTORE PUSH1 0x0 SWAP2 PUSH1 0x1 PUSH1 0x1 PUSH1 0xA0 SHL SUB AND SWAP1 PUSH4 0x70A08231 SWAP1 PUSH1 0x24 ADD PUSH1 0x20 PUSH1 0x40 MLOAD DUP1 DUP4 SUB DUP2 DUP7 DUP1 EXTCODESIZE ISZERO DUP1 ISZERO PUSH2 0xAA5 JUMPI PUSH1 0x0 DUP1 REVERT JUMPDEST POP GAS STATICCALL ISZERO DUP1 ISZERO PUSH2 0xAB9 JUMPI RETURNDATASIZE PUSH1 0x0 DUP1 RETURNDATACOPY RETURNDATASIZE PUSH1 0x0 REVERT JUMPDEST POP POP POP POP PUSH1 0x40 MLOAD RETURNDATASIZE PUSH1 0x1F NOT PUSH1 0x1F DUP3 ADD AND DUP3 ADD DUP1 PUSH1 0x40 MSTORE POP DUP2 ADD SWAP1 PUSH2 0xADD SWAP2 SWAP1 PUSH2 0x37EF JUMP JUMPDEST PUSH1 0x18 SLOAD SWAP1 SWAP2 POP PUSH1 0x0 SWAP1 PUSH1 0x1 PUSH1 0x1 PUSH1 0xA0 SHL SUB AND PUSH2 0xB01 PUSH1 0x5 SLOAD PUSH1 0x1 PUSH1 0x1 PUSH1 0xA0 SHL SUB AND SWAP1 JUMP JUMPDEST DUP4 PUSH1 0x40 MLOAD PUSH1 0x24 ADD PUSH2 0xB13 SWAP3 SWAP2 SWAP1 PUSH2 0x3893 JUMP JUMPDEST PUSH1 0x40 DUP1 MLOAD PUSH1 0x1F NOT DUP2 DUP5 SUB ADD DUP2 MSTORE SWAP2 DUP2 MSTORE PUSH1 0x20 DUP3 ADD DUP1 MLOAD PUSH1 0x1 PUSH1 0x1 PUSH1 0xE0 SHL SUB AND PUSH4 0xA9059CBB PUSH1 0xE0 SHL OR SWAP1 MSTORE MLOAD PUSH2 0xB48 SWAP2 SWAP1 PUSH2 0x3877 JUMP JUMPDEST PUSH1 0x0 PUSH1 0x40 MLOAD DUP1 DUP4 SUB DUP2 PUSH1 0x0 DUP7 GAS CALL SWAP2 POP POP RETURNDATASIZE DUP1 PUSH1 0x0 DUP2 EQ PUSH2 0xB85 JUMPI PUSH1 0x40 MLOAD SWAP2 POP PUSH1 0x1F NOT PUSH1 0x3F RETURNDATASIZE ADD AND DUP3 ADD PUSH1 0x40 MSTORE RETURNDATASIZE DUP3 MSTORE RETURNDATASIZE PUSH1 0x0 PUSH1 0x20 DUP5 ADD RETURNDATACOPY PUSH2 0xB8A JUMP JUMPDEST PUSH1 0x60 SWAP2 POP JUMPDEST POP POP SWAP1 POP DUP1 PUSH2 0xBAB JUMPI PUSH1 0x40 MLOAD PUSH3 0x461BCD PUSH1 0xE5 SHL DUP2 MSTORE PUSH1 0x4 ADD PUSH2 0xA58 SWAP1 PUSH2 0x39C0 JUMP JUMPDEST POP POP JUMP JUMPDEST PUSH1 0x0 PUSH2 0xBBC DUP5 DUP5 DUP5 PUSH2 0x18AB JUMP JUMPDEST PUSH2 0xC0E DUP5 CALLER PUSH2 0xC09 DUP6 PUSH1 0x40 MLOAD DUP1 PUSH1 0x60 ADD PUSH1 0x40 MSTORE DUP1 PUSH1 0x28 DUP2 MSTORE PUSH1 0x20 ADD PUSH2 0x3B86 PUSH1 0x28 SWAP2 CODECOPY PUSH1 0x1 PUSH1 0x1 PUSH1 0xA0 SHL SUB DUP11 AND PUSH1 0x0 SWAP1 DUP2 MSTORE PUSH1 0x1 PUSH1 0x20 SWAP1 DUP2 MSTORE PUSH1 0x40 DUP1 DUP4 KECCAK256 CALLER DUP5 MSTORE SWAP1 SWAP2 MSTORE SWAP1 KECCAK256 SLOAD SWAP2 SWAP1 PUSH2 0x2073 JUMP JUMPDEST PUSH2 0x1786 JUMP JUMPDEST POP PUSH1 0x1 SWAP4 SWAP3 POP POP POP JUMP JUMPDEST PUSH1 0x8 SLOAD PUSH1 0x40 DUP1 MLOAD PUSH4 0x42D359D7 PUSH1 0xE1 SHL DUP2 MSTORE SWAP1 MLOAD PUSH1 0x0 SWAP3 PUSH1 0x1 PUSH1 0x1 PUSH1 0xA0 SHL SUB AND SWAP2 PUSH4 0x85A6B3AE SWAP2 PUSH1 0x4 DUP1 DUP4 ADD SWAP3 PUSH1 0x20 SWAP3 SWAP2 SWAP1 DUP3 SWAP1 SUB ADD DUP2 DUP7 DUP1 EXTCODESIZE ISZERO DUP1 ISZERO PUSH2 0xC5D JUMPI PUSH1 0x0 DUP1 REVERT JUMPDEST POP GAS STATICCALL ISZERO DUP1 ISZERO PUSH2 0xC71 JUMPI RETURNDATASIZE PUSH1 0x0 DUP1 RETURNDATACOPY RETURNDATASIZE PUSH1 0x0 REVERT JUMPDEST POP POP POP POP PUSH1 0x40 MLOAD RETURNDATASIZE PUSH1 0x1F NOT PUSH1 0x1F DUP3 ADD AND DUP3 ADD DUP1 PUSH1 0x40 MSTORE POP DUP2 ADD SWAP1 PUSH2 0xC95 SWAP2 SWAP1 PUSH2 0x37EF JUMP JUMPDEST SWAP1 POP SWAP1 JUMP JUMPDEST PUSH1 0x5 SLOAD PUSH1 0x1 PUSH1 0x1 PUSH1 0xA0 SHL SUB AND CALLER EQ PUSH2 0xCC4 JUMPI PUSH1 0x40 MLOAD PUSH3 0x461BCD PUSH1 0xE5 SHL DUP2 MSTORE PUSH1 0x4 ADD PUSH2 0xA58 SWAP1 PUSH2 0x3946 JUMP JUMPDEST PUSH1 0x8 SLOAD PUSH1 0x40 MLOAD PUSH4 0x31E79DB PUSH1 0xE4 SHL DUP2 MSTORE PUSH1 0x1 PUSH1 0x1 PUSH1 0xA0 SHL SUB DUP4 DUP2 AND PUSH1 0x4 DUP4 ADD MSTORE SWAP1 SWAP2 AND SWAP1 PUSH4 0x31E79DB0 SWAP1 PUSH1 0x24 ADD JUMPDEST PUSH1 0x0 PUSH1 0x40 MLOAD DUP1 DUP4 SUB DUP2 PUSH1 0x0 DUP8 DUP1 EXTCODESIZE ISZERO DUP1 ISZERO PUSH2 0xD0C JUMPI PUSH1 0x0 DUP1 REVERT JUMPDEST POP GAS CALL ISZERO DUP1 ISZERO PUSH2 0xD20 JUMPI RETURNDATASIZE PUSH1 0x0 DUP1 RETURNDATACOPY RETURNDATASIZE PUSH1 0x0 REVERT JUMPDEST POP POP POP POP POP JUMP JUMPDEST CALLER PUSH1 0x0 DUP2 DUP2 MSTORE PUSH1 0x1 PUSH1 0x20 SWAP1 DUP2 MSTORE PUSH1 0x40 DUP1 DUP4 KECCAK256 PUSH1 0x1 PUSH1 0x1 PUSH1 0xA0 SHL SUB DUP8 AND DUP5 MSTORE SWAP1 SWAP2 MSTORE DUP2 KECCAK256 SLOAD SWAP1 SWAP2 PUSH2 0xA24 SWAP2 DUP6 SWAP1 PUSH2 0xC09 SWAP1 DUP7 PUSH2 0x1720 JUMP JUMPDEST PUSH1 0x8 SLOAD PUSH1 0x40 MLOAD PUSH4 0xBC4C4B37 PUSH1 0xE0 SHL DUP2 MSTORE CALLER PUSH1 0x4 DUP3 ADD MSTORE PUSH1 0x0 PUSH1 0x24 DUP3 ADD MSTORE PUSH1 0x1 PUSH1 0x1 PUSH1 0xA0 SHL SUB SWAP1 SWAP2 AND SWAP1 PUSH4 0xBC4C4B37 SWAP1 PUSH1 0x44 ADD PUSH1 0x20 PUSH1 0x40 MLOAD DUP1 DUP4 SUB DUP2 PUSH1 0x0 DUP8 DUP1 EXTCODESIZE ISZERO DUP1 ISZERO PUSH2 0xDA9 JUMPI PUSH1 0x0 DUP1 REVERT JUMPDEST POP GAS CALL ISZERO DUP1 ISZERO PUSH2 0xDBD JUMPI RETURNDATASIZE PUSH1 0x0 DUP1 RETURNDATACOPY RETURNDATASIZE PUSH1 0x0 REVERT JUMPDEST POP POP POP POP PUSH1 0x40 MLOAD RETURNDATASIZE PUSH1 0x1F NOT PUSH1 0x1F DUP3 ADD AND DUP3 ADD DUP1 PUSH1 0x40 MSTORE POP DUP2 ADD SWAP1 PUSH2 0xDE1 SWAP2 SWAP1 PUSH2 0x37BB JUMP JUMPDEST POP JUMP JUMPDEST PUSH1 0x1 PUSH1 0x1 PUSH1 0xA0 SHL SUB DUP2 AND PUSH1 0x0 SWAP1 DUP2 MSTORE PUSH1 0x1C PUSH1 0x20 MSTORE PUSH1 0x40 SWAP1 KECCAK256 SLOAD PUSH1 0xFF AND JUMPDEST SWAP2 SWAP1 POP JUMP JUMPDEST PUSH1 0x8 SLOAD PUSH1 0x40 DUP1 MLOAD PUSH4 0x4DDF6EF PUSH1 0xE1 SHL DUP2 MSTORE SWAP1 MLOAD PUSH1 0x0 SWAP3 PUSH1 0x1 PUSH1 0x1 PUSH1 0xA0 SHL SUB AND SWAP2 PUSH4 0x9BBEDDE SWAP2 PUSH1 0x4 DUP1 DUP4 ADD SWAP3 PUSH1 0x20 SWAP3 SWAP2 SWAP1 DUP3 SWAP1 SUB ADD DUP2 DUP7 DUP1 EXTCODESIZE ISZERO DUP1 ISZERO PUSH2 0xC5D JUMPI PUSH1 0x0 DUP1 REVERT JUMPDEST PUSH1 0x8 SLOAD PUSH1 0x40 MLOAD PUSH4 0x70A08231 PUSH1 0xE0 SHL DUP2 MSTORE PUSH1 0x1 PUSH1 0x1 PUSH1 0xA0 SHL SUB DUP4 DUP2 AND PUSH1 0x4 DUP4 ADD MSTORE PUSH1 0x0 SWAP3 AND SWAP1 PUSH4 0x70A08231 SWAP1 PUSH1 0x24 ADD JUMPDEST PUSH1 0x20 PUSH1 0x40 MLOAD DUP1 DUP4 SUB DUP2 DUP7 DUP1 EXTCODESIZE ISZERO DUP1 ISZERO PUSH2 0xE92 JUMPI PUSH1 0x0 DUP1 REVERT JUMPDEST POP GAS STATICCALL ISZERO DUP1 ISZERO PUSH2 0xEA6 JUMPI RETURNDATASIZE PUSH1 0x0 DUP1 RETURNDATACOPY RETURNDATASIZE PUSH1 0x0 REVERT JUMPDEST POP POP POP POP PUSH1 0x40 MLOAD RETURNDATASIZE PUSH1 0x1F NOT PUSH1 0x1F DUP3 ADD AND DUP3 ADD DUP1 PUSH1 0x40 MSTORE POP DUP2 ADD SWAP1 PUSH2 0xA28 SWAP2 SWAP1 PUSH2 0x37EF JUMP JUMPDEST PUSH1 0x8 SLOAD PUSH1 0x40 MLOAD PUSH1 0x1 PUSH3 0x4D3B87 PUSH1 0xE0 SHL SUB NOT DUP2 MSTORE PUSH1 0x4 DUP2 ADD DUP4 SWAP1 MSTORE PUSH1 0x0 SWAP2 DUP3 SWAP2 DUP3 SWAP2 PUSH1 0x1 PUSH1 0x1 PUSH1 0xA0 SHL SUB AND SWAP1 PUSH4 0xFFB2C479 SWAP1 PUSH1 0x24 ADD PUSH1 0x60 PUSH1 0x40 MLOAD DUP1 DUP4 SUB DUP2 PUSH1 0x0 DUP8 DUP1 EXTCODESIZE ISZERO DUP1 ISZERO PUSH2 0xF18 JUMPI PUSH1 0x0 DUP1 REVERT JUMPDEST POP GAS CALL ISZERO DUP1 ISZERO PUSH2 0xF2C JUMPI RETURNDATASIZE PUSH1 0x0 DUP1 RETURNDATACOPY RETURNDATASIZE PUSH1 0x0 REVERT JUMPDEST POP POP POP POP PUSH1 0x40 MLOAD RETURNDATASIZE PUSH1 0x1F NOT PUSH1 0x1F DUP3 ADD AND DUP3 ADD DUP1 PUSH1 0x40 MSTORE POP DUP2 ADD SWAP1 PUSH2 0xF50 SWAP2 SWAP1 PUSH2 0x3807 JUMP JUMPDEST PUSH1 0x40 DUP1 MLOAD DUP5 DUP2 MSTORE PUSH1 0x20 DUP2 ADD DUP5 SWAP1 MSTORE SWAP1 DUP2 ADD DUP3 SWAP1 MSTORE PUSH1 0x60 DUP2 ADD DUP9 SWAP1 MSTORE SWAP3 SWAP6 POP SWAP1 SWAP4 POP SWAP2 POP ORIGIN SWAP1 PUSH1 0x0 SWAP1 PUSH32 0xC864333D6121033635AB41B29AE52F10A22CF4438C3E4F1C4C68518FEB2F8A98 SWAP1 PUSH1 0x80 ADD PUSH1 0x40 MLOAD DUP1 SWAP2 SUB SWAP1 LOG3 POP POP POP POP JUMP JUMPDEST PUSH1 0x1 PUSH1 0x1 PUSH1 0xA0 SHL SUB AND PUSH1 0x0 SWAP1 DUP2 MSTORE PUSH1 0x20 DUP2 SWAP1 MSTORE PUSH1 0x40 SWAP1 KECCAK256 SLOAD SWAP1 JUMP JUMPDEST PUSH1 0x5 SLOAD PUSH1 0x1 PUSH1 0x1 PUSH1 0xA0 SHL SUB AND CALLER EQ PUSH2 0xFF0 JUMPI PUSH1 0x40 MLOAD PUSH3 0x461BCD PUSH1 0xE5 SHL DUP2 MSTORE PUSH1 0x4 ADD PUSH2 0xA58 SWAP1 PUSH2 0x3946 JUMP JUMPDEST PUSH1 0x5 SLOAD PUSH1 0x40 MLOAD PUSH1 0x0 SWAP2 PUSH1 0x1 PUSH1 0x1 PUSH1 0xA0 SHL SUB AND SWAP1 PUSH32 0x8BE0079C531659141344CD1FD0A4F28419497F9722A3DAAFE3B4186F6B6457E0 SWAP1 DUP4 SWAP1 LOG3 PUSH1 0x5 DUP1 SLOAD PUSH1 0x1 PUSH1 0x1 PUSH1 0xA0 SHL SUB NOT AND SWAP1 SSTORE JUMP JUMPDEST PUSH1 0x5 SLOAD PUSH1 0x1 PUSH1 0x1 PUSH1 0xA0 SHL SUB AND CALLER EQ PUSH2 0x1064 JUMPI PUSH1 0x40 MLOAD PUSH3 0x461BCD PUSH1 0xE5 SHL DUP2 MSTORE PUSH1 0x4 ADD PUSH2 0xA58 SWAP1 PUSH2 0x3946 JUMP JUMPDEST PUSH3 0x30D40 DUP2 LT ISZERO DUP1 ISZERO PUSH2 0x107A JUMPI POP PUSH3 0x7A120 DUP2 GT ISZERO JUMPDEST PUSH2 0x10E3 JUMPI PUSH1 0x40 MLOAD PUSH3 0x461BCD PUSH1 0xE5 SHL DUP2 MSTORE PUSH1 0x20 PUSH1 0x4 DUP3 ADD MSTORE PUSH1 0x34 PUSH1 0x24 DUP3 ADD MSTORE PUSH32 0x676173466F7250726F63657373696E67206D757374206265206265747765656E PUSH1 0x44 DUP3 ADD MSTORE PUSH20 0x203230302C30303020616E64203530302C30303 PUSH1 0x64 SHL PUSH1 0x64 DUP3 ADD MSTORE PUSH1 0x84 ADD PUSH2 0xA58 JUMP JUMPDEST PUSH1 0x1B SLOAD DUP2 EQ ISZERO PUSH2 0x114A JUMPI PUSH1 0x40 MLOAD PUSH3 0x461BCD PUSH1 0xE5 SHL DUP2 MSTORE PUSH1 0x20 PUSH1 0x4 DUP3 ADD MSTORE PUSH1 0x2C PUSH1 0x24 DUP3 ADD MSTORE PUSH32 0x43616E6E6F742075706461746520676173466F7250726F63657373696E672074 PUSH1 0x44 DUP3 ADD MSTORE PUSH12 0x6F2073616D652076616C7565 PUSH1 0xA0 SHL PUSH1 0x64 DUP3 ADD MSTORE PUSH1 0x84 ADD PUSH2 0xA58 JUMP JUMPDEST PUSH1 0x1B SLOAD PUSH1 0x40 MLOAD DUP3 SWAP1 PUSH32 0x40D7E40E79AF4E8E5A9B3C57030D8EA93F13D669C06D448C4D631D4AE7D23DB7 SWAP1 PUSH1 0x0 SWAP1 LOG3 PUSH1 0x1B SSTORE JUMP JUMPDEST PUSH1 0x60 PUSH1 0x4 DUP1 SLOAD PUSH2 0x994 SWAP1 PUSH2 0x3ABA JUMP JUMPDEST PUSH1 0x5 SLOAD PUSH1 0x1 PUSH1 0x1 PUSH1 0xA0 SHL SUB AND CALLER EQ PUSH2 0x11B6 JUMPI PUSH1 0x40 MLOAD PUSH3 0x461BCD PUSH1 0xE5 SHL DUP2 MSTORE PUSH1 0x4 ADD PUSH2 0xA58 SWAP1 PUSH2 0x3946 JUMP JUMPDEST PUSH1 0x7 SLOAD PUSH1 0x1 PUSH1 0x1 PUSH1 0xA0 SHL SUB DUP4 DUP2 AND SWAP2 AND EQ ISZERO PUSH2 0x123A JUMPI PUSH1 0x40 MLOAD PUSH3 0x461BCD PUSH1 0xE5 SHL DUP2 MSTORE PUSH1 0x20 PUSH1 0x4 DUP3 ADD MSTORE PUSH1 0x3E PUSH1 0x24 DUP3 ADD MSTORE PUSH32 0x546865207377617020706169722063616E6E6F742062652072656D6F76656420 PUSH1 0x44 DUP3 ADD MSTORE PUSH32 0x66726F6D206175746F6D617465644D61726B65744D616B657250616972730000 PUSH1 0x64 DUP3 ADD MSTORE PUSH1 0x84 ADD PUSH2 0xA58 JUMP JUMPDEST PUSH2 0xBAB DUP3 DUP3 PUSH2 0x20AD JUMP JUMPDEST PUSH1 0x8 SLOAD PUSH1 0x40 DUP1 MLOAD PUSH4 0x1BC9E27B PUSH1 0xE2 SHL DUP2 MSTORE SWAP1 MLOAD PUSH1 0x0 SWAP3 PUSH1 0x1 PUSH1 0x1 PUSH1 0xA0 SHL SUB AND SWAP2 PUSH4 0x6F2789EC SWAP2 PUSH1 0x4 DUP1 DUP4 ADD SWAP3 PUSH1 0x20 SWAP3 SWAP2 SWAP1 DUP3 SWAP1 SUB ADD DUP2 DUP7 DUP1 EXTCODESIZE ISZERO DUP1 ISZERO PUSH2 0xC5D JUMPI PUSH1 0x0 DUP1 REVERT JUMPDEST PUSH1 0x0 PUSH2 0xA24 CALLER DUP5 PUSH2 0xC09 DUP6 PUSH1 0x40 MLOAD DUP1 PUSH1 0x60 ADD PUSH1 0x40 MSTORE DUP1 PUSH1 0x25 DUP2 MSTORE PUSH1 0x20 ADD PUSH2 0x3BAE PUSH1 0x25 SWAP2 CODECOPY CALLER PUSH1 0x0 SWAP1 DUP2 MSTORE PUSH1 0x1 PUSH1 0x20 SWAP1 DUP2 MSTORE PUSH1 0x40 DUP1 DUP4 KECCAK256 PUSH1 0x1 PUSH1 0x1 PUSH1 0xA0 SHL SUB DUP14 AND DUP5 MSTORE SWAP1 SWAP2 MSTORE SWAP1 KECCAK256 SLOAD SWAP2 SWAP1 PUSH2 0x2073 JUMP JUMPDEST PUSH1 0x8 SLOAD PUSH1 0x40 MLOAD PUSH4 0x2A2E749 PUSH1 0xE6 SHL DUP2 MSTORE PUSH1 0x1 PUSH1 0x1 PUSH1 0xA0 SHL SUB DUP4 DUP2 AND PUSH1 0x4 DUP4 ADD MSTORE PUSH1 0x0 SWAP3 AND SWAP1 PUSH4 0xA8B9D240 SWAP1 PUSH1 0x24 ADD PUSH2 0xE7A JUMP JUMPDEST PUSH1 0x0 PUSH2 0xA24 CALLER DUP5 DUP5 PUSH2 0x18AB JUMP JUMPDEST PUSH1 0x8 SLOAD PUSH1 0x40 MLOAD PUSH4 0xFBCBC0F1 PUSH1 0xE0 SHL DUP2 MSTORE PUSH1 0x1 PUSH1 0x1 PUSH1 0xA0 SHL SUB DUP4 DUP2 AND PUSH1 0x4 DUP4 ADD MSTORE PUSH1 0x0 SWAP3 DUP4 SWAP3 DUP4 SWAP3 DUP4 SWAP3 DUP4 SWAP3 DUP4 SWAP3 DUP4 SWAP3 DUP4 SWAP3 SWAP2 AND SWAP1 PUSH4 0xFBCBC0F1 SWAP1 PUSH1 0x24 ADD JUMPDEST PUSH2 0x100 PUSH1 0x40 MLOAD DUP1 DUP4 SUB DUP2 DUP7 DUP1 EXTCODESIZE ISZERO DUP1 ISZERO PUSH2 0x136F JUMPI PUSH1 0x0 DUP1 REVERT JUMPDEST POP GAS STATICCALL ISZERO DUP1 ISZERO PUSH2 0x1383 JUMPI RETURNDATASIZE PUSH1 0x0 DUP1 RETURNDATACOPY RETURNDATASIZE PUSH1 0x0 REVERT JUMPDEST POP POP POP POP PUSH1 0x40 MLOAD RETURNDATASIZE PUSH1 0x1F NOT PUSH1 0x1F DUP3 ADD AND DUP3 ADD DUP1 PUSH1 0x40 MSTORE POP DUP2 ADD SWAP1 PUSH2 0x13A7 SWAP2 SWAP1 PUSH2 0x364E JUMP JUMPDEST SWAP8 POP SWAP8 POP SWAP8 POP SWAP8 POP SWAP8 POP SWAP8 POP SWAP8 POP SWAP8 POP SWAP2 SWAP4 SWAP6 SWAP8 POP SWAP2 SWAP4 SWAP6 SWAP8 JUMP JUMPDEST PUSH1 0x5 SLOAD PUSH1 0x1 PUSH1 0x1 PUSH1 0xA0 SHL SUB AND CALLER EQ PUSH2 0x13EC JUMPI PUSH1 0x40 MLOAD PUSH3 0x461BCD PUSH1 0xE5 SHL DUP2 MSTORE PUSH1 0x4 ADD PUSH2 0xA58 SWAP1 PUSH2 0x3946 JUMP JUMPDEST PUSH1 0xC SSTORE JUMP JUMPDEST PUSH1 0x5 SLOAD PUSH1 0x1 PUSH1 0x1 PUSH1 0xA0 SHL SUB AND CALLER EQ PUSH2 0x141B JUMPI PUSH1 0x40 MLOAD PUSH3 0x461BCD PUSH1 0xE5 SHL DUP2 MSTORE PUSH1 0x4 ADD PUSH2 0xA58 SWAP1 PUSH2 0x3946 JUMP JUMPDEST PUSH1 0x1 PUSH1 0x1 PUSH1 0xA0 SHL SUB DUP3 AND PUSH1 0x0 SWAP1 DUP2 MSTORE PUSH1 0x1C PUSH1 0x20 MSTORE PUSH1 0x40 SWAP1 KECCAK256 SLOAD PUSH1 0xFF AND ISZERO ISZERO DUP2 ISZERO ISZERO EQ ISZERO PUSH2 0x149D JUMPI PUSH1 0x40 MLOAD PUSH3 0x461BCD PUSH1 0xE5 SHL DUP2 MSTORE PUSH1 0x20 PUSH1 0x4 DUP3 ADD MSTORE PUSH1 0x2A PUSH1 0x24 DUP3 ADD MSTORE PUSH32 0x4163636F756E7420697320616C7265616479207468652076616C7565206F6620 PUSH1 0x44 DUP3 ADD MSTORE PUSH10 0x276578636C7564656427 PUSH1 0xB0 SHL PUSH1 0x64 DUP3 ADD MSTORE PUSH1 0x84 ADD PUSH2 0xA58 JUMP JUMPDEST PUSH1 0x1 PUSH1 0x1 PUSH1 0xA0 SHL SUB DUP3 AND PUSH1 0x0 DUP2 DUP2 MSTORE PUSH1 0x1C PUSH1 0x20 SWAP1 DUP2 MSTORE PUSH1 0x40 SWAP2 DUP3 SWAP1 KECCAK256 DUP1 SLOAD PUSH1 0xFF NOT AND DUP6 ISZERO ISZERO SWAP1 DUP2 OR SWAP1 SWAP2 SSTORE SWAP2 MLOAD SWAP2 DUP3 MSTORE PUSH32 0x9D8F7706EA1113D1A167B526ECA956215946DD36CC7DF39EB16180222D8B5DF7 SWAP2 ADD PUSH1 0x40 MLOAD DUP1 SWAP2 SUB SWAP1 LOG2 POP POP JUMP JUMPDEST PUSH1 0x5 SLOAD PUSH1 0x1 PUSH1 0x1 PUSH1 0xA0 SHL SUB AND CALLER EQ PUSH2 0x1526 JUMPI PUSH1 0x40 MLOAD PUSH3 0x461BCD PUSH1 0xE5 SHL DUP2 MSTORE PUSH1 0x4 ADD PUSH2 0xA58 SWAP1 PUSH2 0x3946 JUMP JUMPDEST PUSH1 0x0 JUMPDEST DUP3 MLOAD DUP2 LT ISZERO PUSH2 0x159B JUMPI DUP2 PUSH1 0x1C PUSH1 0x0 DUP6 DUP5 DUP2 MLOAD DUP2 LT PUSH2 0x1557 JUMPI PUSH4 0x4E487B71 PUSH1 0xE0 SHL PUSH1 0x0 MSTORE PUSH1 0x32 PUSH1 0x4 MSTORE PUSH1 0x24 PUSH1 0x0 REVERT JUMPDEST PUSH1 0x20 SWAP1 DUP2 MUL SWAP2 SWAP1 SWAP2 ADD DUP2 ADD MLOAD PUSH1 0x1 PUSH1 0x1 PUSH1 0xA0 SHL SUB AND DUP3 MSTORE DUP2 ADD SWAP2 SWAP1 SWAP2 MSTORE PUSH1 0x40 ADD PUSH1 0x0 KECCAK256 DUP1 SLOAD PUSH1 0xFF NOT AND SWAP2 ISZERO ISZERO SWAP2 SWAP1 SWAP2 OR SWAP1 SSTORE DUP1 PUSH2 0x1593 DUP2 PUSH2 0x3AF5 JUMP JUMPDEST SWAP2 POP POP PUSH2 0x1529 JUMP JUMPDEST POP PUSH32 0x7FDAF542373FA84F4EE8D662C642F44E4C2276A217D7D29E548B6EB29A233B35 DUP3 DUP3 PUSH1 0x40 MLOAD PUSH2 0x15CD SWAP3 SWAP2 SWAP1 PUSH2 0x38AC JUMP JUMPDEST PUSH1 0x40 MLOAD DUP1 SWAP2 SUB SWAP1 LOG1 POP POP JUMP JUMPDEST PUSH1 0x8 SLOAD PUSH1 0x40 DUP1 MLOAD PUSH4 0x39E107B PUSH1 0xE6 SHL DUP2 MSTORE SWAP1 MLOAD PUSH1 0x0 SWAP3 PUSH1 0x1 PUSH1 0x1 PUSH1 0xA0 SHL SUB AND SWAP2 PUSH4 0xE7841EC0 SWAP2 PUSH1 0x4 DUP1 DUP4 ADD SWAP3 PUSH1 0x20 SWAP3 SWAP2 SWAP1 DUP3 SWAP1 SUB ADD DUP2 DUP7 DUP1 EXTCODESIZE ISZERO DUP1 ISZERO PUSH2 0xC5D JUMPI PUSH1 0x0 DUP1 REVERT JUMPDEST PUSH1 0x5 SLOAD PUSH1 0x1 PUSH1 0x1 PUSH1 0xA0 SHL SUB AND CALLER EQ PUSH2 0x1648 JUMPI PUSH1 0x40 MLOAD PUSH3 0x461BCD PUSH1 0xE5 SHL DUP2 MSTORE PUSH1 0x4 ADD PUSH2 0xA58 SWAP1 PUSH2 0x3946 JUMP JUMPDEST PUSH1 0x8 SLOAD PUSH1 0x40 MLOAD PUSH4 0xE98030C7 PUSH1 0xE0 SHL DUP2 MSTORE PUSH1 0x4 DUP2 ADD DUP4 SWAP1 MSTORE PUSH1 0x1 PUSH1 0x1 PUSH1 0xA0 SHL SUB SWAP1 SWAP2 AND SWAP1 PUSH4 0xE98030C7 SWAP1 PUSH1 0x24 ADD PUSH2 0xCF2 JUMP JUMPDEST PUSH1 0x8 SLOAD PUSH1 0x40 MLOAD PUSH4 0x5183D6FD PUSH1 0xE0 SHL DUP2 MSTORE PUSH1 0x4 DUP2 ADD DUP4 SWAP1 MSTORE PUSH1 0x0 SWAP2 DUP3 SWAP2 DUP3 SWAP2 DUP3 SWAP2 DUP3 SWAP2 DUP3 SWAP2 DUP3 SWAP2 DUP3 SWAP2 PUSH1 0x1 PUSH1 0x1 PUSH1 0xA0 SHL SUB SWAP1 SWAP2 AND SWAP1 PUSH4 0x5183D6FD SWAP1 PUSH1 0x24 ADD PUSH2 0x1356 JUMP JUMPDEST PUSH1 0x5 SLOAD PUSH1 0x1 PUSH1 0x1 PUSH1 0xA0 SHL SUB AND CALLER EQ PUSH2 0x16E5 JUMPI PUSH1 0x40 MLOAD PUSH3 0x461BCD PUSH1 0xE5 SHL DUP2 MSTORE PUSH1 0x4 ADD PUSH2 0xA58 SWAP1 PUSH2 0x3946 JUMP JUMPDEST PUSH2 0x16EE DUP2 PUSH2 0x220B JUMP JUMPDEST PUSH1 0x8 SLOAD PUSH1 0x40 MLOAD PUSH4 0x6D91196F PUSH1 0xE0 SHL DUP2 MSTORE PUSH1 0x1 PUSH1 0x1 PUSH1 0xA0 SHL SUB DUP4 DUP2 AND PUSH1 0x4 DUP4 ADD MSTORE SWAP1 SWAP2 AND SWAP1 PUSH4 0x6D91196F SWAP1 PUSH1 0x24 ADD PUSH2 0xCF2 JUMP JUMPDEST PUSH1 0x0 DUP1 PUSH2 0x172D DUP4 DUP6 PUSH2 0x3A20 JUMP JUMPDEST SWAP1 POP DUP4 DUP2 LT ISZERO PUSH2 0x177F JUMPI PUSH1 0x40 MLOAD PUSH3 0x461BCD PUSH1 0xE5 SHL DUP2 MSTORE PUSH1 0x20 PUSH1 0x4 DUP3 ADD MSTORE PUSH1 0x1B PUSH1 0x24 DUP3 ADD MSTORE PUSH32 0x536166654D6174683A206164646974696F6E206F766572666C6F770000000000 PUSH1 0x44 DUP3 ADD MSTORE PUSH1 0x64 ADD PUSH2 0xA58 JUMP JUMPDEST SWAP4 SWAP3 POP POP POP JUMP JUMPDEST PUSH1 0x1 PUSH1 0x1 PUSH1 0xA0 SHL SUB DUP4 AND PUSH2 0x17E8 JUMPI PUSH1 0x40 MLOAD PUSH3 0x461BCD PUSH1 0xE5 SHL DUP2 MSTORE PUSH1 0x20 PUSH1 0x4 DUP3 ADD MSTORE PUSH1 0x24 DUP1 DUP3 ADD MSTORE PUSH32 0x45524332303A20617070726F76652066726F6D20746865207A65726F20616464 PUSH1 0x44 DUP3 ADD MSTORE PUSH4 0x72657373 PUSH1 0xE0 SHL PUSH1 0x64 DUP3 ADD MSTORE PUSH1 0x84 ADD PUSH2 0xA58 JUMP JUMPDEST PUSH1 0x1 PUSH1 0x1 PUSH1 0xA0 SHL SUB DUP3 AND PUSH2 0x1849 JUMPI PUSH1 0x40 MLOAD PUSH3 0x461BCD PUSH1 0xE5 SHL DUP2 MSTORE PUSH1 0x20 PUSH1 0x4 DUP3 ADD MSTORE PUSH1 0x22 PUSH1 0x24 DUP3 ADD MSTORE PUSH32 0x45524332303A20617070726F766520746F20746865207A65726F206164647265 PUSH1 0x44 DUP3 ADD MSTORE PUSH2 0x7373 PUSH1 0xF0 SHL PUSH1 0x64 DUP3 ADD MSTORE PUSH1 0x84 ADD PUSH2 0xA58 JUMP JUMPDEST PUSH1 0x1 PUSH1 0x1 PUSH1 0xA0 SHL SUB DUP4 DUP2 AND PUSH1 0x0 DUP2 DUP2 MSTORE PUSH1 0x1 PUSH1 0x20 SWAP1 DUP2 MSTORE PUSH1 0x40 DUP1 DUP4 KECCAK256 SWAP5 DUP8 AND DUP1 DUP5 MSTORE SWAP5 DUP3 MSTORE SWAP2 DUP3 SWAP1 KECCAK256 DUP6 SWAP1 SSTORE SWAP1 MLOAD DUP5 DUP2 MSTORE PUSH32 0x8C5BE1E5EBEC7D5BD14F71427D1E84F3DD0314C0F7B2291E5B200AC8C7C3B925 SWAP2 ADD JUMPDEST PUSH1 0x40 MLOAD DUP1 SWAP2 SUB SWAP1 LOG3 POP POP POP JUMP JUMPDEST PUSH1 0x1 PUSH1 0x1 PUSH1 0xA0 SHL SUB DUP4 AND PUSH2 0x18D1 JUMPI PUSH1 0x40 MLOAD PUSH3 0x461BCD PUSH1 0xE5 SHL DUP2 MSTORE PUSH1 0x4 ADD PUSH2 0xA58 SWAP1 PUSH2 0x397B JUMP JUMPDEST PUSH1 0x1 PUSH1 0x1 PUSH1 0xA0 SHL SUB DUP3 AND PUSH2 0x18F7 JUMPI PUSH1 0x40 MLOAD PUSH3 0x461BCD PUSH1 0xE5 SHL DUP2 MSTORE PUSH1 0x4 ADD PUSH2 0xA58 SWAP1 PUSH2 0x3903 JUMP JUMPDEST DUP1 PUSH2 0x190D JUMPI PUSH2 0x1908 DUP4 DUP4 PUSH1 0x0 PUSH2 0x22F6 JUMP JUMPDEST PUSH2 0x206E JUMP JUMPDEST PUSH1 0x1 PUSH1 0x1 PUSH1 0xA0 SHL SUB DUP4 AND ADDRESS EQ DUP1 PUSH2 0x192C JUMPI POP PUSH1 0x1 PUSH1 0x1 PUSH1 0xA0 SHL SUB DUP3 AND ADDRESS EQ JUMPDEST ISZERO PUSH2 0x193C JUMPI PUSH2 0x1908 DUP4 DUP4 DUP4 PUSH2 0x22F6 JUMP JUMPDEST PUSH1 0x17 SLOAD PUSH1 0x1 PUSH1 0x1 PUSH1 0xA0 SHL SUB DUP5 DUP2 AND SWAP2 AND EQ DUP1 ISZERO PUSH2 0x1966 JUMPI POP PUSH1 0x5 SLOAD PUSH1 0x1 PUSH1 0x1 PUSH1 0xA0 SHL SUB DUP4 DUP2 AND SWAP2 AND EQ JUMPDEST ISZERO PUSH2 0x1970 JUMPI PUSH1 0x0 DUP1 REVERT JUMPDEST PUSH1 0x7 SLOAD PUSH1 0x1 PUSH1 0x1 PUSH1 0xA0 SHL SUB DUP5 DUP2 AND SWAP2 AND EQ DUP1 ISZERO SWAP1 PUSH2 0x199C JUMPI POP PUSH1 0x7 SLOAD PUSH1 0x1 PUSH1 0x1 PUSH1 0xA0 SHL SUB DUP4 DUP2 AND SWAP2 AND EQ ISZERO JUMPDEST ISZERO PUSH2 0x1B2C JUMPI PUSH2 0x19AC DUP4 DUP4 DUP4 PUSH2 0x22F6 JUMP JUMPDEST PUSH1 0x8 SLOAD PUSH1 0x1 PUSH1 0x1 PUSH1 0xA0 SHL SUB AND PUSH4 0xE30443BC DUP5 PUSH2 0x19C7 DUP2 PUSH2 0xFAB JUMP JUMPDEST PUSH1 0x40 MLOAD DUP4 PUSH4 0xFFFFFFFF AND PUSH1 0xE0 SHL DUP2 MSTORE PUSH1 0x4 ADD PUSH2 0x19E4 SWAP3 SWAP2 SWAP1 PUSH2 0x3893 JUMP JUMPDEST PUSH1 0x0 PUSH1 0x40 MLOAD DUP1 DUP4 SUB DUP2 PUSH1 0x0 DUP8 DUP1 EXTCODESIZE ISZERO DUP1 ISZERO PUSH2 0x19FE JUMPI PUSH1 0x0 DUP1 REVERT JUMPDEST POP GAS CALL SWAP3 POP POP POP DUP1 ISZERO PUSH2 0x1A0F JUMPI POP PUSH1 0x1 JUMPDEST POP PUSH1 0x8 SLOAD PUSH1 0x1 PUSH1 0x1 PUSH1 0xA0 SHL SUB AND PUSH4 0xE30443BC DUP4 PUSH2 0x1A2B DUP2 PUSH2 0xFAB JUMP JUMPDEST PUSH1 0x40 MLOAD DUP4 PUSH4 0xFFFFFFFF AND PUSH1 0xE0 SHL DUP2 MSTORE PUSH1 0x4 ADD PUSH2 0x1A48 SWAP3 SWAP2 SWAP1 PUSH2 0x3893 JUMP JUMPDEST PUSH1 0x0 PUSH1 0x40 MLOAD DUP1 DUP4 SUB DUP2 PUSH1 0x0 DUP8 DUP1 EXTCODESIZE ISZERO DUP1 ISZERO PUSH2 0x1A62 JUMPI PUSH1 0x0 DUP1 REVERT JUMPDEST POP GAS CALL SWAP3 POP POP POP DUP1 ISZERO PUSH2 0x1A73 JUMPI POP PUSH1 0x1 JUMPDEST POP PUSH1 0x1 PUSH1 0x1 PUSH1 0xA0 SHL SUB DUP3 DUP2 AND PUSH1 0x0 SWAP1 DUP2 MSTORE PUSH1 0x1E PUSH1 0x20 MSTORE PUSH1 0x40 SWAP1 KECCAK256 SLOAD AND ISZERO DUP1 ISZERO PUSH2 0x1AAB JUMPI POP PUSH1 0xB SLOAD PUSH2 0x1AA7 SWAP1 PUSH3 0xF4240 PUSH2 0x3A58 JUMP JUMPDEST DUP2 LT ISZERO JUMPDEST ISZERO PUSH2 0x1908 JUMPI PUSH1 0x1 PUSH1 0x1 PUSH1 0xA0 SHL SUB DUP3 DUP2 AND PUSH1 0x0 SWAP1 DUP2 MSTORE PUSH1 0x1E PUSH1 0x20 MSTORE PUSH1 0x40 DUP1 DUP3 KECCAK256 DUP1 SLOAD PUSH1 0x1 PUSH1 0x1 PUSH1 0xA0 SHL SUB NOT AND DUP8 DUP6 AND SWAP1 DUP2 OR SWAP1 SWAP2 SSTORE DUP3 MSTORE SWAP1 KECCAK256 SLOAD AND ISZERO PUSH2 0x1908 JUMPI PUSH1 0x1 PUSH1 0x1 PUSH1 0xA0 SHL SUB DUP1 DUP5 AND PUSH1 0x0 SWAP1 DUP2 MSTORE PUSH1 0x1E PUSH1 0x20 SWAP1 DUP2 MSTORE PUSH1 0x40 DUP1 DUP4 KECCAK256 SLOAD DUP7 DUP6 AND DUP5 MSTORE PUSH1 0x1F SWAP1 SWAP3 MSTORE SWAP1 SWAP2 KECCAK256 DUP1 SLOAD PUSH1 0x1 PUSH1 0x1 PUSH1 0xA0 SHL SUB NOT AND SWAP2 SWAP1 SWAP3 AND OR SWAP1 SSTORE PUSH2 0x206E JUMP JUMPDEST PUSH1 0x1 PUSH1 0x1 PUSH1 0xA0 SHL SUB DUP3 DUP2 AND PUSH1 0x0 SWAP1 DUP2 MSTORE PUSH1 0x1E PUSH1 0x20 MSTORE PUSH1 0x40 SWAP1 KECCAK256 SLOAD AND PUSH2 0x1B97 JUMPI PUSH1 0x5 DUP1 SLOAD PUSH1 0x1 PUSH1 0x1 PUSH1 0xA0 SHL SUB DUP5 DUP2 AND PUSH1 0x0 SWAP1 DUP2 MSTORE PUSH1 0x1E PUSH1 0x20 SWAP1 DUP2 MSTORE PUSH1 0x40 DUP1 DUP4 KECCAK256 DUP1 SLOAD SWAP6 DUP6 AND PUSH1 0x1 PUSH1 0x1 PUSH1 0xA0 SHL SUB NOT SWAP7 DUP8 AND OR SWAP1 SSTORE SWAP5 SLOAD PUSH1 0x1F SWAP1 SWAP2 MSTORE SWAP4 SWAP1 KECCAK256 DUP1 SLOAD SWAP1 SWAP3 AND SWAP3 AND SWAP2 SWAP1 SWAP2 OR SWAP1 SSTORE JUMPDEST PUSH1 0x0 PUSH2 0x1BA2 ADDRESS PUSH2 0xFAB JUMP JUMPDEST SWAP1 POP PUSH1 0x0 PUSH2 0x1BBD PUSH1 0xD SLOAD PUSH1 0xC SLOAD PUSH2 0x1720 SWAP1 SWAP2 SWAP1 PUSH4 0xFFFFFFFF AND JUMP JUMPDEST DUP3 LT ISZERO SWAP1 POP DUP1 DUP1 ISZERO PUSH2 0x1BD9 JUMPI POP PUSH1 0x7 SLOAD PUSH1 0x1 PUSH1 0xA0 SHL SWAP1 DIV PUSH1 0xFF AND ISZERO JUMPDEST DUP1 ISZERO PUSH2 0x1BFE JUMPI POP PUSH1 0x1 PUSH1 0x1 PUSH1 0xA0 SHL SUB DUP6 AND PUSH1 0x0 SWAP1 DUP2 MSTORE PUSH1 0x1D PUSH1 0x20 MSTORE PUSH1 0x40 SWAP1 KECCAK256 SLOAD PUSH1 0xFF AND ISZERO JUMPDEST DUP1 ISZERO PUSH2 0x1C18 JUMPI POP PUSH1 0x5 SLOAD PUSH1 0x1 PUSH1 0x1 PUSH1 0xA0 SHL SUB DUP7 DUP2 AND SWAP2 AND EQ ISZERO JUMPDEST DUP1 ISZERO PUSH2 0x1C32 JUMPI POP PUSH1 0x5 SLOAD PUSH1 0x1 PUSH1 0x1 PUSH1 0xA0 SHL SUB DUP6 DUP2 AND SWAP2 AND EQ ISZERO JUMPDEST ISZERO PUSH2 0x1D21 JUMPI PUSH1 0x7 DUP1 SLOAD PUSH1 0xFF PUSH1 0xA0 SHL NOT AND PUSH1 0x1 PUSH1 0xA0 SHL OR SWAP1 SSTORE PUSH1 0xD SLOAD PUSH2 0x1C58 SWAP1 DUP4 SWAP1 PUSH2 0x23FF JUMP JUMPDEST SWAP2 POP PUSH1 0x0 PUSH2 0x1C7D PUSH1 0x12 SLOAD PUSH2 0x1C77 PUSH1 0x11 SLOAD DUP7 PUSH2 0x2441 SWAP1 SWAP2 SWAP1 PUSH4 0xFFFFFFFF AND JUMP JUMPDEST SWAP1 PUSH2 0x24C0 JUMP JUMPDEST SWAP1 POP PUSH2 0x1C88 DUP2 PUSH2 0x2502 JUMP JUMPDEST PUSH1 0x0 PUSH2 0x1CA5 PUSH1 0x12 SLOAD PUSH2 0x1C77 PUSH1 0x10 SLOAD DUP8 PUSH2 0x2441 SWAP1 SWAP2 SWAP1 PUSH4 0xFFFFFFFF AND JUMP JUMPDEST PUSH1 0x9 SLOAD SWAP1 SWAP2 POP PUSH2 0x1CC0 SWAP1 ADDRESS SWAP1 PUSH1 0x1 PUSH1 0x1 PUSH1 0xA0 SHL SUB AND DUP4 PUSH2 0x22F6 JUMP JUMPDEST PUSH1 0x0 PUSH2 0x1CE9 PUSH1 0xD SLOAD PUSH2 0x1CE3 PUSH1 0x12 SLOAD PUSH2 0x1C77 PUSH1 0xE SLOAD DUP11 PUSH2 0x2441 SWAP1 SWAP2 SWAP1 PUSH4 0xFFFFFFFF AND JUMP JUMPDEST SWAP1 PUSH2 0x1720 JUMP JUMPDEST SWAP1 POP PUSH2 0x1CF4 DUP2 PUSH2 0x26E5 JUMP JUMPDEST PUSH1 0x0 PUSH1 0xD DUP2 SWAP1 SSTORE PUSH2 0x1D04 ADDRESS PUSH2 0xFAB JUMP JUMPDEST SWAP1 POP PUSH2 0x1D0F DUP2 PUSH2 0x276C JUMP JUMPDEST POP POP PUSH1 0x7 DUP1 SLOAD PUSH1 0xFF PUSH1 0xA0 SHL NOT AND SWAP1 SSTORE POP POP JUMPDEST PUSH1 0x7 SLOAD PUSH1 0x1 PUSH1 0x1 PUSH1 0xA0 SHL SUB DUP7 AND PUSH1 0x0 SWAP1 DUP2 MSTORE PUSH1 0x1C PUSH1 0x20 MSTORE PUSH1 0x40 SWAP1 KECCAK256 SLOAD PUSH1 0xFF PUSH1 0x1 PUSH1 0xA0 SHL SWAP1 SWAP3 DIV DUP3 AND ISZERO SWAP2 AND DUP1 PUSH2 0x1D6F JUMPI POP PUSH1 0x1 PUSH1 0x1 PUSH1 0xA0 SHL SUB DUP6 AND PUSH1 0x0 SWAP1 DUP2 MSTORE PUSH1 0x1C PUSH1 0x20 MSTORE PUSH1 0x40 SWAP1 KECCAK256 SLOAD PUSH1 0xFF AND JUMPDEST ISZERO PUSH2 0x1D78 JUMPI POP PUSH1 0x0 JUMPDEST DUP1 DUP1 ISZERO PUSH2 0x1D87 JUMPI POP PUSH1 0x0 PUSH1 0x12 SLOAD GT JUMPDEST ISZERO PUSH2 0x1EAE JUMPI PUSH1 0x0 DUP1 PUSH2 0x1DA9 PUSH1 0x64 PUSH2 0x1C77 PUSH1 0x12 SLOAD DUP10 PUSH2 0x2441 SWAP1 SWAP2 SWAP1 PUSH4 0xFFFFFFFF AND JUMP JUMPDEST SWAP1 POP PUSH2 0x1DB6 DUP9 ADDRESS DUP4 PUSH2 0x22F6 JUMP JUMPDEST PUSH1 0x7 SLOAD PUSH1 0x1 PUSH1 0x1 PUSH1 0xA0 SHL SUB DUP9 DUP2 AND SWAP2 AND EQ ISZERO PUSH2 0x1DE2 JUMPI PUSH1 0x16 SLOAD PUSH1 0x15 SLOAD PUSH2 0x1DDB SWAP2 PUSH2 0x1720 JUMP JUMPDEST SWAP2 POP PUSH2 0x1DF4 JUMP JUMPDEST PUSH1 0x14 SLOAD PUSH1 0x13 SLOAD PUSH2 0x1DF1 SWAP2 PUSH2 0x1720 JUMP JUMPDEST SWAP2 POP JUMPDEST PUSH1 0x12 SLOAD PUSH1 0x0 SWAP1 PUSH2 0x1E08 SWAP1 PUSH2 0x1C77 DUP5 DUP7 PUSH2 0x2441 JUMP JUMPDEST PUSH1 0x7 SLOAD SWAP1 SWAP2 POP PUSH1 0x1 PUSH1 0xA0 SHL SWAP1 DIV PUSH1 0xFF AND ISZERO DUP1 ISZERO PUSH2 0x1E3E JUMPI POP PUSH1 0x1 PUSH1 0x1 PUSH1 0xA0 SHL SUB DUP10 AND PUSH1 0x0 SWAP1 DUP2 MSTORE PUSH1 0x1D PUSH1 0x20 MSTORE PUSH1 0x40 SWAP1 KECCAK256 SLOAD PUSH1 0xFF AND ISZERO JUMPDEST ISZERO PUSH2 0x1E72 JUMPI PUSH1 0x7 DUP1 SLOAD PUSH1 0xFF PUSH1 0xA0 SHL NOT AND PUSH1 0x1 PUSH1 0xA0 SHL OR SWAP1 SSTORE PUSH2 0x1E60 DUP10 DUP3 PUSH2 0x2924 JUMP JUMPDEST PUSH1 0x7 DUP1 SLOAD PUSH1 0xFF PUSH1 0xA0 SHL NOT AND SWAP1 SSTORE PUSH2 0x1E9E JUMP JUMPDEST PUSH1 0x1 PUSH1 0x1 PUSH1 0xA0 SHL SUB DUP10 AND PUSH1 0x0 SWAP1 DUP2 MSTORE PUSH1 0x1D PUSH1 0x20 MSTORE PUSH1 0x40 SWAP1 KECCAK256 SLOAD PUSH1 0xFF AND ISZERO PUSH2 0x1E9E JUMPI PUSH2 0x1E9E DUP9 DUP3 DUP6 PUSH2 0x2E08 JUMP JUMPDEST PUSH2 0x1EA8 DUP8 DUP4 PUSH2 0x23FF JUMP JUMPDEST SWAP7 POP POP POP POP JUMPDEST PUSH2 0x1EB9 DUP7 DUP7 DUP7 PUSH2 0x22F6 JUMP JUMPDEST PUSH1 0x8 SLOAD PUSH1 0x1 PUSH1 0x1 PUSH1 0xA0 SHL SUB AND PUSH4 0xE30443BC DUP8 PUSH2 0x1ED4 DUP2 PUSH2 0xFAB JUMP JUMPDEST PUSH1 0x40 MLOAD DUP4 PUSH4 0xFFFFFFFF AND PUSH1 0xE0 SHL DUP2 MSTORE PUSH1 0x4 ADD PUSH2 0x1EF1 SWAP3 SWAP2 SWAP1 PUSH2 0x3893 JUMP JUMPDEST PUSH1 0x0 PUSH1 0x40 MLOAD DUP1 DUP4 SUB DUP2 PUSH1 0x0 DUP8 DUP1 EXTCODESIZE ISZERO DUP1 ISZERO PUSH2 0x1F0B JUMPI PUSH1 0x0 DUP1 REVERT JUMPDEST POP GAS CALL SWAP3 POP POP POP DUP1 ISZERO PUSH2 0x1F1C JUMPI POP PUSH1 0x1 JUMPDEST POP PUSH1 0x8 SLOAD PUSH1 0x1 PUSH1 0x1 PUSH1 0xA0 SHL SUB AND PUSH4 0xE30443BC DUP7 PUSH2 0x1F38 DUP2 PUSH2 0xFAB JUMP JUMPDEST PUSH1 0x40 MLOAD DUP4 PUSH4 0xFFFFFFFF AND PUSH1 0xE0 SHL DUP2 MSTORE PUSH1 0x4 ADD PUSH2 0x1F55 SWAP3 SWAP2 SWAP1 PUSH2 0x3893 JUMP JUMPDEST PUSH1 0x0 PUSH1 0x40 MLOAD DUP1 DUP4 SUB DUP2 PUSH1 0x0 DUP8 DUP1 EXTCODESIZE ISZERO DUP1 ISZERO PUSH2 0x1F6F JUMPI PUSH1 0x0 DUP1 REVERT JUMPDEST POP GAS CALL SWAP3 POP POP POP DUP1 ISZERO PUSH2 0x1F80 JUMPI POP PUSH1 0x1 JUMPDEST POP PUSH1 0x7 SLOAD PUSH1 0x1 PUSH1 0xA0 SHL SWAP1 DIV PUSH1 0xFF AND PUSH2 0x206A JUMPI PUSH1 0x1B SLOAD PUSH1 0x8 SLOAD PUSH1 0x40 MLOAD PUSH1 0x1 PUSH3 0x4D3B87 PUSH1 0xE0 SHL SUB NOT DUP2 MSTORE PUSH1 0x4 DUP2 ADD DUP4 SWAP1 MSTORE PUSH1 0x1 PUSH1 0x1 PUSH1 0xA0 SHL SUB SWAP1 SWAP2 AND SWAP1 PUSH4 0xFFB2C479 SWAP1 PUSH1 0x24 ADD PUSH1 0x60 PUSH1 0x40 MLOAD DUP1 DUP4 SUB DUP2 PUSH1 0x0 DUP8 DUP1 EXTCODESIZE ISZERO DUP1 ISZERO PUSH2 0x1FDE JUMPI PUSH1 0x0 DUP1 REVERT JUMPDEST POP GAS CALL SWAP3 POP POP POP DUP1 ISZERO PUSH2 0x200E JUMPI POP PUSH1 0x40 DUP1 MLOAD PUSH1 0x1F RETURNDATASIZE SWAP1 DUP2 ADD PUSH1 0x1F NOT AND DUP3 ADD SWAP1 SWAP3 MSTORE PUSH2 0x200B SWAP2 DUP2 ADD SWAP1 PUSH2 0x3807 JUMP JUMPDEST PUSH1 0x1 JUMPDEST PUSH2 0x2017 JUMPI PUSH2 0x2068 JUMP JUMPDEST PUSH1 0x40 DUP1 MLOAD DUP5 DUP2 MSTORE PUSH1 0x20 DUP2 ADD DUP5 SWAP1 MSTORE SWAP1 DUP2 ADD DUP3 SWAP1 MSTORE PUSH1 0x60 DUP2 ADD DUP6 SWAP1 MSTORE ORIGIN SWAP1 PUSH1 0x1 SWAP1 PUSH32 0xC864333D6121033635AB41B29AE52F10A22CF4438C3E4F1C4C68518FEB2F8A98 SWAP1 PUSH1 0x80 ADD PUSH1 0x40 MLOAD DUP1 SWAP2 SUB SWAP1 LOG3 POP POP POP JUMPDEST POP JUMPDEST POP POP POP JUMPDEST POP POP POP JUMP JUMPDEST PUSH1 0x0 DUP2 DUP5 DUP5 GT ISZERO PUSH2 0x2097 JUMPI PUSH1 0x40 MLOAD PUSH3 0x461BCD PUSH1 0xE5 SHL DUP2 MSTORE PUSH1 0x4 ADD PUSH2 0xA58 SWAP2 SWAP1 PUSH2 0x38D0 JUMP JUMPDEST POP PUSH1 0x0 PUSH2 0x20A4 DUP5 DUP7 PUSH2 0x3A77 JUMP JUMPDEST SWAP6 SWAP5 POP POP POP POP POP JUMP JUMPDEST PUSH1 0x1 PUSH1 0x1 PUSH1 0xA0 SHL SUB DUP3 AND PUSH1 0x0 SWAP1 DUP2 MSTORE PUSH1 0x1D PUSH1 0x20 MSTORE PUSH1 0x40 SWAP1 KECCAK256 SLOAD PUSH1 0xFF AND ISZERO ISZERO DUP2 ISZERO ISZERO EQ ISZERO PUSH2 0x2142 JUMPI PUSH1 0x40 MLOAD PUSH3 0x461BCD PUSH1 0xE5 SHL DUP2 MSTORE PUSH1 0x20 PUSH1 0x4 DUP3 ADD MSTORE PUSH1 0x38 PUSH1 0x24 DUP3 ADD MSTORE PUSH32 0x4175746F6D61746564206D61726B6574206D616B657220706169722069732061 PUSH1 0x44 DUP3 ADD MSTORE PUSH32 0x6C72656164792073657420746F20746861742076616C75650000000000000000 PUSH1 0x64 DUP3 ADD MSTORE PUSH1 0x84 ADD PUSH2 0xA58 JUMP JUMPDEST PUSH1 0x1 PUSH1 0x1 PUSH1 0xA0 SHL SUB DUP3 AND PUSH1 0x0 SWAP1 DUP2 MSTORE PUSH1 0x1D PUSH1 0x20 MSTORE PUSH1 0x40 SWAP1 KECCAK256 DUP1 SLOAD PUSH1 0xFF NOT AND DUP3 ISZERO DUP1 ISZERO SWAP2 SWAP1 SWAP2 OR SWAP1 SWAP2 SSTORE PUSH2 0x21CF JUMPI PUSH1 0x8 SLOAD PUSH1 0x40 MLOAD PUSH4 0x31E79DB PUSH1 0xE4 SHL DUP2 MSTORE PUSH1 0x1 PUSH1 0x1 PUSH1 0xA0 SHL SUB DUP5 DUP2 AND PUSH1 0x4 DUP4 ADD MSTORE SWAP1 SWAP2 AND SWAP1 PUSH4 0x31E79DB0 SWAP1 PUSH1 0x24 ADD PUSH1 0x0 PUSH1 0x40 MLOAD DUP1 DUP4 SUB DUP2 PUSH1 0x0 DUP8 DUP1 EXTCODESIZE ISZERO DUP1 ISZERO PUSH2 0x21B6 JUMPI PUSH1 0x0 DUP1 REVERT JUMPDEST POP GAS CALL ISZERO DUP1 ISZERO PUSH2 0x21CA JUMPI RETURNDATASIZE PUSH1 0x0 DUP1 RETURNDATACOPY RETURNDATASIZE PUSH1 0x0 REVERT JUMPDEST POP POP POP POP JUMPDEST PUSH1 0x40 MLOAD DUP2 ISZERO ISZERO SWAP1 PUSH1 0x1 PUSH1 0x1 PUSH1 0xA0 SHL SUB DUP5 AND SWAP1 PUSH32 0xFFA9187BF1F18BF477BD0EA1BCBB64E93B6A98132473929EDFCE215CD9B16FAB SWAP1 PUSH1 0x0 SWAP1 LOG3 POP POP JUMP JUMPDEST PUSH1 0x5 SLOAD PUSH1 0x1 PUSH1 0x1 PUSH1 0xA0 SHL SUB AND CALLER EQ PUSH2 0x2235 JUMPI PUSH1 0x40 MLOAD PUSH3 0x461BCD PUSH1 0xE5 SHL DUP2 MSTORE PUSH1 0x4 ADD PUSH2 0xA58 SWAP1 PUSH2 0x3946 JUMP JUMPDEST PUSH1 0x1 PUSH1 0x1 PUSH1 0xA0 SHL SUB DUP2 AND PUSH2 0x229A JUMPI PUSH1 0x40 MLOAD PUSH3 0x461BCD PUSH1 0xE5 SHL DUP2 MSTORE PUSH1 0x20 PUSH1 0x4 DUP3 ADD MSTORE PUSH1 0x26 PUSH1 0x24 DUP3 ADD MSTORE PUSH32 0x4F776E61626C653A206E6577206F776E657220697320746865207A65726F2061 PUSH1 0x44 DUP3 ADD MSTORE PUSH6 0x646472657373 PUSH1 0xD0 SHL PUSH1 0x64 DUP3 ADD MSTORE PUSH1 0x84 ADD PUSH2 0xA58 JUMP JUMPDEST PUSH1 0x5 SLOAD PUSH1 0x40 MLOAD PUSH1 0x1 PUSH1 0x1 PUSH1 0xA0 SHL SUB DUP1 DUP5 AND SWAP3 AND SWAP1 PUSH32 0x8BE0079C531659141344CD1FD0A4F28419497F9722A3DAAFE3B4186F6B6457E0 SWAP1 PUSH1 0x0 SWAP1 LOG3 PUSH1 0x5 DUP1 SLOAD PUSH1 0x1 PUSH1 0x1 PUSH1 0xA0 SHL SUB NOT AND PUSH1 0x1 PUSH1 0x1 PUSH1 0xA0 SHL SUB SWAP3 SWAP1 SWAP3 AND SWAP2 SWAP1 SWAP2 OR SWAP1 SSTORE JUMP JUMPDEST PUSH1 0x1 PUSH1 0x1 PUSH1 0xA0 SHL SUB DUP4 AND PUSH2 0x231C JUMPI PUSH1 0x40 MLOAD PUSH3 0x461BCD PUSH1 0xE5 SHL DUP2 MSTORE PUSH1 0x4 ADD PUSH2 0xA58 SWAP1 PUSH2 0x397B JUMP JUMPDEST PUSH1 0x1 PUSH1 0x1 PUSH1 0xA0 SHL SUB DUP3 AND PUSH2 0x2342 JUMPI PUSH1 0x40 MLOAD PUSH3 0x461BCD PUSH1 0xE5 SHL DUP2 MSTORE PUSH1 0x4 ADD PUSH2 0xA58 SWAP1 PUSH2 0x3903 JUMP JUMPDEST PUSH2 0x237F DUP2 PUSH1 0x40 MLOAD DUP1 PUSH1 0x60 ADD PUSH1 0x40 MSTORE DUP1 PUSH1 0x26 DUP2 MSTORE PUSH1 0x20 ADD PUSH2 0x3B60 PUSH1 0x26 SWAP2 CODECOPY PUSH1 0x1 PUSH1 0x1 PUSH1 0xA0 SHL SUB DUP7 AND PUSH1 0x0 SWAP1 DUP2 MSTORE PUSH1 0x20 DUP2 SWAP1 MSTORE PUSH1 0x40 SWAP1 KECCAK256 SLOAD SWAP2 SWAP1 PUSH2 0x2073 JUMP JUMPDEST PUSH1 0x1 PUSH1 0x1 PUSH1 0xA0 SHL SUB DUP1 DUP6 AND PUSH1 0x0 SWAP1 DUP2 MSTORE PUSH1 0x20 DUP2 SWAP1 MSTORE PUSH1 0x40 DUP1 DUP3 KECCAK256 SWAP4 SWAP1 SWAP4 SSTORE SWAP1 DUP5 AND DUP2 MSTORE KECCAK256 SLOAD PUSH2 0x23AE SWAP1 DUP3 PUSH2 0x1720 JUMP JUMPDEST PUSH1 0x1 PUSH1 0x1 PUSH1 0xA0 SHL SUB DUP4 DUP2 AND PUSH1 0x0 DUP2 DUP2 MSTORE PUSH1 0x20 DUP2 DUP2 MSTORE PUSH1 0x40 SWAP2 DUP3 SWAP1 KECCAK256 SWAP5 SWAP1 SWAP5 SSTORE MLOAD DUP5 DUP2 MSTORE SWAP1 SWAP3 SWAP2 DUP7 AND SWAP2 PUSH32 0xDDF252AD1BE2C89B69C2B068FC378DAA952BA7F163C4A11628F55A4DF523B3EF SWAP2 ADD PUSH2 0x189E JUMP JUMPDEST PUSH1 0x0 PUSH2 0x177F DUP4 DUP4 PUSH1 0x40 MLOAD DUP1 PUSH1 0x40 ADD PUSH1 0x40 MSTORE DUP1 PUSH1 0x1E DUP2 MSTORE PUSH1 0x20 ADD PUSH32 0x536166654D6174683A207375627472616374696F6E206F766572666C6F770000 DUP2 MSTORE POP PUSH2 0x2073 JUMP JUMPDEST PUSH1 0x0 DUP3 PUSH2 0x2450 JUMPI POP PUSH1 0x0 PUSH2 0xA28 JUMP JUMPDEST PUSH1 0x0 PUSH2 0x245C DUP4 DUP6 PUSH2 0x3A58 JUMP JUMPDEST SWAP1 POP DUP3 PUSH2 0x2469 DUP6 DUP4 PUSH2 0x3A38 JUMP JUMPDEST EQ PUSH2 0x177F JUMPI PUSH1 0x40 MLOAD PUSH3 0x461BCD PUSH1 0xE5 SHL DUP2 MSTORE PUSH1 0x20 PUSH1 0x4 DUP3 ADD MSTORE PUSH1 0x21 PUSH1 0x24 DUP3 ADD MSTORE PUSH32 0x536166654D6174683A206D756C7469706C69636174696F6E206F766572666C6F PUSH1 0x44 DUP3 ADD MSTORE PUSH1 0x77 PUSH1 0xF8 SHL PUSH1 0x64 DUP3 ADD MSTORE PUSH1 0x84 ADD PUSH2 0xA58 JUMP JUMPDEST PUSH1 0x0 PUSH2 0x177F DUP4 DUP4 PUSH1 0x40 MLOAD DUP1 PUSH1 0x40 ADD PUSH1 0x40 MSTORE DUP1 PUSH1 0x1A DUP2 MSTORE PUSH1 0x20 ADD PUSH32 0x536166654D6174683A206469766973696F6E206279207A65726F000000000000 DUP2 MSTORE POP PUSH2 0x2FFD JUMP JUMPDEST DUP1 PUSH2 0x250C JUMPI PUSH2 0xDE1 JUMP JUMPDEST PUSH1 0x18 SLOAD PUSH1 0x40 MLOAD PUSH4 0x70A08231 PUSH1 0xE0 SHL DUP2 MSTORE ADDRESS PUSH1 0x4 DUP3 ADD MSTORE PUSH1 0x0 SWAP2 PUSH1 0x1 PUSH1 0x1 PUSH1 0xA0 SHL SUB AND SWAP1 PUSH4 0x70A08231 SWAP1 PUSH1 0x24 ADD PUSH1 0x20 PUSH1 0x40 MLOAD DUP1 DUP4 SUB DUP2 DUP7 DUP1 EXTCODESIZE ISZERO DUP1 ISZERO PUSH2 0x2550 JUMPI PUSH1 0x0 DUP1 REVERT JUMPDEST POP GAS STATICCALL ISZERO DUP1 ISZERO PUSH2 0x2564 JUMPI RETURNDATASIZE PUSH1 0x0 DUP1 RETURNDATACOPY RETURNDATASIZE PUSH1 0x0 REVERT JUMPDEST POP POP POP POP PUSH1 0x40 MLOAD RETURNDATASIZE PUSH1 0x1F NOT PUSH1 0x1F DUP3 ADD AND DUP3 ADD DUP1 PUSH1 0x40 MSTORE POP DUP2 ADD SWAP1 PUSH2 0x2588 SWAP2 SWAP1 PUSH2 0x37EF JUMP JUMPDEST SWAP1 POP PUSH2 0x2593 DUP3 PUSH2 0x302B JUMP JUMPDEST PUSH1 0x18 SLOAD PUSH1 0x40 MLOAD PUSH4 0x70A08231 PUSH1 0xE0 SHL DUP2 MSTORE ADDRESS PUSH1 0x4 DUP3 ADD MSTORE PUSH1 0x0 SWAP2 PUSH2 0x261C SWAP2 DUP5 SWAP2 PUSH1 0x1 PUSH1 0x1 PUSH1 0xA0 SHL SUB AND SWAP1 PUSH4 0x70A08231 SWAP1 PUSH1 0x24 ADD JUMPDEST PUSH1 0x20 PUSH1 0x40 MLOAD DUP1 DUP4 SUB DUP2 DUP7 DUP1 EXTCODESIZE ISZERO DUP1 ISZERO PUSH2 0x25DE JUMPI PUSH1 0x0 DUP1 REVERT JUMPDEST POP GAS STATICCALL ISZERO DUP1 ISZERO PUSH2 0x25F2 JUMPI RETURNDATASIZE PUSH1 0x0 DUP1 RETURNDATACOPY RETURNDATASIZE PUSH1 0x0 REVERT JUMPDEST POP POP POP POP PUSH1 0x40 MLOAD RETURNDATASIZE PUSH1 0x1F NOT PUSH1 0x1F DUP3 ADD AND DUP3 ADD DUP1 PUSH1 0x40 MSTORE POP DUP2 ADD SWAP1 PUSH2 0x2616 SWAP2 SWAP1 PUSH2 0x37EF JUMP JUMPDEST SWAP1 PUSH2 0x23FF JUMP JUMPDEST PUSH1 0x18 SLOAD PUSH1 0x19 SLOAD PUSH1 0x40 MLOAD SWAP3 SWAP4 POP PUSH1 0x0 SWAP3 PUSH1 0x1 PUSH1 0x1 PUSH1 0xA0 SHL SUB SWAP3 DUP4 AND SWAP3 PUSH2 0x2647 SWAP3 AND SWAP1 DUP6 SWAP1 PUSH1 0x24 ADD PUSH2 0x3893 JUMP JUMPDEST PUSH1 0x40 DUP1 MLOAD PUSH1 0x1F NOT DUP2 DUP5 SUB ADD DUP2 MSTORE SWAP2 DUP2 MSTORE PUSH1 0x20 DUP3 ADD DUP1 MLOAD PUSH1 0x1 PUSH1 0x1 PUSH1 0xE0 SHL SUB AND PUSH4 0xA9059CBB PUSH1 0xE0 SHL OR SWAP1 MSTORE MLOAD PUSH2 0x267C SWAP2 SWAP1 PUSH2 0x3877 JUMP JUMPDEST PUSH1 0x0 PUSH1 0x40 MLOAD DUP1 DUP4 SUB DUP2 PUSH1 0x0 DUP7 GAS CALL SWAP2 POP POP RETURNDATASIZE DUP1 PUSH1 0x0 DUP2 EQ PUSH2 0x26B9 JUMPI PUSH1 0x40 MLOAD SWAP2 POP PUSH1 0x1F NOT PUSH1 0x3F RETURNDATASIZE ADD AND DUP3 ADD PUSH1 0x40 MSTORE RETURNDATASIZE DUP3 MSTORE RETURNDATASIZE PUSH1 0x0 PUSH1 0x20 DUP5 ADD RETURNDATACOPY PUSH2 0x26BE JUMP JUMPDEST PUSH1 0x60 SWAP2 POP JUMPDEST POP POP SWAP1 POP DUP1 PUSH2 0x26DF JUMPI PUSH1 0x40 MLOAD PUSH3 0x461BCD PUSH1 0xE5 SHL DUP2 MSTORE PUSH1 0x4 ADD PUSH2 0xA58 SWAP1 PUSH2 0x39C0 JUMP JUMPDEST POP POP POP POP JUMP JUMPDEST PUSH1 0x0 PUSH2 0x26F2 DUP3 PUSH1 0x2 PUSH2 0x24C0 JUMP JUMPDEST SWAP1 POP PUSH1 0x0 PUSH2 0x2700 DUP4 DUP4 PUSH2 0x23FF JUMP JUMPDEST SWAP1 POP SELFBALANCE PUSH2 0x270C DUP4 PUSH2 0x31F3 JUMP JUMPDEST PUSH1 0x0 PUSH2 0x2718 SELFBALANCE DUP4 PUSH2 0x23FF JUMP JUMPDEST SWAP1 POP PUSH2 0x2724 DUP4 DUP3 PUSH2 0x334C JUMP JUMPDEST PUSH1 0x40 DUP1 MLOAD DUP6 DUP2 MSTORE PUSH1 0x20 DUP2 ADD DUP4 SWAP1 MSTORE SWAP1 DUP2 ADD DUP5 SWAP1 MSTORE PUSH32 0x17BBFB9A6069321B6DED73BD96327C9E6B7212A5CD51FF219CD61370ACAFB561 SWAP1 PUSH1 0x60 ADD PUSH1 0x40 MLOAD DUP1 SWAP2 SUB SWAP1 LOG1 POP POP POP POP POP JUMP JUMPDEST PUSH2 0x2775 DUP2 PUSH2 0x3405 JUMP JUMPDEST PUSH1 0xA SLOAD PUSH1 0x40 MLOAD PUSH4 0x70A08231 PUSH1 0xE0 SHL DUP2 MSTORE ADDRESS PUSH1 0x4 DUP3 ADD MSTORE PUSH1 0x0 SWAP2 PUSH1 0x1 PUSH1 0x1 PUSH1 0xA0 SHL SUB AND SWAP1 PUSH4 0x70A08231 SWAP1 PUSH1 0x24 ADD PUSH1 0x20 PUSH1 0x40 MLOAD DUP1 DUP4 SUB DUP2 DUP7 DUP1 EXTCODESIZE ISZERO DUP1 ISZERO PUSH2 0x27B9 JUMPI PUSH1 0x0 DUP1 REVERT JUMPDEST POP GAS STATICCALL ISZERO DUP1 ISZERO PUSH2 0x27CD JUMPI RETURNDATASIZE PUSH1 0x0 DUP1 RETURNDATACOPY RETURNDATASIZE PUSH1 0x0 REVERT JUMPDEST POP POP POP POP PUSH1 0x40 MLOAD RETURNDATASIZE PUSH1 0x1F NOT PUSH1 0x1F DUP3 ADD AND DUP3 ADD DUP1 PUSH1 0x40 MSTORE POP DUP2 ADD SWAP1 PUSH2 0x27F1 SWAP2 SWAP1 PUSH2 0x37EF JUMP JUMPDEST PUSH1 0xA SLOAD PUSH1 0x8 SLOAD PUSH1 0x40 MLOAD PUSH4 0xA9059CBB PUSH1 0xE0 SHL DUP2 MSTORE SWAP3 SWAP4 POP PUSH1 0x0 SWAP3 PUSH1 0x1 PUSH1 0x1 PUSH1 0xA0 SHL SUB SWAP3 DUP4 AND SWAP3 PUSH4 0xA9059CBB SWAP3 PUSH2 0x282D SWAP3 SWAP2 AND SWAP1 DUP7 SWAP1 PUSH1 0x4 ADD PUSH2 0x3893 JUMP JUMPDEST PUSH1 0x20 PUSH1 0x40 MLOAD DUP1 DUP4 SUB DUP2 PUSH1 0x0 DUP8 DUP1 EXTCODESIZE ISZERO DUP1 ISZERO PUSH2 0x2847 JUMPI PUSH1 0x0 DUP1 REVERT JUMPDEST POP GAS CALL ISZERO DUP1 ISZERO PUSH2 0x285B JUMPI RETURNDATASIZE PUSH1 0x0 DUP1 RETURNDATACOPY RETURNDATASIZE PUSH1 0x0 REVERT JUMPDEST POP POP POP POP PUSH1 0x40 MLOAD RETURNDATASIZE PUSH1 0x1F NOT PUSH1 0x1F DUP3 ADD AND DUP3 ADD DUP1 PUSH1 0x40 MSTORE POP DUP2 ADD SWAP1 PUSH2 0x287F SWAP2 SWAP1 PUSH2 0x37BB JUMP JUMPDEST SWAP1 POP DUP1 ISZERO PUSH2 0x206E JUMPI PUSH1 0x8 SLOAD PUSH1 0x40 MLOAD PUSH4 0xEC4BE22D PUSH1 0xE0 SHL DUP2 MSTORE PUSH1 0x4 DUP2 ADD DUP5 SWAP1 MSTORE PUSH1 0x1 PUSH1 0x1 PUSH1 0xA0 SHL SUB SWAP1 SWAP2 AND SWAP1 PUSH4 0xEC4BE22D SWAP1 PUSH1 0x24 ADD PUSH1 0x0 PUSH1 0x40 MLOAD DUP1 DUP4 SUB DUP2 PUSH1 0x0 DUP8 DUP1 EXTCODESIZE ISZERO DUP1 ISZERO PUSH2 0x28CD JUMPI PUSH1 0x0 DUP1 REVERT JUMPDEST POP GAS CALL ISZERO DUP1 ISZERO PUSH2 0x28E1 JUMPI RETURNDATASIZE PUSH1 0x0 DUP1 RETURNDATACOPY RETURNDATASIZE PUSH1 0x0 REVERT JUMPDEST POP POP PUSH1 0x40 DUP1 MLOAD DUP7 DUP2 MSTORE PUSH1 0x20 DUP2 ADD DUP7 SWAP1 MSTORE PUSH32 0x80195CC573B02CC48460CBCA6E6E4CC85DDB91959D946E1C3025EA3D87942DC3 SWAP4 POP ADD SWAP1 POP PUSH1 0x40 MLOAD DUP1 SWAP2 SUB SWAP1 LOG1 POP POP POP JUMP JUMPDEST DUP1 PUSH2 0x292E ADDRESS PUSH2 0xFAB JUMP JUMPDEST LT DUP1 PUSH2 0x2947 JUMPI POP PUSH1 0xB SLOAD PUSH2 0x2944 SWAP1 PUSH2 0x2710 PUSH2 0x3A58 JUMP JUMPDEST DUP2 LT JUMPDEST ISZERO PUSH2 0x2951 JUMPI PUSH2 0xBAB JUMP JUMPDEST PUSH1 0x1 PUSH1 0x1 PUSH1 0xA0 SHL SUB DUP1 DUP4 AND PUSH1 0x0 SWAP1 DUP2 MSTORE PUSH1 0x1E PUSH1 0x20 SWAP1 DUP2 MSTORE PUSH1 0x40 DUP1 DUP4 KECCAK256 SLOAD PUSH1 0x1F SWAP1 SWAP3 MSTORE SWAP1 SWAP2 KECCAK256 SLOAD SWAP1 DUP3 AND SWAP2 AND DUP2 PUSH2 0x2988 JUMPI POP POP PUSH2 0xBAB JUMP JUMPDEST PUSH1 0xB SLOAD PUSH2 0x2998 SWAP1 PUSH3 0x989680 PUSH2 0x3A58 JUMP JUMPDEST PUSH2 0x29A1 DUP4 PUSH2 0xFAB JUMP JUMPDEST LT ISZERO PUSH2 0x29AE JUMPI POP POP PUSH2 0xBAB JUMP JUMPDEST PUSH1 0x1 PUSH1 0x1 PUSH1 0x1 PUSH1 0xA0 SHL SUB DUP3 AND PUSH2 0x29C2 JUMPI POP PUSH1 0x0 JUMPDEST PUSH1 0xB SLOAD PUSH2 0x29D2 SWAP1 PUSH3 0x989680 PUSH2 0x3A58 JUMP JUMPDEST PUSH2 0x29DB DUP4 PUSH2 0xFAB JUMP JUMPDEST LT ISZERO PUSH2 0x29E5 JUMPI POP PUSH1 0x0 JUMPDEST PUSH1 0x5 SLOAD PUSH1 0x1 PUSH1 0x1 PUSH1 0xA0 SHL SUB DUP5 DUP2 AND SWAP2 AND EQ ISZERO PUSH2 0x2A0A JUMPI PUSH1 0x1A SLOAD PUSH1 0x1 PUSH1 0x1 PUSH1 0xA0 SHL SUB AND SWAP3 POP JUMPDEST PUSH1 0x5 SLOAD PUSH1 0x1 PUSH1 0x1 PUSH1 0xA0 SHL SUB DUP4 DUP2 AND SWAP2 AND EQ ISZERO PUSH2 0x2A2F JUMPI PUSH1 0x1A SLOAD PUSH1 0x1 PUSH1 0x1 PUSH1 0xA0 SHL SUB AND SWAP2 POP JUMPDEST PUSH1 0x18 SLOAD PUSH1 0x40 MLOAD PUSH4 0x70A08231 PUSH1 0xE0 SHL DUP2 MSTORE ADDRESS PUSH1 0x4 DUP3 ADD MSTORE PUSH1 0x0 SWAP2 PUSH1 0x1 PUSH1 0x1 PUSH1 0xA0 SHL SUB AND SWAP1 PUSH4 0x70A08231 SWAP1 PUSH1 0x24 ADD PUSH1 0x20 PUSH1 0x40 MLOAD DUP1 DUP4 SUB DUP2 DUP7 DUP1 EXTCODESIZE ISZERO DUP1 ISZERO PUSH2 0x2A73 JUMPI PUSH1 0x0 DUP1 REVERT JUMPDEST POP GAS STATICCALL ISZERO DUP1 ISZERO PUSH2 0x2A87 JUMPI RETURNDATASIZE PUSH1 0x0 DUP1 RETURNDATACOPY RETURNDATASIZE PUSH1 0x0 REVERT JUMPDEST POP POP POP POP PUSH1 0x40 MLOAD RETURNDATASIZE PUSH1 0x1F NOT PUSH1 0x1F DUP3 ADD AND DUP3 ADD DUP1 PUSH1 0x40 MSTORE POP DUP2 ADD SWAP1 PUSH2 0x2AAB SWAP2 SWAP1 PUSH2 0x37EF JUMP JUMPDEST SWAP1 POP DUP2 PUSH2 0x2C0B JUMPI PUSH1 0x5 SLOAD PUSH1 0x1 PUSH1 0x1 PUSH1 0xA0 SHL SUB DUP8 DUP2 AND PUSH1 0x0 SWAP1 DUP2 MSTORE PUSH1 0x1E PUSH1 0x20 MSTORE PUSH1 0x40 SWAP1 KECCAK256 SLOAD DUP2 AND SWAP2 AND EQ ISZERO PUSH2 0x2AE2 JUMPI POP POP POP POP PUSH2 0xBAB JUMP JUMPDEST PUSH2 0x2AF2 PUSH1 0x3 PUSH2 0x1C77 DUP8 PUSH1 0x2 PUSH2 0x2441 JUMP JUMPDEST SWAP5 POP PUSH2 0x2AFD DUP6 PUSH2 0x302B JUMP JUMPDEST PUSH1 0x18 SLOAD PUSH1 0x40 MLOAD PUSH4 0x70A08231 PUSH1 0xE0 SHL DUP2 MSTORE ADDRESS PUSH1 0x4 DUP3 ADD MSTORE PUSH1 0x0 SWAP2 PUSH2 0x2B34 SWAP2 DUP5 SWAP2 PUSH1 0x1 PUSH1 0x1 PUSH1 0xA0 SHL SUB AND SWAP1 PUSH4 0x70A08231 SWAP1 PUSH1 0x24 ADD PUSH2 0x25C6 JUMP JUMPDEST SWAP1 POP PUSH1 0x64 DUP2 LT ISZERO PUSH2 0x2B49 JUMPI POP POP POP POP POP PUSH2 0xBAB JUMP JUMPDEST PUSH1 0x18 SLOAD PUSH1 0x40 MLOAD PUSH1 0x0 SWAP2 PUSH1 0x1 PUSH1 0x1 PUSH1 0xA0 SHL SUB AND SWAP1 PUSH2 0x2B6C SWAP1 DUP9 SWAP1 DUP6 SWAP1 PUSH1 0x24 ADD PUSH2 0x3893 JUMP JUMPDEST PUSH1 0x40 DUP1 MLOAD PUSH1 0x1F NOT DUP2 DUP5 SUB ADD DUP2 MSTORE SWAP2 DUP2 MSTORE PUSH1 0x20 DUP3 ADD DUP1 MLOAD PUSH1 0x1 PUSH1 0x1 PUSH1 0xE0 SHL SUB AND PUSH4 0xA9059CBB PUSH1 0xE0 SHL OR SWAP1 MSTORE MLOAD PUSH2 0x2BA1 SWAP2 SWAP1 PUSH2 0x3877 JUMP JUMPDEST PUSH1 0x0 PUSH1 0x40 MLOAD DUP1 DUP4 SUB DUP2 PUSH1 0x0 DUP7 GAS CALL SWAP2 POP POP RETURNDATASIZE DUP1 PUSH1 0x0 DUP2 EQ PUSH2 0x2BDE JUMPI PUSH1 0x40 MLOAD SWAP2 POP PUSH1 0x1F NOT PUSH1 0x3F RETURNDATASIZE ADD AND DUP3 ADD PUSH1 0x40 MSTORE RETURNDATASIZE DUP3 MSTORE RETURNDATASIZE PUSH1 0x0 PUSH1 0x20 DUP5 ADD RETURNDATACOPY PUSH2 0x2BE3 JUMP JUMPDEST PUSH1 0x60 SWAP2 POP JUMPDEST POP POP SWAP1 POP DUP1 PUSH2 0x2C04 JUMPI PUSH1 0x40 MLOAD PUSH3 0x461BCD PUSH1 0xE5 SHL DUP2 MSTORE PUSH1 0x4 ADD PUSH2 0xA58 SWAP1 PUSH2 0x39C0 JUMP JUMPDEST POP POP PUSH2 0x206A JUMP JUMPDEST PUSH2 0x2C14 DUP6 PUSH2 0x302B JUMP JUMPDEST PUSH1 0x18 SLOAD PUSH1 0x40 MLOAD PUSH4 0x70A08231 PUSH1 0xE0 SHL DUP2 MSTORE ADDRESS PUSH1 0x4 DUP3 ADD MSTORE PUSH1 0x0 SWAP2 PUSH2 0x2C4B SWAP2 DUP5 SWAP2 PUSH1 0x1 PUSH1 0x1 PUSH1 0xA0 SHL SUB AND SWAP1 PUSH4 0x70A08231 SWAP1 PUSH1 0x24 ADD PUSH2 0x25C6 JUMP JUMPDEST SWAP1 POP PUSH1 0x64 DUP2 LT ISZERO PUSH2 0x2C60 JUMPI POP POP POP POP POP PUSH2 0xBAB JUMP JUMPDEST PUSH1 0x0 PUSH2 0x2C72 PUSH1 0x3 PUSH2 0x1C77 DUP5 PUSH1 0x2 PUSH2 0x2441 JUMP JUMPDEST SWAP1 POP PUSH1 0x0 PUSH2 0x2C80 DUP4 DUP4 PUSH2 0x23FF JUMP JUMPDEST PUSH1 0x18 SLOAD PUSH1 0x40 MLOAD SWAP2 SWAP3 POP PUSH1 0x0 SWAP2 PUSH1 0x1 PUSH1 0x1 PUSH1 0xA0 SHL SUB SWAP1 SWAP2 AND SWAP1 PUSH2 0x2CA8 SWAP1 DUP11 SWAP1 DUP7 SWAP1 PUSH1 0x24 ADD PUSH2 0x3893 JUMP JUMPDEST PUSH1 0x40 DUP1 MLOAD PUSH1 0x1F NOT DUP2 DUP5 SUB ADD DUP2 MSTORE SWAP2 DUP2 MSTORE PUSH1 0x20 DUP3 ADD DUP1 MLOAD PUSH1 0x1 PUSH1 0x1 PUSH1 0xE0 SHL SUB AND PUSH4 0xA9059CBB PUSH1 0xE0 SHL OR SWAP1 MSTORE MLOAD PUSH2 0x2CDD SWAP2 SWAP1 PUSH2 0x3877 JUMP JUMPDEST PUSH1 0x0 PUSH1 0x40 MLOAD DUP1 DUP4 SUB DUP2 PUSH1 0x0 DUP7 GAS CALL SWAP2 POP POP RETURNDATASIZE DUP1 PUSH1 0x0 DUP2 EQ PUSH2 0x2D1A JUMPI PUSH1 0x40 MLOAD SWAP2 POP PUSH1 0x1F NOT PUSH1 0x3F RETURNDATASIZE ADD AND DUP3 ADD PUSH1 0x40 MSTORE RETURNDATASIZE DUP3 MSTORE RETURNDATASIZE PUSH1 0x0 PUSH1 0x20 DUP5 ADD RETURNDATACOPY PUSH2 0x2D1F JUMP JUMPDEST PUSH1 0x60 SWAP2 POP JUMPDEST POP POP SWAP1 POP DUP1 PUSH2 0x2D40 JUMPI PUSH1 0x40 MLOAD PUSH3 0x461BCD PUSH1 0xE5 SHL DUP2 MSTORE PUSH1 0x4 ADD PUSH2 0xA58 SWAP1 PUSH2 0x39C0 JUMP JUMPDEST PUSH1 0x18 SLOAD PUSH1 0x40 MLOAD PUSH1 0x0 SWAP2 PUSH1 0x1 PUSH1 0x1 PUSH1 0xA0 SHL SUB AND SWAP1 PUSH2 0x2D63 SWAP1 DUP11 SWAP1 DUP7 SWAP1 PUSH1 0x24 ADD PUSH2 0x3893 JUMP JUMPDEST PUSH1 0x40 DUP1 MLOAD PUSH1 0x1F NOT DUP2 DUP5 SUB ADD DUP2 MSTORE SWAP2 DUP2 MSTORE PUSH1 0x20 DUP3 ADD DUP1 MLOAD PUSH1 0x1 PUSH1 0x1 PUSH1 0xE0 SHL SUB AND PUSH4 0xA9059CBB PUSH1 0xE0 SHL OR SWAP1 MSTORE MLOAD PUSH2 0x2D98 SWAP2 SWAP1 PUSH2 0x3877 JUMP JUMPDEST PUSH1 0x0 PUSH1 0x40 MLOAD DUP1 DUP4 SUB DUP2 PUSH1 0x0 DUP7 GAS CALL SWAP2 POP POP RETURNDATASIZE DUP1 PUSH1 0x0 DUP2 EQ PUSH2 0x2DD5 JUMPI PUSH1 0x40 MLOAD SWAP2 POP PUSH1 0x1F NOT PUSH1 0x3F RETURNDATASIZE ADD AND DUP3 ADD PUSH1 0x40 MSTORE RETURNDATASIZE DUP3 MSTORE RETURNDATASIZE PUSH1 0x0 PUSH1 0x20 DUP5 ADD RETURNDATACOPY PUSH2 0x2DDA JUMP JUMPDEST PUSH1 0x60 SWAP2 POP JUMPDEST POP POP SWAP1 POP DUP1 PUSH2 0x2DFB JUMPI PUSH1 0x40 MLOAD PUSH3 0x461BCD PUSH1 0xE5 SHL DUP2 MSTORE PUSH1 0x4 ADD PUSH2 0xA58 SWAP1 PUSH2 0x39C0 JUMP JUMPDEST POP POP POP POP POP POP POP POP POP POP POP JUMP JUMPDEST PUSH1 0xB SLOAD PUSH2 0x2E17 SWAP1 PUSH2 0x2710 PUSH2 0x3A58 JUMP JUMPDEST DUP3 LT ISZERO PUSH2 0x2E23 JUMPI PUSH2 0x206E JUMP JUMPDEST PUSH1 0x1 PUSH1 0x1 PUSH1 0xA0 SHL SUB DUP4 DUP2 AND PUSH1 0x0 SWAP1 DUP2 MSTORE PUSH1 0x1E PUSH1 0x20 MSTORE PUSH1 0x40 SWAP1 KECCAK256 SLOAD AND PUSH2 0x2E47 JUMPI PUSH2 0x206E JUMP JUMPDEST PUSH1 0xB SLOAD PUSH2 0x2E57 SWAP1 PUSH3 0x989680 PUSH2 0x3A58 JUMP JUMPDEST PUSH1 0x1 PUSH1 0x1 PUSH1 0xA0 SHL SUB DUP1 DUP6 AND PUSH1 0x0 SWAP1 DUP2 MSTORE PUSH1 0x1E PUSH1 0x20 MSTORE PUSH1 0x40 SWAP1 KECCAK256 SLOAD PUSH2 0x2E7B SWAP2 AND PUSH2 0xFAB JUMP JUMPDEST LT ISZERO PUSH2 0x2E86 JUMPI PUSH2 0x206E JUMP JUMPDEST PUSH1 0x0 PUSH2 0x2EA1 DUP3 PUSH2 0x1C77 PUSH1 0x13 SLOAD DUP7 PUSH2 0x2441 SWAP1 SWAP2 SWAP1 PUSH4 0xFFFFFFFF AND JUMP JUMPDEST SWAP1 POP PUSH1 0x0 PUSH2 0x2EAF DUP5 DUP4 PUSH2 0x23FF JUMP JUMPDEST SWAP1 POP PUSH2 0x2EC3 PUSH1 0x5 SLOAD PUSH1 0x1 PUSH1 0x1 PUSH1 0xA0 SHL SUB AND SWAP1 JUMP JUMPDEST PUSH1 0x1 PUSH1 0x1 PUSH1 0xA0 SHL SUB DUP7 DUP2 AND PUSH1 0x0 SWAP1 DUP2 MSTORE PUSH1 0x1E PUSH1 0x20 MSTORE PUSH1 0x40 SWAP1 KECCAK256 SLOAD DUP2 AND SWAP2 AND EQ ISZERO PUSH2 0x2F04 JUMPI DUP2 PUSH1 0xD PUSH1 0x0 DUP3 DUP3 SLOAD PUSH2 0x2EF9 SWAP2 SWAP1 PUSH2 0x3A20 JUMP JUMPDEST SWAP1 SWAP2 SSTORE POP PUSH2 0x2F2B SWAP1 POP JUMP JUMPDEST PUSH1 0x1 PUSH1 0x1 PUSH1 0xA0 SHL SUB DUP1 DUP7 AND PUSH1 0x0 SWAP1 DUP2 MSTORE PUSH1 0x1E PUSH1 0x20 MSTORE PUSH1 0x40 SWAP1 KECCAK256 SLOAD PUSH2 0x2F2B SWAP2 ADDRESS SWAP2 AND DUP5 PUSH2 0x22F6 JUMP JUMPDEST PUSH1 0x1 PUSH1 0x1 PUSH1 0xA0 SHL SUB DUP6 DUP2 AND PUSH1 0x0 SWAP1 DUP2 MSTORE PUSH1 0x1F PUSH1 0x20 MSTORE PUSH1 0x40 SWAP1 KECCAK256 SLOAD AND PUSH2 0x2F51 JUMPI POP POP PUSH2 0x206E JUMP JUMPDEST PUSH1 0xB SLOAD PUSH2 0x2F61 SWAP1 PUSH3 0x989680 PUSH2 0x3A58 JUMP JUMPDEST PUSH1 0x1 PUSH1 0x1 PUSH1 0xA0 SHL SUB DUP1 DUP8 AND PUSH1 0x0 SWAP1 DUP2 MSTORE PUSH1 0x1F PUSH1 0x20 MSTORE PUSH1 0x40 SWAP1 KECCAK256 SLOAD PUSH2 0x2F85 SWAP2 AND PUSH2 0xFAB JUMP JUMPDEST LT ISZERO PUSH2 0x2F92 JUMPI POP POP PUSH2 0x206E JUMP JUMPDEST PUSH1 0x5 SLOAD PUSH1 0x1 PUSH1 0x1 PUSH1 0xA0 SHL SUB DUP7 DUP2 AND PUSH1 0x0 SWAP1 DUP2 MSTORE PUSH1 0x1F PUSH1 0x20 MSTORE PUSH1 0x40 SWAP1 KECCAK256 SLOAD DUP2 AND SWAP2 AND EQ ISZERO PUSH2 0x2FD6 JUMPI DUP1 PUSH1 0xD PUSH1 0x0 DUP3 DUP3 SLOAD PUSH2 0x2FCB SWAP2 SWAP1 PUSH2 0x3A20 JUMP JUMPDEST SWAP1 SWAP2 SSTORE POP PUSH2 0xD20 SWAP1 POP JUMP JUMPDEST PUSH1 0x1 PUSH1 0x1 PUSH1 0xA0 SHL SUB DUP1 DUP7 AND PUSH1 0x0 SWAP1 DUP2 MSTORE PUSH1 0x1F PUSH1 0x20 MSTORE PUSH1 0x40 SWAP1 KECCAK256 SLOAD PUSH2 0xD20 SWAP2 ADDRESS SWAP2 AND DUP4 PUSH2 0x22F6 JUMP JUMPDEST PUSH1 0x0 DUP2 DUP4 PUSH2 0x301E JUMPI PUSH1 0x40 MLOAD PUSH3 0x461BCD PUSH1 0xE5 SHL DUP2 MSTORE PUSH1 0x4 ADD PUSH2 0xA58 SWAP2 SWAP1 PUSH2 0x38D0 JUMP JUMPDEST POP PUSH1 0x0 PUSH2 0x20A4 DUP5 DUP7 PUSH2 0x3A38 JUMP JUMPDEST DUP1 PUSH2 0x3035 JUMPI PUSH2 0xDE1 JUMP JUMPDEST PUSH1 0x40 DUP1 MLOAD PUSH1 0x3 DUP1 DUP3 MSTORE PUSH1 0x80 DUP3 ADD SWAP1 SWAP3 MSTORE PUSH1 0x0 SWAP2 PUSH1 0x20 DUP3 ADD PUSH1 0x60 DUP1 CALLDATASIZE DUP4 CALLDATACOPY ADD SWAP1 POP POP SWAP1 POP ADDRESS DUP2 PUSH1 0x0 DUP2 MLOAD DUP2 LT PUSH2 0x307A JUMPI PUSH4 0x4E487B71 PUSH1 0xE0 SHL PUSH1 0x0 MSTORE PUSH1 0x32 PUSH1 0x4 MSTORE PUSH1 0x24 PUSH1 0x0 REVERT JUMPDEST PUSH1 0x1 PUSH1 0x1 PUSH1 0xA0 SHL SUB SWAP3 DUP4 AND PUSH1 0x20 SWAP2 DUP3 MUL SWAP3 SWAP1 SWAP3 ADD DUP2 ADD SWAP2 SWAP1 SWAP2 MSTORE PUSH1 0x6 SLOAD PUSH1 0x40 DUP1 MLOAD PUSH4 0x15AB88C9 PUSH1 0xE3 SHL DUP2 MSTORE SWAP1 MLOAD SWAP2 SWAP1 SWAP4 AND SWAP3 PUSH4 0xAD5C4648 SWAP3 PUSH1 0x4 DUP1 DUP4 ADD SWAP4 SWAP2 SWAP3 DUP3 SWAP1 SUB ADD DUP2 DUP7 DUP1 EXTCODESIZE ISZERO DUP1 ISZERO PUSH2 0x30CE JUMPI PUSH1 0x0 DUP1 REVERT JUMPDEST POP GAS STATICCALL ISZERO DUP1 ISZERO PUSH2 0x30E2 JUMPI RETURNDATASIZE PUSH1 0x0 DUP1 RETURNDATACOPY RETURNDATASIZE PUSH1 0x0 REVERT JUMPDEST POP POP POP POP PUSH1 0x40 MLOAD RETURNDATASIZE PUSH1 0x1F NOT PUSH1 0x1F DUP3 ADD AND DUP3 ADD DUP1 PUSH1 0x40 MSTORE POP DUP2 ADD SWAP1 PUSH2 0x3106 SWAP2 SWAP1 PUSH2 0x358D JUMP JUMPDEST DUP2 PUSH1 0x1 DUP2 MLOAD DUP2 LT PUSH2 0x3127 JUMPI PUSH4 0x4E487B71 PUSH1 0xE0 SHL PUSH1 0x0 MSTORE PUSH1 0x32 PUSH1 0x4 MSTORE PUSH1 0x24 PUSH1 0x0 REVERT JUMPDEST PUSH1 0x1 PUSH1 0x1 PUSH1 0xA0 SHL SUB SWAP3 DUP4 AND PUSH1 0x20 SWAP2 DUP3 MUL SWAP3 SWAP1 SWAP3 ADD ADD MSTORE PUSH1 0x18 SLOAD DUP3 MLOAD SWAP2 AND SWAP1 DUP3 SWAP1 PUSH1 0x2 SWAP1 DUP2 LT PUSH2 0x3166 JUMPI PUSH4 0x4E487B71 PUSH1 0xE0 SHL PUSH1 0x0 MSTORE PUSH1 0x32 PUSH1 0x4 MSTORE PUSH1 0x24 PUSH1 0x0 REVERT JUMPDEST PUSH1 0x1 PUSH1 0x1 PUSH1 0xA0 SHL SUB SWAP3 DUP4 AND PUSH1 0x20 SWAP2 DUP3 MUL SWAP3 SWAP1 SWAP3 ADD ADD MSTORE PUSH1 0x6 SLOAD PUSH2 0x318C SWAP2 ADDRESS SWAP2 AND DUP5 PUSH2 0x1786 JUMP JUMPDEST PUSH1 0x6 SLOAD PUSH1 0x40 MLOAD PUSH4 0x5C11D795 PUSH1 0xE0 SHL DUP2 MSTORE PUSH1 0x1 PUSH1 0x1 PUSH1 0xA0 SHL SUB SWAP1 SWAP2 AND SWAP1 PUSH4 0x5C11D795 SWAP1 PUSH2 0x31C5 SWAP1 DUP6 SWAP1 PUSH1 0x0 SWAP1 DUP7 SWAP1 ADDRESS SWAP1 TIMESTAMP SWAP1 PUSH1 0x4 ADD PUSH2 0x39E4 JUMP JUMPDEST PUSH1 0x0 PUSH1 0x40 MLOAD DUP1 DUP4 SUB DUP2 PUSH1 0x0 DUP8 DUP1 EXTCODESIZE ISZERO DUP1 ISZERO PUSH2 0x31DF JUMPI PUSH1 0x0 DUP1 REVERT JUMPDEST POP GAS CALL ISZERO DUP1 ISZERO PUSH2 0x206A JUMPI RETURNDATASIZE PUSH1 0x0 DUP1 RETURNDATACOPY RETURNDATASIZE PUSH1 0x0 REVERT JUMPDEST DUP1 PUSH2 0x31FD JUMPI PUSH2 0xDE1 JUMP JUMPDEST PUSH1 0x40 DUP1 MLOAD PUSH1 0x2 DUP1 DUP3 MSTORE PUSH1 0x60 DUP3 ADD DUP4 MSTORE PUSH1 0x0 SWAP3 PUSH1 0x20 DUP4 ADD SWAP1 DUP1 CALLDATASIZE DUP4 CALLDATACOPY ADD SWAP1 POP POP SWAP1 POP ADDRESS DUP2 PUSH1 0x0 DUP2 MLOAD DUP2 LT PUSH2 0x3240 JUMPI PUSH4 0x4E487B71 PUSH1 0xE0 SHL PUSH1 0x0 MSTORE PUSH1 0x32 PUSH1 0x4 MSTORE PUSH1 0x24 PUSH1 0x0 REVERT JUMPDEST PUSH1 0x1 PUSH1 0x1 PUSH1 0xA0 SHL SUB SWAP3 DUP4 AND PUSH1 0x20 SWAP2 DUP3 MUL SWAP3 SWAP1 SWAP3 ADD DUP2 ADD SWAP2 SWAP1 SWAP2 MSTORE PUSH1 0x6 SLOAD PUSH1 0x40 DUP1 MLOAD PUSH4 0x15AB88C9 PUSH1 0xE3 SHL DUP2 MSTORE SWAP1 MLOAD SWAP2 SWAP1 SWAP4 AND SWAP3 PUSH4 0xAD5C4648 SWAP3 PUSH1 0x4 DUP1 DUP4 ADD SWAP4 SWAP2 SWAP3 DUP3 SWAP1 SUB ADD DUP2 DUP7 DUP1 EXTCODESIZE ISZERO DUP1 ISZERO PUSH2 0x3294 JUMPI PUSH1 0x0 DUP1 REVERT JUMPDEST POP GAS STATICCALL ISZERO DUP1 ISZERO PUSH2 0x32A8 JUMPI RETURNDATASIZE PUSH1 0x0 DUP1 RETURNDATACOPY RETURNDATASIZE PUSH1 0x0 REVERT JUMPDEST POP POP POP POP PUSH1 0x40 MLOAD RETURNDATASIZE PUSH1 0x1F NOT PUSH1 0x1F DUP3 ADD AND DUP3 ADD DUP1 PUSH1 0x40 MSTORE POP DUP2 ADD SWAP1 PUSH2 0x32CC SWAP2 SWAP1 PUSH2 0x358D JUMP JUMPDEST DUP2 PUSH1 0x1 DUP2 MLOAD DUP2 LT PUSH2 0x32ED JUMPI PUSH4 0x4E487B71 PUSH1 0xE0 SHL PUSH1 0x0 MSTORE PUSH1 0x32 PUSH1 0x4 MSTORE PUSH1 0x24 PUSH1 0x0 REVERT JUMPDEST PUSH1 0x1 PUSH1 0x1 PUSH1 0xA0 SHL SUB SWAP3 DUP4 AND PUSH1 0x20 SWAP2 DUP3 MUL SWAP3 SWAP1 SWAP3 ADD ADD MSTORE PUSH1 0x6 SLOAD PUSH2 0x3313 SWAP2 ADDRESS SWAP2 AND DUP5 PUSH2 0x1786 JUMP JUMPDEST PUSH1 0x6 SLOAD PUSH1 0x40 MLOAD PUSH4 0x791AC947 PUSH1 0xE0 SHL DUP2 MSTORE PUSH1 0x1 PUSH1 0x1 PUSH1 0xA0 SHL SUB SWAP1 SWAP2 AND SWAP1 PUSH4 0x791AC947 SWAP1 PUSH2 0x31C5 SWAP1 DUP6 SWAP1 PUSH1 0x0 SWAP1 DUP7 SWAP1 ADDRESS SWAP1 TIMESTAMP SWAP1 PUSH1 0x4 ADD PUSH2 0x39E4 JUMP JUMPDEST PUSH1 0x6 SLOAD PUSH2 0x3364 SWAP1 ADDRESS SWAP1 PUSH1 0x1 PUSH1 0x1 PUSH1 0xA0 SHL SUB AND DUP5 PUSH2 0x1786 JUMP JUMPDEST PUSH1 0x6 SLOAD PUSH1 0x40 MLOAD PUSH4 0xF305D719 PUSH1 0xE0 SHL DUP2 MSTORE ADDRESS PUSH1 0x4 DUP3 ADD MSTORE PUSH1 0x24 DUP2 ADD DUP5 SWAP1 MSTORE PUSH1 0x0 PUSH1 0x44 DUP3 ADD DUP2 SWAP1 MSTORE PUSH1 0x64 DUP3 ADD DUP2 SWAP1 MSTORE PUSH1 0x84 DUP3 ADD MSTORE TIMESTAMP PUSH1 0xA4 DUP3 ADD MSTORE PUSH1 0x1 PUSH1 0x1 PUSH1 0xA0 SHL SUB SWAP1 SWAP2 AND SWAP1 PUSH4 0xF305D719 SWAP1 DUP4 SWAP1 PUSH1 0xC4 ADD PUSH1 0x60 PUSH1 0x40 MLOAD DUP1 DUP4 SUB DUP2 DUP6 DUP9 DUP1 EXTCODESIZE ISZERO DUP1 ISZERO PUSH2 0x33CC JUMPI PUSH1 0x0 DUP1 REVERT JUMPDEST POP GAS CALL ISZERO DUP1 ISZERO PUSH2 0x33E0 JUMPI RETURNDATASIZE PUSH1 0x0 DUP1 RETURNDATACOPY RETURNDATASIZE PUSH1 0x0 REVERT JUMPDEST POP POP POP POP POP PUSH1 0x40 MLOAD RETURNDATASIZE PUSH1 0x1F NOT PUSH1 0x1F DUP3 ADD AND DUP3 ADD DUP1 PUSH1 0x40 MSTORE POP DUP2 ADD SWAP1 PUSH2 0xD20 SWAP2 SWAP1 PUSH2 0x3807 JUMP JUMPDEST DUP1 ISZERO DUP1 PUSH2 0x3420 JUMPI POP PUSH1 0xB SLOAD PUSH2 0x341D SWAP1 PUSH3 0x186A0 PUSH2 0x3A58 JUMP JUMPDEST DUP2 LT JUMPDEST ISZERO PUSH2 0x342A JUMPI PUSH2 0xDE1 JUMP JUMPDEST PUSH1 0x40 DUP1 MLOAD PUSH1 0x3 DUP1 DUP3 MSTORE PUSH1 0x80 DUP3 ADD SWAP1 SWAP3 MSTORE PUSH1 0x0 SWAP2 PUSH1 0x20 DUP3 ADD PUSH1 0x60 DUP1 CALLDATASIZE DUP4 CALLDATACOPY ADD SWAP1 POP POP SWAP1 POP ADDRESS DUP2 PUSH1 0x0 DUP2 MLOAD DUP2 LT PUSH2 0x346F JUMPI PUSH4 0x4E487B71 PUSH1 0xE0 SHL PUSH1 0x0 MSTORE PUSH1 0x32 PUSH1 0x4 MSTORE PUSH1 0x24 PUSH1 0x0 REVERT JUMPDEST PUSH1 0x1 PUSH1 0x1 PUSH1 0xA0 SHL SUB SWAP3 DUP4 AND PUSH1 0x20 SWAP2 DUP3 MUL SWAP3 SWAP1 SWAP3 ADD DUP2 ADD SWAP2 SWAP1 SWAP2 MSTORE PUSH1 0x6 SLOAD PUSH1 0x40 DUP1 MLOAD PUSH4 0x15AB88C9 PUSH1 0xE3 SHL DUP2 MSTORE SWAP1 MLOAD SWAP2 SWAP1 SWAP4 AND SWAP3 PUSH4 0xAD5C4648 SWAP3 PUSH1 0x4 DUP1 DUP4 ADD SWAP4 SWAP2 SWAP3 DUP3 SWAP1 SUB ADD DUP2 DUP7 DUP1 EXTCODESIZE ISZERO DUP1 ISZERO PUSH2 0x34C3 JUMPI PUSH1 0x0 DUP1 REVERT JUMPDEST POP GAS STATICCALL ISZERO DUP1 ISZERO PUSH2 0x34D7 JUMPI RETURNDATASIZE PUSH1 0x0 DUP1 RETURNDATACOPY RETURNDATASIZE PUSH1 0x0 REVERT JUMPDEST POP POP POP POP PUSH1 0x40 MLOAD RETURNDATASIZE PUSH1 0x1F NOT PUSH1 0x1F DUP3 ADD AND DUP3 ADD DUP1 PUSH1 0x40 MSTORE POP DUP2 ADD SWAP1 PUSH2 0x34FB SWAP2 SWAP1 PUSH2 0x358D JUMP JUMPDEST DUP2 PUSH1 0x1 DUP2 MLOAD DUP2 LT PUSH2 0x351C JUMPI PUSH4 0x4E487B71 PUSH1 0xE0 SHL PUSH1 0x0 MSTORE PUSH1 0x32 PUSH1 0x4 MSTORE PUSH1 0x24 PUSH1 0x0 REVERT JUMPDEST PUSH1 0x1 PUSH1 0x1 PUSH1 0xA0 SHL SUB SWAP3 DUP4 AND PUSH1 0x20 SWAP2 DUP3 MUL SWAP3 SWAP1 SWAP3 ADD ADD MSTORE PUSH1 0xA SLOAD DUP3 MLOAD SWAP2 AND SWAP1 DUP3 SWAP1 PUSH1 0x2 SWAP1 DUP2 LT PUSH2 0x3166 JUMPI PUSH4 0x4E487B71 PUSH1 0xE0 SHL PUSH1 0x0 MSTORE PUSH1 0x32 PUSH1 0x4 MSTORE PUSH1 0x24 PUSH1 0x0 REVERT JUMPDEST DUP1 CALLDATALOAD PUSH2 0xE01 DUP2 PUSH2 0x3B3C JUMP JUMPDEST DUP1 CALLDATALOAD PUSH2 0xE01 DUP2 PUSH2 0x3B51 JUMP JUMPDEST PUSH1 0x0 PUSH1 0x20 DUP3 DUP5 SUB SLT ISZERO PUSH2 0x3582 JUMPI DUP1 DUP2 REVERT JUMPDEST DUP2 CALLDATALOAD PUSH2 0x177F DUP2 PUSH2 0x3B3C JUMP JUMPDEST PUSH1 0x0 PUSH1 0x20 DUP3 DUP5 SUB SLT ISZERO PUSH2 0x359E JUMPI DUP1 DUP2 REVERT JUMPDEST DUP2 MLOAD PUSH2 0x177F DUP2 PUSH2 0x3B3C JUMP JUMPDEST PUSH1 0x0 DUP1 PUSH1 0x40 DUP4 DUP6 SUB SLT ISZERO PUSH2 0x35BB JUMPI DUP1 DUP2 REVERT JUMPDEST DUP3 CALLDATALOAD PUSH2 0x35C6 DUP2 PUSH2 0x3B3C JUMP JUMPDEST SWAP2 POP PUSH1 0x20 DUP4 ADD CALLDATALOAD PUSH2 0x35D6 DUP2 PUSH2 0x3B3C JUMP JUMPDEST DUP1 SWAP2 POP POP SWAP3 POP SWAP3 SWAP1 POP JUMP JUMPDEST PUSH1 0x0 DUP1 PUSH1 0x0 PUSH1 0x60 DUP5 DUP7 SUB SLT ISZERO PUSH2 0x35F5 JUMPI DUP1 DUP2 REVERT JUMPDEST DUP4 CALLDATALOAD PUSH2 0x3600 DUP2 PUSH2 0x3B3C JUMP JUMPDEST SWAP3 POP PUSH1 0x20 DUP5 ADD CALLDATALOAD PUSH2 0x3610 DUP2 PUSH2 0x3B3C JUMP JUMPDEST SWAP3 SWAP6 SWAP3 SWAP5 POP POP POP PUSH1 0x40 SWAP2 SWAP1 SWAP2 ADD CALLDATALOAD SWAP1 JUMP JUMPDEST PUSH1 0x0 DUP1 PUSH1 0x40 DUP4 DUP6 SUB SLT ISZERO PUSH2 0x3633 JUMPI DUP2 DUP3 REVERT JUMPDEST DUP3 CALLDATALOAD PUSH2 0x363E DUP2 PUSH2 0x3B3C JUMP JUMPDEST SWAP2 POP PUSH1 0x20 DUP4 ADD CALLDATALOAD PUSH2 0x35D6 DUP2 PUSH2 0x3B51 JUMP JUMPDEST PUSH1 0x0 DUP1 PUSH1 0x0 DUP1 PUSH1 0x0 DUP1 PUSH1 0x0 DUP1 PUSH2 0x100 DUP10 DUP12 SUB SLT ISZERO PUSH2 0x366A JUMPI DUP4 DUP5 REVERT JUMPDEST DUP9 MLOAD PUSH2 0x3675 DUP2 PUSH2 0x3B3C JUMP JUMPDEST DUP1 SWAP9 POP POP PUSH1 0x20 DUP10 ADD MLOAD SWAP7 POP PUSH1 0x40 DUP10 ADD MLOAD SWAP6 POP PUSH1 0x60 DUP10 ADD MLOAD SWAP5 POP PUSH1 0x80 DUP10 ADD MLOAD SWAP4 POP PUSH1 0xA0 DUP10 ADD MLOAD SWAP3 POP PUSH1 0xC0 DUP10 ADD MLOAD SWAP2 POP PUSH1 0xE0 DUP10 ADD MLOAD SWAP1 POP SWAP3 SWAP6 SWAP9 POP SWAP3 SWAP6 SWAP9 SWAP1 SWAP4 SWAP7 POP JUMP JUMPDEST PUSH1 0x0 DUP1 PUSH1 0x40 DUP4 DUP6 SUB SLT ISZERO PUSH2 0x36C9 JUMPI DUP2 DUP3 REVERT JUMPDEST DUP3 CALLDATALOAD PUSH2 0x36D4 DUP2 PUSH2 0x3B3C JUMP JUMPDEST SWAP5 PUSH1 0x20 SWAP4 SWAP1 SWAP4 ADD CALLDATALOAD SWAP4 POP POP POP JUMP JUMPDEST PUSH1 0x0 DUP1 PUSH1 0x40 DUP4 DUP6 SUB SLT ISZERO PUSH2 0x36F4 JUMPI DUP2 DUP3 REVERT JUMPDEST DUP3 CALLDATALOAD PUSH8 0xFFFFFFFFFFFFFFFF DUP1 DUP3 GT ISZERO PUSH2 0x370B JUMPI DUP4 DUP5 REVERT JUMPDEST DUP2 DUP6 ADD SWAP2 POP DUP6 PUSH1 0x1F DUP4 ADD SLT PUSH2 0x371E JUMPI DUP4 DUP5 REVERT JUMPDEST DUP2 CALLDATALOAD PUSH1 0x20 DUP3 DUP3 GT ISZERO PUSH2 0x3732 JUMPI PUSH2 0x3732 PUSH2 0x3B26 JUMP JUMPDEST DUP2 PUSH1 0x5 SHL PUSH1 0x40 MLOAD PUSH1 0x1F NOT PUSH1 0x3F DUP4 ADD AND DUP2 ADD DUP2 DUP2 LT DUP7 DUP3 GT OR ISZERO PUSH2 0x3757 JUMPI PUSH2 0x3757 PUSH2 0x3B26 JUMP JUMPDEST PUSH1 0x40 MSTORE DUP4 DUP2 MSTORE DUP3 DUP2 ADD SWAP5 POP DUP6 DUP4 ADD DUP3 DUP8 ADD DUP5 ADD DUP12 LT ISZERO PUSH2 0x3775 JUMPI DUP9 DUP10 REVERT JUMPDEST DUP9 SWAP7 POP JUMPDEST DUP5 DUP8 LT ISZERO PUSH2 0x379E JUMPI PUSH2 0x378A DUP2 PUSH2 0x355B JUMP JUMPDEST DUP7 MSTORE PUSH1 0x1 SWAP7 SWAP1 SWAP7 ADD SWAP6 SWAP5 DUP4 ADD SWAP5 DUP4 ADD PUSH2 0x3779 JUMP JUMPDEST POP SWAP7 POP PUSH2 0x37AE SWAP1 POP DUP8 DUP3 ADD PUSH2 0x3566 JUMP JUMPDEST SWAP5 POP POP POP POP POP SWAP3 POP SWAP3 SWAP1 POP JUMP JUMPDEST PUSH1 0x0 PUSH1 0x20 DUP3 DUP5 SUB SLT ISZERO PUSH2 0x37CC JUMPI DUP1 DUP2 REVERT JUMPDEST DUP2 MLOAD PUSH2 0x177F DUP2 PUSH2 0x3B51 JUMP JUMPDEST PUSH1 0x0 PUSH1 0x20 DUP3 DUP5 SUB SLT ISZERO PUSH2 0x37E8 JUMPI DUP1 DUP2 REVERT JUMPDEST POP CALLDATALOAD SWAP2 SWAP1 POP JUMP JUMPDEST PUSH1 0x0 PUSH1 0x20 DUP3 DUP5 SUB SLT ISZERO PUSH2 0x3800 JUMPI DUP1 DUP2 REVERT JUMPDEST POP MLOAD SWAP2 SWAP1 POP JUMP JUMPDEST PUSH1 0x0 DUP1 PUSH1 0x0 PUSH1 0x60 DUP5 DUP7 SUB SLT ISZERO PUSH2 0x381B JUMPI DUP3 DUP4 REVERT JUMPDEST DUP4 MLOAD SWAP3 POP PUSH1 0x20 DUP5 ADD MLOAD SWAP2 POP PUSH1 0x40 DUP5 ADD MLOAD SWAP1 POP SWAP3 POP SWAP3 POP SWAP3 JUMP JUMPDEST PUSH1 0x0 DUP2 MLOAD DUP1 DUP5 MSTORE PUSH1 0x20 DUP1 DUP6 ADD SWAP5 POP DUP1 DUP5 ADD DUP4 JUMPDEST DUP4 DUP2 LT ISZERO PUSH2 0x386C JUMPI DUP2 MLOAD PUSH1 0x1 PUSH1 0x1 PUSH1 0xA0 SHL SUB AND DUP8 MSTORE SWAP6 DUP3 ADD SWAP6 SWAP1 DUP3 ADD SWAP1 PUSH1 0x1 ADD PUSH2 0x3847 JUMP JUMPDEST POP SWAP5 SWAP6 SWAP5 POP POP POP POP POP JUMP JUMPDEST PUSH1 0x0 DUP3 MLOAD PUSH2 0x3889 DUP2 DUP5 PUSH1 0x20 DUP8 ADD PUSH2 0x3A8E JUMP JUMPDEST SWAP2 SWAP1 SWAP2 ADD SWAP3 SWAP2 POP POP JUMP JUMPDEST PUSH1 0x1 PUSH1 0x1 PUSH1 0xA0 SHL SUB SWAP3 SWAP1 SWAP3 AND DUP3 MSTORE PUSH1 0x20 DUP3 ADD MSTORE PUSH1 0x40 ADD SWAP1 JUMP JUMPDEST PUSH1 0x0 PUSH1 0x40 DUP3 MSTORE PUSH2 0x38BF PUSH1 0x40 DUP4 ADD DUP6 PUSH2 0x3834 JUMP JUMPDEST SWAP1 POP DUP3 ISZERO ISZERO PUSH1 0x20 DUP4 ADD MSTORE SWAP4 SWAP3 POP POP POP JUMP JUMPDEST PUSH1 0x0 PUSH1 0x20 DUP3 MSTORE DUP3 MLOAD DUP1 PUSH1 0x20 DUP5 ADD MSTORE PUSH2 0x38EF DUP2 PUSH1 0x40 DUP6 ADD PUSH1 0x20 DUP8 ADD PUSH2 0x3A8E JUMP JUMPDEST PUSH1 0x1F ADD PUSH1 0x1F NOT AND SWAP2 SWAP1 SWAP2 ADD PUSH1 0x40 ADD SWAP3 SWAP2 POP POP JUMP JUMPDEST PUSH1 0x20 DUP1 DUP3 MSTORE PUSH1 0x23 SWAP1 DUP3 ADD MSTORE PUSH32 0x45524332303A207472616E7366657220746F20746865207A65726F2061646472 PUSH1 0x40 DUP3 ADD MSTORE PUSH3 0x657373 PUSH1 0xE8 SHL PUSH1 0x60 DUP3 ADD MSTORE PUSH1 0x80 ADD SWAP1 JUMP JUMPDEST PUSH1 0x20 DUP1 DUP3 MSTORE DUP2 DUP2 ADD MSTORE PUSH32 0x4F776E61626C653A2063616C6C6572206973206E6F7420746865206F776E6572 PUSH1 0x40 DUP3 ADD MSTORE PUSH1 0x60 ADD SWAP1 JUMP JUMPDEST PUSH1 0x20 DUP1 DUP3 MSTORE PUSH1 0x25 SWAP1 DUP3 ADD MSTORE PUSH32 0x45524332303A207472616E736665722066726F6D20746865207A65726F206164 PUSH1 0x40 DUP3 ADD MSTORE PUSH5 0x6472657373 PUSH1 0xD8 SHL PUSH1 0x60 DUP3 ADD MSTORE PUSH1 0x80 ADD SWAP1 JUMP JUMPDEST PUSH1 0x20 DUP1 DUP3 MSTORE PUSH1 0xA SWAP1 DUP3 ADD MSTORE PUSH10 0x31B0B6361032B93937B9 PUSH1 0xB1 SHL PUSH1 0x40 DUP3 ADD MSTORE PUSH1 0x60 ADD SWAP1 JUMP JUMPDEST PUSH1 0x0 DUP7 DUP3 MSTORE DUP6 PUSH1 0x20 DUP4 ADD MSTORE PUSH1 0xA0 PUSH1 0x40 DUP4 ADD MSTORE PUSH2 0x3A03 PUSH1 0xA0 DUP4 ADD DUP7 PUSH2 0x3834 JUMP JUMPDEST PUSH1 0x1 PUSH1 0x1 PUSH1 0xA0 SHL SUB SWAP5 SWAP1 SWAP5 AND PUSH1 0x60 DUP4 ADD MSTORE POP PUSH1 0x80 ADD MSTORE SWAP4 SWAP3 POP POP POP JUMP JUMPDEST PUSH1 0x0 DUP3 NOT DUP3 GT ISZERO PUSH2 0x3A33 JUMPI PUSH2 0x3A33 PUSH2 0x3B10 JUMP JUMPDEST POP ADD SWAP1 JUMP JUMPDEST PUSH1 0x0 DUP3 PUSH2 0x3A53 JUMPI PUSH4 0x4E487B71 PUSH1 0xE0 SHL DUP2 MSTORE PUSH1 0x12 PUSH1 0x4 MSTORE PUSH1 0x24 DUP2 REVERT JUMPDEST POP DIV SWAP1 JUMP JUMPDEST PUSH1 0x0 DUP2 PUSH1 0x0 NOT DIV DUP4 GT DUP3 ISZERO ISZERO AND ISZERO PUSH2 0x3A72 JUMPI PUSH2 0x3A72 PUSH2 0x3B10 JUMP JUMPDEST POP MUL SWAP1 JUMP JUMPDEST PUSH1 0x0 DUP3 DUP3 LT ISZERO PUSH2 0x3A89 JUMPI PUSH2 0x3A89 PUSH2 0x3B10 JUMP JUMPDEST POP SUB SWAP1 JUMP JUMPDEST PUSH1 0x0 JUMPDEST DUP4 DUP2 LT ISZERO PUSH2 0x3AA9 JUMPI DUP2 DUP2 ADD MLOAD DUP4 DUP3 ADD MSTORE PUSH1 0x20 ADD PUSH2 0x3A91 JUMP JUMPDEST DUP4 DUP2 GT ISZERO PUSH2 0x26DF JUMPI POP POP PUSH1 0x0 SWAP2 ADD MSTORE JUMP JUMPDEST PUSH1 0x1 DUP2 DUP2 SHR SWAP1 DUP3 AND DUP1 PUSH2 0x3ACE JUMPI PUSH1 0x7F DUP3 AND SWAP2 POP JUMPDEST PUSH1 0x20 DUP3 LT DUP2 EQ ISZERO PUSH2 0x3AEF JUMPI PUSH4 0x4E487B71 PUSH1 0xE0 SHL PUSH1 0x0 MSTORE PUSH1 0x22 PUSH1 0x4 MSTORE PUSH1 0x24 PUSH1 0x0 REVERT JUMPDEST POP SWAP2 SWAP1 POP JUMP JUMPDEST PUSH1 0x0 PUSH1 0x0 NOT DUP3 EQ ISZERO PUSH2 0x3B09 JUMPI PUSH2 0x3B09 PUSH2 0x3B10 JUMP JUMPDEST POP PUSH1 0x1 ADD SWAP1 JUMP JUMPDEST PUSH4 0x4E487B71 PUSH1 0xE0 SHL PUSH1 0x0 MSTORE PUSH1 0x11 PUSH1 0x4 MSTORE PUSH1 0x24 PUSH1 0x0 REVERT JUMPDEST PUSH4 0x4E487B71 PUSH1 0xE0 SHL PUSH1 0x0 MSTORE PUSH1 0x41 PUSH1 0x4 MSTORE PUSH1 0x24 PUSH1 0x0 REVERT JUMPDEST PUSH1 0x1 PUSH1 0x1 PUSH1 0xA0 SHL SUB DUP2 AND DUP2 EQ PUSH2 0xDE1 JUMPI PUSH1 0x0 DUP1 REVERT JUMPDEST DUP1 ISZERO ISZERO DUP2 EQ PUSH2 0xDE1 JUMPI PUSH1 0x0 DUP1 REVERT INVALID GASLIMIT MSTORE NUMBER ORIGIN ADDRESS GASPRICE KECCAK256 PUSH21 0x72616E7366657220616D6F756E7420657863656564 PUSH20 0x2062616C616E636545524332303A207472616E73 PUSH7 0x657220616D6F75 PUSH15 0x74206578636565647320616C6C6F77 PUSH2 0x6E63 PUSH6 0x45524332303A KECCAK256 PUSH5 0x6563726561 PUSH20 0x656420616C6C6F77616E63652062656C6F77207A PUSH6 0x726FA2646970 PUSH7 0x7358221220193B JUMP PUSH20 0x35EA0746DDC7E774F8DF90377B7B88A2B0204325 0x24 EXTCODECOPY DUP1 CALLVALUE DUP15 0xE6 0xB0 LOG3 PUSH5 0x736F6C6343 STOP ADDMOD SUB STOP CALLER PUSH1 0x80 PUSH1 0x40 MSTORE PUSH1 0x6 DUP1 SLOAD PUSH1 0x1 PUSH1 0x1 PUSH1 0xA0 SHL SUB NOT SWAP1 DUP2 AND PUSH20 0xCB1E72786A6EB3B44C2A2429E317C8A2462CFEB1 OR SWAP1 SWAP2 SSTORE PUSH1 0x11 DUP1 SLOAD SWAP1 SWAP2 AND PUSH20 0xB64D4270B8FE21E2704701DF9C8401FF110ECFFD OR SWAP1 SSTORE CALLVALUE DUP1 ISZERO PUSH3 0x59 JUMPI PUSH1 0x0 DUP1 REVERT JUMPDEST POP PUSH1 0x40 DUP1 MLOAD DUP1 DUP3 ADD DUP3 MSTORE PUSH1 0x14 DUP2 MSTORE PUSH32 0x534849425F4469766964656E5F547261636B6572000000000000000000000000 PUSH1 0x20 DUP1 DUP4 ADD SWAP2 DUP3 MSTORE DUP4 MLOAD DUP1 DUP6 ADD SWAP1 SWAP5 MSTORE PUSH1 0x15 DUP5 MSTORE PUSH32 0x534849425F4469766964656E645F547261636B65720000000000000000000000 SWAP1 DUP5 ADD MSTORE DUP2 MLOAD SWAP2 SWAP3 SWAP2 DUP4 SWAP2 DUP4 SWAP2 PUSH3 0xD8 SWAP2 PUSH1 0x3 SWAP2 PUSH3 0x16E JUMP JUMPDEST POP DUP1 MLOAD PUSH3 0xEE SWAP1 PUSH1 0x4 SWAP1 PUSH1 0x20 DUP5 ADD SWAP1 PUSH3 0x16E JUMP JUMPDEST POP POP POP PUSH1 0x0 PUSH3 0x103 PUSH3 0x16A PUSH1 0x20 SHL PUSH1 0x20 SHR JUMP JUMPDEST PUSH1 0x5 DUP1 SLOAD PUSH1 0x1 PUSH1 0x1 PUSH1 0xA0 SHL SUB NOT AND PUSH1 0x1 PUSH1 0x1 PUSH1 0xA0 SHL SUB DUP4 AND SWAP1 DUP2 OR SWAP1 SWAP2 SSTORE PUSH1 0x40 MLOAD SWAP2 SWAP3 POP SWAP1 PUSH1 0x0 SWAP1 PUSH32 0x8BE0079C531659141344CD1FD0A4F28419497F9722A3DAAFE3B4186F6B6457E0 SWAP1 DUP3 SWAP1 LOG3 POP POP PUSH1 0x3C PUSH1 0x14 SSTORE POP PUSH8 0x16345785D8A0000 PUSH1 0x15 SSTORE PUSH3 0x251 JUMP JUMPDEST CALLER SWAP1 JUMP JUMPDEST DUP3 DUP1 SLOAD PUSH3 0x17C SWAP1 PUSH3 0x214 JUMP JUMPDEST SWAP1 PUSH1 0x0 MSTORE PUSH1 0x20 PUSH1 0x0 KECCAK256 SWAP1 PUSH1 0x1F ADD PUSH1 0x20 SWAP1 DIV DUP2 ADD SWAP3 DUP3 PUSH3 0x1A0 JUMPI PUSH1 0x0 DUP6 SSTORE PUSH3 0x1EB JUMP JUMPDEST DUP3 PUSH1 0x1F LT PUSH3 0x1BB JUMPI DUP1 MLOAD PUSH1 0xFF NOT AND DUP4 DUP1 ADD OR DUP6 SSTORE PUSH3 0x1EB JUMP JUMPDEST DUP3 DUP1 ADD PUSH1 0x1 ADD DUP6 SSTORE DUP3 ISZERO PUSH3 0x1EB JUMPI SWAP2 DUP3 ADD JUMPDEST DUP3 DUP2 GT ISZERO PUSH3 0x1EB JUMPI DUP3 MLOAD DUP3 SSTORE SWAP2 PUSH1 0x20 ADD SWAP2 SWAP1 PUSH1 0x1 ADD SWAP1 PUSH3 0x1CE JUMP JUMPDEST POP PUSH3 0x1F9 SWAP3 SWAP2 POP PUSH3 0x1FD JUMP JUMPDEST POP SWAP1 JUMP JUMPDEST JUMPDEST DUP1 DUP3 GT ISZERO PUSH3 0x1F9 JUMPI PUSH1 0x0 DUP2 SSTORE PUSH1 0x1 ADD PUSH3 0x1FE JUMP JUMPDEST PUSH1 0x1 DUP2 DUP2 SHR SWAP1 DUP3 AND DUP1 PUSH3 0x229 JUMPI PUSH1 0x7F DUP3 AND SWAP2 POP JUMPDEST PUSH1 0x20 DUP3 LT DUP2 EQ ISZERO PUSH3 0x24B JUMPI PUSH4 0x4E487B71 PUSH1 0xE0 SHL PUSH1 0x0 MSTORE PUSH1 0x22 PUSH1 0x4 MSTORE PUSH1 0x24 PUSH1 0x0 REVERT JUMPDEST POP SWAP2 SWAP1 POP JUMP JUMPDEST PUSH2 0x1FE9 DUP1 PUSH3 0x261 PUSH1 0x0 CODECOPY PUSH1 0x0 RETURN INVALID PUSH1 0x80 PUSH1 0x40 MSTORE CALLVALUE DUP1 ISZERO PUSH2 0x10 JUMPI PUSH1 0x0 DUP1 REVERT JUMPDEST POP PUSH1 0x4 CALLDATASIZE LT PUSH2 0x23D JUMPI PUSH1 0x0 CALLDATALOAD PUSH1 0xE0 SHR DUP1 PUSH4 0x715018A6 GT PUSH2 0x13B JUMPI DUP1 PUSH4 0xBE10B614 GT PUSH2 0xB8 JUMPI DUP1 PUSH4 0xE98030C7 GT PUSH2 0x7C JUMPI DUP1 PUSH4 0xE98030C7 EQ PUSH2 0x549 JUMPI DUP1 PUSH4 0xEC4BE22D EQ PUSH2 0x55C JUMPI DUP1 PUSH4 0xF2FDE38B EQ PUSH2 0x56F JUMPI DUP1 PUSH4 0xFBCBC0F1 EQ PUSH2 0x582 JUMPI DUP1 PUSH4 0xFFB2C479 EQ PUSH2 0x595 JUMPI PUSH2 0x23D JUMP JUMPDEST DUP1 PUSH4 0xBE10B614 EQ PUSH2 0x4D9 JUMPI DUP1 PUSH4 0xDD62ED3E EQ PUSH2 0x4E2 JUMPI DUP1 PUSH4 0xE24B85E7 EQ PUSH2 0x51B JUMPI DUP1 PUSH4 0xE30443BC EQ PUSH2 0x52E JUMPI DUP1 PUSH4 0xE7841EC0 EQ PUSH2 0x541 JUMPI PUSH2 0x23D JUMP JUMPDEST DUP1 PUSH4 0xA457C2D7 GT PUSH2 0xFF JUMPI DUP1 PUSH4 0xA457C2D7 EQ PUSH2 0x464 JUMPI DUP1 PUSH4 0xA8B9D240 EQ PUSH2 0x477 JUMPI DUP1 PUSH4 0xA9059CBB EQ PUSH2 0x48A JUMPI DUP1 PUSH4 0xAAFD847A EQ PUSH2 0x49D JUMPI DUP1 PUSH4 0xBC4C4B37 EQ PUSH2 0x4C6 JUMPI PUSH2 0x23D JUMP JUMPDEST DUP1 PUSH4 0x715018A6 EQ PUSH2 0x427 JUMPI DUP1 PUSH4 0x85A6B3AE EQ PUSH2 0x42F JUMPI DUP1 PUSH4 0x8DA5CB5B EQ PUSH2 0x438 JUMPI DUP1 PUSH4 0x91B89FBA EQ PUSH2 0x449 JUMPI DUP1 PUSH4 0x95D89B41 EQ PUSH2 0x45C JUMPI PUSH2 0x23D JUMP JUMPDEST DUP1 PUSH4 0x31E79DB0 GT PUSH2 0x1C9 JUMPI DUP1 PUSH4 0x5E83FC1E GT PUSH2 0x18D JUMPI DUP1 PUSH4 0x5E83FC1E EQ PUSH2 0x3C9 JUMPI DUP1 PUSH4 0x6A474002 EQ PUSH2 0x3DA JUMPI DUP1 PUSH4 0x6D91196F EQ PUSH2 0x3E2 JUMPI DUP1 PUSH4 0x6F2789EC EQ PUSH2 0x3F5 JUMPI DUP1 PUSH4 0x70A08231 EQ PUSH2 0x3FE JUMPI PUSH2 0x23D JUMP JUMPDEST DUP1 PUSH4 0x31E79DB0 EQ PUSH2 0x2FB JUMPI DUP1 PUSH4 0x39509351 EQ PUSH2 0x310 JUMPI DUP1 PUSH4 0x4B8FEB4F EQ PUSH2 0x323 JUMPI DUP1 PUSH4 0x4E7B827F EQ PUSH2 0x34E JUMPI DUP1 PUSH4 0x5183D6FD EQ PUSH2 0x371 JUMPI PUSH2 0x23D JUMP JUMPDEST DUP1 PUSH4 0x226CFA3D GT PUSH2 0x210 JUMPI DUP1 PUSH4 0x226CFA3D EQ PUSH2 0x29D JUMPI DUP1 PUSH4 0x23B872DD EQ PUSH2 0x2BD JUMPI DUP1 PUSH4 0x27CE0147 EQ PUSH2 0x2D0 JUMPI DUP1 PUSH4 0x3009A609 EQ PUSH2 0x2E3 JUMPI DUP1 PUSH4 0x313CE567 EQ PUSH2 0x2EC JUMPI PUSH2 0x23D JUMP JUMPDEST DUP1 PUSH4 0x6FDDE03 EQ PUSH2 0x242 JUMPI DUP1 PUSH4 0x95EA7B3 EQ PUSH2 0x260 JUMPI DUP1 PUSH4 0x9BBEDDE EQ PUSH2 0x283 JUMPI DUP1 PUSH4 0x18160DDD EQ PUSH2 0x295 JUMPI JUMPDEST PUSH1 0x0 DUP1 REVERT JUMPDEST PUSH2 0x24A PUSH2 0x5C3 JUMP JUMPDEST PUSH1 0x40 MLOAD PUSH2 0x257 SWAP2 SWAP1 PUSH2 0x1D3C JUMP JUMPDEST PUSH1 0x40 MLOAD DUP1 SWAP2 SUB SWAP1 RETURN JUMPDEST PUSH2 0x273 PUSH2 0x26E CALLDATASIZE PUSH1 0x4 PUSH2 0x1CC5 JUMP JUMPDEST PUSH2 0x655 JUMP JUMPDEST PUSH1 0x40 MLOAD SWAP1 ISZERO ISZERO DUP2 MSTORE PUSH1 0x20 ADD PUSH2 0x257 JUMP JUMPDEST PUSH1 0xB SLOAD JUMPDEST PUSH1 0x40 MLOAD SWAP1 DUP2 MSTORE PUSH1 0x20 ADD PUSH2 0x257 JUMP JUMPDEST PUSH1 0x2 SLOAD PUSH2 0x287 JUMP JUMPDEST PUSH2 0x287 PUSH2 0x2AB CALLDATASIZE PUSH1 0x4 PUSH2 0x1BE8 JUMP JUMPDEST PUSH1 0x13 PUSH1 0x20 MSTORE PUSH1 0x0 SWAP1 DUP2 MSTORE PUSH1 0x40 SWAP1 KECCAK256 SLOAD DUP2 JUMP JUMPDEST PUSH2 0x273 PUSH2 0x2CB CALLDATASIZE PUSH1 0x4 PUSH2 0x1C58 JUMP JUMPDEST PUSH2 0x66C JUMP JUMPDEST PUSH2 0x287 PUSH2 0x2DE CALLDATASIZE PUSH1 0x4 PUSH2 0x1BE8 JUMP JUMPDEST PUSH2 0x6D5 JUMP JUMPDEST PUSH2 0x287 PUSH1 0xF SLOAD DUP2 JUMP JUMPDEST PUSH1 0x40 MLOAD PUSH1 0x9 DUP2 MSTORE PUSH1 0x20 ADD PUSH2 0x257 JUMP JUMPDEST PUSH2 0x30E PUSH2 0x309 CALLDATASIZE PUSH1 0x4 PUSH2 0x1BE8 JUMP JUMPDEST PUSH2 0x739 JUMP JUMPDEST STOP JUMPDEST PUSH2 0x273 PUSH2 0x31E CALLDATASIZE PUSH1 0x4 PUSH2 0x1CC5 JUMP JUMPDEST PUSH2 0x869 JUMP JUMPDEST PUSH1 0x11 SLOAD PUSH2 0x336 SWAP1 PUSH1 0x1 PUSH1 0x1 PUSH1 0xA0 SHL SUB AND DUP2 JUMP JUMPDEST PUSH1 0x40 MLOAD PUSH1 0x1 PUSH1 0x1 PUSH1 0xA0 SHL SUB SWAP1 SWAP2 AND DUP2 MSTORE PUSH1 0x20 ADD PUSH2 0x257 JUMP JUMPDEST PUSH2 0x273 PUSH2 0x35C CALLDATASIZE PUSH1 0x4 PUSH2 0x1BE8 JUMP JUMPDEST PUSH1 0x12 PUSH1 0x20 MSTORE PUSH1 0x0 SWAP1 DUP2 MSTORE PUSH1 0x40 SWAP1 KECCAK256 SLOAD PUSH1 0xFF AND DUP2 JUMP JUMPDEST PUSH2 0x384 PUSH2 0x37F CALLDATASIZE PUSH1 0x4 PUSH2 0x1D24 JUMP JUMPDEST PUSH2 0x89F JUMP JUMPDEST PUSH1 0x40 DUP1 MLOAD PUSH1 0x1 PUSH1 0x1 PUSH1 0xA0 SHL SUB SWAP1 SWAP10 AND DUP10 MSTORE PUSH1 0x20 DUP10 ADD SWAP8 SWAP1 SWAP8 MSTORE SWAP6 DUP8 ADD SWAP5 SWAP1 SWAP5 MSTORE PUSH1 0x60 DUP7 ADD SWAP3 SWAP1 SWAP3 MSTORE PUSH1 0x80 DUP6 ADD MSTORE PUSH1 0xA0 DUP5 ADD MSTORE PUSH1 0xC0 DUP4 ADD MSTORE PUSH1 0xE0 DUP3 ADD MSTORE PUSH2 0x100 ADD PUSH2 0x257 JUMP JUMPDEST PUSH1 0x10 SLOAD PUSH1 0x1 PUSH1 0x1 PUSH1 0xA0 SHL SUB AND PUSH2 0x336 JUMP JUMPDEST PUSH2 0x30E PUSH2 0xA11 JUMP JUMPDEST PUSH2 0x30E PUSH2 0x3F0 CALLDATASIZE PUSH1 0x4 PUSH2 0x1BE8 JUMP JUMPDEST PUSH2 0xAA5 JUMP JUMPDEST PUSH2 0x287 PUSH1 0x14 SLOAD DUP2 JUMP JUMPDEST PUSH2 0x287 PUSH2 0x40C CALLDATASIZE PUSH1 0x4 PUSH2 0x1BE8 JUMP JUMPDEST PUSH1 0x1 PUSH1 0x1 PUSH1 0xA0 SHL SUB AND PUSH1 0x0 SWAP1 DUP2 MSTORE PUSH1 0x20 DUP2 SWAP1 MSTORE PUSH1 0x40 SWAP1 KECCAK256 SLOAD SWAP1 JUMP JUMPDEST PUSH2 0x30E PUSH2 0xAF1 JUMP JUMPDEST PUSH2 0x287 PUSH1 0xA SLOAD DUP2 JUMP JUMPDEST PUSH1 0x5 SLOAD PUSH1 0x1 PUSH1 0x1 PUSH1 0xA0 SHL SUB AND PUSH2 0x336 JUMP JUMPDEST PUSH2 0x287 PUSH2 0x457 CALLDATASIZE PUSH1 0x4 PUSH2 0x1BE8 JUMP JUMPDEST PUSH2 0xB65 JUMP JUMPDEST PUSH2 0x24A PUSH2 0xB70 JUMP JUMPDEST PUSH2 0x273 PUSH2 0x472 CALLDATASIZE PUSH1 0x4 PUSH2 0x1CC5 JUMP JUMPDEST PUSH2 0xB7F JUMP JUMPDEST PUSH2 0x287 PUSH2 0x485 CALLDATASIZE PUSH1 0x4 PUSH2 0x1BE8 JUMP JUMPDEST PUSH2 0xBCE JUMP JUMPDEST PUSH2 0x273 PUSH2 0x498 CALLDATASIZE PUSH1 0x4 PUSH2 0x1CC5 JUMP JUMPDEST PUSH2 0xBFA JUMP JUMPDEST PUSH2 0x287 PUSH2 0x4AB CALLDATASIZE PUSH1 0x4 PUSH2 0x1BE8 JUMP JUMPDEST PUSH1 0x1 PUSH1 0x1 PUSH1 0xA0 SHL SUB AND PUSH1 0x0 SWAP1 DUP2 MSTORE PUSH1 0x9 PUSH1 0x20 MSTORE PUSH1 0x40 SWAP1 KECCAK256 SLOAD SWAP1 JUMP JUMPDEST PUSH2 0x273 PUSH2 0x4D4 CALLDATASIZE PUSH1 0x4 PUSH2 0x1C98 JUMP JUMPDEST PUSH2 0xC07 JUMP JUMPDEST PUSH2 0x287 PUSH1 0x15 SLOAD DUP2 JUMP JUMPDEST PUSH2 0x287 PUSH2 0x4F0 CALLDATASIZE PUSH1 0x4 PUSH2 0x1C20 JUMP JUMPDEST PUSH1 0x1 PUSH1 0x1 PUSH1 0xA0 SHL SUB SWAP2 DUP3 AND PUSH1 0x0 SWAP1 DUP2 MSTORE PUSH1 0x1 PUSH1 0x20 SWAP1 DUP2 MSTORE PUSH1 0x40 DUP1 DUP4 KECCAK256 SWAP4 SWAP1 SWAP5 AND DUP3 MSTORE SWAP2 SWAP1 SWAP2 MSTORE KECCAK256 SLOAD SWAP1 JUMP JUMPDEST PUSH1 0x6 SLOAD PUSH2 0x336 SWAP1 PUSH1 0x1 PUSH1 0x1 PUSH1 0xA0 SHL SUB AND DUP2 JUMP JUMPDEST PUSH2 0x30E PUSH2 0x53C CALLDATASIZE PUSH1 0x4 PUSH2 0x1CC5 JUMP JUMPDEST PUSH2 0xCB5 JUMP JUMPDEST PUSH1 0xF SLOAD PUSH2 0x287 JUMP JUMPDEST PUSH2 0x30E PUSH2 0x557 CALLDATASIZE PUSH1 0x4 PUSH2 0x1D24 JUMP JUMPDEST PUSH2 0xE3D JUMP JUMPDEST PUSH2 0x30E PUSH2 0x56A CALLDATASIZE PUSH1 0x4 PUSH2 0x1D24 JUMP JUMPDEST PUSH2 0xF99 JUMP JUMPDEST PUSH2 0x30E PUSH2 0x57D CALLDATASIZE PUSH1 0x4 PUSH2 0x1BE8 JUMP JUMPDEST PUSH2 0x1050 JUMP JUMPDEST PUSH2 0x384 PUSH2 0x590 CALLDATASIZE PUSH1 0x4 PUSH2 0x1BE8 JUMP JUMPDEST PUSH2 0x113B JUMP JUMPDEST PUSH2 0x5A8 PUSH2 0x5A3 CALLDATASIZE PUSH1 0x4 PUSH2 0x1D24 JUMP JUMPDEST PUSH2 0x12B3 JUMP JUMPDEST PUSH1 0x40 DUP1 MLOAD SWAP4 DUP5 MSTORE PUSH1 0x20 DUP5 ADD SWAP3 SWAP1 SWAP3 MSTORE SWAP1 DUP3 ADD MSTORE PUSH1 0x60 ADD PUSH2 0x257 JUMP JUMPDEST PUSH1 0x60 PUSH1 0x3 DUP1 SLOAD PUSH2 0x5D2 SWAP1 PUSH2 0x1EB2 JUMP JUMPDEST DUP1 PUSH1 0x1F ADD PUSH1 0x20 DUP1 SWAP2 DIV MUL PUSH1 0x20 ADD PUSH1 0x40 MLOAD SWAP1 DUP2 ADD PUSH1 0x40 MSTORE DUP1 SWAP3 SWAP2 SWAP1 DUP2 DUP2 MSTORE PUSH1 0x20 ADD DUP3 DUP1 SLOAD PUSH2 0x5FE SWAP1 PUSH2 0x1EB2 JUMP JUMPDEST DUP1 ISZERO PUSH2 0x64B JUMPI DUP1 PUSH1 0x1F LT PUSH2 0x620 JUMPI PUSH2 0x100 DUP1 DUP4 SLOAD DIV MUL DUP4 MSTORE SWAP2 PUSH1 0x20 ADD SWAP2 PUSH2 0x64B JUMP JUMPDEST DUP3 ADD SWAP2 SWAP1 PUSH1 0x0 MSTORE PUSH1 0x20 PUSH1 0x0 KECCAK256 SWAP1 JUMPDEST DUP2 SLOAD DUP2 MSTORE SWAP1 PUSH1 0x1 ADD SWAP1 PUSH1 0x20 ADD DUP1 DUP4 GT PUSH2 0x62E JUMPI DUP3 SWAP1 SUB PUSH1 0x1F AND DUP3 ADD SWAP2 JUMPDEST POP POP POP POP POP SWAP1 POP SWAP1 JUMP JUMPDEST PUSH1 0x0 PUSH2 0x662 CALLER DUP5 DUP5 PUSH2 0x13DC JUMP JUMPDEST POP PUSH1 0x1 JUMPDEST SWAP3 SWAP2 POP POP JUMP JUMPDEST PUSH1 0x0 PUSH2 0x679 DUP5 DUP5 DUP5 PUSH2 0x1500 JUMP JUMPDEST PUSH2 0x6CB DUP5 CALLER PUSH2 0x6C6 DUP6 PUSH1 0x40 MLOAD DUP1 PUSH1 0x60 ADD PUSH1 0x40 MSTORE DUP1 PUSH1 0x28 DUP2 MSTORE PUSH1 0x20 ADD PUSH2 0x1F67 PUSH1 0x28 SWAP2 CODECOPY PUSH1 0x1 PUSH1 0x1 PUSH1 0xA0 SHL SUB DUP11 AND PUSH1 0x0 SWAP1 DUP2 MSTORE PUSH1 0x1 PUSH1 0x20 SWAP1 DUP2 MSTORE PUSH1 0x40 DUP1 DUP4 KECCAK256 CALLER DUP5 MSTORE SWAP1 SWAP2 MSTORE SWAP1 KECCAK256 SLOAD SWAP2 SWAP1 PUSH2 0x155C JUMP JUMPDEST PUSH2 0x13DC JUMP JUMPDEST POP PUSH1 0x1 SWAP4 SWAP3 POP POP POP JUMP JUMPDEST PUSH1 0x1 PUSH1 0x1 PUSH1 0xA0 SHL SUB DUP2 AND PUSH1 0x0 SWAP1 DUP2 MSTORE PUSH1 0x8 PUSH1 0x20 SWAP1 DUP2 MSTORE PUSH1 0x40 DUP1 DUP4 KECCAK256 SLOAD SWAP2 DUP4 SWAP1 MSTORE DUP3 KECCAK256 SLOAD PUSH1 0x7 SLOAD PUSH1 0x1 PUSH1 0x80 SHL SWAP3 PUSH2 0x727 SWAP3 PUSH2 0x722 SWAP3 PUSH2 0x71C SWAP2 PUSH2 0x717 SWAP2 SWAP1 PUSH2 0x1596 JUMP JUMPDEST PUSH2 0x161C JUMP JUMPDEST SWAP1 PUSH2 0x162C JUMP JUMPDEST PUSH2 0x166A JUMP JUMPDEST PUSH2 0x731 SWAP2 SWAP1 PUSH2 0x1E1D JUMP JUMPDEST SWAP1 POP JUMPDEST SWAP2 SWAP1 POP JUMP JUMPDEST PUSH1 0x5 SLOAD PUSH1 0x1 PUSH1 0x1 PUSH1 0xA0 SHL SUB AND CALLER EQ PUSH2 0x76C JUMPI PUSH1 0x40 MLOAD PUSH3 0x461BCD PUSH1 0xE5 SHL DUP2 MSTORE PUSH1 0x4 ADD PUSH2 0x763 SWAP1 PUSH2 0x1D8F JUMP JUMPDEST PUSH1 0x40 MLOAD DUP1 SWAP2 SUB SWAP1 REVERT JUMPDEST PUSH1 0x1 PUSH1 0x1 PUSH1 0xA0 SHL SUB DUP2 AND PUSH1 0x0 SWAP1 DUP2 MSTORE PUSH1 0x12 PUSH1 0x20 MSTORE PUSH1 0x40 SWAP1 KECCAK256 SLOAD PUSH1 0xFF AND ISZERO PUSH2 0x792 JUMPI PUSH1 0x0 DUP1 REVERT JUMPDEST PUSH1 0x1 PUSH1 0x1 PUSH1 0xA0 SHL SUB DUP2 AND PUSH1 0x0 SWAP1 DUP2 MSTORE PUSH1 0x12 PUSH1 0x20 MSTORE PUSH1 0x40 DUP2 KECCAK256 DUP1 SLOAD PUSH1 0xFF NOT AND PUSH1 0x1 OR SWAP1 SSTORE PUSH2 0x7C0 SWAP1 DUP3 SWAP1 PUSH2 0x167D JUMP JUMPDEST PUSH1 0x40 MLOAD PUSH4 0x131836E7 PUSH1 0xE2 SHL DUP2 MSTORE PUSH1 0xB PUSH1 0x4 DUP3 ADD MSTORE PUSH1 0x1 PUSH1 0x1 PUSH1 0xA0 SHL SUB DUP3 AND PUSH1 0x24 DUP3 ADD MSTORE PUSH20 0x0 SWAP1 PUSH4 0x4C60DB9C SWAP1 PUSH1 0x44 ADD PUSH1 0x0 PUSH1 0x40 MLOAD DUP1 DUP4 SUB DUP2 DUP7 DUP1 EXTCODESIZE ISZERO DUP1 ISZERO PUSH2 0x81A JUMPI PUSH1 0x0 DUP1 REVERT JUMPDEST POP GAS DELEGATECALL ISZERO DUP1 ISZERO PUSH2 0x82E JUMPI RETURNDATASIZE PUSH1 0x0 DUP1 RETURNDATACOPY RETURNDATASIZE PUSH1 0x0 REVERT JUMPDEST POP POP PUSH1 0x40 MLOAD PUSH1 0x1 PUSH1 0x1 PUSH1 0xA0 SHL SUB DUP5 AND SWAP3 POP PUSH32 0xA878B31040B2E6D0A9A3D3361209DB3908BA62014B0DCA52ADBAEE451D128B25 SWAP2 POP PUSH1 0x0 SWAP1 LOG2 POP JUMP JUMPDEST CALLER PUSH1 0x0 DUP2 DUP2 MSTORE PUSH1 0x1 PUSH1 0x20 SWAP1 DUP2 MSTORE PUSH1 0x40 DUP1 DUP4 KECCAK256 PUSH1 0x1 PUSH1 0x1 PUSH1 0xA0 SHL SUB DUP8 AND DUP5 MSTORE SWAP1 SWAP2 MSTORE DUP2 KECCAK256 SLOAD SWAP1 SWAP2 PUSH2 0x662 SWAP2 DUP6 SWAP1 PUSH2 0x6C6 SWAP1 DUP7 PUSH2 0x16E2 JUMP JUMPDEST PUSH1 0x0 DUP1 PUSH1 0x0 DUP1 PUSH1 0x0 DUP1 PUSH1 0x0 DUP1 PUSH1 0xB PUSH20 0x0 PUSH4 0xDEB3D896 SWAP1 SWAP2 PUSH1 0x40 MLOAD DUP3 PUSH4 0xFFFFFFFF AND PUSH1 0xE0 SHL DUP2 MSTORE PUSH1 0x4 ADD PUSH2 0x8E7 SWAP2 DUP2 MSTORE PUSH1 0x20 ADD SWAP1 JUMP JUMPDEST PUSH1 0x20 PUSH1 0x40 MLOAD DUP1 DUP4 SUB DUP2 DUP7 DUP1 EXTCODESIZE ISZERO DUP1 ISZERO PUSH2 0x8FF JUMPI PUSH1 0x0 DUP1 REVERT JUMPDEST POP GAS DELEGATECALL ISZERO DUP1 ISZERO PUSH2 0x913 JUMPI RETURNDATASIZE PUSH1 0x0 DUP1 RETURNDATACOPY RETURNDATASIZE PUSH1 0x0 REVERT JUMPDEST POP POP POP POP PUSH1 0x40 MLOAD RETURNDATASIZE PUSH1 0x1F NOT PUSH1 0x1F DUP3 ADD AND DUP3 ADD DUP1 PUSH1 0x40 MSTORE POP DUP2 ADD SWAP1 PUSH2 0x937 SWAP2 SWAP1 PUSH2 0x1D0C JUMP JUMPDEST DUP10 LT PUSH2 0x95C JUMPI POP PUSH1 0x0 SWAP7 POP PUSH1 0x0 NOT SWAP6 POP DUP6 SWAP5 POP DUP7 SWAP4 POP DUP4 SWAP3 POP DUP3 SWAP2 POP DUP2 SWAP1 POP DUP1 PUSH2 0xA06 JUMP JUMPDEST PUSH1 0x40 MLOAD PUSH4 0x68D54F3F PUSH1 0xE1 SHL DUP2 MSTORE PUSH1 0xB PUSH1 0x4 DUP3 ADD MSTORE PUSH1 0x24 DUP2 ADD DUP11 SWAP1 MSTORE PUSH1 0x0 SWAP1 PUSH20 0x0 SWAP1 PUSH4 0xD1AA9E7E SWAP1 PUSH1 0x44 ADD PUSH1 0x20 PUSH1 0x40 MLOAD DUP1 DUP4 SUB DUP2 DUP7 DUP1 EXTCODESIZE ISZERO DUP1 ISZERO PUSH2 0x9B1 JUMPI PUSH1 0x0 DUP1 REVERT JUMPDEST POP GAS DELEGATECALL ISZERO DUP1 ISZERO PUSH2 0x9C5 JUMPI RETURNDATASIZE PUSH1 0x0 DUP1 RETURNDATACOPY RETURNDATASIZE PUSH1 0x0 REVERT JUMPDEST POP POP POP POP PUSH1 0x40 MLOAD RETURNDATASIZE PUSH1 0x1F NOT PUSH1 0x1F DUP3 ADD AND DUP3 ADD DUP1 PUSH1 0x40 MSTORE POP DUP2 ADD SWAP1 PUSH2 0x9E9 SWAP2 SWAP1 PUSH2 0x1C04 JUMP JUMPDEST SWAP1 POP PUSH2 0x9F4 DUP2 PUSH2 0x113B JUMP JUMPDEST SWAP9 POP SWAP9 POP SWAP9 POP SWAP9 POP SWAP9 POP SWAP9 POP SWAP9 POP SWAP9 POP POP JUMPDEST SWAP2 SWAP4 SWAP6 SWAP8 POP SWAP2 SWAP4 SWAP6 SWAP8 JUMP JUMPDEST PUSH1 0x40 MLOAD PUSH3 0x461BCD PUSH1 0xE5 SHL DUP2 MSTORE PUSH1 0x20 PUSH1 0x4 DUP3 ADD MSTORE PUSH1 0x5B PUSH1 0x24 DUP3 ADD MSTORE PUSH32 0x4469766964656E645F547261636B65723A207769746864726177446976696465 PUSH1 0x44 DUP3 ADD MSTORE PUSH32 0x6E642064697361626C65642E20557365207468652027636C61696D272066756E PUSH1 0x64 DUP3 ADD MSTORE PUSH32 0x6374696F6E206F6E20746865206D61696E20636F6E74726163742E0000000000 PUSH1 0x84 DUP3 ADD MSTORE PUSH1 0xA4 ADD PUSH2 0x763 JUMP JUMPDEST PUSH1 0x5 SLOAD PUSH1 0x1 PUSH1 0x1 PUSH1 0xA0 SHL SUB AND CALLER EQ PUSH2 0xACF JUMPI PUSH1 0x40 MLOAD PUSH3 0x461BCD PUSH1 0xE5 SHL DUP2 MSTORE PUSH1 0x4 ADD PUSH2 0x763 SWAP1 PUSH2 0x1D8F JUMP JUMPDEST PUSH1 0x10 DUP1 SLOAD PUSH1 0x1 PUSH1 0x1 PUSH1 0xA0 SHL SUB NOT AND PUSH1 0x1 PUSH1 0x1 PUSH1 0xA0 SHL SUB SWAP3 SWAP1 SWAP3 AND SWAP2 SWAP1 SWAP2 OR SWAP1 SSTORE JUMP JUMPDEST PUSH1 0x5 SLOAD PUSH1 0x1 PUSH1 0x1 PUSH1 0xA0 SHL SUB AND CALLER EQ PUSH2 0xB1B JUMPI PUSH1 0x40 MLOAD PUSH3 0x461BCD PUSH1 0xE5 SHL DUP2 MSTORE PUSH1 0x4 ADD PUSH2 0x763 SWAP1 PUSH2 0x1D8F JUMP JUMPDEST PUSH1 0x5 SLOAD PUSH1 0x40 MLOAD PUSH1 0x0 SWAP2 PUSH1 0x1 PUSH1 0x1 PUSH1 0xA0 SHL SUB AND SWAP1 PUSH32 0x8BE0079C531659141344CD1FD0A4F28419497F9722A3DAAFE3B4186F6B6457E0 SWAP1 DUP4 SWAP1 LOG3 PUSH1 0x5 DUP1 SLOAD PUSH1 0x1 PUSH1 0x1 PUSH1 0xA0 SHL SUB NOT AND SWAP1 SSTORE JUMP JUMPDEST PUSH1 0x0 PUSH2 0x731 DUP3 PUSH2 0xBCE JUMP JUMPDEST PUSH1 0x60 PUSH1 0x4 DUP1 SLOAD PUSH2 0x5D2 SWAP1 PUSH2 0x1EB2 JUMP JUMPDEST PUSH1 0x0 PUSH2 0x662 CALLER DUP5 PUSH2 0x6C6 DUP6 PUSH1 0x40 MLOAD DUP1 PUSH1 0x60 ADD PUSH1 0x40 MSTORE DUP1 PUSH1 0x25 DUP2 MSTORE PUSH1 0x20 ADD PUSH2 0x1F8F PUSH1 0x25 SWAP2 CODECOPY CALLER PUSH1 0x0 SWAP1 DUP2 MSTORE PUSH1 0x1 PUSH1 0x20 SWAP1 DUP2 MSTORE PUSH1 0x40 DUP1 DUP4 KECCAK256 PUSH1 0x1 PUSH1 0x1 PUSH1 0xA0 SHL SUB DUP14 AND DUP5 MSTORE SWAP1 SWAP2 MSTORE SWAP1 KECCAK256 SLOAD SWAP2 SWAP1 PUSH2 0x155C JUMP JUMPDEST PUSH1 0x1 PUSH1 0x1 PUSH1 0xA0 SHL SUB DUP2 AND PUSH1 0x0 SWAP1 DUP2 MSTORE PUSH1 0x9 PUSH1 0x20 MSTORE PUSH1 0x40 DUP2 KECCAK256 SLOAD PUSH2 0x731 SWAP1 PUSH2 0xBF4 DUP5 PUSH2 0x6D5 JUMP JUMPDEST SWAP1 PUSH2 0x1741 JUMP JUMPDEST PUSH1 0x0 PUSH2 0x662 CALLER DUP5 DUP5 PUSH2 0x1500 JUMP JUMPDEST PUSH1 0x5 SLOAD PUSH1 0x0 SWAP1 PUSH1 0x1 PUSH1 0x1 PUSH1 0xA0 SHL SUB AND CALLER EQ PUSH2 0xC34 JUMPI PUSH1 0x40 MLOAD PUSH3 0x461BCD PUSH1 0xE5 SHL DUP2 MSTORE PUSH1 0x4 ADD PUSH2 0x763 SWAP1 PUSH2 0x1D8F JUMP JUMPDEST PUSH1 0x0 PUSH2 0xC3F DUP5 PUSH2 0x1783 JUMP JUMPDEST SWAP1 POP DUP1 ISZERO PUSH2 0xCAB JUMPI PUSH1 0x1 PUSH1 0x1 PUSH1 0xA0 SHL SUB DUP5 AND PUSH1 0x0 DUP2 DUP2 MSTORE PUSH1 0x13 PUSH1 0x20 MSTORE PUSH1 0x40 SWAP1 DUP2 SWAP1 KECCAK256 TIMESTAMP SWAP1 SSTORE MLOAD DUP5 ISZERO ISZERO SWAP2 SWAP1 PUSH32 0xA2C38E2D2FB7E3E1912D937FD1CA11ED6D51864DEE4CFA7A7BF02BECD7ACF092 SWAP1 PUSH2 0xC99 SWAP1 DUP6 DUP2 MSTORE PUSH1 0x20 ADD SWAP1 JUMP JUMPDEST PUSH1 0x40 MLOAD DUP1 SWAP2 SUB SWAP1 LOG3 PUSH1 0x1 SWAP2 POP POP PUSH2 0x666 JUMP JUMPDEST POP PUSH1 0x0 SWAP4 SWAP3 POP POP POP JUMP JUMPDEST PUSH1 0x5 SLOAD PUSH1 0x1 PUSH1 0x1 PUSH1 0xA0 SHL SUB AND CALLER EQ PUSH2 0xCDF JUMPI PUSH1 0x40 MLOAD PUSH3 0x461BCD PUSH1 0xE5 SHL DUP2 MSTORE PUSH1 0x4 ADD PUSH2 0x763 SWAP1 PUSH2 0x1D8F JUMP JUMPDEST PUSH1 0x1 PUSH1 0x1 PUSH1 0xA0 SHL SUB DUP3 AND PUSH1 0x0 SWAP1 DUP2 MSTORE PUSH1 0x12 PUSH1 0x20 MSTORE PUSH1 0x40 SWAP1 KECCAK256 SLOAD PUSH1 0xFF AND ISZERO PUSH2 0xD05 JUMPI PUSH2 0xE39 JUMP JUMPDEST PUSH1 0x10 SLOAD PUSH1 0x1 PUSH1 0x1 PUSH1 0xA0 SHL SUB DUP4 DUP2 AND SWAP2 AND EQ ISZERO PUSH2 0xD2A JUMPI PUSH1 0x11 SLOAD PUSH1 0x1 PUSH1 0x1 PUSH1 0xA0 SHL SUB AND SWAP2 POP JUMPDEST PUSH1 0x15 SLOAD DUP2 LT PUSH2 0xDBB JUMPI PUSH2 0xD3D DUP3 DUP3 PUSH2 0x167D JUMP JUMPDEST PUSH1 0x40 MLOAD PUSH4 0x2F0AD017 PUSH1 0xE2 SHL DUP2 MSTORE PUSH1 0xB PUSH1 0x4 DUP3 ADD MSTORE PUSH1 0x1 PUSH1 0x1 PUSH1 0xA0 SHL SUB DUP4 AND PUSH1 0x24 DUP3 ADD MSTORE PUSH1 0x44 DUP2 ADD DUP3 SWAP1 MSTORE PUSH20 0x0 SWAP1 PUSH4 0xBC2B405C SWAP1 PUSH1 0x64 ADD PUSH1 0x0 PUSH1 0x40 MLOAD DUP1 DUP4 SUB DUP2 DUP7 DUP1 EXTCODESIZE ISZERO DUP1 ISZERO PUSH2 0xD9E JUMPI PUSH1 0x0 DUP1 REVERT JUMPDEST POP GAS DELEGATECALL ISZERO DUP1 ISZERO PUSH2 0xDB2 JUMPI RETURNDATASIZE PUSH1 0x0 DUP1 RETURNDATACOPY RETURNDATASIZE PUSH1 0x0 REVERT JUMPDEST POP POP POP POP PUSH2 0xE39 JUMP JUMPDEST PUSH2 0xDC6 DUP3 PUSH1 0x0 PUSH2 0x167D JUMP JUMPDEST PUSH1 0x40 MLOAD PUSH4 0x131836E7 PUSH1 0xE2 SHL DUP2 MSTORE PUSH1 0xB PUSH1 0x4 DUP3 ADD MSTORE PUSH1 0x1 PUSH1 0x1 PUSH1 0xA0 SHL SUB DUP4 AND PUSH1 0x24 DUP3 ADD MSTORE PUSH20 0x0 SWAP1 PUSH4 0x4C60DB9C SWAP1 PUSH1 0x44 ADD PUSH1 0x0 PUSH1 0x40 MLOAD DUP1 DUP4 SUB DUP2 DUP7 DUP1 EXTCODESIZE ISZERO DUP1 ISZERO PUSH2 0xE20 JUMPI PUSH1 0x0 DUP1 REVERT JUMPDEST POP GAS DELEGATECALL ISZERO DUP1 ISZERO PUSH2 0xE34 JUMPI RETURNDATASIZE PUSH1 0x0 DUP1 RETURNDATACOPY RETURNDATASIZE PUSH1 0x0 REVERT JUMPDEST POP POP POP POP JUMPDEST POP POP JUMP JUMPDEST PUSH1 0x5 SLOAD PUSH1 0x1 PUSH1 0x1 PUSH1 0xA0 SHL SUB AND CALLER EQ PUSH2 0xE67 JUMPI PUSH1 0x40 MLOAD PUSH3 0x461BCD PUSH1 0xE5 SHL DUP2 MSTORE PUSH1 0x4 ADD PUSH2 0x763 SWAP1 PUSH2 0x1D8F JUMP JUMPDEST PUSH3 0x15180 DUP2 GT ISZERO PUSH2 0xEEE JUMPI PUSH1 0x40 MLOAD PUSH3 0x461BCD PUSH1 0xE5 SHL DUP2 MSTORE PUSH1 0x20 PUSH1 0x4 DUP3 ADD MSTORE PUSH1 0x45 PUSH1 0x24 DUP3 ADD MSTORE PUSH32 0x4469766964656E645F547261636B65723A20636C61696D57616974206D757374 PUSH1 0x44 DUP3 ADD MSTORE PUSH32 0x206265207570646174656420746F206265747765656E203020616E6420323420 PUSH1 0x64 DUP3 ADD MSTORE PUSH5 0x686F757273 PUSH1 0xD8 SHL PUSH1 0x84 DUP3 ADD MSTORE PUSH1 0xA4 ADD PUSH2 0x763 JUMP JUMPDEST PUSH1 0x14 SLOAD DUP2 EQ ISZERO PUSH2 0xF66 JUMPI PUSH1 0x40 MLOAD PUSH3 0x461BCD PUSH1 0xE5 SHL DUP2 MSTORE PUSH1 0x20 PUSH1 0x4 DUP3 ADD MSTORE PUSH1 0x37 PUSH1 0x24 DUP3 ADD MSTORE PUSH32 0x4469766964656E645F547261636B65723A2043616E6E6F742075706461746520 PUSH1 0x44 DUP3 ADD MSTORE PUSH32 0x636C61696D5761697420746F2073616D652076616C7565000000000000000000 PUSH1 0x64 DUP3 ADD MSTORE PUSH1 0x84 ADD PUSH2 0x763 JUMP JUMPDEST PUSH1 0x14 SLOAD PUSH1 0x40 MLOAD DUP3 SWAP1 PUSH32 0x474EA64804364A1E29A4487DDB63C3342A2DD826CCD8ACF48825E680A0E6F20F SWAP1 PUSH1 0x0 SWAP1 LOG3 PUSH1 0x14 SSTORE JUMP JUMPDEST PUSH1 0x5 SLOAD PUSH1 0x1 PUSH1 0x1 PUSH1 0xA0 SHL SUB AND CALLER EQ PUSH2 0xFC3 JUMPI PUSH1 0x40 MLOAD PUSH3 0x461BCD PUSH1 0xE5 SHL DUP2 MSTORE PUSH1 0x4 ADD PUSH2 0x763 SWAP1 PUSH2 0x1D8F JUMP JUMPDEST PUSH1 0x0 PUSH2 0xFCE PUSH1 0x2 SLOAD SWAP1 JUMP JUMPDEST SWAP1 POP DUP1 PUSH2 0xFD9 JUMPI POP PUSH1 0x1 JUMPDEST DUP2 ISZERO PUSH2 0xE39 JUMPI PUSH2 0x1004 DUP2 PUSH2 0xFF1 DUP5 PUSH1 0x1 PUSH1 0x80 SHL PUSH2 0x1596 JUMP JUMPDEST PUSH2 0xFFB SWAP2 SWAP1 PUSH2 0x1E1D JUMP JUMPDEST PUSH1 0x7 SLOAD SWAP1 PUSH2 0x16E2 JUMP JUMPDEST PUSH1 0x7 SSTORE PUSH1 0x40 MLOAD DUP3 DUP2 MSTORE CALLER SWAP1 PUSH32 0xA493A9229478C3FCD73F66D2CDEB7F94FD0F341DA924D1054236D78454116511 SWAP1 PUSH1 0x20 ADD PUSH1 0x40 MLOAD DUP1 SWAP2 SUB SWAP1 LOG2 PUSH1 0xA SLOAD PUSH2 0x1049 SWAP1 DUP4 PUSH2 0x16E2 JUMP JUMPDEST PUSH1 0xA SSTORE POP POP JUMP JUMPDEST PUSH1 0x5 SLOAD PUSH1 0x1 PUSH1 0x1 PUSH1 0xA0 SHL SUB AND CALLER EQ PUSH2 0x107A JUMPI PUSH1 0x40 MLOAD PUSH3 0x461BCD PUSH1 0xE5 SHL DUP2 MSTORE PUSH1 0x4 ADD PUSH2 0x763 SWAP1 PUSH2 0x1D8F JUMP JUMPDEST PUSH1 0x1 PUSH1 0x1 PUSH1 0xA0 SHL SUB DUP2 AND PUSH2 0x10DF JUMPI PUSH1 0x40 MLOAD PUSH3 0x461BCD PUSH1 0xE5 SHL DUP2 MSTORE PUSH1 0x20 PUSH1 0x4 DUP3 ADD MSTORE PUSH1 0x26 PUSH1 0x24 DUP3 ADD MSTORE PUSH32 0x4F776E61626C653A206E6577206F776E657220697320746865207A65726F2061 PUSH1 0x44 DUP3 ADD MSTORE PUSH6 0x646472657373 PUSH1 0xD0 SHL PUSH1 0x64 DUP3 ADD MSTORE PUSH1 0x84 ADD PUSH2 0x763 JUMP JUMPDEST PUSH1 0x5 SLOAD PUSH1 0x40 MLOAD PUSH1 0x1 PUSH1 0x1 PUSH1 0xA0 SHL SUB DUP1 DUP5 AND SWAP3 AND SWAP1 PUSH32 0x8BE0079C531659141344CD1FD0A4F28419497F9722A3DAAFE3B4186F6B6457E0 SWAP1 PUSH1 0x0 SWAP1 LOG3 PUSH1 0x5 DUP1 SLOAD PUSH1 0x1 PUSH1 0x1 PUSH1 0xA0 SHL SUB NOT AND PUSH1 0x1 PUSH1 0x1 PUSH1 0xA0 SHL SUB SWAP3 SWAP1 SWAP3 AND SWAP2 SWAP1 SWAP2 OR SWAP1 SSTORE JUMP JUMPDEST PUSH1 0x40 MLOAD PUSH4 0x17E142D1 PUSH1 0xE0 SHL DUP2 MSTORE PUSH1 0xB PUSH1 0x4 DUP3 ADD MSTORE PUSH1 0x1 PUSH1 0x1 PUSH1 0xA0 SHL SUB DUP3 AND PUSH1 0x24 DUP3 ADD MSTORE DUP2 SWAP1 PUSH1 0x0 SWAP1 DUP2 SWAP1 DUP2 SWAP1 DUP2 SWAP1 DUP2 SWAP1 DUP2 SWAP1 DUP2 SWAP1 PUSH20 0x0 SWAP1 PUSH4 0x17E142D1 SWAP1 PUSH1 0x44 ADD PUSH1 0x20 PUSH1 0x40 MLOAD DUP1 DUP4 SUB DUP2 DUP7 DUP1 EXTCODESIZE ISZERO DUP1 ISZERO PUSH2 0x11A6 JUMPI PUSH1 0x0 DUP1 REVERT JUMPDEST POP GAS DELEGATECALL ISZERO DUP1 ISZERO PUSH2 0x11BA JUMPI RETURNDATASIZE PUSH1 0x0 DUP1 RETURNDATACOPY RETURNDATASIZE PUSH1 0x0 REVERT JUMPDEST POP POP POP POP PUSH1 0x40 MLOAD RETURNDATASIZE PUSH1 0x1F NOT PUSH1 0x1F DUP3 ADD AND DUP3 ADD DUP1 PUSH1 0x40 MSTORE POP DUP2 ADD SWAP1 PUSH2 0x11DE SWAP2 SWAP1 PUSH2 0x1D0C JUMP JUMPDEST SWAP7 POP PUSH1 0x0 NOT SWAP6 POP PUSH1 0x0 DUP8 SLT PUSH2 0x1240 JUMPI PUSH1 0xF SLOAD DUP8 GT ISZERO PUSH2 0x120C JUMPI PUSH1 0xF SLOAD PUSH2 0x1205 SWAP1 DUP9 SWAP1 PUSH2 0x18F9 JUMP JUMPDEST SWAP6 POP PUSH2 0x1240 JUMP JUMPDEST PUSH1 0xF SLOAD PUSH1 0xB SLOAD PUSH1 0x0 SWAP2 LT PUSH2 0x1221 JUMPI PUSH1 0x0 PUSH2 0x1230 JUMP JUMPDEST PUSH1 0xF SLOAD PUSH1 0xB SLOAD PUSH2 0x1230 SWAP2 PUSH2 0x1741 JUMP JUMPDEST SWAP1 POP PUSH2 0x123C DUP9 DUP3 PUSH2 0x162C JUMP JUMPDEST SWAP7 POP POP JUMPDEST PUSH2 0x1249 DUP9 PUSH2 0xBCE JUMP JUMPDEST SWAP5 POP PUSH2 0x1254 DUP9 PUSH2 0x6D5 JUMP JUMPDEST PUSH1 0x1 PUSH1 0x1 PUSH1 0xA0 SHL SUB DUP10 AND PUSH1 0x0 SWAP1 DUP2 MSTORE PUSH1 0x13 PUSH1 0x20 MSTORE PUSH1 0x40 SWAP1 KECCAK256 SLOAD SWAP1 SWAP5 POP SWAP3 POP DUP3 PUSH2 0x127E JUMPI PUSH1 0x0 PUSH2 0x128C JUMP JUMPDEST PUSH1 0x14 SLOAD PUSH2 0x128C SWAP1 DUP5 SWAP1 PUSH2 0x16E2 JUMP JUMPDEST SWAP2 POP TIMESTAMP DUP3 GT PUSH2 0x129C JUMPI PUSH1 0x0 PUSH2 0x12A6 JUMP JUMPDEST PUSH2 0x12A6 DUP3 TIMESTAMP PUSH2 0x1741 JUMP JUMPDEST SWAP1 POP SWAP2 SWAP4 SWAP6 SWAP8 POP SWAP2 SWAP4 SWAP6 SWAP8 JUMP JUMPDEST PUSH1 0xB SLOAD PUSH1 0x0 SWAP1 DUP2 SWAP1 DUP2 SWAP1 DUP1 PUSH2 0x12D3 JUMPI POP POP PUSH1 0xF SLOAD PUSH1 0x0 SWAP3 POP DUP3 SWAP2 POP PUSH2 0x13D5 JUMP JUMPDEST PUSH1 0xF SLOAD PUSH1 0x0 DUP1 GAS SWAP1 POP PUSH1 0x0 DUP1 JUMPDEST DUP10 DUP5 LT DUP1 ISZERO PUSH2 0x12EE JUMPI POP DUP6 DUP3 LT JUMPDEST ISZERO PUSH2 0x13C4 JUMPI DUP5 PUSH2 0x12FD DUP2 PUSH2 0x1EED JUMP JUMPDEST PUSH1 0xB SLOAD SWAP1 SWAP7 POP DUP7 LT SWAP1 POP PUSH2 0x1310 JUMPI PUSH1 0x0 SWAP5 POP JUMPDEST PUSH1 0x0 PUSH1 0xB PUSH1 0x0 ADD DUP7 DUP2 SLOAD DUP2 LT PUSH2 0x1336 JUMPI PUSH4 0x4E487B71 PUSH1 0xE0 SHL PUSH1 0x0 MSTORE PUSH1 0x32 PUSH1 0x4 MSTORE PUSH1 0x24 PUSH1 0x0 REVERT JUMPDEST PUSH1 0x0 SWAP2 DUP3 MSTORE PUSH1 0x20 DUP1 DUP4 KECCAK256 SWAP1 SWAP2 ADD SLOAD PUSH1 0x1 PUSH1 0x1 PUSH1 0xA0 SHL SUB AND DUP1 DUP4 MSTORE PUSH1 0x13 SWAP1 SWAP2 MSTORE PUSH1 0x40 SWAP1 SWAP2 KECCAK256 SLOAD SWAP1 SWAP2 POP PUSH2 0x1367 SWAP1 PUSH2 0x1936 JUMP JUMPDEST ISZERO PUSH2 0x138A JUMPI PUSH2 0x1377 DUP2 PUSH1 0x1 PUSH2 0xC07 JUMP JUMPDEST ISZERO PUSH2 0x138A JUMPI DUP2 PUSH2 0x1386 DUP2 PUSH2 0x1EED JUMP JUMPDEST SWAP3 POP POP JUMPDEST DUP3 PUSH2 0x1394 DUP2 PUSH2 0x1EED JUMP JUMPDEST SWAP4 POP POP PUSH1 0x0 GAS SWAP1 POP DUP1 DUP6 GT ISZERO PUSH2 0x13BB JUMPI PUSH2 0x13B8 PUSH2 0x13B1 DUP7 DUP4 PUSH2 0x1741 JUMP JUMPDEST DUP8 SWAP1 PUSH2 0x16E2 JUMP JUMPDEST SWAP6 POP JUMPDEST SWAP4 POP PUSH2 0x12E0 SWAP1 POP JUMP JUMPDEST PUSH1 0xF DUP6 SWAP1 SSTORE SWAP1 SWAP8 POP SWAP6 POP SWAP2 SWAP4 POP POP POP POP JUMPDEST SWAP2 SWAP4 SWAP1 SWAP3 POP JUMP JUMPDEST PUSH1 0x1 PUSH1 0x1 PUSH1 0xA0 SHL SUB DUP4 AND PUSH2 0x143E JUMPI PUSH1 0x40 MLOAD PUSH3 0x461BCD PUSH1 0xE5 SHL DUP2 MSTORE PUSH1 0x20 PUSH1 0x4 DUP3 ADD MSTORE PUSH1 0x24 DUP1 DUP3 ADD MSTORE PUSH32 0x45524332303A20617070726F76652066726F6D20746865207A65726F20616464 PUSH1 0x44 DUP3 ADD MSTORE PUSH4 0x72657373 PUSH1 0xE0 SHL PUSH1 0x64 DUP3 ADD MSTORE PUSH1 0x84 ADD PUSH2 0x763 JUMP JUMPDEST PUSH1 0x1 PUSH1 0x1 PUSH1 0xA0 SHL SUB DUP3 AND PUSH2 0x149F JUMPI PUSH1 0x40 MLOAD PUSH3 0x461BCD PUSH1 0xE5 SHL DUP2 MSTORE PUSH1 0x20 PUSH1 0x4 DUP3 ADD MSTORE PUSH1 0x22 PUSH1 0x24 DUP3 ADD MSTORE PUSH32 0x45524332303A20617070726F766520746F20746865207A65726F206164647265 PUSH1 0x44 DUP3 ADD MSTORE PUSH2 0x7373 PUSH1 0xF0 SHL PUSH1 0x64 DUP3 ADD MSTORE PUSH1 0x84 ADD PUSH2 0x763 JUMP JUMPDEST PUSH1 0x1 PUSH1 0x1 PUSH1 0xA0 SHL SUB DUP4 DUP2 AND PUSH1 0x0 DUP2 DUP2 MSTORE PUSH1 0x1 PUSH1 0x20 SWAP1 DUP2 MSTORE PUSH1 0x40 DUP1 DUP4 KECCAK256 SWAP5 DUP8 AND DUP1 DUP5 MSTORE SWAP5 DUP3 MSTORE SWAP2 DUP3 SWAP1 KECCAK256 DUP6 SWAP1 SSTORE SWAP1 MLOAD DUP5 DUP2 MSTORE PUSH32 0x8C5BE1E5EBEC7D5BD14F71427D1E84F3DD0314C0F7B2291E5B200AC8C7C3B925 SWAP2 ADD PUSH1 0x40 MLOAD DUP1 SWAP2 SUB SWAP1 LOG3 POP POP POP JUMP JUMPDEST PUSH1 0x40 MLOAD PUSH3 0x461BCD PUSH1 0xE5 SHL DUP2 MSTORE PUSH1 0x20 PUSH1 0x4 DUP3 ADD MSTORE PUSH1 0x26 PUSH1 0x24 DUP3 ADD MSTORE PUSH32 0x4469766964656E645F547261636B65723A204E6F207472616E73666572732061 PUSH1 0x44 DUP3 ADD MSTORE PUSH6 0x1B1B1BDDD959 PUSH1 0xD2 SHL PUSH1 0x64 DUP3 ADD MSTORE PUSH1 0x84 ADD PUSH2 0x763 JUMP JUMPDEST POP POP POP JUMP JUMPDEST PUSH1 0x0 DUP2 DUP5 DUP5 GT ISZERO PUSH2 0x1580 JUMPI PUSH1 0x40 MLOAD PUSH3 0x461BCD PUSH1 0xE5 SHL DUP2 MSTORE PUSH1 0x4 ADD PUSH2 0x763 SWAP2 SWAP1 PUSH2 0x1D3C JUMP JUMPDEST POP PUSH1 0x0 PUSH2 0x158D DUP5 DUP7 PUSH2 0x1E9B JUMP JUMPDEST SWAP6 SWAP5 POP POP POP POP POP JUMP JUMPDEST PUSH1 0x0 DUP3 PUSH2 0x15A5 JUMPI POP PUSH1 0x0 PUSH2 0x666 JUMP JUMPDEST PUSH1 0x0 PUSH2 0x15B1 DUP4 DUP6 PUSH2 0x1E3D JUMP JUMPDEST SWAP1 POP DUP3 PUSH2 0x15BE DUP6 DUP4 PUSH2 0x1E1D JUMP JUMPDEST EQ PUSH2 0x1615 JUMPI PUSH1 0x40 MLOAD PUSH3 0x461BCD PUSH1 0xE5 SHL DUP2 MSTORE PUSH1 0x20 PUSH1 0x4 DUP3 ADD MSTORE PUSH1 0x21 PUSH1 0x24 DUP3 ADD MSTORE PUSH32 0x536166654D6174683A206D756C7469706C69636174696F6E206F766572666C6F PUSH1 0x44 DUP3 ADD MSTORE PUSH1 0x77 PUSH1 0xF8 SHL PUSH1 0x64 DUP3 ADD MSTORE PUSH1 0x84 ADD PUSH2 0x763 JUMP JUMPDEST SWAP4 SWAP3 POP POP POP JUMP JUMPDEST PUSH1 0x0 DUP2 DUP2 DUP2 SLT ISZERO PUSH2 0x731 JUMPI PUSH1 0x0 DUP1 REVERT JUMPDEST PUSH1 0x0 DUP1 PUSH2 0x1639 DUP4 DUP6 PUSH2 0x1DC4 JUMP JUMPDEST SWAP1 POP PUSH1 0x0 DUP4 SLT ISZERO DUP1 ISZERO PUSH2 0x164C JUMPI POP DUP4 DUP2 SLT ISZERO JUMPDEST DUP1 PUSH2 0x1661 JUMPI POP PUSH1 0x0 DUP4 SLT DUP1 ISZERO PUSH2 0x1661 JUMPI POP DUP4 DUP2 SLT JUMPDEST PUSH2 0x1615 JUMPI PUSH1 0x0 DUP1 REVERT JUMPDEST PUSH1 0x0 DUP1 DUP3 SLT ISZERO PUSH2 0x1679 JUMPI PUSH1 0x0 DUP1 REVERT JUMPDEST POP SWAP1 JUMP JUMPDEST PUSH1 0x1 PUSH1 0x1 PUSH1 0xA0 SHL SUB DUP3 AND PUSH1 0x0 SWAP1 DUP2 MSTORE PUSH1 0x20 DUP2 SWAP1 MSTORE PUSH1 0x40 SWAP1 KECCAK256 SLOAD DUP1 DUP3 GT ISZERO PUSH2 0x16BC JUMPI PUSH1 0x0 PUSH2 0x16AA DUP4 DUP4 PUSH2 0x1741 JUMP JUMPDEST SWAP1 POP PUSH2 0x16B6 DUP5 DUP3 PUSH2 0x195D JUMP JUMPDEST POP PUSH2 0x1557 JUMP JUMPDEST DUP1 DUP3 LT ISZERO PUSH2 0x1557 JUMPI PUSH1 0x0 PUSH2 0x16D0 DUP3 DUP5 PUSH2 0x1741 JUMP JUMPDEST SWAP1 POP PUSH2 0x16DC DUP5 DUP3 PUSH2 0x19C1 JUMP JUMPDEST POP POP POP POP JUMP JUMPDEST PUSH1 0x0 DUP1 PUSH2 0x16EF DUP4 DUP6 PUSH2 0x1E05 JUMP JUMPDEST SWAP1 POP DUP4 DUP2 LT ISZERO PUSH2 0x1615 JUMPI PUSH1 0x40 MLOAD PUSH3 0x461BCD PUSH1 0xE5 SHL DUP2 MSTORE PUSH1 0x20 PUSH1 0x4 DUP3 ADD MSTORE PUSH1 0x1B PUSH1 0x24 DUP3 ADD MSTORE PUSH32 0x536166654D6174683A206164646974696F6E206F766572666C6F770000000000 PUSH1 0x44 DUP3 ADD MSTORE PUSH1 0x64 ADD PUSH2 0x763 JUMP JUMPDEST PUSH1 0x0 PUSH2 0x1615 DUP4 DUP4 PUSH1 0x40 MLOAD DUP1 PUSH1 0x40 ADD PUSH1 0x40 MSTORE DUP1 PUSH1 0x1E DUP2 MSTORE PUSH1 0x20 ADD PUSH32 0x536166654D6174683A207375627472616374696F6E206F766572666C6F770000 DUP2 MSTORE POP PUSH2 0x155C JUMP JUMPDEST PUSH1 0x0 DUP1 PUSH2 0x178F DUP4 PUSH2 0xBCE JUMP JUMPDEST SWAP1 POP DUP1 ISZERO PUSH2 0x18F0 JUMPI PUSH1 0x1 PUSH1 0x1 PUSH1 0xA0 SHL SUB DUP4 AND PUSH1 0x0 SWAP1 DUP2 MSTORE PUSH1 0x9 PUSH1 0x20 MSTORE PUSH1 0x40 SWAP1 KECCAK256 SLOAD PUSH2 0x17BA SWAP1 DUP3 PUSH2 0x16E2 JUMP JUMPDEST PUSH1 0x1 PUSH1 0x1 PUSH1 0xA0 SHL SUB DUP5 AND PUSH1 0x0 DUP2 DUP2 MSTORE PUSH1 0x9 PUSH1 0x20 MSTORE PUSH1 0x40 SWAP1 DUP2 SWAP1 KECCAK256 SWAP3 SWAP1 SWAP3 SSTORE SWAP1 MLOAD PUSH32 0xEE503BEE2BB6A87E57BC57DB795F98137327401A0E7B7CE42E37926CC1A9CA4D SWAP1 PUSH2 0x1809 SWAP1 DUP5 DUP2 MSTORE PUSH1 0x20 ADD SWAP1 JUMP JUMPDEST PUSH1 0x40 MLOAD DUP1 SWAP2 SUB SWAP1 LOG2 PUSH1 0x6 SLOAD PUSH1 0x40 MLOAD PUSH4 0xA9059CBB PUSH1 0xE0 SHL DUP2 MSTORE PUSH1 0x1 PUSH1 0x1 PUSH1 0xA0 SHL SUB DUP6 DUP2 AND PUSH1 0x4 DUP4 ADD MSTORE PUSH1 0x24 DUP3 ADD DUP5 SWAP1 MSTORE PUSH1 0x0 SWAP3 AND SWAP1 PUSH4 0xA9059CBB SWAP1 PUSH1 0x44 ADD PUSH1 0x20 PUSH1 0x40 MLOAD DUP1 DUP4 SUB DUP2 PUSH1 0x0 DUP8 DUP1 EXTCODESIZE ISZERO DUP1 ISZERO PUSH2 0x1860 JUMPI PUSH1 0x0 DUP1 REVERT JUMPDEST POP GAS CALL ISZERO DUP1 ISZERO PUSH2 0x1874 JUMPI RETURNDATASIZE PUSH1 0x0 DUP1 RETURNDATACOPY RETURNDATASIZE PUSH1 0x0 REVERT JUMPDEST POP POP POP POP PUSH1 0x40 MLOAD RETURNDATASIZE PUSH1 0x1F NOT PUSH1 0x1F DUP3 ADD AND DUP3 ADD DUP1 PUSH1 0x40 MSTORE POP DUP2 ADD SWAP1 PUSH2 0x1898 SWAP2 SWAP1 PUSH2 0x1CF0 JUMP JUMPDEST SWAP1 POP DUP1 PUSH2 0x18E8 JUMPI PUSH1 0x1 PUSH1 0x1 PUSH1 0xA0 SHL SUB DUP5 AND PUSH1 0x0 SWAP1 DUP2 MSTORE PUSH1 0x9 PUSH1 0x20 MSTORE PUSH1 0x40 SWAP1 KECCAK256 SLOAD PUSH2 0x18C2 SWAP1 DUP4 PUSH2 0x1741 JUMP JUMPDEST PUSH1 0x1 PUSH1 0x1 PUSH1 0xA0 SHL SUB DUP6 AND PUSH1 0x0 SWAP1 DUP2 MSTORE PUSH1 0x9 PUSH1 0x20 MSTORE PUSH1 0x40 DUP2 KECCAK256 SWAP2 SWAP1 SWAP2 SSTORE SWAP3 POP PUSH2 0x734 SWAP2 POP POP JUMP JUMPDEST POP SWAP1 POP PUSH2 0x734 JUMP JUMPDEST POP PUSH1 0x0 SWAP3 SWAP2 POP POP JUMP JUMPDEST PUSH1 0x0 DUP1 PUSH2 0x1906 DUP4 DUP6 PUSH2 0x1E5C JUMP JUMPDEST SWAP1 POP PUSH1 0x0 DUP4 SLT ISZERO DUP1 ISZERO PUSH2 0x1919 JUMPI POP DUP4 DUP2 SGT ISZERO JUMPDEST DUP1 PUSH2 0x1661 JUMPI POP PUSH1 0x0 DUP4 SLT DUP1 ISZERO PUSH2 0x1661 JUMPI POP DUP4 DUP2 SGT PUSH2 0x1615 JUMPI PUSH1 0x0 DUP1 REVERT JUMPDEST PUSH1 0x0 TIMESTAMP DUP3 GT ISZERO PUSH2 0x1948 JUMPI POP PUSH1 0x0 PUSH2 0x734 JUMP JUMPDEST PUSH1 0x14 SLOAD PUSH2 0x1955 TIMESTAMP DUP5 PUSH2 0x1741 JUMP JUMPDEST LT ISZERO SWAP3 SWAP2 POP POP JUMP JUMPDEST PUSH2 0x1967 DUP3 DUP3 PUSH2 0x1A05 JUMP JUMPDEST PUSH2 0x19A1 PUSH2 0x1982 PUSH2 0x717 DUP4 PUSH1 0x7 SLOAD PUSH2 0x1596 SWAP1 SWAP2 SWAP1 PUSH4 0xFFFFFFFF AND JUMP JUMPDEST PUSH1 0x1 PUSH1 0x1 PUSH1 0xA0 SHL SUB DUP5 AND PUSH1 0x0 SWAP1 DUP2 MSTORE PUSH1 0x8 PUSH1 0x20 MSTORE PUSH1 0x40 SWAP1 KECCAK256 SLOAD SWAP1 PUSH2 0x18F9 JUMP JUMPDEST PUSH1 0x1 PUSH1 0x1 PUSH1 0xA0 SHL SUB SWAP1 SWAP3 AND PUSH1 0x0 SWAP1 DUP2 MSTORE PUSH1 0x8 PUSH1 0x20 MSTORE PUSH1 0x40 SWAP1 KECCAK256 SWAP2 SWAP1 SWAP2 SSTORE POP JUMP JUMPDEST PUSH2 0x19CB DUP3 DUP3 PUSH2 0x1AE4 JUMP JUMPDEST PUSH2 0x19A1 PUSH2 0x19E6 PUSH2 0x717 DUP4 PUSH1 0x7 SLOAD PUSH2 0x1596 SWAP1 SWAP2 SWAP1 PUSH4 0xFFFFFFFF AND JUMP JUMPDEST PUSH1 0x1 PUSH1 0x1 PUSH1 0xA0 SHL SUB DUP5 AND PUSH1 0x0 SWAP1 DUP2 MSTORE PUSH1 0x8 PUSH1 0x20 MSTORE PUSH1 0x40 SWAP1 KECCAK256 SLOAD SWAP1 PUSH2 0x162C JUMP JUMPDEST PUSH1 0x1 PUSH1 0x1 PUSH1 0xA0 SHL SUB DUP3 AND PUSH2 0x1A5B JUMPI PUSH1 0x40 MLOAD PUSH3 0x461BCD PUSH1 0xE5 SHL DUP2 MSTORE PUSH1 0x20 PUSH1 0x4 DUP3 ADD MSTORE PUSH1 0x1F PUSH1 0x24 DUP3 ADD MSTORE PUSH32 0x45524332303A206D696E7420746F20746865207A65726F206164647265737300 PUSH1 0x44 DUP3 ADD MSTORE PUSH1 0x64 ADD PUSH2 0x763 JUMP JUMPDEST PUSH1 0x2 SLOAD PUSH2 0x1A68 SWAP1 DUP3 PUSH2 0x16E2 JUMP JUMPDEST PUSH1 0x2 SSTORE PUSH1 0x1 PUSH1 0x1 PUSH1 0xA0 SHL SUB DUP3 AND PUSH1 0x0 SWAP1 DUP2 MSTORE PUSH1 0x20 DUP2 SWAP1 MSTORE PUSH1 0x40 SWAP1 KECCAK256 SLOAD PUSH2 0x1A8E SWAP1 DUP3 PUSH2 0x16E2 JUMP JUMPDEST PUSH1 0x1 PUSH1 0x1 PUSH1 0xA0 SHL SUB DUP4 AND PUSH1 0x0 DUP2 DUP2 MSTORE PUSH1 0x20 DUP2 DUP2 MSTORE PUSH1 0x40 DUP1 DUP4 KECCAK256 SWAP5 SWAP1 SWAP5 SSTORE SWAP3 MLOAD DUP5 DUP2 MSTORE SWAP2 SWAP3 SWAP1 SWAP2 PUSH32 0xDDF252AD1BE2C89B69C2B068FC378DAA952BA7F163C4A11628F55A4DF523B3EF SWAP2 ADD JUMPDEST PUSH1 0x40 MLOAD DUP1 SWAP2 SUB SWAP1 LOG3 POP POP JUMP JUMPDEST PUSH1 0x1 PUSH1 0x1 PUSH1 0xA0 SHL SUB DUP3 AND PUSH2 0x1B44 JUMPI PUSH1 0x40 MLOAD PUSH3 0x461BCD PUSH1 0xE5 SHL DUP2 MSTORE PUSH1 0x20 PUSH1 0x4 DUP3 ADD MSTORE PUSH1 0x21 PUSH1 0x24 DUP3 ADD MSTORE PUSH32 0x45524332303A206275726E2066726F6D20746865207A65726F20616464726573 PUSH1 0x44 DUP3 ADD MSTORE PUSH1 0x73 PUSH1 0xF8 SHL PUSH1 0x64 DUP3 ADD MSTORE PUSH1 0x84 ADD PUSH2 0x763 JUMP JUMPDEST PUSH2 0x1B81 DUP2 PUSH1 0x40 MLOAD DUP1 PUSH1 0x60 ADD PUSH1 0x40 MSTORE DUP1 PUSH1 0x22 DUP2 MSTORE PUSH1 0x20 ADD PUSH2 0x1F45 PUSH1 0x22 SWAP2 CODECOPY PUSH1 0x1 PUSH1 0x1 PUSH1 0xA0 SHL SUB DUP6 AND PUSH1 0x0 SWAP1 DUP2 MSTORE PUSH1 0x20 DUP2 SWAP1 MSTORE PUSH1 0x40 SWAP1 KECCAK256 SLOAD SWAP2 SWAP1 PUSH2 0x155C JUMP JUMPDEST PUSH1 0x1 PUSH1 0x1 PUSH1 0xA0 SHL SUB DUP4 AND PUSH1 0x0 SWAP1 DUP2 MSTORE PUSH1 0x20 DUP2 SWAP1 MSTORE PUSH1 0x40 SWAP1 KECCAK256 SSTORE PUSH1 0x2 SLOAD PUSH2 0x1BA7 SWAP1 DUP3 PUSH2 0x1741 JUMP JUMPDEST PUSH1 0x2 SSTORE PUSH1 0x40 MLOAD DUP2 DUP2 MSTORE PUSH1 0x0 SWAP1 PUSH1 0x1 PUSH1 0x1 PUSH1 0xA0 SHL SUB DUP5 AND SWAP1 PUSH32 0xDDF252AD1BE2C89B69C2B068FC378DAA952BA7F163C4A11628F55A4DF523B3EF SWAP1 PUSH1 0x20 ADD PUSH2 0x1AD8 JUMP JUMPDEST PUSH1 0x0 PUSH1 0x20 DUP3 DUP5 SUB SLT ISZERO PUSH2 0x1BF9 JUMPI DUP1 DUP2 REVERT JUMPDEST DUP2 CALLDATALOAD PUSH2 0x1615 DUP2 PUSH2 0x1F1E JUMP JUMPDEST PUSH1 0x0 PUSH1 0x20 DUP3 DUP5 SUB SLT ISZERO PUSH2 0x1C15 JUMPI DUP1 DUP2 REVERT JUMPDEST DUP2 MLOAD PUSH2 0x1615 DUP2 PUSH2 0x1F1E JUMP JUMPDEST PUSH1 0x0 DUP1 PUSH1 0x40 DUP4 DUP6 SUB SLT ISZERO PUSH2 0x1C32 JUMPI DUP1 DUP2 REVERT JUMPDEST DUP3 CALLDATALOAD PUSH2 0x1C3D DUP2 PUSH2 0x1F1E JUMP JUMPDEST SWAP2 POP PUSH1 0x20 DUP4 ADD CALLDATALOAD PUSH2 0x1C4D DUP2 PUSH2 0x1F1E JUMP JUMPDEST DUP1 SWAP2 POP POP SWAP3 POP SWAP3 SWAP1 POP JUMP JUMPDEST PUSH1 0x0 DUP1 PUSH1 0x0 PUSH1 0x60 DUP5 DUP7 SUB SLT ISZERO PUSH2 0x1C6C JUMPI DUP1 DUP2 REVERT JUMPDEST DUP4 CALLDATALOAD PUSH2 0x1C77 DUP2 PUSH2 0x1F1E JUMP JUMPDEST SWAP3 POP PUSH1 0x20 DUP5 ADD CALLDATALOAD PUSH2 0x1C87 DUP2 PUSH2 0x1F1E JUMP JUMPDEST SWAP3 SWAP6 SWAP3 SWAP5 POP POP POP PUSH1 0x40 SWAP2 SWAP1 SWAP2 ADD CALLDATALOAD SWAP1 JUMP JUMPDEST PUSH1 0x0 DUP1 PUSH1 0x40 DUP4 DUP6 SUB SLT ISZERO PUSH2 0x1CAA JUMPI DUP2 DUP3 REVERT JUMPDEST DUP3 CALLDATALOAD PUSH2 0x1CB5 DUP2 PUSH2 0x1F1E JUMP JUMPDEST SWAP2 POP PUSH1 0x20 DUP4 ADD CALLDATALOAD PUSH2 0x1C4D DUP2 PUSH2 0x1F36 JUMP JUMPDEST PUSH1 0x0 DUP1 PUSH1 0x40 DUP4 DUP6 SUB SLT ISZERO PUSH2 0x1CD7 JUMPI DUP2 DUP3 REVERT JUMPDEST DUP3 CALLDATALOAD PUSH2 0x1CE2 DUP2 PUSH2 0x1F1E JUMP JUMPDEST SWAP5 PUSH1 0x20 SWAP4 SWAP1 SWAP4 ADD CALLDATALOAD SWAP4 POP POP POP JUMP JUMPDEST PUSH1 0x0 PUSH1 0x20 DUP3 DUP5 SUB SLT ISZERO PUSH2 0x1D01 JUMPI DUP1 DUP2 REVERT JUMPDEST DUP2 MLOAD PUSH2 0x1615 DUP2 PUSH2 0x1F36 JUMP JUMPDEST PUSH1 0x0 PUSH1 0x20 DUP3 DUP5 SUB SLT ISZERO PUSH2 0x1D1D JUMPI DUP1 DUP2 REVERT JUMPDEST POP MLOAD SWAP2 SWAP1 POP JUMP JUMPDEST PUSH1 0x0 PUSH1 0x20 DUP3 DUP5 SUB SLT ISZERO PUSH2 0x1D35 JUMPI DUP1 DUP2 REVERT JUMPDEST POP CALLDATALOAD SWAP2 SWAP1 POP JUMP JUMPDEST PUSH1 0x0 PUSH1 0x20 DUP1 DUP4 MSTORE DUP4 MLOAD DUP1 DUP3 DUP6 ADD MSTORE DUP3 JUMPDEST DUP2 DUP2 LT ISZERO PUSH2 0x1D68 JUMPI DUP6 DUP2 ADD DUP4 ADD MLOAD DUP6 DUP3 ADD PUSH1 0x40 ADD MSTORE DUP3 ADD PUSH2 0x1D4C JUMP JUMPDEST DUP2 DUP2 GT ISZERO PUSH2 0x1D79 JUMPI DUP4 PUSH1 0x40 DUP4 DUP8 ADD ADD MSTORE JUMPDEST POP PUSH1 0x1F ADD PUSH1 0x1F NOT AND SWAP3 SWAP1 SWAP3 ADD PUSH1 0x40 ADD SWAP4 SWAP3 POP POP POP JUMP JUMPDEST PUSH1 0x20 DUP1 DUP3 MSTORE DUP2 DUP2 ADD MSTORE PUSH32 0x4F776E61626C653A2063616C6C6572206973206E6F7420746865206F776E6572 PUSH1 0x40 DUP3 ADD MSTORE PUSH1 0x60 ADD SWAP1 JUMP JUMPDEST PUSH1 0x0 DUP1 DUP3 SLT DUP1 ISZERO PUSH1 0x1 PUSH1 0x1 PUSH1 0xFF SHL SUB DUP5 SWAP1 SUB DUP6 SGT AND ISZERO PUSH2 0x1DE6 JUMPI PUSH2 0x1DE6 PUSH2 0x1F08 JUMP JUMPDEST PUSH1 0x1 PUSH1 0xFF SHL DUP4 SWAP1 SUB DUP5 SLT DUP2 AND ISZERO PUSH2 0x1DFF JUMPI PUSH2 0x1DFF PUSH2 0x1F08 JUMP JUMPDEST POP POP ADD SWAP1 JUMP JUMPDEST PUSH1 0x0 DUP3 NOT DUP3 GT ISZERO PUSH2 0x1E18 JUMPI PUSH2 0x1E18 PUSH2 0x1F08 JUMP JUMPDEST POP ADD SWAP1 JUMP JUMPDEST PUSH1 0x0 DUP3 PUSH2 0x1E38 JUMPI PUSH4 0x4E487B71 PUSH1 0xE0 SHL DUP2 MSTORE PUSH1 0x12 PUSH1 0x4 MSTORE PUSH1 0x24 DUP2 REVERT JUMPDEST POP DIV SWAP1 JUMP JUMPDEST PUSH1 0x0 DUP2 PUSH1 0x0 NOT DIV DUP4 GT DUP3 ISZERO ISZERO AND ISZERO PUSH2 0x1E57 JUMPI PUSH2 0x1E57 PUSH2 0x1F08 JUMP JUMPDEST POP MUL SWAP1 JUMP JUMPDEST PUSH1 0x0 DUP1 DUP4 SLT DUP1 ISZERO PUSH1 0x1 PUSH1 0xFF SHL DUP6 ADD DUP5 SLT AND ISZERO PUSH2 0x1E7A JUMPI PUSH2 0x1E7A PUSH2 0x1F08 JUMP JUMPDEST PUSH1 0x1 PUSH1 0x1 PUSH1 0xFF SHL SUB DUP5 ADD DUP4 SGT DUP2 AND ISZERO PUSH2 0x1E95 JUMPI PUSH2 0x1E95 PUSH2 0x1F08 JUMP JUMPDEST POP POP SUB SWAP1 JUMP JUMPDEST PUSH1 0x0 DUP3 DUP3 LT ISZERO PUSH2 0x1EAD JUMPI PUSH2 0x1EAD PUSH2 0x1F08 JUMP JUMPDEST POP SUB SWAP1 JUMP JUMPDEST PUSH1 0x1 DUP2 DUP2 SHR SWAP1 DUP3 AND DUP1 PUSH2 0x1EC6 JUMPI PUSH1 0x7F DUP3 AND SWAP2 POP JUMPDEST PUSH1 0x20 DUP3 LT DUP2 EQ ISZERO PUSH2 0x1EE7 JUMPI PUSH4 0x4E487B71 PUSH1 0xE0 SHL PUSH1 0x0 MSTORE PUSH1 0x22 PUSH1 0x4 MSTORE PUSH1 0x24 PUSH1 0x0 REVERT JUMPDEST POP SWAP2 SWAP1 POP JUMP JUMPDEST PUSH1 0x0 PUSH1 0x0 NOT DUP3 EQ ISZERO PUSH2 0x1F01 JUMPI PUSH2 0x1F01 PUSH2 0x1F08 JUMP JUMPDEST POP PUSH1 0x1 ADD SWAP1 JUMP JUMPDEST PUSH4 0x4E487B71 PUSH1 0xE0 SHL PUSH1 0x0 MSTORE PUSH1 0x11 PUSH1 0x4 MSTORE PUSH1 0x24 PUSH1 0x0 REVERT JUMPDEST PUSH1 0x1 PUSH1 0x1 PUSH1 0xA0 SHL SUB DUP2 AND DUP2 EQ PUSH2 0x1F33 JUMPI PUSH1 0x0 DUP1 REVERT JUMPDEST POP JUMP JUMPDEST DUP1 ISZERO ISZERO DUP2 EQ PUSH2 0x1F33 JUMPI PUSH1 0x0 DUP1 REVERT INVALID GASLIMIT MSTORE NUMBER ORIGIN ADDRESS GASPRICE KECCAK256 PUSH3 0x75726E KECCAK256 PUSH2 0x6D6F PUSH22 0x6E7420657863656564732062616C616E636545524332 ADDRESS GASPRICE KECCAK256 PUSH21 0x72616E7366657220616D6F756E7420657863656564 PUSH20 0x20616C6C6F77616E636545524332303A20646563 PUSH19 0x656173656420616C6C6F77616E63652062656C PUSH16 0x77207A65726FA2646970667358221220 0xB9 SSTORE 0xF6 MSTORE8 0xA5 DELEGATECALL SWAP15 0x5F DUP1 0xB2 EXTCODECOPY MULMOD 0x4F 0xB6 ADD 0xB1 0xD0 PUSH13 0x8988A4B47D815188D5BBAB7075 SWAP6 PUSH5 0x736F6C6343 STOP ADDMOD SUB STOP CALLER "
		},
		"gasEstimates": {
			"creation": {
				"codeDepositCost": "3073600",
				"executionCost": "infinite",
				"totalCost": "infinite"
			},
			"external": {
				"SHIB()": "1170",
				"USDT()": "1104",
				"allowance(address,address)": "infinite",
				"approve(address,uint256)": "22561",
				"automatedMarketMakerPairs(address)": "1336",
				"balanceOf(address)": "1358",
				"burnFee()": "1127",
				"claim()": "infinite",
				"deadWallet()": "1126",
				"decimals()": "311",
				"decreaseAllowance(address,uint256)": "infinite",
				"dividendTokenBalanceOf(address)": "infinite",
				"dividendTracker()": "1127",
				"excludeFromDividends(address)": "infinite",
				"excludeFromFees(address,bool)": "infinite",
				"excludeMultipleAccountsFromFees(address[],bool)": "infinite",
				"gasForProcessing()": "1107",
				"getAccountDividendsInfo(address)": "infinite",
				"getAccountDividendsInfoAtIndex(uint256)": "infinite",
				"getClaimWait()": "infinite",
				"getLastProcessedIndex()": "infinite",
				"getNumberOfDividendTokenHolders()": "infinite",
				"getTotalDividendsDistributed()": "infinite",
				"increaseAllowance(address,uint256)": "23652",
				"indirectRecommendation(address)": "1407",
				"isExcludedFromFees(address)": "1376",
				"liquidityFee()": "1063",
				"marketingFee()": "1063",
				"name()": "infinite",
				"owner()": "1164",
				"processDividendTracker(uint256)": "infinite",
				"recommend(address)": "1341",
				"recommendOwnerSkpNum()": "1062",
				"renounceOwnership()": "24229",
				"rewardsFee()": "1063",
				"router()": "1147",
				"setAutomatedMarketMakerPair(address,bool)": "infinite",
				"setSwapTokensAtAmount(uint256)": "21153",
				"skim()": "infinite",
				"swapTokensAtAmount()": "1062",
				"symbol()": "infinite",
				"totalFees()": "1086",
				"totalSupply()": "1127",
				"transfer(address,uint256)": "infinite",
				"transferFrom(address,address,uint256)": "infinite",
				"transferOwnership(address)": "infinite",
				"uniswapV2Pair()": "1105",
				"uniswapV2Router()": "1150",
				"updateClaimWait(uint256)": "infinite",
				"updateGasForProcessing(uint256)": "24388",
				"withdrawableDividendOf(address)": "infinite"
			},
			"internal": {
				"_setAutomatedMarketMakerPair(address,bool)": "infinite",
				"_transfer(address,address,uint256)": "infinite",
				"addLiquidity(uint256,uint256)": "infinite",
				"sendSKPToRecommend(address,uint256,uint256)": "infinite",
				"swapAndLiquify(uint256)": "infinite",
				"swapAndSendDividends(uint256)": "infinite",
				"swapAndSendToFee(uint256)": "infinite",
				"swapAndSendToUSDTForRecommend(address,uint256)": "infinite",
				"swapTokensForEth(uint256)": "infinite",
				"swapTokensForSHIB(uint256)": "infinite",
				"swapTokensForUSDT(uint256)": "infinite"
			}
		},
		"methodIdentifiers": {
			"SHIB()": "e24b85e7",
			"USDT()": "c54e44eb",
			"allowance(address,address)": "dd62ed3e",
			"approve(address,uint256)": "095ea7b3",
			"automatedMarketMakerPairs(address)": "b62496f5",
			"balanceOf(address)": "70a08231",
			"burnFee()": "fce589d8",
			"claim()": "4e71d92d",
			"deadWallet()": "85141a77",
			"decimals()": "313ce567",
			"decreaseAllowance(address,uint256)": "a457c2d7",
			"dividendTokenBalanceOf(address)": "6843cd84",
			"dividendTracker()": "2c1f5216",
			"excludeFromDividends(address)": "31e79db0",
			"excludeFromFees(address,bool)": "c0246668",
			"excludeMultipleAccountsFromFees(address[],bool)": "c492f046",
			"gasForProcessing()": "9c1b8af5",
			"getAccountDividendsInfo(address)": "ad56c13c",
			"getAccountDividendsInfoAtIndex(uint256)": "f27fd254",
			"getClaimWait()": "a26579ad",
			"getLastProcessedIndex()": "e7841ec0",
			"getNumberOfDividendTokenHolders()": "64b0f653",
			"getTotalDividendsDistributed()": "30bb4cff",
			"increaseAllowance(address,uint256)": "39509351",
			"indirectRecommendation(address)": "e2e467cb",
			"isExcludedFromFees(address)": "4fbee193",
			"liquidityFee()": "98118cb4",
			"marketingFee()": "6b67c4df",
			"name()": "06fdde03",
			"owner()": "8da5cb5b",
			"processDividendTracker(uint256)": "700bb191",
			"recommend(address)": "d88be3c0",
			"recommendOwnerSkpNum()": "ae13c26a",
			"renounceOwnership()": "715018a6",
			"rewardsFee()": "2bb14e1d",
			"router()": "f887ea40",
			"setAutomatedMarketMakerPair(address,bool)": "9a7a23d6",
			"setSwapTokensAtAmount(uint256)": "afa4f3b2",
			"skim()": "1dd19cb4",
			"swapTokensAtAmount()": "e2f45605",
			"symbol()": "95d89b41",
			"totalFees()": "13114a9d",
			"totalSupply()": "18160ddd",
			"transfer(address,uint256)": "a9059cbb",
			"transferFrom(address,address,uint256)": "23b872dd",
			"transferOwnership(address)": "f2fde38b",
			"uniswapV2Pair()": "49bd5a5e",
			"uniswapV2Router()": "1694505e",
			"updateClaimWait(uint256)": "e98030c7",
			"updateGasForProcessing(uint256)": "871c128d",
			"withdrawableDividendOf(address)": "a8b9d240"
		}
	},
	"abi": [
		{
			"inputs": [],
			"stateMutability": "nonpayable",
			"type": "constructor"
		},
		{
			"anonymous": false,
			"inputs": [
				{
					"indexed": true,
					"internalType": "address",
					"name": "owner",
					"type": "address"
				},
				{
					"indexed": true,
					"internalType": "address",
					"name": "spender",
					"type": "address"
				},
				{
					"indexed": false,
					"internalType": "uint256",
					"name": "value",
					"type": "uint256"
				}
			],
			"name": "Approval",
			"type": "event"
		},
		{
			"anonymous": false,
			"inputs": [
				{
					"indexed": true,
					"internalType": "address",
					"name": "account",
					"type": "address"
				},
				{
					"indexed": false,
					"internalType": "bool",
					"name": "isExcluded",
					"type": "bool"
				}
			],
			"name": "ExcludeFromFees",
			"type": "event"
		},
		{
			"anonymous": false,
			"inputs": [
				{
					"indexed": false,
					"internalType": "address[]",
					"name": "accounts",
					"type": "address[]"
				},
				{
					"indexed": false,
					"internalType": "bool",
					"name": "isExcluded",
					"type": "bool"
				}
			],
			"name": "ExcludeMultipleAccountsFromFees",
			"type": "event"
		},
		{
			"anonymous": false,
			"inputs": [
				{
					"indexed": true,
					"internalType": "uint256",
					"name": "newValue",
					"type": "uint256"
				},
				{
					"indexed": true,
					"internalType": "uint256",
					"name": "oldValue",
					"type": "uint256"
				}
			],
			"name": "GasForProcessingUpdated",
			"type": "event"
		},
		{
			"anonymous": false,
			"inputs": [
				{
					"indexed": true,
					"internalType": "address",
					"name": "newLiquidityWallet",
					"type": "address"
				},
				{
					"indexed": true,
					"internalType": "address",
					"name": "oldLiquidityWallet",
					"type": "address"
				}
			],
			"name": "LiquidityWalletUpdated",
			"type": "event"
		},
		{
			"anonymous": false,
			"inputs": [
				{
					"indexed": true,
					"internalType": "address",
					"name": "previousOwner",
					"type": "address"
				},
				{
					"indexed": true,
					"internalType": "address",
					"name": "newOwner",
					"type": "address"
				}
			],
			"name": "OwnershipTransferred",
			"type": "event"
		},
		{
			"anonymous": false,
			"inputs": [
				{
					"indexed": false,
					"internalType": "uint256",
					"name": "iterations",
					"type": "uint256"
				},
				{
					"indexed": false,
					"internalType": "uint256",
					"name": "claims",
					"type": "uint256"
				},
				{
					"indexed": false,
					"internalType": "uint256",
					"name": "lastProcessedIndex",
					"type": "uint256"
				},
				{
					"indexed": true,
					"internalType": "bool",
					"name": "automatic",
					"type": "bool"
				},
				{
					"indexed": false,
					"internalType": "uint256",
					"name": "gas",
					"type": "uint256"
				},
				{
					"indexed": true,
					"internalType": "address",
					"name": "processor",
					"type": "address"
				}
			],
			"name": "ProcessedDividendTracker",
			"type": "event"
		},
		{
			"anonymous": false,
			"inputs": [
				{
					"indexed": false,
					"internalType": "uint256",
					"name": "tokensSwapped",
					"type": "uint256"
				},
				{
					"indexed": false,
					"internalType": "uint256",
					"name": "amount",
					"type": "uint256"
				}
			],
			"name": "SendDividends",
			"type": "event"
		},
		{
			"anonymous": false,
			"inputs": [
				{
					"indexed": true,
					"internalType": "address",
					"name": "pair",
					"type": "address"
				},
				{
					"indexed": true,
					"internalType": "bool",
					"name": "value",
					"type": "bool"
				}
			],
			"name": "SetAutomatedMarketMakerPair",
			"type": "event"
		},
		{
			"anonymous": false,
			"inputs": [
				{
					"indexed": false,
					"internalType": "uint256",
					"name": "tokensSwapped",
					"type": "uint256"
				},
				{
					"indexed": false,
					"internalType": "uint256",
					"name": "ethReceived",
					"type": "uint256"
				},
				{
					"indexed": false,
					"internalType": "uint256",
					"name": "tokensIntoLiqudity",
					"type": "uint256"
				}
			],
			"name": "SwapAndLiquify",
			"type": "event"
		},
		{
			"anonymous": false,
			"inputs": [
				{
					"indexed": true,
					"internalType": "address",
					"name": "from",
					"type": "address"
				},
				{
					"indexed": true,
					"internalType": "address",
					"name": "to",
					"type": "address"
				},
				{
					"indexed": false,
					"internalType": "uint256",
					"name": "value",
					"type": "uint256"
				}
			],
			"name": "Transfer",
			"type": "event"
		},
		{
			"anonymous": false,
			"inputs": [
				{
					"indexed": true,
					"internalType": "address",
					"name": "newAddress",
					"type": "address"
				},
				{
					"indexed": true,
					"internalType": "address",
					"name": "oldAddress",
					"type": "address"
				}
			],
			"name": "UpdateDividendTracker",
			"type": "event"
		},
		{
			"anonymous": false,
			"inputs": [
				{
					"indexed": true,
					"internalType": "address",
					"name": "newAddress",
					"type": "address"
				},
				{
					"indexed": true,
					"internalType": "address",
					"name": "oldAddress",
					"type": "address"
				}
			],
			"name": "UpdateUniswapV2Router",
			"type": "event"
		},
		{
			"inputs": [],
			"name": "SHIB",
			"outputs": [
				{
					"internalType": "address",
					"name": "",
					"type": "address"
				}
			],
			"stateMutability": "view",
			"type": "function"
		},
		{
			"inputs": [],
			"name": "USDT",
			"outputs": [
				{
					"internalType": "address",
					"name": "",
					"type": "address"
				}
			],
			"stateMutability": "view",
			"type": "function"
		},
		{
			"inputs": [
				{
					"internalType": "address",
					"name": "owner",
					"type": "address"
				},
				{
					"internalType": "address",
					"name": "spender",
					"type": "address"
				}
			],
			"name": "allowance",
			"outputs": [
				{
					"internalType": "uint256",
					"name": "",
					"type": "uint256"
				}
			],
			"stateMutability": "view",
			"type": "function"
		},
		{
			"inputs": [
				{
					"internalType": "address",
					"name": "spender",
					"type": "address"
				},
				{
					"internalType": "uint256",
					"name": "amount",
					"type": "uint256"
				}
			],
			"name": "approve",
			"outputs": [
				{
					"internalType": "bool",
					"name": "",
					"type": "bool"
				}
			],
			"stateMutability": "nonpayable",
			"type": "function"
		},
		{
			"inputs": [
				{
					"internalType": "address",
					"name": "",
					"type": "address"
				}
			],
			"name": "automatedMarketMakerPairs",
			"outputs": [
				{
					"internalType": "bool",
					"name": "",
					"type": "bool"
				}
			],
			"stateMutability": "view",
			"type": "function"
		},
		{
			"inputs": [
				{
					"internalType": "address",
					"name": "account",
					"type": "address"
				}
			],
			"name": "balanceOf",
			"outputs": [
				{
					"internalType": "uint256",
					"name": "",
					"type": "uint256"
				}
			],
			"stateMutability": "view",
			"type": "function"
		},
		{
			"inputs": [],
			"name": "burnFee",
			"outputs": [
				{
					"internalType": "uint256",
					"name": "",
					"type": "uint256"
				}
			],
			"stateMutability": "view",
			"type": "function"
		},
		{
			"inputs": [],
			"name": "claim",
			"outputs": [],
			"stateMutability": "nonpayable",
			"type": "function"
		},
		{
			"inputs": [],
			"name": "deadWallet",
			"outputs": [
				{
					"internalType": "address",
					"name": "",
					"type": "address"
				}
			],
			"stateMutability": "view",
			"type": "function"
		},
		{
			"inputs": [],
			"name": "decimals",
			"outputs": [
				{
					"internalType": "uint8",
					"name": "",
					"type": "uint8"
				}
			],
			"stateMutability": "view",
			"type": "function"
		},
		{
			"inputs": [
				{
					"internalType": "address",
					"name": "spender",
					"type": "address"
				},
				{
					"internalType": "uint256",
					"name": "subtractedValue",
					"type": "uint256"
				}
			],
			"name": "decreaseAllowance",
			"outputs": [
				{
					"internalType": "bool",
					"name": "",
					"type": "bool"
				}
			],
			"stateMutability": "nonpayable",
			"type": "function"
		},
		{
			"inputs": [
				{
					"internalType": "address",
					"name": "account",
					"type": "address"
				}
			],
			"name": "dividendTokenBalanceOf",
			"outputs": [
				{
					"internalType": "uint256",
					"name": "",
					"type": "uint256"
				}
			],
			"stateMutability": "view",
			"type": "function"
		},
		{
			"inputs": [],
			"name": "dividendTracker",
			"outputs": [
				{
					"internalType": "contract SHIBDividendTracker",
					"name": "",
					"type": "address"
				}
			],
			"stateMutability": "view",
			"type": "function"
		},
		{
			"inputs": [
				{
					"internalType": "address",
					"name": "account",
					"type": "address"
				}
			],
			"name": "excludeFromDividends",
			"outputs": [],
			"stateMutability": "nonpayable",
			"type": "function"
		},
		{
			"inputs": [
				{
					"internalType": "address",
					"name": "account",
					"type": "address"
				},
				{
					"internalType": "bool",
					"name": "excluded",
					"type": "bool"
				}
			],
			"name": "excludeFromFees",
			"outputs": [],
			"stateMutability": "nonpayable",
			"type": "function"
		},
		{
			"inputs": [
				{
					"internalType": "address[]",
					"name": "accounts",
					"type": "address[]"
				},
				{
					"internalType": "bool",
					"name": "excluded",
					"type": "bool"
				}
			],
			"name": "excludeMultipleAccountsFromFees",
			"outputs": [],
			"stateMutability": "nonpayable",
			"type": "function"
		},
		{
			"inputs": [],
			"name": "gasForProcessing",
			"outputs": [
				{
					"internalType": "uint256",
					"name": "",
					"type": "uint256"
				}
			],
			"stateMutability": "view",
			"type": "function"
		},
		{
			"inputs": [
				{
					"internalType": "address",
					"name": "account",
					"type": "address"
				}
			],
			"name": "getAccountDividendsInfo",
			"outputs": [
				{
					"internalType": "address",
					"name": "",
					"type": "address"
				},
				{
					"internalType": "int256",
					"name": "",
					"type": "int256"
				},
				{
					"internalType": "int256",
					"name": "",
					"type": "int256"
				},
				{
					"internalType": "uint256",
					"name": "",
					"type": "uint256"
				},
				{
					"internalType": "uint256",
					"name": "",
					"type": "uint256"
				},
				{
					"internalType": "uint256",
					"name": "",
					"type": "uint256"
				},
				{
					"internalType": "uint256",
					"name": "",
					"type": "uint256"
				},
				{
					"internalType": "uint256",
					"name": "",
					"type": "uint256"
				}
			],
			"stateMutability": "view",
			"type": "function"
		},
		{
			"inputs": [
				{
					"internalType": "uint256",
					"name": "index",
					"type": "uint256"
				}
			],
			"name": "getAccountDividendsInfoAtIndex",
			"outputs": [
				{
					"internalType": "address",
					"name": "",
					"type": "address"
				},
				{
					"internalType": "int256",
					"name": "",
					"type": "int256"
				},
				{
					"internalType": "int256",
					"name": "",
					"type": "int256"
				},
				{
					"internalType": "uint256",
					"name": "",
					"type": "uint256"
				},
				{
					"internalType": "uint256",
					"name": "",
					"type": "uint256"
				},
				{
					"internalType": "uint256",
					"name": "",
					"type": "uint256"
				},
				{
					"internalType": "uint256",
					"name": "",
					"type": "uint256"
				},
				{
					"internalType": "uint256",
					"name": "",
					"type": "uint256"
				}
			],
			"stateMutability": "view",
			"type": "function"
		},
		{
			"inputs": [],
			"name": "getClaimWait",
			"outputs": [
				{
					"internalType": "uint256",
					"name": "",
					"type": "uint256"
				}
			],
			"stateMutability": "view",
			"type": "function"
		},
		{
			"inputs": [],
			"name": "getLastProcessedIndex",
			"outputs": [
				{
					"internalType": "uint256",
					"name": "",
					"type": "uint256"
				}
			],
			"stateMutability": "view",
			"type": "function"
		},
		{
			"inputs": [],
			"name": "getNumberOfDividendTokenHolders",
			"outputs": [
				{
					"internalType": "uint256",
					"name": "",
					"type": "uint256"
				}
			],
			"stateMutability": "view",
			"type": "function"
		},
		{
			"inputs": [],
			"name": "getTotalDividendsDistributed",
			"outputs": [
				{
					"internalType": "uint256",
					"name": "",
					"type": "uint256"
				}
			],
			"stateMutability": "view",
			"type": "function"
		},
		{
			"inputs": [
				{
					"internalType": "address",
					"name": "spender",
					"type": "address"
				},
				{
					"internalType": "uint256",
					"name": "addedValue",
					"type": "uint256"
				}
			],
			"name": "increaseAllowance",
			"outputs": [
				{
					"internalType": "bool",
					"name": "",
					"type": "bool"
				}
			],
			"stateMutability": "nonpayable",
			"type": "function"
		},
		{
			"inputs": [
				{
					"internalType": "address",
					"name": "",
					"type": "address"
				}
			],
			"name": "indirectRecommendation",
			"outputs": [
				{
					"internalType": "address",
					"name": "",
					"type": "address"
				}
			],
			"stateMutability": "view",
			"type": "function"
		},
		{
			"inputs": [
				{
					"internalType": "address",
					"name": "account",
					"type": "address"
				}
			],
			"name": "isExcludedFromFees",
			"outputs": [
				{
					"internalType": "bool",
					"name": "",
					"type": "bool"
				}
			],
			"stateMutability": "view",
			"type": "function"
		},
		{
			"inputs": [],
			"name": "liquidityFee",
			"outputs": [
				{
					"internalType": "uint256",
					"name": "",
					"type": "uint256"
				}
			],
			"stateMutability": "view",
			"type": "function"
		},
		{
			"inputs": [],
			"name": "marketingFee",
			"outputs": [
				{
					"internalType": "uint256",
					"name": "",
					"type": "uint256"
				}
			],
			"stateMutability": "view",
			"type": "function"
		},
		{
			"inputs": [],
			"name": "name",
			"outputs": [
				{
					"internalType": "string",
					"name": "",
					"type": "string"
				}
			],
			"stateMutability": "view",
			"type": "function"
		},
		{
			"inputs": [],
			"name": "owner",
			"outputs": [
				{
					"internalType": "address",
					"name": "",
					"type": "address"
				}
			],
			"stateMutability": "view",
			"type": "function"
		},
		{
			"inputs": [
				{
					"internalType": "uint256",
					"name": "gas",
					"type": "uint256"
				}
			],
			"name": "processDividendTracker",
			"outputs": [],
			"stateMutability": "nonpayable",
			"type": "function"
		},
		{
			"inputs": [
				{
					"internalType": "address",
					"name": "",
					"type": "address"
				}
			],
			"name": "recommend",
			"outputs": [
				{
					"internalType": "address",
					"name": "",
					"type": "address"
				}
			],
			"stateMutability": "view",
			"type": "function"
		},
		{
			"inputs": [],
			"name": "recommendOwnerSkpNum",
			"outputs": [
				{
					"internalType": "uint256",
					"name": "",
					"type": "uint256"
				}
			],
			"stateMutability": "view",
			"type": "function"
		},
		{
			"inputs": [],
			"name": "renounceOwnership",
			"outputs": [],
			"stateMutability": "nonpayable",
			"type": "function"
		},
		{
			"inputs": [],
			"name": "rewardsFee",
			"outputs": [
				{
					"internalType": "uint256",
					"name": "",
					"type": "uint256"
				}
			],
			"stateMutability": "view",
			"type": "function"
		},
		{
			"inputs": [],
			"name": "router",
			"outputs": [
				{
					"internalType": "address",
					"name": "",
					"type": "address"
				}
			],
			"stateMutability": "view",
			"type": "function"
		},
		{
			"inputs": [
				{
					"internalType": "address",
					"name": "pair",
					"type": "address"
				},
				{
					"internalType": "bool",
					"name": "value",
					"type": "bool"
				}
			],
			"name": "setAutomatedMarketMakerPair",
			"outputs": [],
			"stateMutability": "nonpayable",
			"type": "function"
		},
		{
			"inputs": [
				{
					"internalType": "uint256",
					"name": "_newAmount",
					"type": "uint256"
				}
			],
			"name": "setSwapTokensAtAmount",
			"outputs": [],
			"stateMutability": "nonpayable",
			"type": "function"
		},
		{
			"inputs": [],
			"name": "skim",
			"outputs": [],
			"stateMutability": "nonpayable",
			"type": "function"
		},
		{
			"inputs": [],
			"name": "swapTokensAtAmount",
			"outputs": [
				{
					"internalType": "uint256",
					"name": "",
					"type": "uint256"
				}
			],
			"stateMutability": "view",
			"type": "function"
		},
		{
			"inputs": [],
			"name": "symbol",
			"outputs": [
				{
					"internalType": "string",
					"name": "",
					"type": "string"
				}
			],
			"stateMutability": "view",
			"type": "function"
		},
		{
			"inputs": [],
			"name": "totalFees",
			"outputs": [
				{
					"internalType": "uint256",
					"name": "",
					"type": "uint256"
				}
			],
			"stateMutability": "view",
			"type": "function"
		},
		{
			"inputs": [],
			"name": "totalSupply",
			"outputs": [
				{
					"internalType": "uint256",
					"name": "",
					"type": "uint256"
				}
			],
			"stateMutability": "view",
			"type": "function"
		},
		{
			"inputs": [
				{
					"internalType": "address",
					"name": "recipient",
					"type": "address"
				},
				{
					"internalType": "uint256",
					"name": "amount",
					"type": "uint256"
				}
			],
			"name": "transfer",
			"outputs": [
				{
					"internalType": "bool",
					"name": "",
					"type": "bool"
				}
			],
			"stateMutability": "nonpayable",
			"type": "function"
		},
		{
			"inputs": [
				{
					"internalType": "address",
					"name": "sender",
					"type": "address"
				},
				{
					"internalType": "address",
					"name": "recipient",
					"type": "address"
				},
				{
					"internalType": "uint256",
					"name": "amount",
					"type": "uint256"
				}
			],
			"name": "transferFrom",
			"outputs": [
				{
					"internalType": "bool",
					"name": "",
					"type": "bool"
				}
			],
			"stateMutability": "nonpayable",
			"type": "function"
		},
		{
			"inputs": [
				{
					"internalType": "address",
					"name": "newOwner",
					"type": "address"
				}
			],
			"name": "transferOwnership",
			"outputs": [],
			"stateMutability": "nonpayable",
			"type": "function"
		},
		{
			"inputs": [],
			"name": "uniswapV2Pair",
			"outputs": [
				{
					"internalType": "address",
					"name": "",
					"type": "address"
				}
			],
			"stateMutability": "view",
			"type": "function"
		},
		{
			"inputs": [],
			"name": "uniswapV2Router",
			"outputs": [
				{
					"internalType": "contract IUniswapV2Router02",
					"name": "",
					"type": "address"
				}
			],
			"stateMutability": "view",
			"type": "function"
		},
		{
			"inputs": [
				{
					"internalType": "uint256",
					"name": "claimWait",
					"type": "uint256"
				}
			],
			"name": "updateClaimWait",
			"outputs": [],
			"stateMutability": "nonpayable",
			"type": "function"
		},
		{
			"inputs": [
				{
					"internalType": "uint256",
					"name": "newValue",
					"type": "uint256"
				}
			],
			"name": "updateGasForProcessing",
			"outputs": [],
			"stateMutability": "nonpayable",
			"type": "function"
		},
		{
			"inputs": [
				{
					"internalType": "address",
					"name": "account",
					"type": "address"
				}
			],
			"name": "withdrawableDividendOf",
			"outputs": [
				{
					"internalType": "uint256",
					"name": "",
					"type": "uint256"
				}
			],
			"stateMutability": "view",
			"type": "function"
		},
		{
			"stateMutability": "payable",
			"type": "receive"
		}
	]
}