{
  "_format": "hh-sol-artifact-1",
  "contractName": "HUBToken",
  "sourceName": "contracts/HubToken.sol",
  "abi": [
    {
      "inputs": [],
      "stateMutability": "nonpayable",
      "type": "constructor"
    },
    {
      "anonymous": false,
      "inputs": [
        {
          "indexed": true,
          "internalType": "address",
          "name": "owner",
          "type": "address"
        },
        {
          "indexed": true,
          "internalType": "address",
          "name": "spender",
          "type": "address"
        },
        {
          "indexed": false,
          "internalType": "uint256",
          "name": "value",
          "type": "uint256"
        }
      ],
      "name": "Approval",
      "type": "event"
    },
    {
      "anonymous": false,
      "inputs": [
        {
          "indexed": false,
          "internalType": "uint256",
          "name": "minTokensBeforeSwap",
          "type": "uint256"
        }
      ],
      "name": "MinTokensBeforeSwapUpdated",
      "type": "event"
    },
    {
      "anonymous": false,
      "inputs": [
        {
          "indexed": true,
          "internalType": "address",
          "name": "previousOwner",
          "type": "address"
        },
        {
          "indexed": true,
          "internalType": "address",
          "name": "newOwner",
          "type": "address"
        }
      ],
      "name": "OwnershipTransferred",
      "type": "event"
    },
    {
      "anonymous": false,
      "inputs": [
        {
          "indexed": false,
          "internalType": "uint256",
          "name": "tokensSwapped",
          "type": "uint256"
        },
        {
          "indexed": false,
          "internalType": "uint256",
          "name": "ethReceived",
          "type": "uint256"
        },
        {
          "indexed": false,
          "internalType": "uint256",
          "name": "tokensIntoLiqudity",
          "type": "uint256"
        }
      ],
      "name": "SwapAndLiquify",
      "type": "event"
    },
    {
      "anonymous": false,
      "inputs": [
        {
          "indexed": false,
          "internalType": "bool",
          "name": "enabled",
          "type": "bool"
        }
      ],
      "name": "SwapAndLiquifyEnabledUpdated",
      "type": "event"
    },
    {
      "anonymous": false,
      "inputs": [
        {
          "indexed": true,
          "internalType": "address",
          "name": "from",
          "type": "address"
        },
        {
          "indexed": true,
          "internalType": "address",
          "name": "to",
          "type": "address"
        },
        {
          "indexed": false,
          "internalType": "uint256",
          "name": "value",
          "type": "uint256"
        }
      ],
      "name": "Transfer",
      "type": "event"
    },
    {
      "inputs": [],
      "name": "_burnFee",
      "outputs": [
        {
          "internalType": "uint256",
          "name": "",
          "type": "uint256"
        }
      ],
      "stateMutability": "view",
      "type": "function"
    },
    {
      "inputs": [],
      "name": "_liquidityFee",
      "outputs": [
        {
          "internalType": "uint256",
          "name": "",
          "type": "uint256"
        }
      ],
      "stateMutability": "view",
      "type": "function"
    },
    {
      "inputs": [],
      "name": "_marketingFee",
      "outputs": [
        {
          "internalType": "uint256",
          "name": "",
          "type": "uint256"
        }
      ],
      "stateMutability": "view",
      "type": "function"
    },
    {
      "inputs": [],
      "name": "_maxTxAmount",
      "outputs": [
        {
          "internalType": "uint256",
          "name": "",
          "type": "uint256"
        }
      ],
      "stateMutability": "view",
      "type": "function"
    },
    {
      "inputs": [],
      "name": "_taxFee",
      "outputs": [
        {
          "internalType": "uint256",
          "name": "",
          "type": "uint256"
        }
      ],
      "stateMutability": "view",
      "type": "function"
    },
    {
      "inputs": [
        {
          "internalType": "address",
          "name": "botwallet",
          "type": "address"
        }
      ],
      "name": "addBotWallet",
      "outputs": [],
      "stateMutability": "nonpayable",
      "type": "function"
    },
    {
      "inputs": [
        {
          "internalType": "address",
          "name": "recipient",
          "type": "address"
        },
        {
          "internalType": "uint256",
          "name": "amount",
          "type": "uint256"
        }
      ],
      "name": "airdrop",
      "outputs": [],
      "stateMutability": "nonpayable",
      "type": "function"
    },
    {
      "inputs": [
        {
          "internalType": "address[]",
          "name": "newholders",
          "type": "address[]"
        },
        {
          "internalType": "uint256[]",
          "name": "amounts",
          "type": "uint256[]"
        }
      ],
      "name": "airdropArray",
      "outputs": [],
      "stateMutability": "nonpayable",
      "type": "function"
    },
    {
      "inputs": [
        {
          "internalType": "address",
          "name": "owner",
          "type": "address"
        },
        {
          "internalType": "address",
          "name": "spender",
          "type": "address"
        }
      ],
      "name": "allowance",
      "outputs": [
        {
          "internalType": "uint256",
          "name": "",
          "type": "uint256"
        }
      ],
      "stateMutability": "view",
      "type": "function"
    },
    {
      "inputs": [],
      "name": "allowtrading",
      "outputs": [],
      "stateMutability": "nonpayable",
      "type": "function"
    },
    {
      "inputs": [
        {
          "internalType": "address",
          "name": "spender",
          "type": "address"
        },
        {
          "internalType": "uint256",
          "name": "amount",
          "type": "uint256"
        }
      ],
      "name": "approve",
      "outputs": [
        {
          "internalType": "bool",
          "name": "",
          "type": "bool"
        }
      ],
      "stateMutability": "nonpayable",
      "type": "function"
    },
    {
      "inputs": [
        {
          "internalType": "address",
          "name": "account",
          "type": "address"
        }
      ],
      "name": "balanceOf",
      "outputs": [
        {
          "internalType": "uint256",
          "name": "",
          "type": "uint256"
        }
      ],
      "stateMutability": "view",
      "type": "function"
    },
    {
      "inputs": [],
      "name": "burnWallet",
      "outputs": [
        {
          "internalType": "address",
          "name": "",
          "type": "address"
        }
      ],
      "stateMutability": "view",
      "type": "function"
    },
    {
      "inputs": [],
      "name": "canTrade",
      "outputs": [
        {
          "internalType": "bool",
          "name": "",
          "type": "bool"
        }
      ],
      "stateMutability": "view",
      "type": "function"
    },
    {
      "inputs": [
        {
          "internalType": "contract IERC20",
          "name": "tokenAddress",
          "type": "address"
        },
        {
          "internalType": "address",
          "name": "walletaddress",
          "type": "address"
        }
      ],
      "name": "claimOtherTokens",
      "outputs": [],
      "stateMutability": "nonpayable",
      "type": "function"
    },
    {
      "inputs": [],
      "name": "claimTokens",
      "outputs": [],
      "stateMutability": "nonpayable",
      "type": "function"
    },
    {
      "inputs": [
        {
          "internalType": "address payable",
          "name": "walletaddress",
          "type": "address"
        }
      ],
      "name": "clearStuckBalance",
      "outputs": [],
      "stateMutability": "nonpayable",
      "type": "function"
    },
    {
      "inputs": [],
      "name": "decimals",
      "outputs": [
        {
          "internalType": "uint8",
          "name": "",
          "type": "uint8"
        }
      ],
      "stateMutability": "view",
      "type": "function"
    },
    {
      "inputs": [
        {
          "internalType": "address",
          "name": "spender",
          "type": "address"
        },
        {
          "internalType": "uint256",
          "name": "subtractedValue",
          "type": "uint256"
        }
      ],
      "name": "decreaseAllowance",
      "outputs": [
        {
          "internalType": "bool",
          "name": "",
          "type": "bool"
        }
      ],
      "stateMutability": "nonpayable",
      "type": "function"
    },
    {
      "inputs": [
        {
          "internalType": "uint256",
          "name": "tAmount",
          "type": "uint256"
        }
      ],
      "name": "deliver",
      "outputs": [],
      "stateMutability": "nonpayable",
      "type": "function"
    },
    {
      "inputs": [
        {
          "internalType": "address",
          "name": "account",
          "type": "address"
        }
      ],
      "name": "excludeFromFee",
      "outputs": [],
      "stateMutability": "nonpayable",
      "type": "function"
    },
    {
      "inputs": [
        {
          "internalType": "address",
          "name": "account",
          "type": "address"
        }
      ],
      "name": "excludeFromReward",
      "outputs": [],
      "stateMutability": "nonpayable",
      "type": "function"
    },
    {
      "inputs": [
        {
          "internalType": "address",
          "name": "botwallet",
          "type": "address"
        }
      ],
      "name": "getBotWalletStatus",
      "outputs": [
        {
          "internalType": "bool",
          "name": "",
          "type": "bool"
        }
      ],
      "stateMutability": "view",
      "type": "function"
    },
    {
      "inputs": [
        {
          "internalType": "address",
          "name": "account",
          "type": "address"
        }
      ],
      "name": "includeInFee",
      "outputs": [],
      "stateMutability": "nonpayable",
      "type": "function"
    },
    {
      "inputs": [
        {
          "internalType": "address",
          "name": "account",
          "type": "address"
        }
      ],
      "name": "includeInReward",
      "outputs": [],
      "stateMutability": "nonpayable",
      "type": "function"
    },
    {
      "inputs": [
        {
          "internalType": "address",
          "name": "spender",
          "type": "address"
        },
        {
          "internalType": "uint256",
          "name": "addedValue",
          "type": "uint256"
        }
      ],
      "name": "increaseAllowance",
      "outputs": [
        {
          "internalType": "bool",
          "name": "",
          "type": "bool"
        }
      ],
      "stateMutability": "nonpayable",
      "type": "function"
    },
    {
      "inputs": [
        {
          "internalType": "address",
          "name": "account",
          "type": "address"
        }
      ],
      "name": "isExcludedFromFee",
      "outputs": [
        {
          "internalType": "bool",
          "name": "",
          "type": "bool"
        }
      ],
      "stateMutability": "view",
      "type": "function"
    },
    {
      "inputs": [
        {
          "internalType": "address",
          "name": "account",
          "type": "address"
        }
      ],
      "name": "isExcludedFromReward",
      "outputs": [
        {
          "internalType": "bool",
          "name": "",
          "type": "bool"
        }
      ],
      "stateMutability": "view",
      "type": "function"
    },
    {
      "inputs": [],
      "name": "marketingWallet",
      "outputs": [
        {
          "internalType": "address",
          "name": "",
          "type": "address"
        }
      ],
      "stateMutability": "view",
      "type": "function"
    },
    {
      "inputs": [],
      "name": "name",
      "outputs": [
        {
          "internalType": "string",
          "name": "",
          "type": "string"
        }
      ],
      "stateMutability": "view",
      "type": "function"
    },
    {
      "inputs": [],
      "name": "numTokensSellToAddToLiquidity",
      "outputs": [
        {
          "internalType": "uint256",
          "name": "",
          "type": "uint256"
        }
      ],
      "stateMutability": "view",
      "type": "function"
    },
    {
      "inputs": [],
      "name": "owner",
      "outputs": [
        {
          "internalType": "address",
          "name": "",
          "type": "address"
        }
      ],
      "stateMutability": "view",
      "type": "function"
    },
    {
      "inputs": [
        {
          "internalType": "uint256",
          "name": "tAmount",
          "type": "uint256"
        },
        {
          "internalType": "bool",
          "name": "deductTransferFee",
          "type": "bool"
        }
      ],
      "name": "reflectionFromToken",
      "outputs": [
        {
          "internalType": "uint256",
          "name": "",
          "type": "uint256"
        }
      ],
      "stateMutability": "view",
      "type": "function"
    },
    {
      "inputs": [
        {
          "internalType": "address",
          "name": "botwallet",
          "type": "address"
        }
      ],
      "name": "removeBotWallet",
      "outputs": [],
      "stateMutability": "nonpayable",
      "type": "function"
    },
    {
      "inputs": [],
      "name": "renounceOwnership",
      "outputs": [],
      "stateMutability": "nonpayable",
      "type": "function"
    },
    {
      "inputs": [
        {
          "internalType": "address",
          "name": "walletAddress",
          "type": "address"
        }
      ],
      "name": "setMarketingWallet",
      "outputs": [],
      "stateMutability": "nonpayable",
      "type": "function"
    },
    {
      "inputs": [
        {
          "internalType": "bool",
          "name": "_enabled",
          "type": "bool"
        }
      ],
      "name": "setSwapAndLiquifyEnabled",
      "outputs": [],
      "stateMutability": "nonpayable",
      "type": "function"
    },
    {
      "inputs": [
        {
          "internalType": "uint256",
          "name": "SwapThresholdAmount",
          "type": "uint256"
        }
      ],
      "name": "setSwapThresholdAmount",
      "outputs": [],
      "stateMutability": "nonpayable",
      "type": "function"
    },
    {
      "inputs": [],
      "name": "swapAndLiquifyEnabled",
      "outputs": [
        {
          "internalType": "bool",
          "name": "",
          "type": "bool"
        }
      ],
      "stateMutability": "view",
      "type": "function"
    },
    {
      "inputs": [],
      "name": "symbol",
      "outputs": [
        {
          "internalType": "string",
          "name": "",
          "type": "string"
        }
      ],
      "stateMutability": "view",
      "type": "function"
    },
    {
      "inputs": [
        {
          "internalType": "uint256",
          "name": "rAmount",
          "type": "uint256"
        }
      ],
      "name": "tokenFromReflection",
      "outputs": [
        {
          "internalType": "uint256",
          "name": "",
          "type": "uint256"
        }
      ],
      "stateMutability": "view",
      "type": "function"
    },
    {
      "inputs": [],
      "name": "totalFees",
      "outputs": [
        {
          "internalType": "uint256",
          "name": "",
          "type": "uint256"
        }
      ],
      "stateMutability": "view",
      "type": "function"
    },
    {
      "inputs": [],
      "name": "totalSupply",
      "outputs": [
        {
          "internalType": "uint256",
          "name": "",
          "type": "uint256"
        }
      ],
      "stateMutability": "view",
      "type": "function"
    },
    {
      "inputs": [
        {
          "internalType": "address",
          "name": "recipient",
          "type": "address"
        },
        {
          "internalType": "uint256",
          "name": "amount",
          "type": "uint256"
        }
      ],
      "name": "transfer",
      "outputs": [
        {
          "internalType": "bool",
          "name": "",
          "type": "bool"
        }
      ],
      "stateMutability": "nonpayable",
      "type": "function"
    },
    {
      "inputs": [
        {
          "internalType": "address",
          "name": "sender",
          "type": "address"
        },
        {
          "internalType": "address",
          "name": "recipient",
          "type": "address"
        },
        {
          "internalType": "uint256",
          "name": "amount",
          "type": "uint256"
        }
      ],
      "name": "transferFrom",
      "outputs": [
        {
          "internalType": "bool",
          "name": "",
          "type": "bool"
        }
      ],
      "stateMutability": "nonpayable",
      "type": "function"
    },
    {
      "inputs": [
        {
          "internalType": "address",
          "name": "newOwner",
          "type": "address"
        }
      ],
      "name": "transferOwnership",
      "outputs": [],
      "stateMutability": "nonpayable",
      "type": "function"
    },
    {
      "inputs": [],
      "name": "uniswapV2Pair",
      "outputs": [
        {
          "internalType": "address",
          "name": "",
          "type": "address"
        }
      ],
      "stateMutability": "view",
      "type": "function"
    },
    {
      "inputs": [],
      "name": "uniswapV2Router",
      "outputs": [
        {
          "internalType": "contract IUniswapV2Router02",
          "name": "",
          "type": "address"
        }
      ],
      "stateMutability": "view",
      "type": "function"
    },
    {
      "inputs": [],
      "name": "upliftTxAmount",
      "outputs": [],
      "stateMutability": "nonpayable",
      "type": "function"
    },
    {
      "stateMutability": "payable",
      "type": "receive"
    }
  ],
  "bytecode": "0x60c06040526008805461ffff1916905562000026633b9aca0066038d7ea4c68000620004c8565b60098190556200003990600019620004ea565b62000047906000196200050d565b600a55600d80546001600160a01b03191661dead17905560408051808201909152600980825268242aa1102a27a5a2a760b91b60209092019182526200009091600e916200040c565b5060408051808201909152600380825262242aa160e91b6020909201918252620000bd91600f916200040c565b506010805460ff19166009179055600360118190556012556001601381905560148190556015819055601681905560178190556018556019805461ff00191661010017905562000119633b9aca0066038d7ea4c68000620004c8565b601a5562000130633b9aca006305f5e100620004c8565b601b553480156200014057600080fd5b506200014c33620003bc565b600a543360009081526001602090815260409182902092909255805163c45a015560e01b81529051737a250d5630b4cf539739df2c5dacb4c659f2488d92839263c45a01559260048083019392829003018186803b158015620001ae57600080fd5b505afa158015620001c3573d6000803e3d6000fd5b505050506040513d601f19601f82011682018060405250810190620001e9919062000527565b6001600160a01b031663c9c6539630836001600160a01b031663ad5c46486040518163ffffffff1660e01b815260040160206040518083038186803b1580156200023257600080fd5b505afa15801562000247573d6000803e3d6000fd5b505050506040513d601f19601f820116820180604052508101906200026d919062000527565b6040516001600160e01b031960e085901b1681526001600160a01b03928316600482015291166024820152604401602060405180830381600087803b158015620002b657600080fd5b505af1158015620002cb573d6000803e3d6000fd5b505050506040513d601f19601f82011682018060405250810190620002f1919062000527565b6001600160a01b0390811660a05281166080526001600460006200031d6000546001600160a01b031690565b6001600160a01b0316815260208082019290925260409081016000908120805494151560ff199586161790553081526004909252902080549091166001179055620003653390565b6001600160a01b031660006001600160a01b03167fddf252ad1be2c89b69c2b068fc378daa952ba7f163c4a11628f55a4df523b3ef600954604051620003ad91815260200190565b60405180910390a35062000596565b600080546001600160a01b038381166001600160a01b0319831681178455604051919092169283917f8be0079c531659141344cd1fd0a4f28419497f9722a3daafe3b4186f6b6457e09190a35050565b8280546200041a9062000559565b90600052602060002090601f0160209004810192826200043e576000855562000489565b82601f106200045957805160ff191683800117855562000489565b8280016001018555821562000489579182015b82811115620004895782518255916020019190600101906200046c565b50620004979291506200049b565b5090565b5b808211156200049757600081556001016200049c565b634e487b7160e01b600052601160045260246000fd5b6000816000190483118215151615620004e557620004e5620004b2565b500290565b6000826200050857634e487b7160e01b600052601260045260246000fd5b500690565b600082821015620005225762000522620004b2565b500390565b6000602082840312156200053a57600080fd5b81516001600160a01b03811681146200055257600080fd5b9392505050565b600181811c908216806200056e57607f821691505b602082108114156200059057634e487b7160e01b600052602260045260246000fd5b50919050565b60805160a051612d37620005e6600039600081816105ab0152611a900152600081816103a0015281816122430152818161230b01528181612347015281816123c501526123ec0152612d376000f3fe6080604052600436106102b25760003560e01c806352390c02116101755780638da5cb5b116100dc578063c49b9a8011610095578063dd62ed3e1161006f578063dd62ed3e1461088c578063e8c4c43c146108d2578063ea2f0b37146108e7578063f2fde38b1461090757600080fd5b8063c49b9a8014610836578063d12a768814610856578063d4a3883f1461086c57600080fd5b80638da5cb5b1461079857806395d89b41146107b6578063a457c2d7146107cb578063a6334231146107eb578063a9059cbb14610800578063c0b0fda21461082057600080fd5b8063715018a61161012e578063715018a6146106d457806375f0a874146106e9578063764d72bf146107095780637d1db4a51461072957806388f820201461073f5780638ba4cc3c1461077857600080fd5b806352390c02146105ec5780635342acb41461060c5780635d098b381461064557806360d48489146106655780636bc87c3a1461069e57806370a08231146106b457600080fd5b80632f05205c116102195780633bd5d173116101d25780633bd5d17314610524578063437823ec146105445780634549b0391461056457806348c54b9d1461058457806349bd5a5e146105995780634a74bb02146105cd57600080fd5b80632f05205c1461046d578063313ce5671461048c5780633685d419146104ae57806339509351146104ce5780633ae7dc20146104ee5780633b124fe71461050e57600080fd5b806318160ddd1161026b57806318160ddd146103c257806322976e0d146103d757806323b872dd146103ed57806329e04b4a1461040d5780632a3606311461042d5780632d8381191461044d57600080fd5b80630305caff146102be57806306228749146102e057806306fdde031461031d578063095ea7b31461033f57806313114a9d1461036f5780631694505e1461038e57600080fd5b366102b957005b600080fd5b3480156102ca57600080fd5b506102de6102d936600461284c565b610927565b005b3480156102ec57600080fd5b50600d54610300906001600160a01b031681565b6040516001600160a01b0390911681526020015b60405180910390f35b34801561032957600080fd5b5061033261097b565b6040516103149190612869565b34801561034b57600080fd5b5061035f61035a3660046128be565b610a0d565b6040519015158152602001610314565b34801561037b57600080fd5b50600b545b604051908152602001610314565b34801561039a57600080fd5b506103007f000000000000000000000000000000000000000000000000000000000000000081565b3480156103ce57600080fd5b50600954610380565b3480156103e357600080fd5b5061038060175481565b3480156103f957600080fd5b5061035f6104083660046128ea565b610a24565b34801561041957600080fd5b506102de61042836600461292b565b610a8d565b34801561043957600080fd5b506102de61044836600461284c565b610b3b565b34801561045957600080fd5b5061038061046836600461292b565b610b89565b34801561047957600080fd5b5060085461035f90610100900460ff1681565b34801561049857600080fd5b5060105460405160ff9091168152602001610314565b3480156104ba57600080fd5b506102de6104c936600461284c565b610c0d565b3480156104da57600080fd5b5061035f6104e93660046128be565b610dc4565b3480156104fa57600080fd5b506102de610509366004612944565b610dfa565b34801561051a57600080fd5b5061038060115481565b34801561053057600080fd5b506102de61053f36600461292b565b610f28565b34801561055057600080fd5b506102de61055f36600461284c565b611012565b34801561057057600080fd5b5061038061057f36600461298b565b611060565b34801561059057600080fd5b506102de6110ed565b3480156105a557600080fd5b506103007f000000000000000000000000000000000000000000000000000000000000000081565b3480156105d957600080fd5b5060195461035f90610100900460ff1681565b3480156105f857600080fd5b506102de61060736600461284c565b611153565b34801561061857600080fd5b5061035f61062736600461284c565b6001600160a01b031660009081526004602052604090205460ff1690565b34801561065157600080fd5b506102de61066036600461284c565b6112a6565b34801561067157600080fd5b5061035f61068036600461284c565b6001600160a01b031660009081526007602052604090205460ff1690565b3480156106aa57600080fd5b5061038060135481565b3480156106c057600080fd5b506103806106cf36600461284c565b6112f2565b3480156106e057600080fd5b506102de611351565b3480156106f557600080fd5b50600c54610300906001600160a01b031681565b34801561071557600080fd5b506102de61072436600461284c565b611387565b34801561073557600080fd5b50610380601a5481565b34801561074b57600080fd5b5061035f61075a36600461284c565b6001600160a01b031660009081526005602052604090205460ff1690565b34801561078457600080fd5b506102de6107933660046128be565b6113e6565b3480156107a457600080fd5b506000546001600160a01b0316610300565b3480156107c257600080fd5b50610332611441565b3480156107d757600080fd5b5061035f6107e63660046128be565b611450565b3480156107f757600080fd5b506102de61149f565b34801561080c57600080fd5b5061035f61081b3660046128be565b6114da565b34801561082c57600080fd5b5061038060155481565b34801561084257600080fd5b506102de6108513660046129b0565b6114e7565b34801561086257600080fd5b50610380601b5481565b34801561087857600080fd5b506102de610887366004612a19565b611565565b34801561089857600080fd5b506103806108a7366004612944565b6001600160a01b03918216600090815260036020908152604080832093909416825291909152205490565b3480156108de57600080fd5b506102de611658565b3480156108f357600080fd5b506102de61090236600461284c565b611692565b34801561091357600080fd5b506102de61092236600461284c565b6116dd565b6000546001600160a01b0316331461095a5760405162461bcd60e51b815260040161095190612a85565b60405180910390fd5b6001600160a01b03166000908152600760205260409020805460ff19169055565b6060600e805461098a90612aba565b80601f01602080910402602001604051908101604052809291908181526020018280546109b690612aba565b8015610a035780601f106109d857610100808354040283529160200191610a03565b820191906000526020600020905b8154815290600101906020018083116109e657829003601f168201915b5050505050905090565b6000610a1a338484611775565b5060015b92915050565b6000610a31848484611899565b610a838433610a7e85604051806060016040528060288152602001612cb5602891396001600160a01b038a1660009081526003602090815260408083203384529091529020549190611b4a565b611775565b5060019392505050565b6000546001600160a01b03163314610ab75760405162461bcd60e51b815260040161095190612a85565b63041cdb408111610b275760405162461bcd60e51b815260206004820152603460248201527f53776170205468726573686f6c6420416d6f756e742063616e6e6f74206265206044820152733632b9b9903a3430b7101b1c9026b4b63634b7b760611b6064820152608401610951565b610b3581633b9aca00612b0b565b601b5550565b6000546001600160a01b03163314610b655760405162461bcd60e51b815260040161095190612a85565b6001600160a01b03166000908152600760205260409020805460ff19166001179055565b6000600a54821115610bf05760405162461bcd60e51b815260206004820152602a60248201527f416d6f756e74206d757374206265206c657373207468616e20746f74616c207260448201526965666c656374696f6e7360b01b6064820152608401610951565b6000610bfa611b76565b9050610c068382611b99565b9392505050565b6000546001600160a01b03163314610c375760405162461bcd60e51b815260040161095190612a85565b6001600160a01b03811660009081526005602052604090205460ff16610c9f5760405162461bcd60e51b815260206004820152601b60248201527f4163636f756e7420697320616c7265616479206578636c7564656400000000006044820152606401610951565b60005b600654811015610dc057816001600160a01b031660068281548110610cc957610cc9612b2a565b6000918252602090912001546001600160a01b03161415610dae5760068054610cf490600190612b40565b81548110610d0457610d04612b2a565b600091825260209091200154600680546001600160a01b039092169183908110610d3057610d30612b2a565b600091825260208083209190910180546001600160a01b0319166001600160a01b039485161790559184168152600282526040808220829055600590925220805460ff191690556006805480610d8857610d88612b57565b600082815260209020810160001990810180546001600160a01b03191690550190555050565b80610db881612b6d565b915050610ca2565b5050565b3360008181526003602090815260408083206001600160a01b03871684529091528120549091610a1a918590610a7e9086611ba5565b6000546001600160a01b03163314610e245760405162461bcd60e51b815260040161095190612a85565b6040516370a0823160e01b81523060048201526001600160a01b0383169063a9059cbb90839083906370a082319060240160206040518083038186803b158015610e6d57600080fd5b505afa158015610e81573d6000803e3d6000fd5b505050506040513d601f19601f82011682018060405250810190610ea59190612b88565b6040516001600160e01b031960e085901b1681526001600160a01b0390921660048301526024820152604401602060405180830381600087803b158015610eeb57600080fd5b505af1158015610eff573d6000803e3d6000fd5b505050506040513d601f19601f82011682018060405250810190610f239190612ba1565b505050565b3360008181526005602052604090205460ff1615610f9d5760405162461bcd60e51b815260206004820152602c60248201527f4578636c75646564206164647265737365732063616e6e6f742063616c6c207460448201526b3434b990333ab731ba34b7b760a11b6064820152608401610951565b6000610fa883611bb1565b505050506001600160a01b038416600090815260016020526040902054919250610fd491905082611c00565b6001600160a01b038316600090815260016020526040902055600a54610ffa9082611c00565b600a55600b5461100a9084611ba5565b600b55505050565b6000546001600160a01b0316331461103c5760405162461bcd60e51b815260040161095190612a85565b6001600160a01b03166000908152600460205260409020805460ff19166001179055565b60006009548311156110b45760405162461bcd60e51b815260206004820152601f60248201527f416d6f756e74206d757374206265206c657373207468616e20737570706c79006044820152606401610951565b816110d35760006110c484611bb1565b50939550610a1e945050505050565b60006110de84611bb1565b50929550610a1e945050505050565b6000546001600160a01b031633146111175760405162461bcd60e51b815260040161095190612a85565b600c546040516001600160a01b03909116904780156108fc02916000818181858888f19350505050158015611150573d6000803e3d6000fd5b50565b6000546001600160a01b0316331461117d5760405162461bcd60e51b815260040161095190612a85565b6001600160a01b03811660009081526005602052604090205460ff16156111e65760405162461bcd60e51b815260206004820152601b60248201527f4163636f756e7420697320616c7265616479206578636c7564656400000000006044820152606401610951565b6001600160a01b03811660009081526001602052604090205415611240576001600160a01b03811660009081526001602052604090205461122690610b89565b6001600160a01b0382166000908152600260205260409020555b6001600160a01b03166000818152600560205260408120805460ff191660019081179091556006805491820181559091527ff652222313e28459528d920b65115c16c04f3efc82aaedc97be59f3f377c0d3f0180546001600160a01b0319169091179055565b6000546001600160a01b031633146112d05760405162461bcd60e51b815260040161095190612a85565b600c80546001600160a01b0319166001600160a01b0392909216919091179055565b6001600160a01b03811660009081526005602052604081205460ff161561132f57506001600160a01b031660009081526002602052604090205490565b6001600160a01b038216600090815260016020526040902054610a1e90610b89565b6000546001600160a01b0316331461137b5760405162461bcd60e51b815260040161095190612a85565b6113856000611c0c565b565b6000546001600160a01b031633146113b15760405162461bcd60e51b815260040161095190612a85565b6040516001600160a01b038216904780156108fc02916000818181858888f19350505050158015610dc0573d6000803e3d6000fd5b6000546001600160a01b031633146114105760405162461bcd60e51b815260040161095190612a85565b611418611c5c565b611430338361142b633b9aca0085612b0b565b611899565b610dc0601254601155601454601355565b6060600f805461098a90612aba565b6000610a1a3384610a7e85604051806060016040528060258152602001612cdd602591393360009081526003602090815260408083206001600160a01b038d1684529091529020549190611b4a565b6000546001600160a01b031633146114c95760405162461bcd60e51b815260040161095190612a85565b6008805461ff001916610100179055565b6000610a1a338484611899565b6000546001600160a01b031633146115115760405162461bcd60e51b815260040161095190612a85565b601980548215156101000261ff00199091161790556040517f53726dfcaf90650aa7eb35524f4d3220f07413c8d6cb404cc8c18bf5591bc1599061155a90831515815260200190565b60405180910390a150565b6000546001600160a01b0316331461158f5760405162461bcd60e51b815260040161095190612a85565b60008382146115e05760405162461bcd60e51b815260206004820152601760248201527f6d757374206265207468652073616d65206c656e6774680000000000000000006044820152606401610951565b838110156116515761163f8585838181106115fd576115fd612b2a565b9050602002016020810190611612919061284c565b84848481811061162457611624612b2a565b90506020020135633b9aca0061163a9190612b0b565b611c8a565b61164a600182612bbe565b90506115e0565b5050505050565b6000546001600160a01b031633146116825760405162461bcd60e51b815260040161095190612a85565b69d3c21bcecceda1000000601a55565b6000546001600160a01b031633146116bc5760405162461bcd60e51b815260040161095190612a85565b6001600160a01b03166000908152600460205260409020805460ff19169055565b6000546001600160a01b031633146117075760405162461bcd60e51b815260040161095190612a85565b6001600160a01b03811661176c5760405162461bcd60e51b815260206004820152602660248201527f4f776e61626c653a206e6577206f776e657220697320746865207a65726f206160448201526564647265737360d01b6064820152608401610951565b61115081611c0c565b6001600160a01b0383166117d75760405162461bcd60e51b8152602060048201526024808201527f45524332303a20617070726f76652066726f6d20746865207a65726f206164646044820152637265737360e01b6064820152608401610951565b6001600160a01b0382166118385760405162461bcd60e51b815260206004820152602260248201527f45524332303a20617070726f766520746f20746865207a65726f206164647265604482015261737360f01b6064820152608401610951565b6001600160a01b0383811660008181526003602090815260408083209487168084529482529182902085905590518481527f8c5be1e5ebec7d5bd14f71427d1e84f3dd0314c0f7b2291e5b200ac8c7c3b925910160405180910390a3505050565b6001600160a01b0383166118fd5760405162461bcd60e51b815260206004820152602560248201527f45524332303a207472616e736665722066726f6d20746865207a65726f206164604482015264647265737360d81b6064820152608401610951565b6001600160a01b03821661195f5760405162461bcd60e51b815260206004820152602360248201527f45524332303a207472616e7366657220746f20746865207a65726f206164647260448201526265737360e81b6064820152608401610951565b600081116119c15760405162461bcd60e51b815260206004820152602960248201527f5472616e7366657220616d6f756e74206d7573742062652067726561746572206044820152687468616e207a65726f60b81b6064820152608401610951565b6000546001600160a01b038481169116148015906119ed57506000546001600160a01b03838116911614155b15611a5557601a54811115611a555760405162461bcd60e51b815260206004820152602860248201527f5472616e7366657220616d6f756e74206578636565647320746865206d6178546044820152673c20b6b7bab73a1760c11b6064820152608401610951565b6000611a60306112f2565b9050601a548110611a705750601a545b601b5481108015908190611a87575060195460ff16155b8015611ac557507f00000000000000000000000000000000000000000000000000000000000000006001600160a01b0316856001600160a01b031614155b8015611ad85750601954610100900460ff165b15611aeb57601b549150611aeb82611c9d565b6001600160a01b03851660009081526004602052604090205460019060ff1680611b2d57506001600160a01b03851660009081526004602052604090205460ff165b15611b36575060005b611b4286868684611d9c565b505050505050565b60008184841115611b6e5760405162461bcd60e51b81526004016109519190612869565b505050900390565b6000806000611b83611fd8565b9092509050611b928282611b99565b9250505090565b6000610c068284612bd6565b6000610c068284612bbe565b6000806000806000806000806000611bc88a61215a565b9250925092506000806000611be68d8686611be1611b76565b61219c565b919f909e50909c50959a5093985091965092945050505050565b6000610c068284612b40565b600080546001600160a01b038381166001600160a01b0319831681178455604051919092169283917f8be0079c531659141344cd1fd0a4f28419497f9722a3daafe3b4186f6b6457e09190a35050565b601154158015611c6c5750601354155b15611c7357565b601180546012556013805460145560009182905555565b611c92611c5c565b611430338383611899565b6019805460ff191660011790556000611cb7826002611b99565b90506000611cc58383611c00565b905047611cd1836121ec565b6000611cdd4783611c00565b90506000611cf76064611cf18460506123b3565b90611b99565b600c546040519192506001600160a01b03169082156108fc029083906000818181858888f19350505050158015611d32573d6000803e3d6000fd5b50611d3d8183612b40565b9150611d4984836123bf565b60408051868152602081018490529081018590527f17bbfb9a6069321b6ded73bd96327c9e6b7212a5cd51ff219cd61370acafb5619060600160405180910390a150506019805460ff1916905550505050565b600854610100900460ff16611dc5576000546001600160a01b03858116911614611dc557600080fd5b6001600160a01b03841660009081526007602052604090205460ff1680611e0457506001600160a01b03831660009081526007602052604090205460ff165b15611e5b5760085460ff16611e5b5760405162461bcd60e51b815260206004820152601b60248201527f626f7473206172656e7420616c6c6f77656420746f20747261646500000000006044820152606401610951565b80611e6857611e68611c5c565b6001600160a01b03841660009081526005602052604090205460ff168015611ea957506001600160a01b03831660009081526005602052604090205460ff16155b15611ebe57611eb98484846124cd565b611fbc565b6001600160a01b03841660009081526005602052604090205460ff16158015611eff57506001600160a01b03831660009081526005602052604090205460ff165b15611f0f57611eb98484846125f3565b6001600160a01b03841660009081526005602052604090205460ff16158015611f5157506001600160a01b03831660009081526005602052604090205460ff16155b15611f6157611eb984848461269c565b6001600160a01b03841660009081526005602052604090205460ff168015611fa157506001600160a01b03831660009081526005602052604090205460ff165b15611fb157611eb98484846126e0565b611fbc84848461269c565b80611fd257611fd2601254601155601454601355565b50505050565b600a546009546000918291825b60065481101561212a5782600160006006848154811061200757612007612b2a565b60009182526020808320909101546001600160a01b031683528201929092526040019020541180612072575081600260006006848154811061204b5761204b612b2a565b60009182526020808320909101546001600160a01b03168352820192909252604001902054115b1561208857600a54600954945094505050509091565b6120ce60016000600684815481106120a2576120a2612b2a565b60009182526020808320909101546001600160a01b031683528201929092526040019020548490611c00565b925061211660026000600684815481106120ea576120ea612b2a565b60009182526020808320909101546001600160a01b031683528201929092526040019020548390611c00565b91508061212281612b6d565b915050611fe5565b50600954600a5461213a91611b99565b82101561215157600a546009549350935050509091565b90939092509050565b60008060008061216985612753565b905060006121768661276f565b9050600061218e826121888986611c00565b90611c00565b979296509094509092505050565b60008080806121ab88866123b3565b905060006121b988876123b3565b905060006121c788886123b3565b905060006121d9826121888686611c00565b939b939a50919850919650505050505050565b604080516002808252606082018352600092602083019080368337019050509050308160008151811061222157612221612b2a565b60200260200101906001600160a01b031690816001600160a01b0316815250507f00000000000000000000000000000000000000000000000000000000000000006001600160a01b031663ad5c46486040518163ffffffff1660e01b815260040160206040518083038186803b15801561229a57600080fd5b505afa1580156122ae573d6000803e3d6000fd5b505050506040513d601f19601f820116820180604052508101906122d29190612bf8565b816001815181106122e5576122e5612b2a565b60200260200101906001600160a01b031690816001600160a01b031681525050612330307f000000000000000000000000000000000000000000000000000000000000000084611775565b60405163791ac94760e01b81526001600160a01b037f0000000000000000000000000000000000000000000000000000000000000000169063791ac94790612385908590600090869030904290600401612c15565b600060405180830381600087803b15801561239f57600080fd5b505af1158015611b42573d6000803e3d6000fd5b6000610c068284612b0b565b6123ea307f000000000000000000000000000000000000000000000000000000000000000084611775565b7f00000000000000000000000000000000000000000000000000000000000000006001600160a01b031663f305d7198230856000806124316000546001600160a01b031690565b60405160e088901b6001600160e01b03191681526001600160a01b03958616600482015260248101949094526044840192909252606483015290911660848201524260a482015260c4016060604051808303818588803b15801561249457600080fd5b505af11580156124a8573d6000803e3d6000fd5b50505050506040513d601f19601f820116820180604052508101906116519190612c86565b6000806000806000806124df87611bb1565b6001600160a01b038f16600090815260026020526040902054959b509399509197509550935091506125119088611c00565b6001600160a01b038a166000908152600260209081526040808320939093556001905220546125409087611c00565b6001600160a01b03808b1660009081526001602052604080822093909355908a168152205461256f9086611ba5565b6001600160a01b0389166000908152600160205260409020556125918161278b565b61259b8483612813565b876001600160a01b0316896001600160a01b03167fddf252ad1be2c89b69c2b068fc378daa952ba7f163c4a11628f55a4df523b3ef856040516125e091815260200190565b60405180910390a3505050505050505050565b60008060008060008061260587611bb1565b6001600160a01b038f16600090815260016020526040902054959b509399509197509550935091506126379087611c00565b6001600160a01b03808b16600090815260016020908152604080832094909455918b1681526002909152205461266d9084611ba5565b6001600160a01b03891660009081526002602090815260408083209390935560019052205461256f9086611ba5565b6000806000806000806126ae87611bb1565b6001600160a01b038f16600090815260016020526040902054959b509399509197509550935091506125409087611c00565b6000806000806000806126f287611bb1565b6001600160a01b038f16600090815260026020526040902054959b509399509197509550935091506127249088611c00565b6001600160a01b038a166000908152600260209081526040808320939093556001905220546126379087611c00565b6000610a1e6064611cf1601154856123b390919063ffffffff16565b6000610a1e6064611cf1601354856123b390919063ffffffff16565b6000612795611b76565b905060006127a383836123b3565b306000908152600160205260409020549091506127c09082611ba5565b3060009081526001602090815260408083209390935560059052205460ff1615610f2357306000908152600260205260409020546127fe9084611ba5565b30600090815260026020526040902055505050565b600a546128209083611c00565b600a55600b546128309082611ba5565b600b555050565b6001600160a01b038116811461115057600080fd5b60006020828403121561285e57600080fd5b8135610c0681612837565b600060208083528351808285015260005b818110156128965785810183015185820160400152820161287a565b818111156128a8576000604083870101525b50601f01601f1916929092016040019392505050565b600080604083850312156128d157600080fd5b82356128dc81612837565b946020939093013593505050565b6000806000606084860312156128ff57600080fd5b833561290a81612837565b9250602084013561291a81612837565b929592945050506040919091013590565b60006020828403121561293d57600080fd5b5035919050565b6000806040838503121561295757600080fd5b823561296281612837565b9150602083013561297281612837565b809150509250929050565b801515811461115057600080fd5b6000806040838503121561299e57600080fd5b8235915060208301356129728161297d565b6000602082840312156129c257600080fd5b8135610c068161297d565b60008083601f8401126129df57600080fd5b50813567ffffffffffffffff8111156129f757600080fd5b6020830191508360208260051b8501011115612a1257600080fd5b9250929050565b60008060008060408587031215612a2f57600080fd5b843567ffffffffffffffff80821115612a4757600080fd5b612a53888389016129cd565b90965094506020870135915080821115612a6c57600080fd5b50612a79878288016129cd565b95989497509550505050565b6020808252818101527f4f776e61626c653a2063616c6c6572206973206e6f7420746865206f776e6572604082015260600190565b600181811c90821680612ace57607f821691505b60208210811415612aef57634e487b7160e01b600052602260045260246000fd5b50919050565b634e487b7160e01b600052601160045260246000fd5b6000816000190483118215151615612b2557612b25612af5565b500290565b634e487b7160e01b600052603260045260246000fd5b600082821015612b5257612b52612af5565b500390565b634e487b7160e01b600052603160045260246000fd5b6000600019821415612b8157612b81612af5565b5060010190565b600060208284031215612b9a57600080fd5b5051919050565b600060208284031215612bb357600080fd5b8151610c068161297d565b60008219821115612bd157612bd1612af5565b500190565b600082612bf357634e487b7160e01b600052601260045260246000fd5b500490565b600060208284031215612c0a57600080fd5b8151610c0681612837565b600060a082018783526020878185015260a0604085015281875180845260c086019150828901935060005b81811015612c655784516001600160a01b031683529383019391830191600101612c40565b50506001600160a01b03969096166060850152505050608001529392505050565b600080600060608486031215612c9b57600080fd5b835192506020840151915060408401519050925092509256fe45524332303a207472616e7366657220616d6f756e74206578636565647320616c6c6f77616e636545524332303a2064656372656173656420616c6c6f77616e63652062656c6f77207a65726fa2646970667358221220024d25158aa30fde625ed4c361ca59752fea58421d8b120cdf7d509c4740fd3d64736f6c63430008090033",
  "linkReferences": {},
  "deployedLinkReferences": {}
}