{
  "_format": "hh-sol-artifact-1",
  "contractName": "DividendPayingToken",
  "sourceName": "contracts/DividendPayingToken.sol",
  "abi": [
    {
      "inputs": [
        {
          "internalType": "string",
          "name": "_name",
          "type": "string"
        },
        {
          "internalType": "string",
          "name": "_symbol",
          "type": "string"
        }
      ],
      "stateMutability": "nonpayable",
      "type": "constructor"
    },
    {
      "anonymous": false,
      "inputs": [
        {
          "indexed": true,
          "internalType": "address",
          "name": "owner",
          "type": "address"
        },
        {
          "indexed": true,
          "internalType": "address",
          "name": "spender",
          "type": "address"
        },
        {
          "indexed": false,
          "internalType": "uint256",
          "name": "value",
          "type": "uint256"
        }
      ],
      "name": "Approval",
      "type": "event"
    },
    {
      "anonymous": false,
      "inputs": [
        {
          "indexed": true,
          "internalType": "address",
          "name": "to",
          "type": "address"
        },
        {
          "indexed": false,
          "internalType": "uint256",
          "name": "weiAmount",
          "type": "uint256"
        }
      ],
      "name": "DividendWithdrawn",
      "type": "event"
    },
    {
      "anonymous": false,
      "inputs": [
        {
          "indexed": true,
          "internalType": "address",
          "name": "from",
          "type": "address"
        },
        {
          "indexed": false,
          "internalType": "uint256",
          "name": "weiAmount",
          "type": "uint256"
        }
      ],
      "name": "DividendsDistributed",
      "type": "event"
    },
    {
      "anonymous": false,
      "inputs": [
        {
          "indexed": true,
          "internalType": "address",
          "name": "previousOwner",
          "type": "address"
        },
        {
          "indexed": true,
          "internalType": "address",
          "name": "newOwner",
          "type": "address"
        }
      ],
      "name": "OwnershipTransferred",
      "type": "event"
    },
    {
      "anonymous": false,
      "inputs": [
        {
          "indexed": true,
          "internalType": "address",
          "name": "from",
          "type": "address"
        },
        {
          "indexed": true,
          "internalType": "address",
          "name": "to",
          "type": "address"
        },
        {
          "indexed": false,
          "internalType": "uint256",
          "name": "value",
          "type": "uint256"
        }
      ],
      "name": "Transfer",
      "type": "event"
    },
    {
      "inputs": [
        {
          "internalType": "address",
          "name": "_owner",
          "type": "address"
        }
      ],
      "name": "accumulativeDividendOf",
      "outputs": [
        {
          "internalType": "uint256",
          "name": "",
          "type": "uint256"
        }
      ],
      "stateMutability": "view",
      "type": "function"
    },
    {
      "inputs": [
        {
          "internalType": "address",
          "name": "owner",
          "type": "address"
        },
        {
          "internalType": "address",
          "name": "spender",
          "type": "address"
        }
      ],
      "name": "allowance",
      "outputs": [
        {
          "internalType": "uint256",
          "name": "",
          "type": "uint256"
        }
      ],
      "stateMutability": "view",
      "type": "function"
    },
    {
      "inputs": [
        {
          "internalType": "address",
          "name": "spender",
          "type": "address"
        },
        {
          "internalType": "uint256",
          "name": "amount",
          "type": "uint256"
        }
      ],
      "name": "approve",
      "outputs": [
        {
          "internalType": "bool",
          "name": "",
          "type": "bool"
        }
      ],
      "stateMutability": "nonpayable",
      "type": "function"
    },
    {
      "inputs": [
        {
          "internalType": "address",
          "name": "account",
          "type": "address"
        }
      ],
      "name": "balanceOf",
      "outputs": [
        {
          "internalType": "uint256",
          "name": "",
          "type": "uint256"
        }
      ],
      "stateMutability": "view",
      "type": "function"
    },
    {
      "inputs": [],
      "name": "decimals",
      "outputs": [
        {
          "internalType": "uint8",
          "name": "",
          "type": "uint8"
        }
      ],
      "stateMutability": "view",
      "type": "function"
    },
    {
      "inputs": [
        {
          "internalType": "address",
          "name": "spender",
          "type": "address"
        },
        {
          "internalType": "uint256",
          "name": "subtractedValue",
          "type": "uint256"
        }
      ],
      "name": "decreaseAllowance",
      "outputs": [
        {
          "internalType": "bool",
          "name": "",
          "type": "bool"
        }
      ],
      "stateMutability": "nonpayable",
      "type": "function"
    },
    {
      "inputs": [
        {
          "internalType": "uint256",
          "name": "amount",
          "type": "uint256"
        }
      ],
      "name": "distributeSHIBDividends",
      "outputs": [],
      "stateMutability": "nonpayable",
      "type": "function"
    },
    {
      "inputs": [
        {
          "internalType": "address",
          "name": "_owner",
          "type": "address"
        }
      ],
      "name": "dividendOf",
      "outputs": [
        {
          "internalType": "uint256",
          "name": "",
          "type": "uint256"
        }
      ],
      "stateMutability": "view",
      "type": "function"
    },
    {
      "inputs": [
        {
          "internalType": "address",
          "name": "spender",
          "type": "address"
        },
        {
          "internalType": "uint256",
          "name": "addedValue",
          "type": "uint256"
        }
      ],
      "name": "increaseAllowance",
      "outputs": [
        {
          "internalType": "bool",
          "name": "",
          "type": "bool"
        }
      ],
      "stateMutability": "nonpayable",
      "type": "function"
    },
    {
      "inputs": [],
      "name": "name",
      "outputs": [
        {
          "internalType": "string",
          "name": "",
          "type": "string"
        }
      ],
      "stateMutability": "view",
      "type": "function"
    },
    {
      "inputs": [],
      "name": "owner",
      "outputs": [
        {
          "internalType": "address",
          "name": "",
          "type": "address"
        }
      ],
      "stateMutability": "view",
      "type": "function"
    },
    {
      "inputs": [],
      "name": "renounceOwnership",
      "outputs": [],
      "stateMutability": "nonpayable",
      "type": "function"
    },
    {
      "inputs": [],
      "name": "symbol",
      "outputs": [
        {
          "internalType": "string",
          "name": "",
          "type": "string"
        }
      ],
      "stateMutability": "view",
      "type": "function"
    },
    {
      "inputs": [],
      "name": "totalDividendsDistributed",
      "outputs": [
        {
          "internalType": "uint256",
          "name": "",
          "type": "uint256"
        }
      ],
      "stateMutability": "view",
      "type": "function"
    },
    {
      "inputs": [],
      "name": "totalSupply",
      "outputs": [
        {
          "internalType": "uint256",
          "name": "",
          "type": "uint256"
        }
      ],
      "stateMutability": "view",
      "type": "function"
    },
    {
      "inputs": [
        {
          "internalType": "address",
          "name": "to",
          "type": "address"
        },
        {
          "internalType": "uint256",
          "name": "amount",
          "type": "uint256"
        }
      ],
      "name": "transfer",
      "outputs": [
        {
          "internalType": "bool",
          "name": "",
          "type": "bool"
        }
      ],
      "stateMutability": "nonpayable",
      "type": "function"
    },
    {
      "inputs": [
        {
          "internalType": "address",
          "name": "from",
          "type": "address"
        },
        {
          "internalType": "address",
          "name": "to",
          "type": "address"
        },
        {
          "internalType": "uint256",
          "name": "amount",
          "type": "uint256"
        }
      ],
      "name": "transferFrom",
      "outputs": [
        {
          "internalType": "bool",
          "name": "",
          "type": "bool"
        }
      ],
      "stateMutability": "nonpayable",
      "type": "function"
    },
    {
      "inputs": [
        {
          "internalType": "address",
          "name": "newOwner",
          "type": "address"
        }
      ],
      "name": "transferOwnership",
      "outputs": [],
      "stateMutability": "nonpayable",
      "type": "function"
    },
    {
      "inputs": [],
      "name": "withdrawDividend",
      "outputs": [],
      "stateMutability": "nonpayable",
      "type": "function"
    },
    {
      "inputs": [
        {
          "internalType": "address",
          "name": "_owner",
          "type": "address"
        }
      ],
      "name": "withdrawableDividendOf",
      "outputs": [
        {
          "internalType": "uint256",
          "name": "",
          "type": "uint256"
        }
      ],
      "stateMutability": "view",
      "type": "function"
    },
    {
      "inputs": [
        {
          "internalType": "address",
          "name": "_owner",
          "type": "address"
        }
      ],
      "name": "withdrawnDividendOf",
      "outputs": [
        {
          "internalType": "uint256",
          "name": "",
          "type": "uint256"
        }
      ],
      "stateMutability": "view",
      "type": "function"
    }
  ],
  "bytecode": "0x6080604052600680546001600160a01b031916732859e4544c4bb03966803b044a93563bd2d0dd4d1790553480156200003757600080fd5b5060405162001104380380620011048339810160408190526200005a9162000277565b8151829082906200007390600390602085019062000104565b5080516200008990600490602084019062000104565b505050620000a6620000a0620000ae60201b60201c565b620000b2565b50506200031e565b3390565b600580546001600160a01b038381166001600160a01b0319831681179093556040519116919082907f8be0079c531659141344cd1fd0a4f28419497f9722a3daafe3b4186f6b6457e090600090a35050565b8280546200011290620002e1565b90600052602060002090601f01602090048101928262000136576000855562000181565b82601f106200015157805160ff191683800117855562000181565b8280016001018555821562000181579182015b828111156200018157825182559160200191906001019062000164565b506200018f92915062000193565b5090565b5b808211156200018f576000815560010162000194565b634e487b7160e01b600052604160045260246000fd5b600082601f830112620001d257600080fd5b81516001600160401b0380821115620001ef57620001ef620001aa565b604051601f8301601f19908116603f011681019082821181831017156200021a576200021a620001aa565b816040528381526020925086838588010111156200023757600080fd5b600091505b838210156200025b57858201830151818301840152908201906200023c565b838211156200026d5760008385830101525b9695505050505050565b600080604083850312156200028b57600080fd5b82516001600160401b0380821115620002a357600080fd5b620002b186838701620001c0565b93506020850151915080821115620002c857600080fd5b50620002d785828601620001c0565b9150509250929050565b600181811c90821680620002f657607f821691505b602082108114156200031857634e487b7160e01b600052602260045260246000fd5b50919050565b610dd6806200032e6000396000f3fe608060405234801561001057600080fd5b50600436106101375760003560e01c806385a6b3ae116100b8578063a8b9d2401161007c578063a8b9d24014610264578063a9059cbb14610277578063aafd847a1461028a578063dd62ed3e146102b3578063ec4be22d146102ec578063f2fde38b146102ff57600080fd5b806385a6b3ae146102125780638da5cb5b1461021b57806391b89fba1461023657806395d89b4114610249578063a457c2d71461025157600080fd5b8063313ce567116100ff578063313ce567146101b557806339509351146101c45780636a474002146101d757806370a08231146101e1578063715018a61461020a57600080fd5b806306fdde031461013c578063095ea7b31461015a57806318160ddd1461017d57806323b872dd1461018f57806327ce0147146101a2575b600080fd5b610144610312565b6040516101519190610b09565b60405180910390f35b61016d610168366004610b7a565b6103a4565b6040519015158152602001610151565b6002545b604051908152602001610151565b61016d61019d366004610ba4565b6103bc565b6101816101b0366004610be0565b6103e0565b60405160128152602001610151565b61016d6101d2366004610b7a565b610442565b6101df610481565b005b6101816101ef366004610be0565b6001600160a01b031660009081526020819052604090205490565b6101df61048d565b610181600a5481565b6005546040516001600160a01b039091168152602001610151565b610181610244366004610be0565b6104cc565b6101446104d7565b61016d61025f366004610b7a565b6104e6565b610181610272366004610be0565b610578565b61016d610285366004610b7a565b6105a4565b610181610298366004610be0565b6001600160a01b031660009081526009602052604090205490565b6101816102c1366004610bfb565b6001600160a01b03918216600090815260016020908152604080832093909416825291909152205490565b6101df6102fa366004610c2e565b6105b1565b6101df61030d366004610be0565b610669565b60606003805461032190610c47565b80601f016020809104026020016040519081016040528092919081815260200182805461034d90610c47565b801561039a5780601f1061036f5761010080835404028352916020019161039a565b820191906000526020600020905b81548152906001019060200180831161037d57829003601f168201915b5050505050905090565b6000336103b2818585610701565b5060019392505050565b6000336103ca858285610825565b6103d5858585600080fd5b506001949350505050565b6001600160a01b03811660009081526008602090815260408083205491839052822054600754600160801b926104329261042d926104279161042291906108b7565b6108ca565b906108da565b610918565b61043c9190610c98565b92915050565b3360008181526001602090815260408083206001600160a01b03871684529091528120549091906103b2908290869061047c908790610cba565b610701565b61048a3361092b565b50565b6005546001600160a01b031633146104c05760405162461bcd60e51b81526004016104b790610cd2565b60405180910390fd5b6104ca6000610a9f565b565b600061043c82610578565b60606004805461032190610c47565b3360008181526001602090815260408083206001600160a01b03871684529091528120549091908381101561056b5760405162461bcd60e51b815260206004820152602560248201527f45524332303a2064656372656173656420616c6c6f77616e63652062656c6f77604482015264207a65726f60d81b60648201526084016104b7565b6103d58286868403610701565b6001600160a01b03811660009081526009602052604081205461043c9061059e846103e0565b90610af1565b6000336103b28185858580fd5b6005546001600160a01b031633146105db5760405162461bcd60e51b81526004016104b790610cd2565b60006105e660025490565b9050806105f1575060015b81156106655761061c8161060984600160801b6108b7565b6106139190610c98565b60075490610afd565b60075560405182815233907fa493a9229478c3fcd73f66d2cdeb7f94fd0f341da924d1054236d784541165119060200160405180910390a2600a546106619083610afd565b600a555b5050565b6005546001600160a01b031633146106935760405162461bcd60e51b81526004016104b790610cd2565b6001600160a01b0381166106f85760405162461bcd60e51b815260206004820152602660248201527f4f776e61626c653a206e6577206f776e657220697320746865207a65726f206160448201526564647265737360d01b60648201526084016104b7565b61048a81610a9f565b6001600160a01b0383166107635760405162461bcd60e51b8152602060048201526024808201527f45524332303a20617070726f76652066726f6d20746865207a65726f206164646044820152637265737360e01b60648201526084016104b7565b6001600160a01b0382166107c45760405162461bcd60e51b815260206004820152602260248201527f45524332303a20617070726f766520746f20746865207a65726f206164647265604482015261737360f01b60648201526084016104b7565b6001600160a01b0383811660008181526001602090815260408083209487168084529482529182902085905590518481527f8c5be1e5ebec7d5bd14f71427d1e84f3dd0314c0f7b2291e5b200ac8c7c3b925910160405180910390a3505050565b6001600160a01b0383811660009081526001602090815260408083209386168352929052205460001981146108b157818110156108a45760405162461bcd60e51b815260206004820152601d60248201527f45524332303a20696e73756666696369656e7420616c6c6f77616e636500000060448201526064016104b7565b6108b18484848403610701565b50505050565b60006108c38284610d07565b9392505050565b6000818181121561043c57600080fd5b6000806108e78385610d26565b9050600083121580156108fa5750838112155b8061090f575060008312801561090f57508381125b6108c357600080fd5b60008082121561092757600080fd5b5090565b60008061093783610578565b90508015610a96576001600160a01b0383166000908152600960205260409020546109629082610afd565b6001600160a01b038416600081815260096020526040908190209290925590517fee503bee2bb6a87e57bc57db795f98137327401a0e7b7ce42e37926cc1a9ca4d906109b19084815260200190565b60405180910390a260065460405163a9059cbb60e01b81526001600160a01b03858116600483015260248201849052600092169063a9059cbb90604401602060405180830381600087803b158015610a0857600080fd5b505af1158015610a1c573d6000803e3d6000fd5b505050506040513d601f19601f82011682018060405250810190610a409190610d67565b905080610a8f576001600160a01b038416600090815260096020526040902054610a6a9083610af1565b6001600160a01b03909416600090815260096020526040812094909455509192915050565b5092915050565b50600092915050565b600580546001600160a01b038381166001600160a01b0319831681179093556040519116919082907f8be0079c531659141344cd1fd0a4f28419497f9722a3daafe3b4186f6b6457e090600090a35050565b60006108c38284610d89565b60006108c38284610cba565b600060208083528351808285015260005b81811015610b3657858101830151858201604001528201610b1a565b81811115610b48576000604083870101525b50601f01601f1916929092016040019392505050565b80356001600160a01b0381168114610b7557600080fd5b919050565b60008060408385031215610b8d57600080fd5b610b9683610b5e565b946020939093013593505050565b600080600060608486031215610bb957600080fd5b610bc284610b5e565b9250610bd060208501610b5e565b9150604084013590509250925092565b600060208284031215610bf257600080fd5b6108c382610b5e565b60008060408385031215610c0e57600080fd5b610c1783610b5e565b9150610c2560208401610b5e565b90509250929050565b600060208284031215610c4057600080fd5b5035919050565b600181811c90821680610c5b57607f821691505b60208210811415610c7c57634e487b7160e01b600052602260045260246000fd5b50919050565b634e487b7160e01b600052601160045260246000fd5b600082610cb557634e487b7160e01b600052601260045260246000fd5b500490565b60008219821115610ccd57610ccd610c82565b500190565b6020808252818101527f4f776e61626c653a2063616c6c6572206973206e6f7420746865206f776e6572604082015260600190565b6000816000190483118215151615610d2157610d21610c82565b500290565b600080821280156001600160ff1b0384900385131615610d4857610d48610c82565b600160ff1b8390038412811615610d6157610d61610c82565b50500190565b600060208284031215610d7957600080fd5b815180151581146108c357600080fd5b600082821015610d9b57610d9b610c82565b50039056fea2646970667358221220df975bf0b74c4b1b1ad9a85af7048f9d661890db5c7210f58cc824f0f08f6d4664736f6c63430008090033",
  "linkReferences": {},
  "deployedLinkReferences": {}
}