{
  "_format": "hh-sol-artifact-1",
  "contractName": "SHIBDividendTracker",
  "sourceName": "contracts/SHIBDividendTracker.sol",
  "abi": [
    {
      "inputs": [],
      "stateMutability": "nonpayable",
      "type": "constructor"
    },
    {
      "anonymous": false,
      "inputs": [
        {
          "indexed": true,
          "internalType": "address",
          "name": "owner",
          "type": "address"
        },
        {
          "indexed": true,
          "internalType": "address",
          "name": "spender",
          "type": "address"
        },
        {
          "indexed": false,
          "internalType": "uint256",
          "name": "value",
          "type": "uint256"
        }
      ],
      "name": "Approval",
      "type": "event"
    },
    {
      "anonymous": false,
      "inputs": [
        {
          "indexed": true,
          "internalType": "address",
          "name": "account",
          "type": "address"
        },
        {
          "indexed": false,
          "internalType": "uint256",
          "name": "amount",
          "type": "uint256"
        },
        {
          "indexed": true,
          "internalType": "bool",
          "name": "automatic",
          "type": "bool"
        }
      ],
      "name": "Claim",
      "type": "event"
    },
    {
      "anonymous": false,
      "inputs": [
        {
          "indexed": true,
          "internalType": "uint256",
          "name": "newValue",
          "type": "uint256"
        },
        {
          "indexed": true,
          "internalType": "uint256",
          "name": "oldValue",
          "type": "uint256"
        }
      ],
      "name": "ClaimWaitUpdated",
      "type": "event"
    },
    {
      "anonymous": false,
      "inputs": [
        {
          "indexed": true,
          "internalType": "address",
          "name": "to",
          "type": "address"
        },
        {
          "indexed": false,
          "internalType": "uint256",
          "name": "weiAmount",
          "type": "uint256"
        }
      ],
      "name": "DividendWithdrawn",
      "type": "event"
    },
    {
      "anonymous": false,
      "inputs": [
        {
          "indexed": true,
          "internalType": "address",
          "name": "from",
          "type": "address"
        },
        {
          "indexed": false,
          "internalType": "uint256",
          "name": "weiAmount",
          "type": "uint256"
        }
      ],
      "name": "DividendsDistributed",
      "type": "event"
    },
    {
      "anonymous": false,
      "inputs": [
        {
          "indexed": true,
          "internalType": "address",
          "name": "account",
          "type": "address"
        }
      ],
      "name": "ExcludeFromDividends",
      "type": "event"
    },
    {
      "anonymous": false,
      "inputs": [
        {
          "indexed": true,
          "internalType": "address",
          "name": "previousOwner",
          "type": "address"
        },
        {
          "indexed": true,
          "internalType": "address",
          "name": "newOwner",
          "type": "address"
        }
      ],
      "name": "OwnershipTransferred",
      "type": "event"
    },
    {
      "anonymous": false,
      "inputs": [
        {
          "indexed": true,
          "internalType": "address",
          "name": "from",
          "type": "address"
        },
        {
          "indexed": true,
          "internalType": "address",
          "name": "to",
          "type": "address"
        },
        {
          "indexed": false,
          "internalType": "uint256",
          "name": "value",
          "type": "uint256"
        }
      ],
      "name": "Transfer",
      "type": "event"
    },
    {
      "inputs": [
        {
          "internalType": "address",
          "name": "_owner",
          "type": "address"
        }
      ],
      "name": "accumulativeDividendOf",
      "outputs": [
        {
          "internalType": "uint256",
          "name": "",
          "type": "uint256"
        }
      ],
      "stateMutability": "view",
      "type": "function"
    },
    {
      "inputs": [
        {
          "internalType": "address",
          "name": "owner",
          "type": "address"
        },
        {
          "internalType": "address",
          "name": "spender",
          "type": "address"
        }
      ],
      "name": "allowance",
      "outputs": [
        {
          "internalType": "uint256",
          "name": "",
          "type": "uint256"
        }
      ],
      "stateMutability": "view",
      "type": "function"
    },
    {
      "inputs": [
        {
          "internalType": "address",
          "name": "spender",
          "type": "address"
        },
        {
          "internalType": "uint256",
          "name": "amount",
          "type": "uint256"
        }
      ],
      "name": "approve",
      "outputs": [
        {
          "internalType": "bool",
          "name": "",
          "type": "bool"
        }
      ],
      "stateMutability": "nonpayable",
      "type": "function"
    },
    {
      "inputs": [
        {
          "internalType": "address",
          "name": "account",
          "type": "address"
        }
      ],
      "name": "balanceOf",
      "outputs": [
        {
          "internalType": "uint256",
          "name": "",
          "type": "uint256"
        }
      ],
      "stateMutability": "view",
      "type": "function"
    },
    {
      "inputs": [],
      "name": "claimWait",
      "outputs": [
        {
          "internalType": "uint256",
          "name": "",
          "type": "uint256"
        }
      ],
      "stateMutability": "view",
      "type": "function"
    },
    {
      "inputs": [],
      "name": "decimals",
      "outputs": [
        {
          "internalType": "uint8",
          "name": "",
          "type": "uint8"
        }
      ],
      "stateMutability": "view",
      "type": "function"
    },
    {
      "inputs": [
        {
          "internalType": "address",
          "name": "spender",
          "type": "address"
        },
        {
          "internalType": "uint256",
          "name": "subtractedValue",
          "type": "uint256"
        }
      ],
      "name": "decreaseAllowance",
      "outputs": [
        {
          "internalType": "bool",
          "name": "",
          "type": "bool"
        }
      ],
      "stateMutability": "nonpayable",
      "type": "function"
    },
    {
      "inputs": [
        {
          "internalType": "uint256",
          "name": "amount",
          "type": "uint256"
        }
      ],
      "name": "distributeSHIBDividends",
      "outputs": [],
      "stateMutability": "nonpayable",
      "type": "function"
    },
    {
      "inputs": [
        {
          "internalType": "address",
          "name": "_owner",
          "type": "address"
        }
      ],
      "name": "dividendOf",
      "outputs": [
        {
          "internalType": "uint256",
          "name": "",
          "type": "uint256"
        }
      ],
      "stateMutability": "view",
      "type": "function"
    },
    {
      "inputs": [
        {
          "internalType": "address",
          "name": "account",
          "type": "address"
        }
      ],
      "name": "excludeFromDividends",
      "outputs": [],
      "stateMutability": "nonpayable",
      "type": "function"
    },
    {
      "inputs": [
        {
          "internalType": "address",
          "name": "",
          "type": "address"
        }
      ],
      "name": "excludedFromDividends",
      "outputs": [
        {
          "internalType": "bool",
          "name": "",
          "type": "bool"
        }
      ],
      "stateMutability": "view",
      "type": "function"
    },
    {
      "inputs": [],
      "name": "getLastProcessedIndex",
      "outputs": [
        {
          "internalType": "uint256",
          "name": "",
          "type": "uint256"
        }
      ],
      "stateMutability": "view",
      "type": "function"
    },
    {
      "inputs": [],
      "name": "getNumberOfTokenHolders",
      "outputs": [
        {
          "internalType": "uint256",
          "name": "",
          "type": "uint256"
        }
      ],
      "stateMutability": "view",
      "type": "function"
    },
    {
      "inputs": [
        {
          "internalType": "address",
          "name": "spender",
          "type": "address"
        },
        {
          "internalType": "uint256",
          "name": "addedValue",
          "type": "uint256"
        }
      ],
      "name": "increaseAllowance",
      "outputs": [
        {
          "internalType": "bool",
          "name": "",
          "type": "bool"
        }
      ],
      "stateMutability": "nonpayable",
      "type": "function"
    },
    {
      "inputs": [
        {
          "internalType": "address",
          "name": "",
          "type": "address"
        }
      ],
      "name": "lastClaimTimes",
      "outputs": [
        {
          "internalType": "uint256",
          "name": "",
          "type": "uint256"
        }
      ],
      "stateMutability": "view",
      "type": "function"
    },
    {
      "inputs": [],
      "name": "lastProcessedIndex",
      "outputs": [
        {
          "internalType": "uint256",
          "name": "",
          "type": "uint256"
        }
      ],
      "stateMutability": "view",
      "type": "function"
    },
    {
      "inputs": [],
      "name": "minimumTokenBalanceForDividends",
      "outputs": [
        {
          "internalType": "uint256",
          "name": "",
          "type": "uint256"
        }
      ],
      "stateMutability": "view",
      "type": "function"
    },
    {
      "inputs": [],
      "name": "name",
      "outputs": [
        {
          "internalType": "string",
          "name": "",
          "type": "string"
        }
      ],
      "stateMutability": "view",
      "type": "function"
    },
    {
      "inputs": [],
      "name": "owner",
      "outputs": [
        {
          "internalType": "address",
          "name": "",
          "type": "address"
        }
      ],
      "stateMutability": "view",
      "type": "function"
    },
    {
      "inputs": [
        {
          "internalType": "uint256",
          "name": "gas",
          "type": "uint256"
        }
      ],
      "name": "process",
      "outputs": [
        {
          "internalType": "uint256",
          "name": "",
          "type": "uint256"
        },
        {
          "internalType": "uint256",
          "name": "",
          "type": "uint256"
        },
        {
          "internalType": "uint256",
          "name": "",
          "type": "uint256"
        }
      ],
      "stateMutability": "nonpayable",
      "type": "function"
    },
    {
      "inputs": [
        {
          "internalType": "address",
          "name": "account",
          "type": "address"
        },
        {
          "internalType": "bool",
          "name": "automatic",
          "type": "bool"
        }
      ],
      "name": "processAccount",
      "outputs": [
        {
          "internalType": "bool",
          "name": "",
          "type": "bool"
        }
      ],
      "stateMutability": "nonpayable",
      "type": "function"
    },
    {
      "inputs": [],
      "name": "renounceOwnership",
      "outputs": [],
      "stateMutability": "nonpayable",
      "type": "function"
    },
    {
      "inputs": [
        {
          "internalType": "address",
          "name": "account",
          "type": "address"
        },
        {
          "internalType": "uint256",
          "name": "newBalance",
          "type": "uint256"
        }
      ],
      "name": "setBalance",
      "outputs": [],
      "stateMutability": "nonpayable",
      "type": "function"
    },
    {
      "inputs": [],
      "name": "symbol",
      "outputs": [
        {
          "internalType": "string",
          "name": "",
          "type": "string"
        }
      ],
      "stateMutability": "view",
      "type": "function"
    },
    {
      "inputs": [],
      "name": "totalDividendsDistributed",
      "outputs": [
        {
          "internalType": "uint256",
          "name": "",
          "type": "uint256"
        }
      ],
      "stateMutability": "view",
      "type": "function"
    },
    {
      "inputs": [],
      "name": "totalSupply",
      "outputs": [
        {
          "internalType": "uint256",
          "name": "",
          "type": "uint256"
        }
      ],
      "stateMutability": "view",
      "type": "function"
    },
    {
      "inputs": [
        {
          "internalType": "address",
          "name": "to",
          "type": "address"
        },
        {
          "internalType": "uint256",
          "name": "amount",
          "type": "uint256"
        }
      ],
      "name": "transfer",
      "outputs": [
        {
          "internalType": "bool",
          "name": "",
          "type": "bool"
        }
      ],
      "stateMutability": "nonpayable",
      "type": "function"
    },
    {
      "inputs": [
        {
          "internalType": "address",
          "name": "from",
          "type": "address"
        },
        {
          "internalType": "address",
          "name": "to",
          "type": "address"
        },
        {
          "internalType": "uint256",
          "name": "amount",
          "type": "uint256"
        }
      ],
      "name": "transferFrom",
      "outputs": [
        {
          "internalType": "bool",
          "name": "",
          "type": "bool"
        }
      ],
      "stateMutability": "nonpayable",
      "type": "function"
    },
    {
      "inputs": [
        {
          "internalType": "address",
          "name": "newOwner",
          "type": "address"
        }
      ],
      "name": "transferOwnership",
      "outputs": [],
      "stateMutability": "nonpayable",
      "type": "function"
    },
    {
      "inputs": [
        {
          "internalType": "uint256",
          "name": "newClaimWait",
          "type": "uint256"
        }
      ],
      "name": "updateClaimWait",
      "outputs": [],
      "stateMutability": "nonpayable",
      "type": "function"
    },
    {
      "inputs": [],
      "name": "withdrawDividend",
      "outputs": [],
      "stateMutability": "pure",
      "type": "function"
    },
    {
      "inputs": [
        {
          "internalType": "address",
          "name": "_owner",
          "type": "address"
        }
      ],
      "name": "withdrawableDividendOf",
      "outputs": [
        {
          "internalType": "uint256",
          "name": "",
          "type": "uint256"
        }
      ],
      "stateMutability": "view",
      "type": "function"
    },
    {
      "inputs": [
        {
          "internalType": "address",
          "name": "_owner",
          "type": "address"
        }
      ],
      "name": "withdrawnDividendOf",
      "outputs": [
        {
          "internalType": "uint256",
          "name": "",
          "type": "uint256"
        }
      ],
      "stateMutability": "view",
      "type": "function"
    }
  ],
  "bytecode": "0x6080604052600680546001600160a01b031916732859e4544c4bb03966803b044a93563bd2d0dd4d1790553480156200003757600080fd5b50604080518082018252601481527f534849425f4469766964656e5f547261636b657200000000000000000000000060208083019182528351808501909452601584527f534849425f4469766964656e645f547261636b6572000000000000000000000090840152815191929183918391620000b69160039162000158565b508051620000cc90600490602084019062000158565b505050620000e9620000e36200010260201b60201c565b62000106565b5050603c60125567016345785d8a00006013556200023b565b3390565b600580546001600160a01b038381166001600160a01b0319831681179093556040519116919082907f8be0079c531659141344cd1fd0a4f28419497f9722a3daafe3b4186f6b6457e090600090a35050565b8280546200016690620001fe565b90600052602060002090601f0160209004810192826200018a5760008555620001d5565b82601f10620001a557805160ff1916838001178555620001d5565b82800160010185558215620001d5579182015b82811115620001d5578251825591602001919060010190620001b8565b50620001e3929150620001e7565b5090565b5b80821115620001e35760008155600101620001e8565b600181811c908216806200021357607f821691505b602082108114156200023557634e487b7160e01b600052602260045260246000fd5b50919050565b611a3b806200024b6000396000f3fe608060405234801561001057600080fd5b50600436106101fb5760003560e01c806385a6b3ae1161011a578063bc4c4b37116100ad578063e7841ec01161007c578063e7841ec01461044f578063e98030c714610457578063ec4be22d1461046a578063f2fde38b1461047d578063ffb2c4791461049057600080fd5b8063bc4c4b37146103e7578063be10b614146103fa578063dd62ed3e14610403578063e30443bc1461043c57600080fd5b8063a457c2d7116100e9578063a457c2d714610385578063a8b9d24014610398578063a9059cbb146103ab578063aafd847a146103be57600080fd5b806385a6b3ae146103465780638da5cb5b1461034f57806391b89fba1461036a57806395d89b411461037d57600080fd5b8063313ce567116101925780636a474002116101615780636a474002146103045780636f2789ec1461030c57806370a0823114610315578063715018a61461033e57600080fd5b8063313ce567146102aa57806331e79db0146102b957806339509351146102ce5780634e7b827f146102e157600080fd5b8063226cfa3d116101ce578063226cfa3d1461025b57806323b872dd1461027b57806327ce01471461028e5780633009a609146102a157600080fd5b806306fdde0314610200578063095ea7b31461021e57806309bbedde1461024157806318160ddd14610253575b600080fd5b6102086104be565b60405161021591906116be565b60405180910390f35b61023161022c36600461172f565b610550565b6040519015158152602001610215565b600b545b604051908152602001610215565b600254610245565b610245610269366004611759565b60116020526000908152604090205481565b610231610289366004611774565b61056a565b61024561029c366004611759565b61058e565b610245600f5481565b60405160128152602001610215565b6102cc6102c7366004611759565b6105ea565b005b6102316102dc36600461172f565b61071a565b6102316102ef366004611759565b60106020526000908152604090205460ff1681565b6102cc610759565b61024560125481565b610245610323366004611759565b6001600160a01b031660009081526020819052604090205490565b6102cc6107ef565b610245600a5481565b6005546040516001600160a01b039091168152602001610215565b610245610378366004611759565b610823565b61020861082e565b61023161039336600461172f565b61083d565b6102456103a6366004611759565b6108cf565b6102316103b936600461172f565b6108fb565b6102456103cc366004611759565b6001600160a01b031660009081526009602052604090205490565b6102316103f53660046117be565b610909565b61024560135481565b6102456104113660046117f5565b6001600160a01b03918216600090815260016020908152604080832093909416825291909152205490565b6102cc61044a36600461172f565b6109b7565b600f54610245565b6102cc610465366004611828565b610aff565b6102cc610478366004611828565b610c5b565b6102cc61048b366004611759565b610d12565b6104a361049e366004611828565b610dad565b60408051938452602084019290925290820152606001610215565b6060600380546104cd90611841565b80601f01602080910402602001604051908101604052809291908181526020018280546104f990611841565b80156105465780601f1061051b57610100808354040283529160200191610546565b820191906000526020600020905b81548152906001019060200180831161052957829003601f168201915b5050505050905090565b60003361055e818585610ec8565b60019150505b92915050565b600033610578858285610fec565b61058385858561107e565b506001949350505050565b6001600160a01b03811660009081526008602090815260408083205491839052822054600754600160801b926105e0926105db926105d5916105d091906110da565b6110ed565b906110fd565b61113b565b6105649190611892565b6005546001600160a01b0316331461061d5760405162461bcd60e51b8152600401610614906118b4565b60405180910390fd5b6001600160a01b03811660009081526010602052604090205460ff161561064357600080fd5b6001600160a01b0381166000908152601060205260408120805460ff1916600117905561067190829061114e565b60405163131836e760e21b8152600b60048201526001600160a01b038216602482015273__$ce39e7eba0e8c210ce522c13d692fbaca1$__90634c60db9c9060440160006040518083038186803b1580156106cb57600080fd5b505af41580156106df573d6000803e3d6000fd5b50506040516001600160a01b03841692507fa878b31040b2e6d0a9a3d3361209db3908ba62014b0dca52adbaee451d128b259150600090a250565b3360008181526001602090815260408083206001600160a01b038716845290915281205490919061055e90829086906107549087906118e9565b610ec8565b60405162461bcd60e51b815260206004820152605b60248201527f4469766964656e645f547261636b65723a20776974686472617744697669646560448201527f6e642064697361626c65642e20557365207468652027636c61696d272066756e60648201527f6374696f6e206f6e20746865206d61696e20636f6e74726163742e0000000000608482015260a401610614565b565b6005546001600160a01b031633146108195760405162461bcd60e51b8152600401610614906118b4565b6107ed60006111a7565b6000610564826108cf565b6060600480546104cd90611841565b3360008181526001602090815260408083206001600160a01b0387168452909152812054909190838110156108c25760405162461bcd60e51b815260206004820152602560248201527f45524332303a2064656372656173656420616c6c6f77616e63652062656c6f77604482015264207a65726f60d81b6064820152608401610614565b6105838286868403610ec8565b6001600160a01b038116600090815260096020526040812054610564906108f58461058e565b906111f9565b60003361055e81858561107e565b6005546000906001600160a01b031633146109365760405162461bcd60e51b8152600401610614906118b4565b600061094184611205565b905080156109ad576001600160a01b038416600081815260116020526040908190204290555184151591907fa2c38e2d2fb7e3e1912d937fd1ca11ed6d51864dee4cfa7a7bf02becd7acf0929061099b9085815260200190565b60405180910390a36001915050610564565b5060009392505050565b6005546001600160a01b031633146109e15760405162461bcd60e51b8152600401610614906118b4565b6001600160a01b03821660009081526010602052604090205460ff1615610a06575050565b6013548110610a9657610a19828261114e565b604051632f0ad01760e21b8152600b60048201526001600160a01b03831660248201526044810182905273__$ce39e7eba0e8c210ce522c13d692fbaca1$__9063bc2b405c9060640160006040518083038186803b158015610a7a57600080fd5b505af4158015610a8e573d6000803e3d6000fd5b505050505050565b610aa182600061114e565b60405163131836e760e21b8152600b60048201526001600160a01b038316602482015273__$ce39e7eba0e8c210ce522c13d692fbaca1$__90634c60db9c9060440160006040518083038186803b158015610a7a57600080fd5b5050565b6005546001600160a01b03163314610b295760405162461bcd60e51b8152600401610614906118b4565b62015180811115610bb05760405162461bcd60e51b815260206004820152604560248201527f4469766964656e645f547261636b65723a20636c61696d57616974206d75737460448201527f206265207570646174656420746f206265747765656e203020616e6420323420606482015264686f75727360d81b608482015260a401610614565b601254811415610c285760405162461bcd60e51b815260206004820152603760248201527f4469766964656e645f547261636b65723a2043616e6e6f74207570646174652060448201527f636c61696d5761697420746f2073616d652076616c75650000000000000000006064820152608401610614565b60125460405182907f474ea64804364a1e29a4487ddb63c3342a2dd826ccd8acf48825e680a0e6f20f90600090a3601255565b6005546001600160a01b03163314610c855760405162461bcd60e51b8152600401610614906118b4565b6000610c9060025490565b905080610c9b575060015b8115610afb57610cc681610cb384600160801b6110da565b610cbd9190611892565b60075490611379565b60075560405182815233907fa493a9229478c3fcd73f66d2cdeb7f94fd0f341da924d1054236d784541165119060200160405180910390a2600a54610d0b9083611379565b600a555050565b6005546001600160a01b03163314610d3c5760405162461bcd60e51b8152600401610614906118b4565b6001600160a01b038116610da15760405162461bcd60e51b815260206004820152602660248201527f4f776e61626c653a206e6577206f776e657220697320746865207a65726f206160448201526564647265737360d01b6064820152608401610614565b610daa816111a7565b50565b600b546000908190819080610dcd575050600f5460009250829150610ec1565b600f546000805a90506000805b8984108015610de857508582105b15610eb05784610df781611901565b600b5490965086109050610e0a57600094505b6000600b6000018681548110610e2257610e2261191c565b60009182526020808320909101546001600160a01b03168083526011909152604090912054909150610e5390611385565b15610e7657610e63816001610909565b15610e765781610e7281611901565b9250505b82610e8081611901565b93505060005a905080851115610ea757610ea4610e9d86836111f9565b8790611379565b95505b9350610dda9050565b600f85905590975095509193505050505b9193909250565b6001600160a01b038316610f2a5760405162461bcd60e51b8152602060048201526024808201527f45524332303a20617070726f76652066726f6d20746865207a65726f206164646044820152637265737360e01b6064820152608401610614565b6001600160a01b038216610f8b5760405162461bcd60e51b815260206004820152602260248201527f45524332303a20617070726f766520746f20746865207a65726f206164647265604482015261737360f01b6064820152608401610614565b6001600160a01b0383811660008181526001602090815260408083209487168084529482529182902085905590518481527f8c5be1e5ebec7d5bd14f71427d1e84f3dd0314c0f7b2291e5b200ac8c7c3b925910160405180910390a3505050565b6001600160a01b038381166000908152600160209081526040808320938616835292905220546000198114611078578181101561106b5760405162461bcd60e51b815260206004820152601d60248201527f45524332303a20696e73756666696369656e7420616c6c6f77616e63650000006044820152606401610614565b6110788484848403610ec8565b50505050565b60405162461bcd60e51b815260206004820152602660248201527f4469766964656e645f547261636b65723a204e6f207472616e736665727320616044820152651b1b1bddd95960d21b6064820152608401610614565b505050565b60006110e68284611932565b9392505050565b6000818181121561056457600080fd5b60008061110a8385611951565b90506000831215801561111d5750838112155b80611132575060008312801561113257508381125b6110e657600080fd5b60008082121561114a57600080fd5b5090565b6001600160a01b0382166000908152602081905260409020548082111561118757600061117b83836111f9565b905061107884826113ac565b808210156110d557600061119b82846111f9565b90506110788482611410565b600580546001600160a01b038381166001600160a01b0319831681179093556040519116919082907f8be0079c531659141344cd1fd0a4f28419497f9722a3daafe3b4186f6b6457e090600090a35050565b60006110e68284611992565b600080611211836108cf565b90508015611370576001600160a01b03831660009081526009602052604090205461123c9082611379565b6001600160a01b038416600081815260096020526040908190209290925590517fee503bee2bb6a87e57bc57db795f98137327401a0e7b7ce42e37926cc1a9ca4d9061128b9084815260200190565b60405180910390a260065460405163a9059cbb60e01b81526001600160a01b03858116600483015260248201849052600092169063a9059cbb90604401602060405180830381600087803b1580156112e257600080fd5b505af11580156112f6573d6000803e3d6000fd5b505050506040513d601f19601f8201168201806040525081019061131a91906119a9565b905080611369576001600160a01b03841660009081526009602052604090205461134490836111f9565b6001600160a01b03909416600090815260096020526040812094909455509192915050565b5092915050565b50600092915050565b60006110e682846118e9565b60004282111561139757506000919050565b6012546113a442846111f9565b101592915050565b6113b68282611454565b6113f06113d16105d0836007546110da90919063ffffffff16565b6001600160a01b03841660009081526008602052604090205490611533565b6001600160a01b0390921660009081526008602052604090209190915550565b61141a8282611570565b6113f06114356105d0836007546110da90919063ffffffff16565b6001600160a01b038416600090815260086020526040902054906110fd565b6001600160a01b0382166114aa5760405162461bcd60e51b815260206004820152601f60248201527f45524332303a206d696e7420746f20746865207a65726f2061646472657373006044820152606401610614565b80600260008282546114bc91906118e9565b90915550506001600160a01b038216600090815260208190526040812080548392906114e99084906118e9565b90915550506040518181526001600160a01b038316906000907fddf252ad1be2c89b69c2b068fc378daa952ba7f163c4a11628f55a4df523b3ef9060200160405180910390a35050565b60008061154083856119c6565b9050600083121580156115535750838113155b80611132575060008312801561113257508381136110e657600080fd5b6001600160a01b0382166115d05760405162461bcd60e51b815260206004820152602160248201527f45524332303a206275726e2066726f6d20746865207a65726f206164647265736044820152607360f81b6064820152608401610614565b6001600160a01b038216600090815260208190526040902054818110156116445760405162461bcd60e51b815260206004820152602260248201527f45524332303a206275726e20616d6f756e7420657863656564732062616c616e604482015261636560f01b6064820152608401610614565b6001600160a01b0383166000908152602081905260408120838303905560028054849290611673908490611992565b90915550506040518281526000906001600160a01b038516907fddf252ad1be2c89b69c2b068fc378daa952ba7f163c4a11628f55a4df523b3ef9060200160405180910390a3505050565b600060208083528351808285015260005b818110156116eb578581018301518582016040015282016116cf565b818111156116fd576000604083870101525b50601f01601f1916929092016040019392505050565b80356001600160a01b038116811461172a57600080fd5b919050565b6000806040838503121561174257600080fd5b61174b83611713565b946020939093013593505050565b60006020828403121561176b57600080fd5b6110e682611713565b60008060006060848603121561178957600080fd5b61179284611713565b92506117a060208501611713565b9150604084013590509250925092565b8015158114610daa57600080fd5b600080604083850312156117d157600080fd5b6117da83611713565b915060208301356117ea816117b0565b809150509250929050565b6000806040838503121561180857600080fd5b61181183611713565b915061181f60208401611713565b90509250929050565b60006020828403121561183a57600080fd5b5035919050565b600181811c9082168061185557607f821691505b6020821081141561187657634e487b7160e01b600052602260045260246000fd5b50919050565b634e487b7160e01b600052601160045260246000fd5b6000826118af57634e487b7160e01b600052601260045260246000fd5b500490565b6020808252818101527f4f776e61626c653a2063616c6c6572206973206e6f7420746865206f776e6572604082015260600190565b600082198211156118fc576118fc61187c565b500190565b60006000198214156119155761191561187c565b5060010190565b634e487b7160e01b600052603260045260246000fd5b600081600019048311821515161561194c5761194c61187c565b500290565b600080821280156001600160ff1b03849003851316156119735761197361187c565b600160ff1b839003841281161561198c5761198c61187c565b50500190565b6000828210156119a4576119a461187c565b500390565b6000602082840312156119bb57600080fd5b81516110e6816117b0565b60008083128015600160ff1b8501841216156119e4576119e461187c565b6001600160ff1b03840183138116156119ff576119ff61187c565b5050039056fea2646970667358221220a5c03e0da4a8f759420f1caa6693fef7a3f89a405448a7120d0e1a04476ca3aa64736f6c63430008090033",
  "linkReferences": {
    "contracts/IterableMapping.sol": {
      "IterableMapping": [
        {
          "length": 20,
          "start": 2273
        },
        {
          "length": 20,
          "start": 3216
        },
        {
          "length": 20,
          "start": 3345
        }
      ]
    }
  },
  "deployedLinkReferences": {
    "contracts/IterableMapping.sol": {
      "IterableMapping": [
        {
          "length": 20,
          "start": 1686
        },
        {
          "length": 20,
          "start": 2629
        },
        {
          "length": 20,
          "start": 2758
        }
      ]
    }
  }
}